{
  "_format": "hh-sol-artifact-1",
  "contractName": "Airdropper",
  "sourceName": "contracts/Airdropper.sol",
  "abi": [
    {
      "anonymous": false,
      "inputs": [
        {
          "indexed": true,
          "internalType": "address",
          "name": "addr",
          "type": "address"
        },
        {
          "indexed": false,
          "internalType": "uint256",
          "name": "roundId",
          "type": "uint256"
        },
        {
          "indexed": false,
          "internalType": "uint256",
          "name": "amount",
          "type": "uint256"
        }
      ],
      "name": "AddAirdrop",
      "type": "event"
    },
    {
      "anonymous": false,
      "inputs": [
        {
          "indexed": true,
          "internalType": "address",
          "name": "addr",
          "type": "address"
        },
        {
          "indexed": false,
          "internalType": "uint256",
          "name": "roundId",
          "type": "uint256"
        },
        {
          "indexed": false,
          "internalType": "uint256",
          "name": "amount",
          "type": "uint256"
        }
      ],
      "name": "AirdropClaimed",
      "type": "event"
    },
    {
      "anonymous": false,
      "inputs": [
        {
          "indexed": true,
          "internalType": "address",
          "name": "previousOwner",
          "type": "address"
        },
        {
          "indexed": true,
          "internalType": "address",
          "name": "newOwner",
          "type": "address"
        }
      ],
      "name": "OwnershipTransferred",
      "type": "event"
    },
    {
      "anonymous": false,
      "inputs": [
        {
          "indexed": true,
          "internalType": "uint256",
          "name": "roundId",
          "type": "uint256"
        },
        {
          "indexed": false,
          "internalType": "address",
          "name": "tokenAddress",
          "type": "address"
        },
        {
          "indexed": false,
          "internalType": "uint256",
          "name": "roundStartTime",
          "type": "uint256"
        },
        {
          "indexed": false,
          "internalType": "uint256",
          "name": "roundDeadline",
          "type": "uint256"
        }
      ],
      "name": "RoundCreated",
      "type": "event"
    },
    {
      "anonymous": false,
      "inputs": [
        {
          "indexed": true,
          "internalType": "uint256",
          "name": "roundId",
          "type": "uint256"
        },
        {
          "indexed": false,
          "internalType": "address",
          "name": "settleDestination",
          "type": "address"
        },
        {
          "indexed": false,
          "internalType": "uint256",
          "name": "unclaimAmount",
          "type": "uint256"
        }
      ],
      "name": "RoundSettled",
      "type": "event"
    },
    {
      "inputs": [
        {
          "internalType": "address",
          "name": "",
          "type": "address"
        },
        {
          "internalType": "uint256",
          "name": "",
          "type": "uint256"
        }
      ],
      "name": "airdropRecord",
      "outputs": [
        {
          "internalType": "uint256",
          "name": "",
          "type": "uint256"
        }
      ],
      "stateMutability": "view",
      "type": "function"
    },
    {
      "inputs": [
        {
          "internalType": "address[]",
          "name": "_addr",
          "type": "address[]"
        },
        {
          "internalType": "uint256[]",
          "name": "_roundId",
          "type": "uint256[]"
        },
        {
          "internalType": "uint256[]",
          "name": "_amount",
          "type": "uint256[]"
        }
      ],
      "name": "batchAirdrop",
      "outputs": [],
      "stateMutability": "nonpayable",
      "type": "function"
    },
    {
      "inputs": [
        {
          "internalType": "uint256[]",
          "name": "_roundIds",
          "type": "uint256[]"
        }
      ],
      "name": "batchClaimAirdrop",
      "outputs": [],
      "stateMutability": "nonpayable",
      "type": "function"
    },
    {
      "inputs": [
        {
          "internalType": "uint256",
          "name": "_roundId",
          "type": "uint256"
        }
      ],
      "name": "claimAirdrop",
      "outputs": [],
      "stateMutability": "nonpayable",
      "type": "function"
    },
    {
      "inputs": [
        {
          "internalType": "address",
          "name": "_tokenAddr",
          "type": "address"
        },
        {
          "internalType": "uint256",
          "name": "_roundStratTime",
          "type": "uint256"
        },
        {
          "internalType": "uint256",
          "name": "_roundDeadline",
          "type": "uint256"
        }
      ],
      "name": "createRound",
      "outputs": [
        {
          "internalType": "uint256",
          "name": "",
          "type": "uint256"
        }
      ],
      "stateMutability": "nonpayable",
      "type": "function"
    },
    {
      "inputs": [],
      "name": "nextRoundId",
      "outputs": [
        {
          "internalType": "uint256",
          "name": "",
          "type": "uint256"
        }
      ],
      "stateMutability": "view",
      "type": "function"
    },
    {
      "inputs": [],
      "name": "owner",
      "outputs": [
        {
          "internalType": "address",
          "name": "",
          "type": "address"
        }
      ],
      "stateMutability": "view",
      "type": "function"
    },
    {
      "inputs": [],
      "name": "renounceOwnership",
      "outputs": [],
      "stateMutability": "nonpayable",
      "type": "function"
    },
    {
      "inputs": [
        {
          "internalType": "uint256",
          "name": "",
          "type": "uint256"
        }
      ],
      "name": "roundRecord",
      "outputs": [
        {
          "internalType": "address",
          "name": "tokenAddress",
          "type": "address"
        },
        {
          "internalType": "uint256",
          "name": "roundStartTime",
          "type": "uint256"
        },
        {
          "internalType": "uint256",
          "name": "roundDeadline",
          "type": "uint256"
        },
        {
          "internalType": "uint256",
          "name": "unclaimedAmount",
          "type": "uint256"
        }
      ],
      "stateMutability": "view",
      "type": "function"
    },
    {
      "inputs": [
        {
          "internalType": "address",
          "name": "_settleDestination",
          "type": "address"
        }
      ],
      "name": "setSettleDestination",
      "outputs": [],
      "stateMutability": "nonpayable",
      "type": "function"
    },
    {
      "inputs": [],
      "name": "settleDestination",
      "outputs": [
        {
          "internalType": "address",
          "name": "",
          "type": "address"
        }
      ],
      "stateMutability": "view",
      "type": "function"
    },
    {
      "inputs": [
        {
          "internalType": "uint256",
          "name": "_roundId",
          "type": "uint256"
        }
      ],
      "name": "settleEndedRound",
      "outputs": [],
      "stateMutability": "nonpayable",
      "type": "function"
    },
    {
      "inputs": [
        {
          "internalType": "address",
          "name": "newOwner",
          "type": "address"
        }
      ],
      "name": "transferOwnership",
      "outputs": [],
      "stateMutability": "nonpayable",
      "type": "function"
    }
  ],
  "bytecode": "0x60806040523480156200001157600080fd5b5062000032620000266200003860201b60201c565b6200004060201b60201c565b62000104565b600033905090565b60008060009054906101000a900473ffffffffffffffffffffffffffffffffffffffff169050816000806101000a81548173ffffffffffffffffffffffffffffffffffffffff021916908373ffffffffffffffffffffffffffffffffffffffff1602179055508173ffffffffffffffffffffffffffffffffffffffff168173ffffffffffffffffffffffffffffffffffffffff167f8be0079c531659141344cd1fd0a4f28419497f9722a3daafe3b4186f6b6457e060405160405180910390a35050565b61255880620001146000396000f3fe608060405234801561001057600080fd5b50600436106100cf5760003560e01c806399e16edf1161008c578063b124028211610066578063b1240282146101ec578063e30d444014610208578063e580462114610224578063f2fde38b14610257576100cf565b806399e16edf14610184578063a5b5a65c146101a0578063a702eb1b146101bc576100cf565b80631aef652c146100d45780634002eda614610104578063646c1b9714610122578063715018a614610140578063776b97581461014a5780638da5cb5b14610166575b600080fd5b6100ee60048036038101906100e991906116fe565b610273565b6040516100fb919061174d565b60405180910390f35b61010c610298565b604051610119919061174d565b60405180910390f35b61012a61029e565b6040516101379190611777565b60405180910390f35b6101486102c4565b005b610164600480360381019061015f9190611792565b61034c565b005b61016e61061f565b60405161017b9190611777565b60405180910390f35b61019e6004803603810190610199919061187a565b610648565b005b6101ba60048036038101906101b5919061192e565b6107ab565b005b6101d660048036038101906101d1919061195b565b61086b565b6040516101e3919061174d565b60405180910390f35b610206600480360381019061020191906119ae565b610ad6565b005b610222600480360381019061021d9190611792565b610b1e565b005b61023e60048036038101906102399190611792565b610e59565b60405161024e94939291906119fb565b60405180910390f35b610271600480360381019061026c919061192e565b610ea9565b005b6001602052816000526040600020602052806000526040600020600091509150505481565b60035481565b600460009054906101000a900473ffffffffffffffffffffffffffffffffffffffff1681565b6102cc610fa0565b73ffffffffffffffffffffffffffffffffffffffff166102ea61061f565b73ffffffffffffffffffffffffffffffffffffffff1614610340576040517f08c379a000000000000000000000000000000000000000000000000000000000815260040161033790611a9d565b60405180910390fd5b61034a6000610fa8565b565b426002600083815260200190815260200160002060020154106103a4576040517f08c379a000000000000000000000000000000000000000000000000000000000815260040161039b90611b09565b60405180910390fd5b60006002600083815260200190815260200160002060030154905060008103610402576040517f08c379a00000000000000000000000000000000000000000000000000000000081526004016103f990611b75565b60405180910390fd5b60026000838152602001908152602001600020600301546002600084815260200190815260200160002060000160009054906101000a900473ffffffffffffffffffffffffffffffffffffffff1673ffffffffffffffffffffffffffffffffffffffff166370a08231306040518263ffffffff1660e01b81526004016104889190611777565b602060405180830381865afa1580156104a5573d6000803e3d6000fd5b505050506040513d601f19601f820116820180604052508101906104c99190611baa565b101561050a576040517f08c379a000000000000000000000000000000000000000000000000000000000815260040161050190611c23565b60405180910390fd5b6105a3600460009054906101000a900473ffffffffffffffffffffffffffffffffffffffff1660026000858152602001908152602001600020600301546002600086815260200190815260200160002060000160009054906101000a900473ffffffffffffffffffffffffffffffffffffffff1673ffffffffffffffffffffffffffffffffffffffff1661106c9092919063ffffffff16565b60006002600084815260200190815260200160002060030181905550817f08ca12049e5dbbd5a42cdbb40bf9868a221ee9edc045c6f0ab7a08ff59acfc44600460009054906101000a900473ffffffffffffffffffffffffffffffffffffffff1683604051610613929190611c43565b60405180910390a25050565b60008060009054906101000a900473ffffffffffffffffffffffffffffffffffffffff16905090565b610650610fa0565b73ffffffffffffffffffffffffffffffffffffffff1661066e61061f565b73ffffffffffffffffffffffffffffffffffffffff16146106c4576040517f08c379a00000000000000000000000000000000000000000000000000000000081526004016106bb90611a9d565b60405180910390fd5b83839050868690501480156106de57508181905086869050145b61071d576040517f08c379a000000000000000000000000000000000000000000000000000000000815260040161071490611cb8565b60405180910390fd5b60005b868690508110156107a25761078f87878381811061074157610740611cd8565b5b9050602002016020810190610756919061192e565b86868481811061076957610768611cd8565b5b9050602002013585858581811061078357610782611cd8565b5b905060200201356110f2565b808061079a90611d36565b915050610720565b50505050505050565b6107b3610fa0565b73ffffffffffffffffffffffffffffffffffffffff166107d161061f565b73ffffffffffffffffffffffffffffffffffffffff1614610827576040517f08c379a000000000000000000000000000000000000000000000000000000000815260040161081e90611a9d565b60405180910390fd5b80600460006101000a81548173ffffffffffffffffffffffffffffffffffffffff021916908373ffffffffffffffffffffffffffffffffffffffff16021790555050565b6000610875610fa0565b73ffffffffffffffffffffffffffffffffffffffff1661089361061f565b73ffffffffffffffffffffffffffffffffffffffff16146108e9576040517f08c379a00000000000000000000000000000000000000000000000000000000081526004016108e090611a9d565b60405180910390fd5b42831180156108f757508282115b610936576040517f08c379a000000000000000000000000000000000000000000000000000000000815260040161092d90611dca565b60405180910390fd5b600073ffffffffffffffffffffffffffffffffffffffff168473ffffffffffffffffffffffffffffffffffffffff16036109a5576040517f08c379a000000000000000000000000000000000000000000000000000000000815260040161099c90611e36565b60405180910390fd5b60405180608001604052808573ffffffffffffffffffffffffffffffffffffffff168152602001848152602001838152602001600081525060026000600354815260200190815260200160002060008201518160000160006101000a81548173ffffffffffffffffffffffffffffffffffffffff021916908373ffffffffffffffffffffffffffffffffffffffff160217905550602082015181600101556040820151816002015560608201518160030155905050600160036000828254610a6d9190611e56565b925050819055506001600354610a839190611eac565b7fd6dd0ade89eeb414b7e63b3b71fde3db88b04f032c3d5bce15271008598f64f9858585604051610ab693929190611ee0565b60405180910390a26001600354610acd9190611eac565b90509392505050565b60005b82829050811015610b1957610b06838383818110610afa57610af9611cd8565b5b90506020020135610b1e565b8080610b1190611d36565b915050610ad9565b505050565b426002600083815260200190815260200160002060020154118015610b585750426002600083815260200190815260200160002060010154105b610b97576040517f08c379a0000000000000000000000000000000000000000000000000000000008152600401610b8e90611f63565b60405180910390fd5b6000600160003373ffffffffffffffffffffffffffffffffffffffff1673ffffffffffffffffffffffffffffffffffffffff168152602001908152602001600020600083815260200190815260200160002054905060008103610c2f576040517f08c379a0000000000000000000000000000000000000000000000000000000008152600401610c2690611fcf565b60405180910390fd5b806002600084815260200190815260200160002060000160009054906101000a900473ffffffffffffffffffffffffffffffffffffffff1673ffffffffffffffffffffffffffffffffffffffff166370a08231306040518263ffffffff1660e01b8152600401610c9f9190611777565b602060405180830381865afa158015610cbc573d6000803e3d6000fd5b505050506040513d601f19601f82011682018060405250810190610ce09190611baa565b1015610d21576040517f08c379a0000000000000000000000000000000000000000000000000000000008152600401610d1890611c23565b60405180910390fd5b610d8233826002600086815260200190815260200160002060000160009054906101000a900473ffffffffffffffffffffffffffffffffffffffff1673ffffffffffffffffffffffffffffffffffffffff1661106c9092919063ffffffff16565b6000600160003373ffffffffffffffffffffffffffffffffffffffff1673ffffffffffffffffffffffffffffffffffffffff16815260200190815260200160002060008481526020019081526020016000208190555080600260008481526020019081526020016000206003016000828254610dfe9190611eac565b925050819055503373ffffffffffffffffffffffffffffffffffffffff167fd0755a9ef5a74f50d34b3503bb5b65ad71a112c001b76dfa6412c9aa4a1f43b08383604051610e4d929190611fef565b60405180910390a25050565b60026020528060005260406000206000915090508060000160009054906101000a900473ffffffffffffffffffffffffffffffffffffffff16908060010154908060020154908060030154905084565b610eb1610fa0565b73ffffffffffffffffffffffffffffffffffffffff16610ecf61061f565b73ffffffffffffffffffffffffffffffffffffffff1614610f25576040517f08c379a0000000000000000000000000000000000000000000000000000000008152600401610f1c90611a9d565b60405180910390fd5b600073ffffffffffffffffffffffffffffffffffffffff168173ffffffffffffffffffffffffffffffffffffffff1603610f94576040517f08c379a0000000000000000000000000000000000000000000000000000000008152600401610f8b9061208a565b60405180910390fd5b610f9d81610fa8565b50565b600033905090565b60008060009054906101000a900473ffffffffffffffffffffffffffffffffffffffff169050816000806101000a81548173ffffffffffffffffffffffffffffffffffffffff021916908373ffffffffffffffffffffffffffffffffffffffff1602179055508173ffffffffffffffffffffffffffffffffffffffff168173ffffffffffffffffffffffffffffffffffffffff167f8be0079c531659141344cd1fd0a4f28419497f9722a3daafe3b4186f6b6457e060405160405180910390a35050565b6110ed8363a9059cbb60e01b848460405160240161108b929190611c43565b604051602081830303815290604052907bffffffffffffffffffffffffffffffffffffffffffffffffffffffff19166020820180517bffffffffffffffffffffffffffffffffffffffffffffffffffffffff838183161783525050505061135a565b505050565b4260026000848152602001908152602001600020600101541161114a576040517f08c379a0000000000000000000000000000000000000000000000000000000008152600401611141906120f6565b60405180910390fd5b6000600160008573ffffffffffffffffffffffffffffffffffffffff1673ffffffffffffffffffffffffffffffffffffffff168152602001908152602001600020600084815260200190815260200160002054146111dd576040517f08c379a00000000000000000000000000000000000000000000000000000000081526004016111d490612162565b60405180910390fd5b60008111611220576040517f08c379a0000000000000000000000000000000000000000000000000000000008152600401611217906121ce565b60405180910390fd5b6112833330836002600087815260200190815260200160002060000160009054906101000a900473ffffffffffffffffffffffffffffffffffffffff1673ffffffffffffffffffffffffffffffffffffffff16611421909392919063ffffffff16565b80600160008573ffffffffffffffffffffffffffffffffffffffff1673ffffffffffffffffffffffffffffffffffffffff168152602001908152602001600020600084815260200190815260200160002081905550806002600084815260200190815260200160002060030160008282546112fe9190611e56565b925050819055508273ffffffffffffffffffffffffffffffffffffffff167fb644bbce63c80558ea1f08f2d1e6c53920c5d2a866b87f5827b61d6b3898bd1a838360405161134d929190611fef565b60405180910390a2505050565b60006113bc826040518060400160405280602081526020017f5361666545524332303a206c6f772d6c6576656c2063616c6c206661696c65648152508573ffffffffffffffffffffffffffffffffffffffff166114aa9092919063ffffffff16565b905060008151111561141c57808060200190518101906113dc9190612226565b61141b576040517f08c379a0000000000000000000000000000000000000000000000000000000008152600401611412906122c5565b60405180910390fd5b5b505050565b6114a4846323b872dd60e01b858585604051602401611442939291906122e5565b604051602081830303815290604052907bffffffffffffffffffffffffffffffffffffffffffffffffffffffff19166020820180517bffffffffffffffffffffffffffffffffffffffffffffffffffffffff838183161783525050505061135a565b50505050565b60606114b984846000856114c2565b90509392505050565b606082471015611507576040517f08c379a00000000000000000000000000000000000000000000000000000000081526004016114fe9061238e565b60405180910390fd5b611510856115d6565b61154f576040517f08c379a0000000000000000000000000000000000000000000000000000000008152600401611546906123fa565b60405180910390fd5b6000808673ffffffffffffffffffffffffffffffffffffffff1685876040516115789190612494565b60006040518083038185875af1925050503d80600081146115b5576040519150601f19603f3d011682016040523d82523d6000602084013e6115ba565b606091505b50915091506115ca8282866115f9565b92505050949350505050565b6000808273ffffffffffffffffffffffffffffffffffffffff163b119050919050565b6060831561160957829050611659565b60008351111561161c5782518084602001fd5b816040517f08c379a00000000000000000000000000000000000000000000000000000000081526004016116509190612500565b60405180910390fd5b9392505050565b600080fd5b600080fd5b600073ffffffffffffffffffffffffffffffffffffffff82169050919050565b60006116958261166a565b9050919050565b6116a58161168a565b81146116b057600080fd5b50565b6000813590506116c28161169c565b92915050565b6000819050919050565b6116db816116c8565b81146116e657600080fd5b50565b6000813590506116f8816116d2565b92915050565b6000806040838503121561171557611714611660565b5b6000611723858286016116b3565b9250506020611734858286016116e9565b9150509250929050565b611747816116c8565b82525050565b6000602082019050611762600083018461173e565b92915050565b6117718161168a565b82525050565b600060208201905061178c6000830184611768565b92915050565b6000602082840312156117a8576117a7611660565b5b60006117b6848285016116e9565b91505092915050565b600080fd5b600080fd5b600080fd5b60008083601f8401126117e4576117e36117bf565b5b8235905067ffffffffffffffff811115611801576118006117c4565b5b60208301915083602082028301111561181d5761181c6117c9565b5b9250929050565b60008083601f84011261183a576118396117bf565b5b8235905067ffffffffffffffff811115611857576118566117c4565b5b602083019150836020820283011115611873576118726117c9565b5b9250929050565b6000806000806000806060878903121561189757611896611660565b5b600087013567ffffffffffffffff8111156118b5576118b4611665565b5b6118c189828a016117ce565b9650965050602087013567ffffffffffffffff8111156118e4576118e3611665565b5b6118f089828a01611824565b9450945050604087013567ffffffffffffffff81111561191357611912611665565b5b61191f89828a01611824565b92509250509295509295509295565b60006020828403121561194457611943611660565b5b6000611952848285016116b3565b91505092915050565b60008060006060848603121561197457611973611660565b5b6000611982868287016116b3565b9350506020611993868287016116e9565b92505060406119a4868287016116e9565b9150509250925092565b600080602083850312156119c5576119c4611660565b5b600083013567ffffffffffffffff8111156119e3576119e2611665565b5b6119ef85828601611824565b92509250509250929050565b6000608082019050611a106000830187611768565b611a1d602083018661173e565b611a2a604083018561173e565b611a37606083018461173e565b95945050505050565b600082825260208201905092915050565b7f4f776e61626c653a2063616c6c6572206973206e6f7420746865206f776e6572600082015250565b6000611a87602083611a40565b9150611a9282611a51565b602082019050919050565b60006020820190508181036000830152611ab681611a7a565b9050919050565b7f696e7661696c6420726f756e6420746f20736574746c65000000000000000000600082015250565b6000611af3601783611a40565b9150611afe82611abd565b602082019050919050565b60006020820190508181036000830152611b2281611ae6565b9050919050565b7f6e6f6e6520746f6b656e206c6566740000000000000000000000000000000000600082015250565b6000611b5f600f83611a40565b9150611b6a82611b29565b602082019050919050565b60006020820190508181036000830152611b8e81611b52565b9050919050565b600081519050611ba4816116d2565b92915050565b600060208284031215611bc057611bbf611660565b5b6000611bce84828501611b95565b91505092915050565b7f41697264726f707065723a20696e73756666696369656e742061737365747300600082015250565b6000611c0d601f83611a40565b9150611c1882611bd7565b602082019050919050565b60006020820190508181036000830152611c3c81611c00565b9050919050565b6000604082019050611c586000830185611768565b611c65602083018461173e565b9392505050565b7f696e7661696c6420706172616d65746572730000000000000000000000000000600082015250565b6000611ca2601283611a40565b9150611cad82611c6c565b602082019050919050565b60006020820190508181036000830152611cd181611c95565b9050919050565b7f4e487b7100000000000000000000000000000000000000000000000000000000600052603260045260246000fd5b7f4e487b7100000000000000000000000000000000000000000000000000000000600052601160045260246000fd5b6000611d41826116c8565b91507fffffffffffffffffffffffffffffffffffffffffffffffffffffffffffffffff8203611d7357611d72611d07565b5b600182019050919050565b7f696e7661696c6420726f756e642074696d652073657400000000000000000000600082015250565b6000611db4601683611a40565b9150611dbf82611d7e565b602082019050919050565b60006020820190508181036000830152611de381611da7565b9050919050565b7f696e7661696c6420746f6b656e20616464726573730000000000000000000000600082015250565b6000611e20601583611a40565b9150611e2b82611dea565b602082019050919050565b60006020820190508181036000830152611e4f81611e13565b9050919050565b6000611e61826116c8565b9150611e6c836116c8565b9250827fffffffffffffffffffffffffffffffffffffffffffffffffffffffffffffffff03821115611ea157611ea0611d07565b5b828201905092915050565b6000611eb7826116c8565b9150611ec2836116c8565b925082821015611ed557611ed4611d07565b5b828203905092915050565b6000606082019050611ef56000830186611768565b611f02602083018561173e565b611f0f604083018461173e565b949350505050565b7f696e7661696c6420726f756e6420746f20636c61696d00000000000000000000600082015250565b6000611f4d601683611a40565b9150611f5882611f17565b602082019050919050565b60006020820190508181036000830152611f7c81611f40565b9050919050565b7f6e6f7468696e6720636c61696d00000000000000000000000000000000000000600082015250565b6000611fb9600d83611a40565b9150611fc482611f83565b602082019050919050565b60006020820190508181036000830152611fe881611fac565b9050919050565b6000604082019050612004600083018561173e565b612011602083018461173e565b9392505050565b7f4f776e61626c653a206e6577206f776e657220697320746865207a65726f206160008201527f6464726573730000000000000000000000000000000000000000000000000000602082015250565b6000612074602683611a40565b915061207f82612018565b604082019050919050565b600060208201905081810360008301526120a381612067565b9050919050565b7f696e7661696c6420726f756e6420746f2061697264726f700000000000000000600082015250565b60006120e0601883611a40565b91506120eb826120aa565b602082019050919050565b6000602082019050818103600083015261210f816120d3565b9050919050565b7f6475706c69636174652061697264726f70000000000000000000000000000000600082015250565b600061214c601183611a40565b915061215782612116565b602082019050919050565b6000602082019050818103600083015261217b8161213f565b9050919050565b7f696e7661696c642061697264726f7020616d6f756e7400000000000000000000600082015250565b60006121b8601683611a40565b91506121c382612182565b602082019050919050565b600060208201905081810360008301526121e7816121ab565b9050919050565b60008115159050919050565b612203816121ee565b811461220e57600080fd5b50565b600081519050612220816121fa565b92915050565b60006020828403121561223c5761223b611660565b5b600061224a84828501612211565b91505092915050565b7f5361666545524332303a204552433230206f7065726174696f6e20646964206e60008201527f6f74207375636365656400000000000000000000000000000000000000000000602082015250565b60006122af602a83611a40565b91506122ba82612253565b604082019050919050565b600060208201905081810360008301526122de816122a2565b9050919050565b60006060820190506122fa6000830186611768565b6123076020830185611768565b612314604083018461173e565b949350505050565b7f416464726573733a20696e73756666696369656e742062616c616e636520666f60008201527f722063616c6c0000000000000000000000000000000000000000000000000000602082015250565b6000612378602683611a40565b91506123838261231c565b604082019050919050565b600060208201905081810360008301526123a78161236b565b9050919050565b7f416464726573733a2063616c6c20746f206e6f6e2d636f6e7472616374000000600082015250565b60006123e4601d83611a40565b91506123ef826123ae565b602082019050919050565b60006020820190508181036000830152612413816123d7565b9050919050565b600081519050919050565b600081905092915050565b60005b8381101561244e578082015181840152602081019050612433565b8381111561245d576000848401525b50505050565b600061246e8261241a565b6124788185612425565b9350612488818560208601612430565b80840191505092915050565b60006124a08284612463565b915081905092915050565b600081519050919050565b6000601f19601f8301169050919050565b60006124d2826124ab565b6124dc8185611a40565b93506124ec818560208601612430565b6124f5816124b6565b840191505092915050565b6000602082019050818103600083015261251a81846124c7565b90509291505056fea2646970667358221220bffbbad868aabd75df98d61edf927073753bc614766a27eaf9530af790dc319664736f6c634300080f0033",
  "linkReferences": {},
  "deployedLinkReferences": {}
}