{
  "_format": "hh-sol-artifact-1",
  "contractName": "PermissionedExchange",
  "sourceName": "contracts/PermissionedExchange.sol",
  "abi": [
    {
      "anonymous": false,
      "inputs": [
        {
          "indexed": true,
          "internalType": "uint256",
          "name": "orderId",
          "type": "uint256"
        },
        {
          "indexed": false,
          "internalType": "address",
          "name": "sender",
          "type": "address"
        },
        {
          "indexed": false,
          "internalType": "address",
          "name": "tokenGive",
          "type": "address"
        },
        {
          "indexed": false,
          "internalType": "address",
          "name": "tokenGet",
          "type": "address"
        },
        {
          "indexed": false,
          "internalType": "uint256",
          "name": "amountGive",
          "type": "uint256"
        },
        {
          "indexed": false,
          "internalType": "uint256",
          "name": "amountGet",
          "type": "uint256"
        },
        {
          "indexed": false,
          "internalType": "uint256",
          "name": "expireDate",
          "type": "uint256"
        }
      ],
      "name": "ExchangeOrderSent",
      "type": "event"
    },
    {
      "anonymous": false,
      "inputs": [
        {
          "indexed": true,
          "internalType": "uint256",
          "name": "orderId",
          "type": "uint256"
        },
        {
          "indexed": false,
          "internalType": "address",
          "name": "tokenGive",
          "type": "address"
        },
        {
          "indexed": false,
          "internalType": "uint256",
          "name": "amountGive",
          "type": "uint256"
        },
        {
          "indexed": false,
          "internalType": "address",
          "name": "tokenGet",
          "type": "address"
        },
        {
          "indexed": false,
          "internalType": "uint256",
          "name": "amountGet",
          "type": "uint256"
        }
      ],
      "name": "OrderSettled",
      "type": "event"
    },
    {
      "anonymous": false,
      "inputs": [
        {
          "indexed": true,
          "internalType": "address",
          "name": "previousOwner",
          "type": "address"
        },
        {
          "indexed": true,
          "internalType": "address",
          "name": "newOwner",
          "type": "address"
        }
      ],
      "name": "OwnershipTransferred",
      "type": "event"
    },
    {
      "anonymous": false,
      "inputs": [
        {
          "indexed": true,
          "internalType": "uint256",
          "name": "orderId",
          "type": "uint256"
        },
        {
          "indexed": false,
          "internalType": "address",
          "name": "tokenGive",
          "type": "address"
        },
        {
          "indexed": false,
          "internalType": "uint256",
          "name": "amountGive",
          "type": "uint256"
        },
        {
          "indexed": false,
          "internalType": "address",
          "name": "tokenGet",
          "type": "address"
        },
        {
          "indexed": false,
          "internalType": "uint256",
          "name": "amountGet",
          "type": "uint256"
        }
      ],
      "name": "Trade",
      "type": "event"
    },
    {
      "inputs": [
        {
          "internalType": "address",
          "name": "_token",
          "type": "address"
        },
        {
          "internalType": "address",
          "name": "_account",
          "type": "address"
        },
        {
          "internalType": "uint256",
          "name": "_amount",
          "type": "uint256"
        }
      ],
      "name": "addQuota",
      "outputs": [],
      "stateMutability": "nonpayable",
      "type": "function"
    },
    {
      "inputs": [
        {
          "internalType": "uint256",
          "name": "_orderId",
          "type": "uint256"
        }
      ],
      "name": "cancelOrder",
      "outputs": [],
      "stateMutability": "nonpayable",
      "type": "function"
    },
    {
      "inputs": [
        {
          "internalType": "address",
          "name": "",
          "type": "address"
        }
      ],
      "name": "exchangeController",
      "outputs": [
        {
          "internalType": "bool",
          "name": "",
          "type": "bool"
        }
      ],
      "stateMutability": "view",
      "type": "function"
    },
    {
      "inputs": [
        {
          "internalType": "contract ISettings",
          "name": "_settings",
          "type": "address"
        },
        {
          "internalType": "address[]",
          "name": "_controllers",
          "type": "address[]"
        }
      ],
      "name": "initialize",
      "outputs": [],
      "stateMutability": "nonpayable",
      "type": "function"
    },
    {
      "inputs": [],
      "name": "nextOrderId",
      "outputs": [
        {
          "internalType": "uint256",
          "name": "",
          "type": "uint256"
        }
      ],
      "stateMutability": "view",
      "type": "function"
    },
    {
      "inputs": [
        {
          "internalType": "uint256",
          "name": "",
          "type": "uint256"
        }
      ],
      "name": "orders",
      "outputs": [
        {
          "internalType": "address",
          "name": "tokenGive",
          "type": "address"
        },
        {
          "internalType": "address",
          "name": "tokenGet",
          "type": "address"
        },
        {
          "internalType": "uint256",
          "name": "amountGive",
          "type": "uint256"
        },
        {
          "internalType": "uint256",
          "name": "amountGet",
          "type": "uint256"
        },
        {
          "internalType": "address",
          "name": "sender",
          "type": "address"
        },
        {
          "internalType": "uint256",
          "name": "expireDate",
          "type": "uint256"
        },
        {
          "internalType": "uint256",
          "name": "amountGiveLeft",
          "type": "uint256"
        }
      ],
      "stateMutability": "view",
      "type": "function"
    },
    {
      "inputs": [],
      "name": "owner",
      "outputs": [
        {
          "internalType": "address",
          "name": "",
          "type": "address"
        }
      ],
      "stateMutability": "view",
      "type": "function"
    },
    {
      "inputs": [],
      "name": "renounceOwnership",
      "outputs": [],
      "stateMutability": "nonpayable",
      "type": "function"
    },
    {
      "inputs": [
        {
          "internalType": "address",
          "name": "_tokenGive",
          "type": "address"
        },
        {
          "internalType": "address",
          "name": "_tokenGet",
          "type": "address"
        },
        {
          "internalType": "uint256",
          "name": "_amountGive",
          "type": "uint256"
        },
        {
          "internalType": "uint256",
          "name": "_amountGet",
          "type": "uint256"
        },
        {
          "internalType": "uint256",
          "name": "_expireDate",
          "type": "uint256"
        }
      ],
      "name": "sendOrder",
      "outputs": [],
      "stateMutability": "nonpayable",
      "type": "function"
    },
    {
      "inputs": [
        {
          "internalType": "address",
          "name": "_controller",
          "type": "address"
        },
        {
          "internalType": "bool",
          "name": "_isController",
          "type": "bool"
        }
      ],
      "name": "setController",
      "outputs": [],
      "stateMutability": "nonpayable",
      "type": "function"
    },
    {
      "inputs": [],
      "name": "settings",
      "outputs": [
        {
          "internalType": "contract ISettings",
          "name": "",
          "type": "address"
        }
      ],
      "stateMutability": "view",
      "type": "function"
    },
    {
      "inputs": [
        {
          "internalType": "uint256",
          "name": "_orderId",
          "type": "uint256"
        }
      ],
      "name": "settleExpiredOrder",
      "outputs": [],
      "stateMutability": "nonpayable",
      "type": "function"
    },
    {
      "inputs": [
        {
          "internalType": "uint256",
          "name": "_orderId",
          "type": "uint256"
        },
        {
          "internalType": "uint256",
          "name": "_amount",
          "type": "uint256"
        }
      ],
      "name": "trade",
      "outputs": [],
      "stateMutability": "nonpayable",
      "type": "function"
    },
    {
      "inputs": [
        {
          "internalType": "address",
          "name": "",
          "type": "address"
        },
        {
          "internalType": "address",
          "name": "",
          "type": "address"
        }
      ],
      "name": "tradeQuota",
      "outputs": [
        {
          "internalType": "uint256",
          "name": "",
          "type": "uint256"
        }
      ],
      "stateMutability": "view",
      "type": "function"
    },
    {
      "inputs": [
        {
          "internalType": "address",
          "name": "newOwner",
          "type": "address"
        }
      ],
      "name": "transferOwnership",
      "outputs": [],
      "stateMutability": "nonpayable",
      "type": "function"
    }
  ],
  "bytecode": "0x608060405234801561001057600080fd5b50613086806100206000396000f3fe608060405234801561001057600080fd5b50600436106100f55760003560e01c80638028136a11610097578063e06174e411610066578063e06174e414610262578063e0dba60f14610280578063e20be69a1461029c578063f2fde38b146102b8576100f5565b80638028136a146101d65780638da5cb5b146101f2578063946d920414610210578063a85c38ef1461022c576100f5565b80632a58b330116100d35780632a58b33014610162578063514fcac714610180578063573f4fac1461019c578063715018a6146101cc576100f5565b80630b217643146100fa5780631ad31c321461011657806325a1c4fc14610132575b600080fd5b610114600480360381019061010f9190611ecb565b6102d4565b005b610130600480360381019061012b9190611f56565b61062a565b005b61014c60048036038101906101479190611fa9565b610755565b6040516101599190611ff8565b60405180910390f35b61016a61077a565b6040516101779190611ff8565b60405180910390f35b61019a60048036038101906101959190611ecb565b610780565b005b6101b660048036038101906101b19190612013565b610b02565b6040516101c3919061205b565b60405180910390f35b6101d4610b22565b005b6101f060048036038101906101eb9190612076565b610baa565b005b6101fa610ed3565b6040516102079190612100565b60405180910390f35b61022a600480360381019061022591906121be565b610efd565b005b61024660048036038101906102419190611ecb565b6110ce565b604051610259979695949392919061221e565b60405180910390f35b61026a611170565b60405161027791906122ec565b60405180910390f35b61029a60048036038101906102959190612333565b611196565b005b6102b660048036038101906102b19190612373565b61126d565b005b6102d260048036038101906102cd9190612013565b61184c565b005b6000606960008381526020019081526020016000206040518060e00160405290816000820160009054906101000a900473ffffffffffffffffffffffffffffffffffffffff1673ffffffffffffffffffffffffffffffffffffffff1673ffffffffffffffffffffffffffffffffffffffff1681526020016001820160009054906101000a900473ffffffffffffffffffffffffffffffffffffffff1673ffffffffffffffffffffffffffffffffffffffff1673ffffffffffffffffffffffffffffffffffffffff16815260200160028201548152602001600382015481526020016004820160009054906101000a900473ffffffffffffffffffffffffffffffffffffffff1673ffffffffffffffffffffffffffffffffffffffff1673ffffffffffffffffffffffffffffffffffffffff16815260200160058201548152602001600682015481525050905060008160a0015103610467576040517f08c379a000000000000000000000000000000000000000000000000000000000815260040161045e90612410565b60405180910390fd5b428160a00151106104ad576040517f08c379a00000000000000000000000000000000000000000000000000000000081526004016104a49061247c565b60405180910390fd5b60008160c00151146104f1576104f081608001518260c00151836000015173ffffffffffffffffffffffffffffffffffffffff166119439092919063ffffffff16565b5b817f2b138817dd4425ac819009a689da85237b30f99cbe0f2b159e06b6d1feefdf6b82600001518360c00151846040015161052c91906124cb565b846020015185604001518660c00151876060015161054a91906124ff565b6105549190612588565b866060015161056391906124cb565b60405161057394939291906125b9565b60405180910390a260696000838152602001908152602001600020600080820160006101000a81549073ffffffffffffffffffffffffffffffffffffffff02191690556001820160006101000a81549073ffffffffffffffffffffffffffffffffffffffff0219169055600282016000905560038201600090556004820160006101000a81549073ffffffffffffffffffffffffffffffffffffffff02191690556005820160009055600682016000905550505050565b60011515606860003373ffffffffffffffffffffffffffffffffffffffff1673ffffffffffffffffffffffffffffffffffffffff16815260200190815260200160002060009054906101000a900460ff161515146106bd576040517f08c379a00000000000000000000000000000000000000000000000000000000081526004016106b49061264a565b60405180910390fd5b80606760008573ffffffffffffffffffffffffffffffffffffffff1673ffffffffffffffffffffffffffffffffffffffff16815260200190815260200160002060008473ffffffffffffffffffffffffffffffffffffffff1673ffffffffffffffffffffffffffffffffffffffff1681526020019081526020016000206000828254610749919061266a565b92505081905550505050565b6067602052816000526040600020602052806000526040600020600091509150505481565b60665481565b6000606960008381526020019081526020016000206040518060e00160405290816000820160009054906101000a900473ffffffffffffffffffffffffffffffffffffffff1673ffffffffffffffffffffffffffffffffffffffff1673ffffffffffffffffffffffffffffffffffffffff1681526020016001820160009054906101000a900473ffffffffffffffffffffffffffffffffffffffff1673ffffffffffffffffffffffffffffffffffffffff1673ffffffffffffffffffffffffffffffffffffffff16815260200160028201548152602001600382015481526020016004820160009054906101000a900473ffffffffffffffffffffffffffffffffffffffff1673ffffffffffffffffffffffffffffffffffffffff1673ffffffffffffffffffffffffffffffffffffffff16815260200160058201548152602001600682015481525050905060008160a0015103610913576040517f08c379a000000000000000000000000000000000000000000000000000000000815260040161090a90612410565b60405180910390fd5b806080015173ffffffffffffffffffffffffffffffffffffffff163373ffffffffffffffffffffffffffffffffffffffff1614610985576040517f08c379a000000000000000000000000000000000000000000000000000000000815260040161097c9061270c565b60405180910390fd5b60008160c00151146109c9576109c881608001518260c00151836000015173ffffffffffffffffffffffffffffffffffffffff166119439092919063ffffffff16565b5b817f2b138817dd4425ac819009a689da85237b30f99cbe0f2b159e06b6d1feefdf6b82600001518360c001518460400151610a0491906124cb565b846020015185604001518660c001518760600151610a2291906124ff565b610a2c9190612588565b8660600151610a3b91906124cb565b604051610a4b94939291906125b9565b60405180910390a260696000838152602001908152602001600020600080820160006101000a81549073ffffffffffffffffffffffffffffffffffffffff02191690556001820160006101000a81549073ffffffffffffffffffffffffffffffffffffffff0219169055600282016000905560038201600090556004820160006101000a81549073ffffffffffffffffffffffffffffffffffffffff02191690556005820160009055600682016000905550505050565b60686020528060005260406000206000915054906101000a900460ff1681565b610b2a6119c9565b73ffffffffffffffffffffffffffffffffffffffff16610b48610ed3565b73ffffffffffffffffffffffffffffffffffffffff1614610b9e576040517f08c379a0000000000000000000000000000000000000000000000000000000008152600401610b9590612778565b60405180910390fd5b610ba860006119d1565b565b610bb26119c9565b73ffffffffffffffffffffffffffffffffffffffff16610bd0610ed3565b73ffffffffffffffffffffffffffffffffffffffff1614610c26576040517f08c379a0000000000000000000000000000000000000000000000000000000008152600401610c1d90612778565b60405180910390fd5b428111610c68576040517f08c379a0000000000000000000000000000000000000000000000000000000008152600401610c5f906127e4565b60405180910390fd5b600083118015610c785750600082115b610cb7576040517f08c379a0000000000000000000000000000000000000000000000000000000008152600401610cae90612850565b60405180910390fd5b610ce43330858873ffffffffffffffffffffffffffffffffffffffff16611a97909392919063ffffffff16565b6040518060e001604052808673ffffffffffffffffffffffffffffffffffffffff1681526020018573ffffffffffffffffffffffffffffffffffffffff1681526020018481526020018381526020013373ffffffffffffffffffffffffffffffffffffffff1681526020018281526020018481525060696000606654815260200190815260200160002060008201518160000160006101000a81548173ffffffffffffffffffffffffffffffffffffffff021916908373ffffffffffffffffffffffffffffffffffffffff16021790555060208201518160010160006101000a81548173ffffffffffffffffffffffffffffffffffffffff021916908373ffffffffffffffffffffffffffffffffffffffff160217905550604082015181600201556060820151816003015560808201518160040160006101000a81548173ffffffffffffffffffffffffffffffffffffffff021916908373ffffffffffffffffffffffffffffffffffffffff16021790555060a0820151816005015560c082015181600601559050506066547f291fe7b7effb8442ef421f6392e3caf152b74849a1e3fa333704f74f0fc474b8338787878787604051610eaa96959493929190612870565b60405180910390a2600160666000828254610ec5919061266a565b925050819055505050505050565b6000603360009054906101000a900473ffffffffffffffffffffffffffffffffffffffff16905090565b600060019054906101000a900460ff16610f255760008054906101000a900460ff1615610f2e565b610f2d611b20565b5b610f6d576040517f08c379a0000000000000000000000000000000000000000000000000000000008152600401610f6490612943565b60405180910390fd5b60008060019054906101000a900460ff161590508015610fbd576001600060016101000a81548160ff02191690831515021790555060016000806101000a81548160ff0219169083151502179055505b610fc5611b31565b83606560006101000a81548173ffffffffffffffffffffffffffffffffffffffff021916908373ffffffffffffffffffffffffffffffffffffffff16021790555060005b838390508110156110a65760016068600086868581811061102d5761102c612963565b5b90506020020160208101906110429190612013565b73ffffffffffffffffffffffffffffffffffffffff1673ffffffffffffffffffffffffffffffffffffffff16815260200190815260200160002060006101000a81548160ff021916908315150217905550808061109e90612992565b915050611009565b5080156110c85760008060016101000a81548160ff0219169083151502179055505b50505050565b60696020528060005260406000206000915090508060000160009054906101000a900473ffffffffffffffffffffffffffffffffffffffff16908060010160009054906101000a900473ffffffffffffffffffffffffffffffffffffffff16908060020154908060030154908060040160009054906101000a900473ffffffffffffffffffffffffffffffffffffffff16908060050154908060060154905087565b606560009054906101000a900473ffffffffffffffffffffffffffffffffffffffff1681565b61119e6119c9565b73ffffffffffffffffffffffffffffffffffffffff166111bc610ed3565b73ffffffffffffffffffffffffffffffffffffffff1614611212576040517f08c379a000000000000000000000000000000000000000000000000000000000815260040161120990612778565b60405180910390fd5b80606860008473ffffffffffffffffffffffffffffffffffffffff1673ffffffffffffffffffffffffffffffffffffffff16815260200190815260200160002060006101000a81548160ff0219169083151502179055505050565b6000606960008481526020019081526020016000209050606560009054906101000a900473ffffffffffffffffffffffffffffffffffffffff1673ffffffffffffffffffffffffffffffffffffffff1663afc1aaca6040518163ffffffff1660e01b8152600401602060405180830381865afa1580156112f1573d6000803e3d6000fd5b505050506040513d601f19601f8201168201806040525081019061131591906129ef565b73ffffffffffffffffffffffffffffffffffffffff168160010160009054906101000a900473ffffffffffffffffffffffffffffffffffffffff1673ffffffffffffffffffffffffffffffffffffffff160361144f5781606760008360010160009054906101000a900473ffffffffffffffffffffffffffffffffffffffff1673ffffffffffffffffffffffffffffffffffffffff1673ffffffffffffffffffffffffffffffffffffffff16815260200190815260200160002060003373ffffffffffffffffffffffffffffffffffffffff1673ffffffffffffffffffffffffffffffffffffffff16815260200190815260200160002054101561144e576040517f08c379a000000000000000000000000000000000000000000000000000000000815260040161144590612a68565b60405180910390fd5b5b42816005015411611495576040517f08c379a000000000000000000000000000000000000000000000000000000000815260040161148c90612ad4565b60405180910390fd5b600081600301548383600201546114ac91906124ff565b6114b69190612588565b9050600081116114fb576040517f08c379a00000000000000000000000000000000000000000000000000000000081526004016114f290612b40565b60405180910390fd5b8160060154811115611542576040517f08c379a000000000000000000000000000000000000000000000000000000000815260040161153990612bd2565b60405180910390fd5b8082600601600082825461155691906124cb565b92505081905550606560009054906101000a900473ffffffffffffffffffffffffffffffffffffffff1673ffffffffffffffffffffffffffffffffffffffff1663afc1aaca6040518163ffffffff1660e01b8152600401602060405180830381865afa1580156115ca573d6000803e3d6000fd5b505050506040513d601f19601f820116820180604052508101906115ee91906129ef565b73ffffffffffffffffffffffffffffffffffffffff168260010160009054906101000a900473ffffffffffffffffffffffffffffffffffffffff1673ffffffffffffffffffffffffffffffffffffffff16036116fc5782606760008460010160009054906101000a900473ffffffffffffffffffffffffffffffffffffffff1673ffffffffffffffffffffffffffffffffffffffff1673ffffffffffffffffffffffffffffffffffffffff16815260200190815260200160002060003373ffffffffffffffffffffffffffffffffffffffff1673ffffffffffffffffffffffffffffffffffffffff16815260200190815260200160002060008282546116f491906124cb565b925050819055505b611771338360040160009054906101000a900473ffffffffffffffffffffffffffffffffffffffff16858560010160009054906101000a900473ffffffffffffffffffffffffffffffffffffffff1673ffffffffffffffffffffffffffffffffffffffff16611a97909392919063ffffffff16565b6117c033828460000160009054906101000a900473ffffffffffffffffffffffffffffffffffffffff1673ffffffffffffffffffffffffffffffffffffffff166119439092919063ffffffff16565b837f4465a1ea13ec5b120dfbf8b07f5daf0d4b8b46ec105693522630237f721a085b8360010160009054906101000a900473ffffffffffffffffffffffffffffffffffffffff16858560000160009054906101000a900473ffffffffffffffffffffffffffffffffffffffff168560405161183e94939291906125b9565b60405180910390a250505050565b6118546119c9565b73ffffffffffffffffffffffffffffffffffffffff16611872610ed3565b73ffffffffffffffffffffffffffffffffffffffff16146118c8576040517f08c379a00000000000000000000000000000000000000000000000000000000081526004016118bf90612778565b60405180910390fd5b600073ffffffffffffffffffffffffffffffffffffffff168173ffffffffffffffffffffffffffffffffffffffff1603611937576040517f08c379a000000000000000000000000000000000000000000000000000000000815260040161192e90612c64565b60405180910390fd5b611940816119d1565b50565b6119c48363a9059cbb60e01b8484604051602401611962929190612c84565b604051602081830303815290604052907bffffffffffffffffffffffffffffffffffffffffffffffffffffffff19166020820180517bffffffffffffffffffffffffffffffffffffffffffffffffffffffff8381831617835250505050611b8a565b505050565b600033905090565b6000603360009054906101000a900473ffffffffffffffffffffffffffffffffffffffff16905081603360006101000a81548173ffffffffffffffffffffffffffffffffffffffff021916908373ffffffffffffffffffffffffffffffffffffffff1602179055508173ffffffffffffffffffffffffffffffffffffffff168173ffffffffffffffffffffffffffffffffffffffff167f8be0079c531659141344cd1fd0a4f28419497f9722a3daafe3b4186f6b6457e060405160405180910390a35050565b611b1a846323b872dd60e01b858585604051602401611ab893929190612cad565b604051602081830303815290604052907bffffffffffffffffffffffffffffffffffffffffffffffffffffffff19166020820180517bffffffffffffffffffffffffffffffffffffffffffffffffffffffff8381831617835250505050611b8a565b50505050565b6000611b2b30611c51565b15905090565b600060019054906101000a900460ff16611b80576040517f08c379a0000000000000000000000000000000000000000000000000000000008152600401611b7790612d56565b60405180910390fd5b611b88611c74565b565b6000611bec826040518060400160405280602081526020017f5361666545524332303a206c6f772d6c6576656c2063616c6c206661696c65648152508573ffffffffffffffffffffffffffffffffffffffff16611cd59092919063ffffffff16565b9050600081511115611c4c5780806020019051810190611c0c9190612d8b565b611c4b576040517f08c379a0000000000000000000000000000000000000000000000000000000008152600401611c4290612e2a565b60405180910390fd5b5b505050565b6000808273ffffffffffffffffffffffffffffffffffffffff163b119050919050565b600060019054906101000a900460ff16611cc3576040517f08c379a0000000000000000000000000000000000000000000000000000000008152600401611cba90612d56565b60405180910390fd5b611cd3611cce6119c9565b6119d1565b565b6060611ce48484600085611ced565b90509392505050565b606082471015611d32576040517f08c379a0000000000000000000000000000000000000000000000000000000008152600401611d2990612ebc565b60405180910390fd5b611d3b85611e01565b611d7a576040517f08c379a0000000000000000000000000000000000000000000000000000000008152600401611d7190612f28565b60405180910390fd5b6000808673ffffffffffffffffffffffffffffffffffffffff168587604051611da39190612fc2565b60006040518083038185875af1925050503d8060008114611de0576040519150601f19603f3d011682016040523d82523d6000602084013e611de5565b606091505b5091509150611df5828286611e24565b92505050949350505050565b6000808273ffffffffffffffffffffffffffffffffffffffff163b119050919050565b60608315611e3457829050611e84565b600083511115611e475782518084602001fd5b816040517f08c379a0000000000000000000000000000000000000000000000000000000008152600401611e7b919061302e565b60405180910390fd5b9392505050565b600080fd5b600080fd5b6000819050919050565b611ea881611e95565b8114611eb357600080fd5b50565b600081359050611ec581611e9f565b92915050565b600060208284031215611ee157611ee0611e8b565b5b6000611eef84828501611eb6565b91505092915050565b600073ffffffffffffffffffffffffffffffffffffffff82169050919050565b6000611f2382611ef8565b9050919050565b611f3381611f18565b8114611f3e57600080fd5b50565b600081359050611f5081611f2a565b92915050565b600080600060608486031215611f6f57611f6e611e8b565b5b6000611f7d86828701611f41565b9350506020611f8e86828701611f41565b9250506040611f9f86828701611eb6565b9150509250925092565b60008060408385031215611fc057611fbf611e8b565b5b6000611fce85828601611f41565b9250506020611fdf85828601611f41565b9150509250929050565b611ff281611e95565b82525050565b600060208201905061200d6000830184611fe9565b92915050565b60006020828403121561202957612028611e8b565b5b600061203784828501611f41565b91505092915050565b60008115159050919050565b61205581612040565b82525050565b6000602082019050612070600083018461204c565b92915050565b600080600080600060a0868803121561209257612091611e8b565b5b60006120a088828901611f41565b95505060206120b188828901611f41565b94505060406120c288828901611eb6565b93505060606120d388828901611eb6565b92505060806120e488828901611eb6565b9150509295509295909350565b6120fa81611f18565b82525050565b600060208201905061211560008301846120f1565b92915050565b600061212682611f18565b9050919050565b6121368161211b565b811461214157600080fd5b50565b6000813590506121538161212d565b92915050565b600080fd5b600080fd5b600080fd5b60008083601f84011261217e5761217d612159565b5b8235905067ffffffffffffffff81111561219b5761219a61215e565b5b6020830191508360208202830111156121b7576121b6612163565b5b9250929050565b6000806000604084860312156121d7576121d6611e8b565b5b60006121e586828701612144565b935050602084013567ffffffffffffffff81111561220657612205611e90565b5b61221286828701612168565b92509250509250925092565b600060e082019050612233600083018a6120f1565b61224060208301896120f1565b61224d6040830188611fe9565b61225a6060830187611fe9565b61226760808301866120f1565b61227460a0830185611fe9565b61228160c0830184611fe9565b98975050505050505050565b6000819050919050565b60006122b26122ad6122a884611ef8565b61228d565b611ef8565b9050919050565b60006122c482612297565b9050919050565b60006122d6826122b9565b9050919050565b6122e6816122cb565b82525050565b600060208201905061230160008301846122dd565b92915050565b61231081612040565b811461231b57600080fd5b50565b60008135905061232d81612307565b92915050565b6000806040838503121561234a57612349611e8b565b5b600061235885828601611f41565b92505060206123698582860161231e565b9150509250929050565b6000806040838503121561238a57612389611e8b565b5b600061239885828601611eb6565b92505060206123a985828601611eb6565b9150509250929050565b600082825260208201905092915050565b7f6f72646572206e6f742065786973740000000000000000000000000000000000600082015250565b60006123fa600f836123b3565b9150612405826123c4565b602082019050919050565b60006020820190508181036000830152612429816123ed565b9050919050565b7f6f72646572206e6f742065787069726564000000000000000000000000000000600082015250565b60006124666011836123b3565b915061247182612430565b602082019050919050565b6000602082019050818103600083015261249581612459565b9050919050565b7f4e487b7100000000000000000000000000000000000000000000000000000000600052601160045260246000fd5b60006124d682611e95565b91506124e183611e95565b9250828210156124f4576124f361249c565b5b828203905092915050565b600061250a82611e95565b915061251583611e95565b9250817fffffffffffffffffffffffffffffffffffffffffffffffffffffffffffffffff048311821515161561254e5761254d61249c565b5b828202905092915050565b7f4e487b7100000000000000000000000000000000000000000000000000000000600052601260045260246000fd5b600061259382611e95565b915061259e83611e95565b9250826125ae576125ad612559565b5b828204905092915050565b60006080820190506125ce60008301876120f1565b6125db6020830186611fe9565b6125e860408301856120f1565b6125f56060830184611fe9565b95945050505050565b7f4e6f7420636f6e74726f6c6c6572000000000000000000000000000000000000600082015250565b6000612634600e836123b3565b915061263f826125fe565b602082019050919050565b6000602082019050818103600083015261266381612627565b9050919050565b600061267582611e95565b915061268083611e95565b9250827fffffffffffffffffffffffffffffffffffffffffffffffffffffffffffffffff038211156126b5576126b461249c565b5b828201905092915050565b7f6f6e6c79206f726465722073656e64657220616c6c6f77656400000000000000600082015250565b60006126f66019836123b3565b9150612701826126c0565b602082019050919050565b60006020820190508181036000830152612725816126e9565b9050919050565b7f4f776e61626c653a2063616c6c6572206973206e6f7420746865206f776e6572600082015250565b60006127626020836123b3565b915061276d8261272c565b602082019050919050565b6000602082019050818103600083015261279181612755565b9050919050565b7f696e76616c696420657870697265446174650000000000000000000000000000600082015250565b60006127ce6012836123b3565b91506127d982612798565b602082019050919050565b600060208201905081810360008301526127fd816127c1565b9050919050565b7f696e76616c696420616d6f756e74000000000000000000000000000000000000600082015250565b600061283a600e836123b3565b915061284582612804565b602082019050919050565b600060208201905081810360008301526128698161282d565b9050919050565b600060c08201905061288560008301896120f1565b61289260208301886120f1565b61289f60408301876120f1565b6128ac6060830186611fe9565b6128b96080830185611fe9565b6128c660a0830184611fe9565b979650505050505050565b7f496e697469616c697a61626c653a20636f6e747261637420697320616c72656160008201527f647920696e697469616c697a6564000000000000000000000000000000000000602082015250565b600061292d602e836123b3565b9150612938826128d1565b604082019050919050565b6000602082019050818103600083015261295c81612920565b9050919050565b7f4e487b7100000000000000000000000000000000000000000000000000000000600052603260045260246000fd5b600061299d82611e95565b91507fffffffffffffffffffffffffffffffffffffffffffffffffffffffffffffffff82036129cf576129ce61249c565b5b600182019050919050565b6000815190506129e981611f2a565b92915050565b600060208284031215612a0557612a04611e8b565b5b6000612a13848285016129da565b91505092915050565b7f747261646551756f746120726561636865640000000000000000000000000000600082015250565b6000612a526012836123b3565b9150612a5d82612a1c565b602082019050919050565b60006020820190508181036000830152612a8181612a45565b9050919050565b7f6f7264657220696e76616c696400000000000000000000000000000000000000600082015250565b6000612abe600d836123b3565b9150612ac982612a88565b602082019050919050565b60006020820190508181036000830152612aed81612ab1565b9050919050565b7f747261646520616d6f756e7420746f6f20736d616c6c00000000000000000000600082015250565b6000612b2a6016836123b3565b9150612b3582612af4565b602082019050919050565b60006020820190508181036000830152612b5981612b1d565b9050919050565b7f747261646520616d6f756e7420657863656564206f726465722062616c616e6360008201527f6500000000000000000000000000000000000000000000000000000000000000602082015250565b6000612bbc6021836123b3565b9150612bc782612b60565b604082019050919050565b60006020820190508181036000830152612beb81612baf565b9050919050565b7f4f776e61626c653a206e6577206f776e657220697320746865207a65726f206160008201527f6464726573730000000000000000000000000000000000000000000000000000602082015250565b6000612c4e6026836123b3565b9150612c5982612bf2565b604082019050919050565b60006020820190508181036000830152612c7d81612c41565b9050919050565b6000604082019050612c9960008301856120f1565b612ca66020830184611fe9565b9392505050565b6000606082019050612cc260008301866120f1565b612ccf60208301856120f1565b612cdc6040830184611fe9565b949350505050565b7f496e697469616c697a61626c653a20636f6e7472616374206973206e6f74206960008201527f6e697469616c697a696e67000000000000000000000000000000000000000000602082015250565b6000612d40602b836123b3565b9150612d4b82612ce4565b604082019050919050565b60006020820190508181036000830152612d6f81612d33565b9050919050565b600081519050612d8581612307565b92915050565b600060208284031215612da157612da0611e8b565b5b6000612daf84828501612d76565b91505092915050565b7f5361666545524332303a204552433230206f7065726174696f6e20646964206e60008201527f6f74207375636365656400000000000000000000000000000000000000000000602082015250565b6000612e14602a836123b3565b9150612e1f82612db8565b604082019050919050565b60006020820190508181036000830152612e4381612e07565b9050919050565b7f416464726573733a20696e73756666696369656e742062616c616e636520666f60008201527f722063616c6c0000000000000000000000000000000000000000000000000000602082015250565b6000612ea66026836123b3565b9150612eb182612e4a565b604082019050919050565b60006020820190508181036000830152612ed581612e99565b9050919050565b7f416464726573733a2063616c6c20746f206e6f6e2d636f6e7472616374000000600082015250565b6000612f12601d836123b3565b9150612f1d82612edc565b602082019050919050565b60006020820190508181036000830152612f4181612f05565b9050919050565b600081519050919050565b600081905092915050565b60005b83811015612f7c578082015181840152602081019050612f61565b83811115612f8b576000848401525b50505050565b6000612f9c82612f48565b612fa68185612f53565b9350612fb6818560208601612f5e565b80840191505092915050565b6000612fce8284612f91565b915081905092915050565b600081519050919050565b6000601f19601f8301169050919050565b600061300082612fd9565b61300a81856123b3565b935061301a818560208601612f5e565b61302381612fe4565b840191505092915050565b600060208201905081810360008301526130488184612ff5565b90509291505056fea26469706673582212207302a41e636c451442f67b6515e285860af1eec6324f094694d6dd888d3bc3b464736f6c634300080f0033",
  "linkReferences": {},
  "deployedLinkReferences": {}
}