{
  "_format": "hh-sol-artifact-1",
  "contractName": "PurchaseOfferMarket",
  "sourceName": "contracts/PurchaseOfferMarket.sol",
  "abi": [
    {
      "anonymous": false,
      "inputs": [
        {
          "indexed": true,
          "internalType": "address",
          "name": "indexer",
          "type": "address"
        },
        {
          "indexed": false,
          "internalType": "uint256",
          "name": "offerId",
          "type": "uint256"
        },
        {
          "indexed": false,
          "internalType": "uint256",
          "name": "agreementId",
          "type": "uint256"
        }
      ],
      "name": "OfferAccepted",
      "type": "event"
    },
    {
      "anonymous": false,
      "inputs": [
        {
          "indexed": true,
          "internalType": "address",
          "name": "previousOwner",
          "type": "address"
        },
        {
          "indexed": true,
          "internalType": "address",
          "name": "newOwner",
          "type": "address"
        }
      ],
      "name": "OwnershipTransferred",
      "type": "event"
    },
    {
      "anonymous": false,
      "inputs": [
        {
          "indexed": true,
          "internalType": "address",
          "name": "creator",
          "type": "address"
        },
        {
          "indexed": false,
          "internalType": "uint256",
          "name": "offerId",
          "type": "uint256"
        },
        {
          "indexed": false,
          "internalType": "uint256",
          "name": "penalty",
          "type": "uint256"
        }
      ],
      "name": "PurchaseOfferCancelled",
      "type": "event"
    },
    {
      "anonymous": false,
      "inputs": [
        {
          "indexed": false,
          "internalType": "address",
          "name": "consumer",
          "type": "address"
        },
        {
          "indexed": false,
          "internalType": "uint256",
          "name": "offerId",
          "type": "uint256"
        },
        {
          "indexed": false,
          "internalType": "bytes32",
          "name": "deploymentId",
          "type": "bytes32"
        },
        {
          "indexed": false,
          "internalType": "uint256",
          "name": "planTemplateId",
          "type": "uint256"
        },
        {
          "indexed": false,
          "internalType": "uint256",
          "name": "deposit",
          "type": "uint256"
        },
        {
          "indexed": false,
          "internalType": "uint16",
          "name": "limit",
          "type": "uint16"
        },
        {
          "indexed": false,
          "internalType": "uint256",
          "name": "minimumAcceptHeight",
          "type": "uint256"
        },
        {
          "indexed": false,
          "internalType": "uint256",
          "name": "expireDate",
          "type": "uint256"
        }
      ],
      "name": "PurchaseOfferCreated",
      "type": "event"
    },
    {
      "inputs": [],
      "name": "PER_BILL",
      "outputs": [
        {
          "internalType": "uint256",
          "name": "",
          "type": "uint256"
        }
      ],
      "stateMutability": "view",
      "type": "function"
    },
    {
      "inputs": [],
      "name": "PER_MILL",
      "outputs": [
        {
          "internalType": "uint256",
          "name": "",
          "type": "uint256"
        }
      ],
      "stateMutability": "view",
      "type": "function"
    },
    {
      "inputs": [],
      "name": "PER_TRILL",
      "outputs": [
        {
          "internalType": "uint256",
          "name": "",
          "type": "uint256"
        }
      ],
      "stateMutability": "view",
      "type": "function"
    },
    {
      "inputs": [],
      "name": "ZERO_ADDRESS",
      "outputs": [
        {
          "internalType": "address",
          "name": "",
          "type": "address"
        }
      ],
      "stateMutability": "view",
      "type": "function"
    },
    {
      "inputs": [
        {
          "internalType": "uint256",
          "name": "_offerId",
          "type": "uint256"
        },
        {
          "internalType": "bytes32",
          "name": "_mmrRoot",
          "type": "bytes32"
        }
      ],
      "name": "acceptPurchaseOffer",
      "outputs": [],
      "stateMutability": "nonpayable",
      "type": "function"
    },
    {
      "inputs": [
        {
          "internalType": "uint256",
          "name": "",
          "type": "uint256"
        },
        {
          "internalType": "address",
          "name": "",
          "type": "address"
        }
      ],
      "name": "acceptedOffer",
      "outputs": [
        {
          "internalType": "bool",
          "name": "",
          "type": "bool"
        }
      ],
      "stateMutability": "view",
      "type": "function"
    },
    {
      "inputs": [
        {
          "internalType": "uint256",
          "name": "_offerId",
          "type": "uint256"
        }
      ],
      "name": "cancelPurchaseOffer",
      "outputs": [],
      "stateMutability": "nonpayable",
      "type": "function"
    },
    {
      "inputs": [
        {
          "internalType": "bytes32",
          "name": "_deploymentId",
          "type": "bytes32"
        },
        {
          "internalType": "uint256",
          "name": "_planTemplateId",
          "type": "uint256"
        },
        {
          "internalType": "uint256",
          "name": "_deposit",
          "type": "uint256"
        },
        {
          "internalType": "uint16",
          "name": "_limit",
          "type": "uint16"
        },
        {
          "internalType": "uint256",
          "name": "_minimumAcceptHeight",
          "type": "uint256"
        },
        {
          "internalType": "uint256",
          "name": "_expireDate",
          "type": "uint256"
        }
      ],
      "name": "createPurchaseOffer",
      "outputs": [],
      "stateMutability": "nonpayable",
      "type": "function"
    },
    {
      "inputs": [
        {
          "internalType": "contract ISettings",
          "name": "_settings",
          "type": "address"
        },
        {
          "internalType": "uint256",
          "name": "_penaltyRate",
          "type": "uint256"
        },
        {
          "internalType": "address",
          "name": "_penaltyDestination",
          "type": "address"
        }
      ],
      "name": "initialize",
      "outputs": [],
      "stateMutability": "nonpayable",
      "type": "function"
    },
    {
      "inputs": [
        {
          "internalType": "uint256",
          "name": "_offerId",
          "type": "uint256"
        }
      ],
      "name": "isExpired",
      "outputs": [
        {
          "internalType": "bool",
          "name": "",
          "type": "bool"
        }
      ],
      "stateMutability": "view",
      "type": "function"
    },
    {
      "inputs": [],
      "name": "numOffers",
      "outputs": [
        {
          "internalType": "uint256",
          "name": "",
          "type": "uint256"
        }
      ],
      "stateMutability": "view",
      "type": "function"
    },
    {
      "inputs": [
        {
          "internalType": "uint256",
          "name": "",
          "type": "uint256"
        },
        {
          "internalType": "address",
          "name": "",
          "type": "address"
        }
      ],
      "name": "offerMmrRoot",
      "outputs": [
        {
          "internalType": "bytes32",
          "name": "",
          "type": "bytes32"
        }
      ],
      "stateMutability": "view",
      "type": "function"
    },
    {
      "inputs": [
        {
          "internalType": "uint256",
          "name": "",
          "type": "uint256"
        }
      ],
      "name": "offers",
      "outputs": [
        {
          "internalType": "uint256",
          "name": "deposit",
          "type": "uint256"
        },
        {
          "internalType": "uint256",
          "name": "minimumAcceptHeight",
          "type": "uint256"
        },
        {
          "internalType": "uint256",
          "name": "planTemplateId",
          "type": "uint256"
        },
        {
          "internalType": "bytes32",
          "name": "deploymentId",
          "type": "bytes32"
        },
        {
          "internalType": "uint256",
          "name": "expireDate",
          "type": "uint256"
        },
        {
          "internalType": "address",
          "name": "consumer",
          "type": "address"
        },
        {
          "internalType": "bool",
          "name": "active",
          "type": "bool"
        },
        {
          "internalType": "uint16",
          "name": "limit",
          "type": "uint16"
        },
        {
          "internalType": "uint16",
          "name": "numAcceptedContracts",
          "type": "uint16"
        }
      ],
      "stateMutability": "view",
      "type": "function"
    },
    {
      "inputs": [],
      "name": "owner",
      "outputs": [
        {
          "internalType": "address",
          "name": "",
          "type": "address"
        }
      ],
      "stateMutability": "view",
      "type": "function"
    },
    {
      "inputs": [],
      "name": "penaltyDestination",
      "outputs": [
        {
          "internalType": "address",
          "name": "",
          "type": "address"
        }
      ],
      "stateMutability": "view",
      "type": "function"
    },
    {
      "inputs": [],
      "name": "penaltyRate",
      "outputs": [
        {
          "internalType": "uint256",
          "name": "",
          "type": "uint256"
        }
      ],
      "stateMutability": "view",
      "type": "function"
    },
    {
      "inputs": [],
      "name": "renounceOwnership",
      "outputs": [],
      "stateMutability": "nonpayable",
      "type": "function"
    },
    {
      "inputs": [
        {
          "internalType": "address",
          "name": "_penaltyDestination",
          "type": "address"
        }
      ],
      "name": "setPenaltyDestination",
      "outputs": [],
      "stateMutability": "nonpayable",
      "type": "function"
    },
    {
      "inputs": [
        {
          "internalType": "uint256",
          "name": "_penaltyRate",
          "type": "uint256"
        }
      ],
      "name": "setPenaltyRate",
      "outputs": [],
      "stateMutability": "nonpayable",
      "type": "function"
    },
    {
      "inputs": [],
      "name": "settings",
      "outputs": [
        {
          "internalType": "contract ISettings",
          "name": "",
          "type": "address"
        }
      ],
      "stateMutability": "view",
      "type": "function"
    },
    {
      "inputs": [
        {
          "internalType": "address",
          "name": "newOwner",
          "type": "address"
        }
      ],
      "name": "transferOwnership",
      "outputs": [],
      "stateMutability": "nonpayable",
      "type": "function"
    }
  ],
  "bytecode": "0x608060405234801561001057600080fd5b5061350a806100206000396000f3fe608060405234801561001057600080fd5b50600436106101375760003560e01c806374841a7b116100b8578063c350a1b51161007c578063c350a1b51461031e578063cc6bee541461033a578063d6b7494f14610358578063d9548e5314610376578063e06174e4146103a6578063f2fde38b146103c457610137565b806374841a7b1461027257806381cee15f1461028e5780638a72ea6a146102ac5780638da5cb5b146102e4578063a1bab4471461030257610137565b8063538ba4f9116100ff578063538ba4f9146101e2578063579dbcfc146102005780636de3386f1461021c578063715018a61461024c5780637396b3cd1461025657610137565b8063044609031461013c57806308def1621461015a5780632ebcaf121461017857806336b9e3cc146101a85780634aa83d0e146101c4575b600080fd5b6101446103e0565b6040516101519190612371565b60405180910390f35b6101626103e7565b60405161016f9190612371565b60405180910390f35b610192600480360381019061018d919061241b565b6103f0565b60405161019f9190612474565b60405180910390f35b6101c260048036038101906101bd919061248f565b610415565b005b6101cc610b1a565b6040516101d99190612371565b60405180910390f35b6101ea610b22565b6040516101f791906124cb565b60405180910390f35b61021a60048036038101906102159190612512565b610b27565b005b6102366004803603810190610231919061241b565b611605565b604051610243919061256d565b60405180910390f35b610254611634565b005b610270600480360381019061026b91906125c2565b6116bc565b005b61028c6004803603810190610287919061264f565b611c00565b005b610296611cc0565b6040516102a391906124cb565b60405180910390f35b6102c660048036038101906102c1919061248f565b611ce6565b6040516102db9998979695949392919061268b565b60405180910390f35b6102ec611d7d565b6040516102f991906124cb565b60405180910390f35b61031c6004803603810190610317919061248f565b611da7565b005b61033860048036038101906103339190612756565b611e72565b005b61034261202f565b60405161034f9190612371565b60405180910390f35b610360612035565b60405161036d9190612371565b60405180910390f35b610390600480360381019061038b919061248f565b61203b565b60405161039d919061256d565b60405180910390f35b6103ae61205d565b6040516103bb9190612808565b60405180910390f35b6103de60048036038101906103d9919061264f565b612083565b005b620f424081565b64e8d4a5100081565b606b602052816000526040600020602052806000526040600020600091509150505481565b6000606660008381526020019081526020016000206040518061012001604052908160008201548152602001600182015481526020016002820154815260200160038201548152602001600482015481526020016005820160009054906101000a900473ffffffffffffffffffffffffffffffffffffffff1673ffffffffffffffffffffffffffffffffffffffff1673ffffffffffffffffffffffffffffffffffffffff1681526020016005820160149054906101000a900460ff161515151581526020016005820160159054906101000a900461ffff1661ffff1661ffff1681526020016005820160179054906101000a900461ffff1661ffff1661ffff168152505090508060a0015173ffffffffffffffffffffffffffffffffffffffff163373ffffffffffffffffffffffffffffffffffffffff161461058d576040517f08c379a0000000000000000000000000000000000000000000000000000000008152600401610584906128a6565b60405180910390fd5b6066600083815260200190815260200160002060050160149054906101000a900460ff166105f0576040517f08c379a00000000000000000000000000000000000000000000000000000000081526004016105e790612912565b60405180910390fd5b60008161010001518260e001516106079190612961565b61ffff16826000015161061a9190612995565b905060006106278461203b565b6108d45761063b60685483620f424061217a565b9050808261064991906129ef565b9150600073ffffffffffffffffffffffffffffffffffffffff16606960009054906101000a900473ffffffffffffffffffffffffffffffffffffffff1673ffffffffffffffffffffffffffffffffffffffff16146107d757606560009054906101000a900473ffffffffffffffffffffffffffffffffffffffff1673ffffffffffffffffffffffffffffffffffffffff1663afc1aaca6040518163ffffffff1660e01b8152600401602060405180830381865afa15801561070e573d6000803e3d6000fd5b505050506040513d601f19601f820116820180604052508101906107329190612a38565b73ffffffffffffffffffffffffffffffffffffffff1663a9059cbb606960009054906101000a900473ffffffffffffffffffffffffffffffffffffffff16836040518363ffffffff1660e01b815260040161078e929190612a65565b6020604051808303816000875af11580156107ad573d6000803e3d6000fd5b505050506040513d601f19601f820116820180604052508101906107d19190612aba565b506108d3565b606560009054906101000a900473ffffffffffffffffffffffffffffffffffffffff1673ffffffffffffffffffffffffffffffffffffffff1663afc1aaca6040518163ffffffff1660e01b8152600401602060405180830381865afa158015610844573d6000803e3d6000fd5b505050506040513d601f19601f820116820180604052508101906108689190612a38565b73ffffffffffffffffffffffffffffffffffffffff166342966c68826040518263ffffffff1660e01b81526004016108a09190612371565b600060405180830381600087803b1580156108ba57600080fd5b505af11580156108ce573d6000803e3d6000fd5b505050505b5b606560009054906101000a900473ffffffffffffffffffffffffffffffffffffffff1673ffffffffffffffffffffffffffffffffffffffff1663afc1aaca6040518163ffffffff1660e01b8152600401602060405180830381865afa158015610941573d6000803e3d6000fd5b505050506040513d601f19601f820116820180604052508101906109659190612a38565b73ffffffffffffffffffffffffffffffffffffffff1663a9059cbb33846040518363ffffffff1660e01b815260040161099f929190612a65565b6020604051808303816000875af11580156109be573d6000803e3d6000fd5b505050506040513d601f19601f820116820180604052508101906109e29190612aba565b610a21576040517f08c379a0000000000000000000000000000000000000000000000000000000008152600401610a1890612b33565b60405180910390fd5b6066600085815260200190815260200160002060008082016000905560018201600090556002820160009055600382016000905560048201600090556005820160006101000a81549073ffffffffffffffffffffffffffffffffffffffff02191690556005820160146101000a81549060ff02191690556005820160156101000a81549061ffff02191690556005820160176101000a81549061ffff021916905550503373ffffffffffffffffffffffffffffffffffffffff167faa52dbb02e1087a6409a233be6e6e3107a6f9a0c2fefe20b7b0631ca1d3e55638583604051610b0c929190612b53565b60405180910390a250505050565b633b9aca0081565b600081565b606560009054906101000a900473ffffffffffffffffffffffffffffffffffffffff1673ffffffffffffffffffffffffffffffffffffffff1663aef7d8266040518163ffffffff1660e01b8152600401602060405180830381865afa158015610b94573d6000803e3d6000fd5b505050506040513d601f19601f82011682018060405250810190610bb89190612a38565b73ffffffffffffffffffffffffffffffffffffffff16632c6cf4e2336040518263ffffffff1660e01b8152600401610bf091906124cb565b602060405180830381865afa158015610c0d573d6000803e3d6000fd5b505050506040513d601f19601f82011682018060405250810190610c319190612aba565b610c70576040517f08c379a0000000000000000000000000000000000000000000000000000000008152600401610c6790612bc8565b60405180910390fd5b6066600083815260200190815260200160002060050160149054906101000a900460ff16610cd3576040517f08c379a0000000000000000000000000000000000000000000000000000000008152600401610cca90612912565b60405180910390fd5b610cdc8261203b565b15610d1c576040517f08c379a0000000000000000000000000000000000000000000000000000000008152600401610d1390612c34565b60405180910390fd5b606a600083815260200190815260200160002060003373ffffffffffffffffffffffffffffffffffffffff1673ffffffffffffffffffffffffffffffffffffffff16815260200190815260200160002060009054906101000a900460ff1615610dba576040517f08c379a0000000000000000000000000000000000000000000000000000000008152600401610db190612ca0565b60405180910390fd5b6066600083815260200190815260200160002060050160179054906101000a900461ffff1661ffff166066600084815260200190815260200160002060050160159054906101000a900461ffff1661ffff1611610e4c576040517f08c379a0000000000000000000000000000000000000000000000000000000008152600401610e4390612d32565b60405180910390fd5b60666000838152602001908152602001600020600501601781819054906101000a900461ffff1680929190610e8090612d52565b91906101000a81548161ffff021916908361ffff160217905550506001606a600084815260200190815260200160002060003373ffffffffffffffffffffffffffffffffffffffff1673ffffffffffffffffffffffffffffffffffffffff16815260200190815260200160002060006101000a81548160ff0219169083151502179055506000606660008481526020019081526020016000206040518061012001604052908160008201548152602001600182015481526020016002820154815260200160038201548152602001600482015481526020016005820160009054906101000a900473ffffffffffffffffffffffffffffffffffffffff1673ffffffffffffffffffffffffffffffffffffffff1673ffffffffffffffffffffffffffffffffffffffff1681526020016005820160149054906101000a900460ff161515151581526020016005820160159054906101000a900461ffff1661ffff1661ffff1681526020016005820160179054906101000a900461ffff1661ffff1661ffff1681525050905081606b600085815260200190815260200160002060003373ffffffffffffffffffffffffffffffffffffffff1673ffffffffffffffffffffffffffffffffffffffff168152602001908152602001600020819055506000606560009054906101000a900473ffffffffffffffffffffffffffffffffffffffff1673ffffffffffffffffffffffffffffffffffffffff1663891288f36040518163ffffffff1660e01b8152600401602060405180830381865afa1580156110ce573d6000803e3d6000fd5b505050506040513d601f19601f820116820180604052508101906110f29190612a38565b905060008173ffffffffffffffffffffffffffffffffffffffff1663771ebc5684604001516040518263ffffffff1660e01b81526004016111339190612371565b60a060405180830381865afa158015611150573d6000803e3d6000fd5b505050506040513d601f19601f820116820180604052508101906111749190612da6565b50505050905060006040518061010001604052808560a0015173ffffffffffffffffffffffffffffffffffffffff1681526020013373ffffffffffffffffffffffffffffffffffffffff16815260200185606001518152602001856000015181526020014281526020018381526020016000815260200185604001518152509050606560009054906101000a900473ffffffffffffffffffffffffffffffffffffffff1673ffffffffffffffffffffffffffffffffffffffff1663afc1aaca6040518163ffffffff1660e01b8152600401602060405180830381865afa158015611262573d6000803e3d6000fd5b505050506040513d601f19601f820116820180604052508101906112869190612a38565b73ffffffffffffffffffffffffffffffffffffffff1663a9059cbb606560009054906101000a900473ffffffffffffffffffffffffffffffffffffffff1673ffffffffffffffffffffffffffffffffffffffff16635dfdb6e96040518163ffffffff1660e01b8152600401602060405180830381865afa15801561130e573d6000803e3d6000fd5b505050506040513d601f19601f820116820180604052508101906113329190612a38565b86600001516040518363ffffffff1660e01b8152600401611354929190612a65565b6020604051808303816000875af1158015611373573d6000803e3d6000fd5b505050506040513d601f19601f820116820180604052508101906113979190612aba565b6113d6576040517f08c379a00000000000000000000000000000000000000000000000000000000081526004016113cd90612b33565b60405180910390fd5b6000606560009054906101000a900473ffffffffffffffffffffffffffffffffffffffff1673ffffffffffffffffffffffffffffffffffffffff16635dfdb6e96040518163ffffffff1660e01b8152600401602060405180830381865afa158015611445573d6000803e3d6000fd5b505050506040513d601f19601f820116820180604052508101906114699190612a38565b905060008173ffffffffffffffffffffffffffffffffffffffff16637217158f846040518263ffffffff1660e01b81526004016114a69190612ef0565b6020604051808303816000875af11580156114c5573d6000803e3d6000fd5b505050506040513d601f19601f820116820180604052508101906114e99190612f0c565b90508173ffffffffffffffffffffffffffffffffffffffff166308051199826040518263ffffffff1660e01b81526004016115249190612371565b600060405180830381600087803b15801561153e57600080fd5b505af1158015611552573d6000803e3d6000fd5b5050505086606b60008a815260200190815260200160002060003373ffffffffffffffffffffffffffffffffffffffff1673ffffffffffffffffffffffffffffffffffffffff168152602001908152602001600020819055503373ffffffffffffffffffffffffffffffffffffffff167f2e91b12fed89e8218510d4f7c38c6db746acd0984f09b436b69bd7db5e93da8b89836040516115f3929190612b53565b60405180910390a25050505050505050565b606a6020528160005260406000206020528060005260406000206000915091509054906101000a900460ff1681565b61163c61219c565b73ffffffffffffffffffffffffffffffffffffffff1661165a611d7d565b73ffffffffffffffffffffffffffffffffffffffff16146116b0576040517f08c379a00000000000000000000000000000000000000000000000000000000081526004016116a790612f85565b60405180910390fd5b6116ba60006121a4565b565b4281116116fe576040517f08c379a00000000000000000000000000000000000000000000000000000000081526004016116f590612ff1565b60405180910390fd5b60008411611741576040517f08c379a00000000000000000000000000000000000000000000000000000000081526004016117389061305d565b60405180910390fd5b60008361ffff1611611788576040517f08c379a000000000000000000000000000000000000000000000000000000000815260040161177f906130c9565b60405180910390fd5b6000606560009054906101000a900473ffffffffffffffffffffffffffffffffffffffff1673ffffffffffffffffffffffffffffffffffffffff1663891288f36040518163ffffffff1660e01b8152600401602060405180830381865afa1580156117f7573d6000803e3d6000fd5b505050506040513d601f19601f8201168201806040525081019061181b9190612a38565b905060008173ffffffffffffffffffffffffffffffffffffffff1663771ebc56886040518263ffffffff1660e01b81526004016118589190612371565b60a060405180830381865afa158015611875573d6000803e3d6000fd5b505050506040513d601f19601f820116820180604052508101906118999190612da6565b945050505050806118df576040517f08c379a00000000000000000000000000000000000000000000000000000000081526004016118d690613135565b60405180910390fd5b6040518061012001604052808781526020018581526020018881526020018981526020018481526020013373ffffffffffffffffffffffffffffffffffffffff1681526020016001151581526020018661ffff168152602001600061ffff16815250606660006067548152602001908152602001600020600082015181600001556020820151816001015560408201518160020155606082015181600301556080820151816004015560a08201518160050160006101000a81548173ffffffffffffffffffffffffffffffffffffffff021916908373ffffffffffffffffffffffffffffffffffffffff16021790555060c08201518160050160146101000a81548160ff02191690831515021790555060e08201518160050160156101000a81548161ffff021916908361ffff1602179055506101008201518160050160176101000a81548161ffff021916908361ffff160217905550905050606560009054906101000a900473ffffffffffffffffffffffffffffffffffffffff1673ffffffffffffffffffffffffffffffffffffffff1663afc1aaca6040518163ffffffff1660e01b8152600401602060405180830381865afa158015611aa6573d6000803e3d6000fd5b505050506040513d601f19601f82011682018060405250810190611aca9190612a38565b73ffffffffffffffffffffffffffffffffffffffff166323b872dd33308861ffff168a611af79190612995565b6040518463ffffffff1660e01b8152600401611b1593929190613155565b6020604051808303816000875af1158015611b34573d6000803e3d6000fd5b505050506040513d601f19601f82011682018060405250810190611b589190612aba565b611b97576040517f08c379a0000000000000000000000000000000000000000000000000000000008152600401611b8e90612b33565b60405180910390fd5b7f2f54a36e482a6c3eb78e1464dc7e773ae8db7a4c089601f6d093c8a99d7cbc5f336067548a8a8a8a8a8a604051611bd698979695949392919061318c565b60405180910390a160676000815480929190611bf19061320a565b91905055505050505050505050565b611c0861219c565b73ffffffffffffffffffffffffffffffffffffffff16611c26611d7d565b73ffffffffffffffffffffffffffffffffffffffff1614611c7c576040517f08c379a0000000000000000000000000000000000000000000000000000000008152600401611c7390612f85565b60405180910390fd5b80606960006101000a81548173ffffffffffffffffffffffffffffffffffffffff021916908373ffffffffffffffffffffffffffffffffffffffff16021790555050565b606960009054906101000a900473ffffffffffffffffffffffffffffffffffffffff1681565b60666020528060005260406000206000915090508060000154908060010154908060020154908060030154908060040154908060050160009054906101000a900473ffffffffffffffffffffffffffffffffffffffff16908060050160149054906101000a900460ff16908060050160159054906101000a900461ffff16908060050160179054906101000a900461ffff16905089565b6000603360009054906101000a900473ffffffffffffffffffffffffffffffffffffffff16905090565b611daf61219c565b73ffffffffffffffffffffffffffffffffffffffff16611dcd611d7d565b73ffffffffffffffffffffffffffffffffffffffff1614611e23576040517f08c379a0000000000000000000000000000000000000000000000000000000008152600401611e1a90612f85565b60405180910390fd5b620f42408110611e68576040517f08c379a0000000000000000000000000000000000000000000000000000000008152600401611e5f9061329e565b60405180910390fd5b8060688190555050565b600060019054906101000a900460ff16611e9a5760008054906101000a900460ff1615611ea3565b611ea261226a565b5b611ee2576040517f08c379a0000000000000000000000000000000000000000000000000000000008152600401611ed990613330565b60405180910390fd5b60008060019054906101000a900460ff161590508015611f32576001600060016101000a81548160ff02191690831515021790555060016000806101000a81548160ff0219169083151502179055505b611f3a61227b565b620f42408310611f7f576040517f08c379a0000000000000000000000000000000000000000000000000000000008152600401611f769061329e565b60405180910390fd5b83606560006101000a81548173ffffffffffffffffffffffffffffffffffffffff021916908373ffffffffffffffffffffffffffffffffffffffff1602179055508260688190555081606960006101000a81548173ffffffffffffffffffffffffffffffffffffffff021916908373ffffffffffffffffffffffffffffffffffffffff16021790555080156120295760008060016101000a81548160ff0219169083151502179055505b50505050565b60675481565b60685481565b6000426066600084815260200190815260200160002060040154109050919050565b606560009054906101000a900473ffffffffffffffffffffffffffffffffffffffff1681565b61208b61219c565b73ffffffffffffffffffffffffffffffffffffffff166120a9611d7d565b73ffffffffffffffffffffffffffffffffffffffff16146120ff576040517f08c379a00000000000000000000000000000000000000000000000000000000081526004016120f690612f85565b60405180910390fd5b600073ffffffffffffffffffffffffffffffffffffffff168173ffffffffffffffffffffffffffffffffffffffff160361216e576040517f08c379a0000000000000000000000000000000000000000000000000000000008152600401612165906133c2565b60405180910390fd5b612177816121a4565b50565b60008183856121899190612995565b6121939190613411565b90509392505050565b600033905090565b6000603360009054906101000a900473ffffffffffffffffffffffffffffffffffffffff16905081603360006101000a81548173ffffffffffffffffffffffffffffffffffffffff021916908373ffffffffffffffffffffffffffffffffffffffff1602179055508173ffffffffffffffffffffffffffffffffffffffff168173ffffffffffffffffffffffffffffffffffffffff167f8be0079c531659141344cd1fd0a4f28419497f9722a3daafe3b4186f6b6457e060405160405180910390a35050565b6000612275306122d4565b15905090565b600060019054906101000a900460ff166122ca576040517f08c379a00000000000000000000000000000000000000000000000000000000081526004016122c1906134b4565b60405180910390fd5b6122d26122f7565b565b6000808273ffffffffffffffffffffffffffffffffffffffff163b119050919050565b600060019054906101000a900460ff16612346576040517f08c379a000000000000000000000000000000000000000000000000000000000815260040161233d906134b4565b60405180910390fd5b61235661235161219c565b6121a4565b565b6000819050919050565b61236b81612358565b82525050565b60006020820190506123866000830184612362565b92915050565b600080fd5b61239a81612358565b81146123a557600080fd5b50565b6000813590506123b781612391565b92915050565b600073ffffffffffffffffffffffffffffffffffffffff82169050919050565b60006123e8826123bd565b9050919050565b6123f8816123dd565b811461240357600080fd5b50565b600081359050612415816123ef565b92915050565b600080604083850312156124325761243161238c565b5b6000612440858286016123a8565b925050602061245185828601612406565b9150509250929050565b6000819050919050565b61246e8161245b565b82525050565b60006020820190506124896000830184612465565b92915050565b6000602082840312156124a5576124a461238c565b5b60006124b3848285016123a8565b91505092915050565b6124c5816123dd565b82525050565b60006020820190506124e060008301846124bc565b92915050565b6124ef8161245b565b81146124fa57600080fd5b50565b60008135905061250c816124e6565b92915050565b600080604083850312156125295761252861238c565b5b6000612537858286016123a8565b9250506020612548858286016124fd565b9150509250929050565b60008115159050919050565b61256781612552565b82525050565b6000602082019050612582600083018461255e565b92915050565b600061ffff82169050919050565b61259f81612588565b81146125aa57600080fd5b50565b6000813590506125bc81612596565b92915050565b60008060008060008060c087890312156125df576125de61238c565b5b60006125ed89828a016124fd565b96505060206125fe89828a016123a8565b955050604061260f89828a016123a8565b945050606061262089828a016125ad565b935050608061263189828a016123a8565b92505060a061264289828a016123a8565b9150509295509295509295565b6000602082840312156126655761266461238c565b5b600061267384828501612406565b91505092915050565b61268581612588565b82525050565b6000610120820190506126a1600083018c612362565b6126ae602083018b612362565b6126bb604083018a612362565b6126c86060830189612465565b6126d56080830188612362565b6126e260a08301876124bc565b6126ef60c083018661255e565b6126fc60e083018561267c565b61270a61010083018461267c565b9a9950505050505050505050565b6000612723826123dd565b9050919050565b61273381612718565b811461273e57600080fd5b50565b6000813590506127508161272a565b92915050565b60008060006060848603121561276f5761276e61238c565b5b600061277d86828701612741565b935050602061278e868287016123a8565b925050604061279f86828701612406565b9150509250925092565b6000819050919050565b60006127ce6127c96127c4846123bd565b6127a9565b6123bd565b9050919050565b60006127e0826127b3565b9050919050565b60006127f2826127d5565b9050919050565b612802816127e7565b82525050565b600060208201905061281d60008301846127f9565b92915050565b600082825260208201905092915050565b7f6f6e6c79206f6666657265722063616e2063616e63656c20746865206f66666560008201527f7200000000000000000000000000000000000000000000000000000000000000602082015250565b6000612890602183612823565b915061289b82612834565b604082019050919050565b600060208201905081810360008301526128bf81612883565b9050919050565b7f696e76616c6964206f6666657249640000000000000000000000000000000000600082015250565b60006128fc600f83612823565b9150612907826128c6565b602082019050919050565b6000602082019050818103600083015261292b816128ef565b9050919050565b7f4e487b7100000000000000000000000000000000000000000000000000000000600052601160045260246000fd5b600061296c82612588565b915061297783612588565b92508282101561298a57612989612932565b5b828203905092915050565b60006129a082612358565b91506129ab83612358565b9250817fffffffffffffffffffffffffffffffffffffffffffffffffffffffffffffffff04831182151516156129e4576129e3612932565b5b828202905092915050565b60006129fa82612358565b9150612a0583612358565b925082821015612a1857612a17612932565b5b828203905092915050565b600081519050612a32816123ef565b92915050565b600060208284031215612a4e57612a4d61238c565b5b6000612a5c84828501612a23565b91505092915050565b6000604082019050612a7a60008301856124bc565b612a876020830184612362565b9392505050565b612a9781612552565b8114612aa257600080fd5b50565b600081519050612ab481612a8e565b92915050565b600060208284031215612ad057612acf61238c565b5b6000612ade84828501612aa5565b91505092915050565b7f7472616e73666572206661696c00000000000000000000000000000000000000600082015250565b6000612b1d600d83612823565b9150612b2882612ae7565b602082019050919050565b60006020820190508181036000830152612b4c81612b10565b9050919050565b6000604082019050612b686000830185612362565b612b756020830184612362565b9392505050565b7f63616c6c6572206973206e6f7420616e20696e64657865720000000000000000600082015250565b6000612bb2601883612823565b9150612bbd82612b7c565b602082019050919050565b60006020820190508181036000830152612be181612ba5565b9050919050565b7f6f66666572206578706972656400000000000000000000000000000000000000600082015250565b6000612c1e600d83612823565b9150612c2982612be8565b602082019050919050565b60006020820190508181036000830152612c4d81612c11565b9050919050565b7f6f6666657220616363657074656420616c726561647900000000000000000000600082015250565b6000612c8a601683612823565b9150612c9582612c54565b602082019050919050565b60006020820190508181036000830152612cb981612c7d565b9050919050565b7f6e756d626572206f6620636f6e74726163747320616c7265616479207265616360008201527f686564206c696d69740000000000000000000000000000000000000000000000602082015250565b6000612d1c602983612823565b9150612d2782612cc0565b604082019050919050565b60006020820190508181036000830152612d4b81612d0f565b9050919050565b6000612d5d82612588565b915061ffff8203612d7157612d70612932565b5b600182019050919050565b600081519050612d8b81612391565b92915050565b600081519050612da0816124e6565b92915050565b600080600080600060a08688031215612dc257612dc161238c565b5b6000612dd088828901612d7c565b9550506020612de188828901612d7c565b9450506040612df288828901612d7c565b9350506060612e0388828901612d91565b9250506080612e1488828901612aa5565b9150509295509295909350565b612e2a816123dd565b82525050565b612e398161245b565b82525050565b612e4881612358565b82525050565b61010082016000820151612e656000850182612e21565b506020820151612e786020850182612e21565b506040820151612e8b6040850182612e30565b506060820151612e9e6060850182612e3f565b506080820151612eb16080850182612e3f565b5060a0820151612ec460a0850182612e3f565b5060c0820151612ed760c0850182612e3f565b5060e0820151612eea60e0850182612e3f565b50505050565b600061010082019050612f066000830184612e4e565b92915050565b600060208284031215612f2257612f2161238c565b5b6000612f3084828501612d7c565b91505092915050565b7f4f776e61626c653a2063616c6c6572206973206e6f7420746865206f776e6572600082015250565b6000612f6f602083612823565b9150612f7a82612f39565b602082019050919050565b60006020820190508181036000830152612f9e81612f62565b9050919050565b7f696e76616c69642065787069726174696f6e0000000000000000000000000000600082015250565b6000612fdb601283612823565b9150612fe682612fa5565b602082019050919050565b6000602082019050818103600083015261300a81612fce565b9050919050565b7f73686f756c64206465706f73697420706f73697469766520616d6f756e740000600082015250565b6000613047601e83612823565b915061305282613011565b602082019050919050565b600060208201905081810360008301526130768161303a565b9050919050565b7f73686f756c64206c696d697420706f73697469766520616d6f756e7400000000600082015250565b60006130b3601c83612823565b91506130be8261307d565b602082019050919050565b600060208201905081810360008301526130e2816130a6565b9050919050565b7f506c616e54656d706c61746520696e6163746976650000000000000000000000600082015250565b600061311f601583612823565b915061312a826130e9565b602082019050919050565b6000602082019050818103600083015261314e81613112565b9050919050565b600060608201905061316a60008301866124bc565b61317760208301856124bc565b6131846040830184612362565b949350505050565b6000610100820190506131a2600083018b6124bc565b6131af602083018a612362565b6131bc6040830189612465565b6131c96060830188612362565b6131d66080830187612362565b6131e360a083018661267c565b6131f060c0830185612362565b6131fd60e0830184612362565b9998505050505050505050565b600061321582612358565b91507fffffffffffffffffffffffffffffffffffffffffffffffffffffffffffffffff820361324757613246612932565b5b600182019050919050565b7f496e76616c69642070656e616c74792072617465000000000000000000000000600082015250565b6000613288601483612823565b915061329382613252565b602082019050919050565b600060208201905081810360008301526132b78161327b565b9050919050565b7f496e697469616c697a61626c653a20636f6e747261637420697320616c72656160008201527f647920696e697469616c697a6564000000000000000000000000000000000000602082015250565b600061331a602e83612823565b9150613325826132be565b604082019050919050565b600060208201905081810360008301526133498161330d565b9050919050565b7f4f776e61626c653a206e6577206f776e657220697320746865207a65726f206160008201527f6464726573730000000000000000000000000000000000000000000000000000602082015250565b60006133ac602683612823565b91506133b782613350565b604082019050919050565b600060208201905081810360008301526133db8161339f565b9050919050565b7f4e487b7100000000000000000000000000000000000000000000000000000000600052601260045260246000fd5b600061341c82612358565b915061342783612358565b925082613437576134366133e2565b5b828204905092915050565b7f496e697469616c697a61626c653a20636f6e7472616374206973206e6f74206960008201527f6e697469616c697a696e67000000000000000000000000000000000000000000602082015250565b600061349e602b83612823565b91506134a982613442565b604082019050919050565b600060208201905081810360008301526134cd81613491565b905091905056fea2646970667358221220f8570ade7320ad2d2e32e5fb1646376e1e46c142a290baa8369f6404c472566264736f6c634300080f0033",
  "linkReferences": {},
  "deployedLinkReferences": {}
}