{
  "_format": "hh-sol-artifact-1",
  "contractName": "RewardsDistributer",
  "sourceName": "contracts/RewardsDistributer.sol",
  "abi": [
    {
      "anonymous": false,
      "inputs": [
        {
          "indexed": true,
          "internalType": "address",
          "name": "indexer",
          "type": "address"
        },
        {
          "indexed": true,
          "internalType": "address",
          "name": "delegator",
          "type": "address"
        },
        {
          "indexed": false,
          "internalType": "uint256",
          "name": "rewards",
          "type": "uint256"
        }
      ],
      "name": "ClaimRewards",
      "type": "event"
    },
    {
      "anonymous": false,
      "inputs": [
        {
          "indexed": true,
          "internalType": "address",
          "name": "indexer",
          "type": "address"
        },
        {
          "indexed": true,
          "internalType": "uint256",
          "name": "eraIdx",
          "type": "uint256"
        },
        {
          "indexed": false,
          "internalType": "uint256",
          "name": "rewards",
          "type": "uint256"
        }
      ],
      "name": "DistributeRewards",
      "type": "event"
    },
    {
      "anonymous": false,
      "inputs": [
        {
          "indexed": true,
          "internalType": "address",
          "name": "indexer",
          "type": "address"
        },
        {
          "indexed": false,
          "internalType": "uint256",
          "name": "commissionRate",
          "type": "uint256"
        }
      ],
      "name": "ICRChanged",
      "type": "event"
    },
    {
      "anonymous": false,
      "inputs": [
        {
          "indexed": true,
          "internalType": "address",
          "name": "previousOwner",
          "type": "address"
        },
        {
          "indexed": true,
          "internalType": "address",
          "name": "newOwner",
          "type": "address"
        }
      ],
      "name": "OwnershipTransferred",
      "type": "event"
    },
    {
      "anonymous": false,
      "inputs": [
        {
          "indexed": true,
          "internalType": "address",
          "name": "indexer",
          "type": "address"
        },
        {
          "indexed": true,
          "internalType": "uint256",
          "name": "eraIdx",
          "type": "uint256"
        },
        {
          "indexed": false,
          "internalType": "uint256",
          "name": "additions",
          "type": "uint256"
        },
        {
          "indexed": false,
          "internalType": "uint256",
          "name": "removals",
          "type": "uint256"
        }
      ],
      "name": "RewardsChanged",
      "type": "event"
    },
    {
      "anonymous": false,
      "inputs": [
        {
          "indexed": true,
          "internalType": "address",
          "name": "indexer",
          "type": "address"
        },
        {
          "indexed": false,
          "internalType": "uint256",
          "name": "era",
          "type": "uint256"
        }
      ],
      "name": "SettledEraUpdated",
      "type": "event"
    },
    {
      "anonymous": false,
      "inputs": [
        {
          "indexed": true,
          "internalType": "address",
          "name": "indexer",
          "type": "address"
        },
        {
          "indexed": true,
          "internalType": "address",
          "name": "staker",
          "type": "address"
        },
        {
          "indexed": false,
          "internalType": "uint256",
          "name": "amount",
          "type": "uint256"
        }
      ],
      "name": "StakeChanged",
      "type": "event"
    },
    {
      "inputs": [],
      "name": "PER_BILL",
      "outputs": [
        {
          "internalType": "uint256",
          "name": "",
          "type": "uint256"
        }
      ],
      "stateMutability": "view",
      "type": "function"
    },
    {
      "inputs": [],
      "name": "PER_MILL",
      "outputs": [
        {
          "internalType": "uint256",
          "name": "",
          "type": "uint256"
        }
      ],
      "stateMutability": "view",
      "type": "function"
    },
    {
      "inputs": [],
      "name": "PER_TRILL",
      "outputs": [
        {
          "internalType": "uint256",
          "name": "",
          "type": "uint256"
        }
      ],
      "stateMutability": "view",
      "type": "function"
    },
    {
      "inputs": [],
      "name": "ZERO_ADDRESS",
      "outputs": [
        {
          "internalType": "address",
          "name": "",
          "type": "address"
        }
      ],
      "stateMutability": "view",
      "type": "function"
    },
    {
      "inputs": [
        {
          "internalType": "uint256",
          "name": "currentEra",
          "type": "uint256"
        },
        {
          "internalType": "address",
          "name": "indexer",
          "type": "address"
        }
      ],
      "name": "_collectAndDistributeRewards",
      "outputs": [
        {
          "internalType": "uint256",
          "name": "",
          "type": "uint256"
        }
      ],
      "stateMutability": "nonpayable",
      "type": "function"
    },
    {
      "inputs": [
        {
          "internalType": "address",
          "name": "indexer",
          "type": "address"
        },
        {
          "internalType": "address",
          "name": "sender",
          "type": "address"
        },
        {
          "internalType": "uint256",
          "name": "amount",
          "type": "uint256"
        }
      ],
      "name": "addInstantRewards",
      "outputs": [],
      "stateMutability": "nonpayable",
      "type": "function"
    },
    {
      "inputs": [
        {
          "internalType": "address",
          "name": "indexer",
          "type": "address"
        }
      ],
      "name": "applyICRChange",
      "outputs": [],
      "stateMutability": "nonpayable",
      "type": "function"
    },
    {
      "inputs": [
        {
          "internalType": "address",
          "name": "indexer",
          "type": "address"
        },
        {
          "internalType": "address",
          "name": "staker",
          "type": "address"
        }
      ],
      "name": "applyStakeChange",
      "outputs": [],
      "stateMutability": "nonpayable",
      "type": "function"
    },
    {
      "inputs": [
        {
          "internalType": "address",
          "name": "indexer",
          "type": "address"
        }
      ],
      "name": "claim",
      "outputs": [],
      "stateMutability": "nonpayable",
      "type": "function"
    },
    {
      "inputs": [
        {
          "internalType": "address",
          "name": "indexer",
          "type": "address"
        },
        {
          "internalType": "address",
          "name": "user",
          "type": "address"
        }
      ],
      "name": "claimFrom",
      "outputs": [
        {
          "internalType": "uint256",
          "name": "",
          "type": "uint256"
        }
      ],
      "stateMutability": "nonpayable",
      "type": "function"
    },
    {
      "inputs": [
        {
          "internalType": "address",
          "name": "indexer",
          "type": "address"
        }
      ],
      "name": "collectAndDistributeRewards",
      "outputs": [],
      "stateMutability": "nonpayable",
      "type": "function"
    },
    {
      "inputs": [
        {
          "internalType": "address",
          "name": "indexer",
          "type": "address"
        }
      ],
      "name": "getCommissionRate",
      "outputs": [
        {
          "internalType": "uint256",
          "name": "",
          "type": "uint256"
        }
      ],
      "stateMutability": "view",
      "type": "function"
    },
    {
      "inputs": [
        {
          "internalType": "address",
          "name": "indexer",
          "type": "address"
        }
      ],
      "name": "getCommissionRateChangedEra",
      "outputs": [
        {
          "internalType": "uint256",
          "name": "",
          "type": "uint256"
        }
      ],
      "stateMutability": "view",
      "type": "function"
    },
    {
      "inputs": [
        {
          "internalType": "address",
          "name": "source",
          "type": "address"
        },
        {
          "internalType": "address",
          "name": "indexer",
          "type": "address"
        }
      ],
      "name": "getDelegationAmount",
      "outputs": [
        {
          "internalType": "uint256",
          "name": "",
          "type": "uint256"
        }
      ],
      "stateMutability": "view",
      "type": "function"
    },
    {
      "inputs": [
        {
          "internalType": "address",
          "name": "indexer",
          "type": "address"
        }
      ],
      "name": "getLastSettledEra",
      "outputs": [
        {
          "internalType": "uint256",
          "name": "",
          "type": "uint256"
        }
      ],
      "stateMutability": "view",
      "type": "function"
    },
    {
      "inputs": [
        {
          "internalType": "address",
          "name": "indexer",
          "type": "address"
        }
      ],
      "name": "getPendingStakeChangeLength",
      "outputs": [
        {
          "internalType": "uint256",
          "name": "",
          "type": "uint256"
        }
      ],
      "stateMutability": "view",
      "type": "function"
    },
    {
      "inputs": [
        {
          "internalType": "address",
          "name": "indexer",
          "type": "address"
        },
        {
          "internalType": "uint256",
          "name": "i",
          "type": "uint256"
        }
      ],
      "name": "getPendingStaker",
      "outputs": [
        {
          "internalType": "address",
          "name": "",
          "type": "address"
        }
      ],
      "stateMutability": "view",
      "type": "function"
    },
    {
      "inputs": [
        {
          "internalType": "address",
          "name": "indexer",
          "type": "address"
        },
        {
          "internalType": "uint256",
          "name": "era",
          "type": "uint256"
        }
      ],
      "name": "getRewardAddTable",
      "outputs": [
        {
          "internalType": "uint256",
          "name": "",
          "type": "uint256"
        }
      ],
      "stateMutability": "view",
      "type": "function"
    },
    {
      "inputs": [
        {
          "internalType": "address",
          "name": "indexer",
          "type": "address"
        }
      ],
      "name": "getRewardInfo",
      "outputs": [
        {
          "components": [
            {
              "internalType": "uint256",
              "name": "accSQTPerStake",
              "type": "uint256"
            },
            {
              "internalType": "uint256",
              "name": "lastClaimEra",
              "type": "uint256"
            },
            {
              "internalType": "uint256",
              "name": "eraReward",
              "type": "uint256"
            }
          ],
          "internalType": "struct RewardsDistributer.IndexerRewardInfo",
          "name": "",
          "type": "tuple"
        }
      ],
      "stateMutability": "view",
      "type": "function"
    },
    {
      "inputs": [
        {
          "internalType": "address",
          "name": "indexer",
          "type": "address"
        },
        {
          "internalType": "uint256",
          "name": "era",
          "type": "uint256"
        }
      ],
      "name": "getRewardRemoveTable",
      "outputs": [
        {
          "internalType": "uint256",
          "name": "",
          "type": "uint256"
        }
      ],
      "stateMutability": "view",
      "type": "function"
    },
    {
      "inputs": [
        {
          "internalType": "address",
          "name": "indexer",
          "type": "address"
        }
      ],
      "name": "getTotalStakingAmount",
      "outputs": [
        {
          "internalType": "uint256",
          "name": "",
          "type": "uint256"
        }
      ],
      "stateMutability": "view",
      "type": "function"
    },
    {
      "inputs": [
        {
          "internalType": "uint256",
          "name": "agreementId",
          "type": "uint256"
        }
      ],
      "name": "increaseAgreementRewards",
      "outputs": [],
      "stateMutability": "nonpayable",
      "type": "function"
    },
    {
      "inputs": [
        {
          "internalType": "contract ISettings",
          "name": "_settings",
          "type": "address"
        }
      ],
      "name": "initialize",
      "outputs": [],
      "stateMutability": "nonpayable",
      "type": "function"
    },
    {
      "inputs": [
        {
          "internalType": "address",
          "name": "indexer",
          "type": "address"
        },
        {
          "internalType": "uint256",
          "name": "startEra",
          "type": "uint256"
        }
      ],
      "name": "onICRChange",
      "outputs": [],
      "stateMutability": "nonpayable",
      "type": "function"
    },
    {
      "inputs": [
        {
          "internalType": "address",
          "name": "_indexer",
          "type": "address"
        },
        {
          "internalType": "address",
          "name": "_source",
          "type": "address"
        }
      ],
      "name": "onStakeChange",
      "outputs": [],
      "stateMutability": "nonpayable",
      "type": "function"
    },
    {
      "inputs": [],
      "name": "owner",
      "outputs": [
        {
          "internalType": "address",
          "name": "",
          "type": "address"
        }
      ],
      "stateMutability": "view",
      "type": "function"
    },
    {
      "inputs": [],
      "name": "renounceOwnership",
      "outputs": [],
      "stateMutability": "nonpayable",
      "type": "function"
    },
    {
      "inputs": [
        {
          "internalType": "contract ISettings",
          "name": "_settings",
          "type": "address"
        }
      ],
      "name": "setSettings",
      "outputs": [],
      "stateMutability": "nonpayable",
      "type": "function"
    },
    {
      "inputs": [
        {
          "internalType": "address",
          "name": "newOwner",
          "type": "address"
        }
      ],
      "name": "transferOwnership",
      "outputs": [],
      "stateMutability": "nonpayable",
      "type": "function"
    },
    {
      "inputs": [
        {
          "internalType": "address",
          "name": "indexer",
          "type": "address"
        },
        {
          "internalType": "address",
          "name": "user",
          "type": "address"
        }
      ],
      "name": "userRewards",
      "outputs": [
        {
          "internalType": "uint256",
          "name": "",
          "type": "uint256"
        }
      ],
      "stateMutability": "view",
      "type": "function"
    }
  ],
  "bytecode": "0x608060405234801561001057600080fd5b50615f4a80620000216000396000f3fe608060405234801561001057600080fd5b50600436106101da5760003560e01c8063a980356a11610104578063d7b26a11116100a2578063f20fa88711610071578063f20fa8871461058b578063f2fde38b146105bb578063f65caaa7146105d7578063feaa1feb14610607576101da565b8063d7b26a11146104df578063e0cc26a2146104fb578063e726880c1461052b578063e92608981461055b576101da565b8063c4d66de8116100de578063c4d66de81461045b578063c731196a14610477578063d579f9b314610493578063d786858f146104c3576101da565b8063a980356a146103df578063af1679a51461040f578063b62623141461043f576101da565b80634f76adb11161017c5780638da5cb5b1161014b5780638da5cb5b1461036d578063998e21691461038b5780639ca0e97f146103a7578063a01d3c2c146103c3576101da565b80634f76adb1146102e5578063538ba4f914610315578063695721f014610333578063715018a614610363576101da565b8063182560b5116101b8578063182560b51461024b5780631e83409a1461027b578063242b39a0146102975780634aa83d0e146102c7576101da565b806304460903146101df57806306032d74146101fd57806308def1621461022d575b600080fd5b6101e7610623565b6040516101f49190614be9565b60405180910390f35b61021760048036038101906102129190614c71565b61062a565b6040516102249190614cef565b60405180910390f35b6102356106a4565b6040516102429190614be9565b60405180910390f35b61026560048036038101906102609190614c71565b6106ad565b6040516102729190614be9565b60405180910390f35b61029560048036038101906102909190614c71565b6106f6565b005b6102b160048036038101906102ac9190614d36565b610745565b6040516102be9190614be9565b60405180910390f35b6102cf6107a3565b6040516102dc9190614be9565b60405180910390f35b6102ff60048036038101906102fa9190614c71565b6107ab565b60405161030c9190614be9565b60405180910390f35b61031d6107f4565b60405161032a9190614d85565b60405180910390f35b61034d60048036038101906103489190614c71565b6107f9565b60405161035a9190614be9565b60405180910390f35b61036b610842565b005b6103756108ca565b6040516103829190614d85565b60405180910390f35b6103a560048036038101906103a09190614da0565b6108f4565b005b6103c160048036038101906103bc9190614df3565b610b8c565b005b6103dd60048036038101906103d89190614e71565b611422565b005b6103f960048036038101906103f49190614df3565b6114e2565b6040516104069190614be9565b60405180910390f35b61042960048036038101906104249190614df3565b611649565b6040516104369190614be9565b60405180910390f35b61045960048036038101906104549190614d36565b6116d0565b005b61047560048036038101906104709190614e71565b611948565b005b610491600480360381019061048c9190614c71565b611a76565b005b6104ad60048036038101906104a89190614e9e565b611b21565b6040516104ba9190614be9565b60405180910390f35b6104dd60048036038101906104d89190614c71565b612136565b005b6104f960048036038101906104f49190614ede565b6124ce565b005b61051560048036038101906105109190614c71565b612f11565b6040516105229190614be9565b60405180910390f35b61054560048036038101906105409190614d36565b612f5a565b6040516105529190614be9565b60405180910390f35b61057560048036038101906105709190614c71565b612fb8565b6040516105829190614be9565b60405180910390f35b6105a560048036038101906105a09190614d36565b613001565b6040516105b29190614d85565b60405180910390f35b6105d560048036038101906105d09190614c71565b61307c565b005b6105f160048036038101906105ec9190614df3565b613173565b6040516105fe9190614be9565b60405180910390f35b610621600480360381019061061c9190614df3565b6134ea565b005b620f424081565b610632614baf565b6000606660008473ffffffffffffffffffffffffffffffffffffffff1673ffffffffffffffffffffffffffffffffffffffff1681526020019081526020016000209050604051806060016040528082600001548152602001826002015481526020018260030154815250915050919050565b64e8d4a5100081565b6000606a60008373ffffffffffffffffffffffffffffffffffffffff1673ffffffffffffffffffffffffffffffffffffffff168152602001908152602001600020549050919050565b60006107028233613173565b11610742576040517f08c379a000000000000000000000000000000000000000000000000000000000815260040161073990614f68565b60405180910390fd5b50565b6000606660008473ffffffffffffffffffffffffffffffffffffffff1673ffffffffffffffffffffffffffffffffffffffff168152602001908152602001600020600401600083815260200190815260200160002054905092915050565b633b9aca0081565b6000606b60008373ffffffffffffffffffffffffffffffffffffffff1673ffffffffffffffffffffffffffffffffffffffff168152602001908152602001600020549050919050565b600081565b6000606960008373ffffffffffffffffffffffffffffffffffffffff1673ffffffffffffffffffffffffffffffffffffffff168152602001908152602001600020549050919050565b61084a613f24565b73ffffffffffffffffffffffffffffffffffffffff166108686108ca565b73ffffffffffffffffffffffffffffffffffffffff16146108be576040517f08c379a00000000000000000000000000000000000000000000000000000000081526004016108b590614fd4565b60405180910390fd5b6108c86000613f2c565b565b6000603360009054906101000a900473ffffffffffffffffffffffffffffffffffffffff16905090565b6109b1823083606560009054906101000a900473ffffffffffffffffffffffffffffffffffffffff1673ffffffffffffffffffffffffffffffffffffffff1663afc1aaca6040518163ffffffff1660e01b8152600401602060405180830381865afa158015610967573d6000803e3d6000fd5b505050506040513d601f19601f8201168201806040525081019061098b9190615009565b73ffffffffffffffffffffffffffffffffffffffff16613ff2909392919063ffffffff16565b6000606560009054906101000a900473ffffffffffffffffffffffffffffffffffffffff1673ffffffffffffffffffffffffffffffffffffffff166374cb38b06040518163ffffffff1660e01b8152600401602060405180830381865afa158015610a20573d6000803e3d6000fd5b505050506040513d601f19601f82011682018060405250810190610a449190615009565b905060008173ffffffffffffffffffffffffffffffffffffffff16636f853a5d6040518163ffffffff1660e01b81526004016020604051808303816000875af1158015610a95573d6000803e3d6000fd5b505050506040513d601f19601f82011682018060405250810190610ab9919061504b565b90506000606660008773ffffffffffffffffffffffffffffffffffffffff1673ffffffffffffffffffffffffffffffffffffffff1681526020019081526020016000209050838160040160008481526020019081526020016000206000828254610b2391906150a7565b9250508190555083816005016000600185610b3e91906150a7565b81526020019081526020016000206000828254610b5b91906150a7565b92505081905550610b6d86838361407b565b610b8486600184610b7e91906150a7565b8361407b565b505050505050565b6000610b966140fb565b90506000606660008573ffffffffffffffffffffffffffffffffffffffff1673ffffffffffffffffffffffffffffffffffffffff168152602001908152602001600020600201549050610be98484614208565b610c28576040517f08c379a0000000000000000000000000000000000000000000000000000000008152600401610c1f90615149565b60405180910390fd5b80606b60008673ffffffffffffffffffffffffffffffffffffffff1673ffffffffffffffffffffffffffffffffffffffff1681526020019081526020016000205410610ca9576040517f08c379a0000000000000000000000000000000000000000000000000000000008152600401610ca0906151b5565b60405180910390fd5b6000606560009054906101000a900473ffffffffffffffffffffffffffffffffffffffff1673ffffffffffffffffffffffffffffffffffffffff16638e5a4ab66040518163ffffffff1660e01b8152600401602060405180830381865afa158015610d18573d6000803e3d6000fd5b505050506040513d601f19601f82011682018060405250810190610d3c9190615009565b90508073ffffffffffffffffffffffffffffffffffffffff1663d2ef079583876040518363ffffffff1660e01b8152600401610d799291906151d5565b6020604051808303816000875af1158015610d98573d6000803e3d6000fd5b505050506040513d601f19601f82011682018060405250810190610dbc9190615236565b610dfb576040517f08c379a0000000000000000000000000000000000000000000000000000000008152600401610df2906152af565b60405180910390fd5b610e058585613173565b506000606560009054906101000a900473ffffffffffffffffffffffffffffffffffffffff1673ffffffffffffffffffffffffffffffffffffffff16637b1391a66040518163ffffffff1660e01b8152600401602060405180830381865afa158015610e75573d6000803e3d6000fd5b505050506040513d601f19601f82011682018060405250810190610e999190615009565b905060008173ffffffffffffffffffffffffffffffffffffffff16631c50303987896040518363ffffffff1660e01b8152600401610ed89291906152cf565b602060405180830381865afa158015610ef5573d6000803e3d6000fd5b505050506040513d601f19601f82011682018060405250810190610f19919061504b565b905080606d60008873ffffffffffffffffffffffffffffffffffffffff1673ffffffffffffffffffffffffffffffffffffffff16815260200190815260200160002060008973ffffffffffffffffffffffffffffffffffffffff1673ffffffffffffffffffffffffffffffffffffffff16815260200190815260200160002081905550610fee81606660008a73ffffffffffffffffffffffffffffffffffffffff1673ffffffffffffffffffffffffffffffffffffffff1681526020019081526020016000206000015464e8d4a5100061432d565b606660008973ffffffffffffffffffffffffffffffffffffffff1673ffffffffffffffffffffffffffffffffffffffff16815260200190815260200160002060010160008873ffffffffffffffffffffffffffffffffffffffff1673ffffffffffffffffffffffffffffffffffffffff168152602001908152602001600020819055506000606860008973ffffffffffffffffffffffffffffffffffffffff1673ffffffffffffffffffffffffffffffffffffffff16815260200190815260200160002060008873ffffffffffffffffffffffffffffffffffffffff1673ffffffffffffffffffffffffffffffffffffffff1681526020019081526020016000205490506000606760008a73ffffffffffffffffffffffffffffffffffffffff1673ffffffffffffffffffffffffffffffffffffffff168152602001908152602001600020600083815260200190815260200160002060006101000a81548173ffffffffffffffffffffffffffffffffffffffff021916908373ffffffffffffffffffffffffffffffffffffffff1602179055506000606760008a73ffffffffffffffffffffffffffffffffffffffff1673ffffffffffffffffffffffffffffffffffffffff16815260200190815260200160002060006001606960008d73ffffffffffffffffffffffffffffffffffffffff1673ffffffffffffffffffffffffffffffffffffffff1681526020019081526020016000205461121191906152f8565b815260200190815260200160002060009054906101000a900473ffffffffffffffffffffffffffffffffffffffff16905080606760008b73ffffffffffffffffffffffffffffffffffffffff1673ffffffffffffffffffffffffffffffffffffffff168152602001908152602001600020600084815260200190815260200160002060006101000a81548173ffffffffffffffffffffffffffffffffffffffff021916908373ffffffffffffffffffffffffffffffffffffffff16021790555081606860008b73ffffffffffffffffffffffffffffffffffffffff1673ffffffffffffffffffffffffffffffffffffffff16815260200190815260200160002060008373ffffffffffffffffffffffffffffffffffffffff1673ffffffffffffffffffffffffffffffffffffffff16815260200190815260200160002081905550606960008a73ffffffffffffffffffffffffffffffffffffffff1673ffffffffffffffffffffffffffffffffffffffff16815260200190815260200160002060008154809291906113a29061532c565b91905055506113b2848a8961434f565b8773ffffffffffffffffffffffffffffffffffffffff168973ffffffffffffffffffffffffffffffffffffffff167f707ba35f17bd82ff7716c1ab3c1f7d57539b060ccb665d42bf0a5fa2ffc0f37d8560405161140f9190614be9565b60405180910390a3505050505050505050565b61142a613f24565b73ffffffffffffffffffffffffffffffffffffffff166114486108ca565b73ffffffffffffffffffffffffffffffffffffffff161461149e576040517f08c379a000000000000000000000000000000000000000000000000000000000815260040161149590614fd4565b60405180910390fd5b80606560006101000a81548173ffffffffffffffffffffffffffffffffffffffff021916908373ffffffffffffffffffffffffffffffffffffffff16021790555050565b600080606d60008473ffffffffffffffffffffffffffffffffffffffff1673ffffffffffffffffffffffffffffffffffffffff16815260200190815260200160002060008573ffffffffffffffffffffffffffffffffffffffff1673ffffffffffffffffffffffffffffffffffffffff168152602001908152602001600020549050606660008573ffffffffffffffffffffffffffffffffffffffff1673ffffffffffffffffffffffffffffffffffffffff16815260200190815260200160002060010160008473ffffffffffffffffffffffffffffffffffffffff1673ffffffffffffffffffffffffffffffffffffffff1681526020019081526020016000205461163682606660008873ffffffffffffffffffffffffffffffffffffffff1673ffffffffffffffffffffffffffffffffffffffff1681526020019081526020016000206000015464e8d4a5100061432d565b61164091906152f8565b91505092915050565b6000606d60008473ffffffffffffffffffffffffffffffffffffffff1673ffffffffffffffffffffffffffffffffffffffff16815260200190815260200160002060008373ffffffffffffffffffffffffffffffffffffffff1673ffffffffffffffffffffffffffffffffffffffff16815260200190815260200160002054905092915050565b606560009054906101000a900473ffffffffffffffffffffffffffffffffffffffff1673ffffffffffffffffffffffffffffffffffffffff16637b1391a66040518163ffffffff1660e01b8152600401602060405180830381865afa15801561173d573d6000803e3d6000fd5b505050506040513d601f19601f820116820180604052508101906117619190615009565b73ffffffffffffffffffffffffffffffffffffffff163373ffffffffffffffffffffffffffffffffffffffff16146117ce576040517f08c379a00000000000000000000000000000000000000000000000000000000081526004016117c5906153a1565b60405180910390fd5b60006117d86140fb565b905080821161181c576040517f08c379a00000000000000000000000000000000000000000000000000000000081526004016118139061540d565b60405180910390fd5b60018161182991906152f8565b6118338285611b21565b14611873576040517f08c379a000000000000000000000000000000000000000000000000000000000815260040161186a90615479565b60405180910390fd5b6118c08184606660008773ffffffffffffffffffffffffffffffffffffffff1673ffffffffffffffffffffffffffffffffffffffff16815260200190815260200160002060020154614464565b6118ff576040517f08c379a00000000000000000000000000000000000000000000000000000000081526004016118f6906154e5565b60405180910390fd5b81606a60008573ffffffffffffffffffffffffffffffffffffffff1673ffffffffffffffffffffffffffffffffffffffff16815260200190815260200160002081905550505050565b600060019054906101000a900460ff166119705760008054906101000a900460ff1615611979565b61197861474c565b5b6119b8576040517f08c379a00000000000000000000000000000000000000000000000000000000081526004016119af90615577565b60405180910390fd5b60008060019054906101000a900460ff161590508015611a08576001600060016101000a81548160ff02191690831515021790555060016000806101000a81548160ff0219169083151502179055505b611a1061475d565b81606560006101000a81548173ffffffffffffffffffffffffffffffffffffffff021916908373ffffffffffffffffffffffffffffffffffffffff1602179055508015611a725760008060016101000a81548160ff0219169083151502179055505b5050565b6000611a806140fb565b9050600181611a8f91906152f8565b606660008473ffffffffffffffffffffffffffffffffffffffff1673ffffffffffffffffffffffffffffffffffffffff1681526020019081526020016000206002015410611b12576040517f08c379a0000000000000000000000000000000000000000000000000000000008152600401611b09906155e3565b60405180910390fd5b611b1c8183611b21565b505050565b600080606660008473ffffffffffffffffffffffffffffffffffffffff1673ffffffffffffffffffffffffffffffffffffffff16815260200190815260200160002090506000816002015411611bac576040517f08c379a0000000000000000000000000000000000000000000000000000000008152600401611ba39061564f565b60405180910390fd5b600184611bb991906152f8565b816002015410611bd0578060020154915050612130565b611bdf84848360020154614464565b50606b60008473ffffffffffffffffffffffffffffffffffffffff1673ffffffffffffffffffffffffffffffffffffffff1681526020019081526020016000205481600201541115611c66576040517f08c379a0000000000000000000000000000000000000000000000000000000008152600401611c5d906156bb565b60405180910390fd5b806002016000815480929190611c7b906156db565b91905055508060040160008260020154815260200190815260200160002054816003016000828254611cad91906150a7565b925050819055508060050160008260020154815260200190815260200160002054816003016000828254611ce191906152f8565b92505081905550806004016000826002015481526020019081526020016000206000905580600501600082600201548152602001908152602001600020600090556000816003015414612127576000606c60008573ffffffffffffffffffffffffffffffffffffffff1673ffffffffffffffffffffffffffffffffffffffff16815260200190815260200160002054905060008111611db5576040517f08c379a0000000000000000000000000000000000000000000000000000000008152600401611dac9061576f565b60405180910390fd5b6000611e08606e60008773ffffffffffffffffffffffffffffffffffffffff1673ffffffffffffffffffffffffffffffffffffffff168152602001908152602001600020548460030154620f424061432d565b9050611e29818460030154611e1d91906152f8565b64e8d4a510008461432d565b606660008773ffffffffffffffffffffffffffffffffffffffff1673ffffffffffffffffffffffffffffffffffffffff1681526020019081526020016000206000016000828254611e7a91906150a7565b92505081905550611f3c8582606560009054906101000a900473ffffffffffffffffffffffffffffffffffffffff1673ffffffffffffffffffffffffffffffffffffffff1663afc1aaca6040518163ffffffff1660e01b8152600401602060405180830381865afa158015611ef3573d6000803e3d6000fd5b505050506040513d601f19601f82011682018060405250810190611f179190615009565b73ffffffffffffffffffffffffffffffffffffffff166147b69092919063ffffffff16565b82600201548573ffffffffffffffffffffffffffffffffffffffff167f3a748d40c2a4d1652cf9e6faa37c5e347459597272d02843e21e96eb9564237283604051611f879190614be9565b60405180910390a36000606560009054906101000a900473ffffffffffffffffffffffffffffffffffffffff1673ffffffffffffffffffffffffffffffffffffffff1663b989ab1d6040518163ffffffff1660e01b8152600401602060405180830381865afa158015611ffe573d6000803e3d6000fd5b505050506040513d601f19601f820116820180604052508101906120229190615009565b90508073ffffffffffffffffffffffffffffffffffffffff16631ad31c32606560009054906101000a900473ffffffffffffffffffffffffffffffffffffffff1673ffffffffffffffffffffffffffffffffffffffff1663afc1aaca6040518163ffffffff1660e01b8152600401602060405180830381865afa1580156120ad573d6000803e3d6000fd5b505050506040513d601f19601f820116820180604052508101906120d19190615009565b88856040518463ffffffff1660e01b81526004016120f19392919061578f565b600060405180830381600087803b15801561210b57600080fd5b505af115801561211f573d6000803e3d6000fd5b505050505050505b80600201549150505b92915050565b60006121406140fb565b90506000606a60008473ffffffffffffffffffffffffffffffffffffffff1673ffffffffffffffffffffffffffffffffffffffff16815260200190815260200160002054141580156121d1575080606a60008473ffffffffffffffffffffffffffffffffffffffff1673ffffffffffffffffffffffffffffffffffffffff1681526020019081526020016000205411155b612210576040517f08c379a000000000000000000000000000000000000000000000000000000000815260040161220790615149565b60405180910390fd5b606660008373ffffffffffffffffffffffffffffffffffffffff1673ffffffffffffffffffffffffffffffffffffffff16815260200190815260200160002060020154606b60008473ffffffffffffffffffffffffffffffffffffffff1673ffffffffffffffffffffffffffffffffffffffff16815260200190815260200160002054106122d3576040517f08c379a00000000000000000000000000000000000000000000000000000000081526004016122ca906151b5565b60405180910390fd5b6000606560009054906101000a900473ffffffffffffffffffffffffffffffffffffffff1673ffffffffffffffffffffffffffffffffffffffff16637b1391a66040518163ffffffff1660e01b8152600401602060405180830381865afa158015612342573d6000803e3d6000fd5b505050506040513d601f19601f820116820180604052508101906123669190615009565b905060008173ffffffffffffffffffffffffffffffffffffffff1663e0cc26a2856040518263ffffffff1660e01b81526004016123a39190614d85565b602060405180830381865afa1580156123c0573d6000803e3d6000fd5b505050506040513d601f19601f820116820180604052508101906123e4919061504b565b905080606e60008673ffffffffffffffffffffffffffffffffffffffff1673ffffffffffffffffffffffffffffffffffffffff168152602001908152602001600020819055506000606a60008673ffffffffffffffffffffffffffffffffffffffff1673ffffffffffffffffffffffffffffffffffffffff1681526020019081526020016000208190555061247a82858561434f565b8373ffffffffffffffffffffffffffffffffffffffff167fb1d65fa2c78bfd120b826c760f5cbebb55f672f50299df05e214012870d0243c826040516124c09190614be9565b60405180910390a250505050565b3373ffffffffffffffffffffffffffffffffffffffff16606560009054906101000a900473ffffffffffffffffffffffffffffffffffffffff1673ffffffffffffffffffffffffffffffffffffffff16635dfdb6e96040518163ffffffff1660e01b8152600401602060405180830381865afa158015612552573d6000803e3d6000fd5b505050506040513d601f19601f820116820180604052508101906125769190615009565b73ffffffffffffffffffffffffffffffffffffffff16146125cc576040517f08c379a00000000000000000000000000000000000000000000000000000000081526004016125c390615812565b60405180910390fd5b6000606560009054906101000a900473ffffffffffffffffffffffffffffffffffffffff1673ffffffffffffffffffffffffffffffffffffffff16635dfdb6e96040518163ffffffff1660e01b8152600401602060405180830381865afa15801561263b573d6000803e3d6000fd5b505050506040513d601f19601f8201168201806040525081019061265f9190615009565b73ffffffffffffffffffffffffffffffffffffffff1663b019fb60836040518263ffffffff1660e01b81526004016126979190614be9565b61010060405180830381865afa1580156126b5573d6000803e3d6000fd5b505050506040513d601f19601f820116820180604052508101906126d991906159c3565b9050600073ffffffffffffffffffffffffffffffffffffffff16816000015173ffffffffffffffffffffffffffffffffffffffff160361274e576040517f08c379a000000000000000000000000000000000000000000000000000000000815260040161274590615a3d565b60405180910390fd5b6000606560009054906101000a900473ffffffffffffffffffffffffffffffffffffffff1673ffffffffffffffffffffffffffffffffffffffff166374cb38b06040518163ffffffff1660e01b8152600401602060405180830381865afa1580156127bd573d6000803e3d6000fd5b505050506040513d601f19601f820116820180604052508101906127e19190615009565b905060008260200151905060008360a00151905060008460600151905060008560800151905060008573ffffffffffffffffffffffffffffffffffffffff1663b8114190836040518263ffffffff1660e01b81526004016128429190614be9565b602060405180830381865afa15801561285f573d6000803e3d6000fd5b505050506040513d601f19601f82011682018060405250810190612883919061504b565b905060008673ffffffffffffffffffffffffffffffffffffffff1663ba08553a6040518163ffffffff1660e01b8152600401602060405180830381865afa1580156128d2573d6000803e3d6000fd5b505050506040513d601f19601f820116820180604052508101906128f6919061504b565b90506129b5333086606560009054906101000a900473ffffffffffffffffffffffffffffffffffffffff1673ffffffffffffffffffffffffffffffffffffffff1663afc1aaca6040518163ffffffff1660e01b8152600401602060405180830381865afa15801561296b573d6000803e3d6000fd5b505050506040513d601f19601f8201168201806040525081019061298f9190615009565b73ffffffffffffffffffffffffffffffffffffffff16613ff2909392919063ffffffff16565b600085846129c391906150a7565b9050600084612adb8460018c73ffffffffffffffffffffffffffffffffffffffff16637d884c746040518163ffffffff1660e01b8152600401602060405180830381865afa158015612a19573d6000803e3d6000fd5b505050506040513d601f19601f82011682018060405250810190612a3d919061504b565b88612a4891906152f8565b612a5291906150a7565b612a5c9190615a5d565b8b73ffffffffffffffffffffffffffffffffffffffff1663234017636040518163ffffffff1660e01b8152600401602060405180830381865afa158015612aa7573d6000803e3d6000fd5b505050506040513d601f19601f82011682018060405250810190612acb919061504b565b612ad591906150a7565b8461483c565b612ae591906152f8565b90506000606660008a73ffffffffffffffffffffffffffffffffffffffff1673ffffffffffffffffffffffffffffffffffffffff1681526020019081526020016000209050878203612b9a57868160040160008781526020019081526020016000206000828254612b5691906150a7565b9250508190555086816005016000600188612b7191906150a7565b81526020019081526020016000206000828254612b8e91906150a7565b92505081905550612ee1565b8184612ba691906150a7565b8811612ca1576000612bb983898b61432d565b90506000612bc78983614858565b9050818360040160008981526020019081526020016000206000828254612bee91906150a7565b925050819055506000600288612c0491906150a7565b9050818310612c1e578183612c1991906152f8565b612c2b565b8282612c2a91906152f8565b5b84600401600060018b612c3e91906150a7565b81526020019081526020016000206000828254612c5b91906150a7565b92505081905550818460050160008381526020019081526020016000206000828254612c8791906150a7565b92505081905550612c998c828661407b565b505050612ee0565b6000612cae83898b61432d565b9050808260040160008881526020019081526020016000206000828254612cd591906150a7565b925050819055506000612cf3848b612ced91906152f8565b87614880565b90506000612d02878b8d61432d565b90508281612d1091906152f8565b84600401600060018b612d2391906150a7565b81526020019081526020016000206000828254612d4091906150a7565b925050819055506000612d73612d568c86614858565b600185612d6391906152f8565b84612d6e9190615a5d565b614858565b9050818111612e0a576000612d888383614858565b9050808660050160008c87612d9d91906150a7565b81526020019081526020016000206000828254612dba91906150a7565b925050819055508186600501600060018d88612dd691906150a7565b612de091906150a7565b81526020019081526020016000206000828254612dfd91906150a7565b9250508190555050612e94565b6000612e168284614858565b9050808660040160008c87612e2b91906150a7565b81526020019081526020016000206000828254612e4891906150a7565b925050819055508186600501600060018d88612e6491906150a7565b612e6e91906150a7565b81526020019081526020016000206000828254612e8b91906150a7565b92505081905550505b600089612eac888f612ea691906152f8565b8b614880565b612eb691906150a7565b9050612ec38e828861407b565b612eda8e600183612ed491906150a7565b8861407b565b50505050505b5b612eec89868361407b565b612f0389600187612efd91906150a7565b8361407b565b505050505050505050505050565b6000606e60008373ffffffffffffffffffffffffffffffffffffffff1673ffffffffffffffffffffffffffffffffffffffff168152602001908152602001600020549050919050565b6000606660008473ffffffffffffffffffffffffffffffffffffffff1673ffffffffffffffffffffffffffffffffffffffff168152602001908152602001600020600501600083815260200190815260200160002054905092915050565b6000606c60008373ffffffffffffffffffffffffffffffffffffffff1673ffffffffffffffffffffffffffffffffffffffff168152602001908152602001600020549050919050565b6000606760008473ffffffffffffffffffffffffffffffffffffffff1673ffffffffffffffffffffffffffffffffffffffff168152602001908152602001600020600083815260200190815260200160002060009054906101000a900473ffffffffffffffffffffffffffffffffffffffff16905092915050565b613084613f24565b73ffffffffffffffffffffffffffffffffffffffff166130a26108ca565b73ffffffffffffffffffffffffffffffffffffffff16146130f8576040517f08c379a00000000000000000000000000000000000000000000000000000000081526004016130ef90614fd4565b60405180910390fd5b600073ffffffffffffffffffffffffffffffffffffffff168173ffffffffffffffffffffffffffffffffffffffff1603613167576040517f08c379a000000000000000000000000000000000000000000000000000000000815260040161315e90615b29565b60405180910390fd5b61317081613f2c565b50565b60008061318084846114e2565b9050600081036131945760009150506134e4565b80606660008673ffffffffffffffffffffffffffffffffffffffff1673ffffffffffffffffffffffffffffffffffffffff16815260200190815260200160002060010160008573ffffffffffffffffffffffffffffffffffffffff1673ffffffffffffffffffffffffffffffffffffffff168152602001908152602001600020600082825461322391906150a7565b925050819055506132e58382606560009054906101000a900473ffffffffffffffffffffffffffffffffffffffff1673ffffffffffffffffffffffffffffffffffffffff1663afc1aaca6040518163ffffffff1660e01b8152600401602060405180830381865afa15801561329c573d6000803e3d6000fd5b505050506040513d601f19601f820116820180604052508101906132c09190615009565b73ffffffffffffffffffffffffffffffffffffffff166147b69092919063ffffffff16565b6000606560009054906101000a900473ffffffffffffffffffffffffffffffffffffffff1673ffffffffffffffffffffffffffffffffffffffff1663b989ab1d6040518163ffffffff1660e01b8152600401602060405180830381865afa158015613354573d6000803e3d6000fd5b505050506040513d601f19601f820116820180604052508101906133789190615009565b90508073ffffffffffffffffffffffffffffffffffffffff16631ad31c32606560009054906101000a900473ffffffffffffffffffffffffffffffffffffffff1673ffffffffffffffffffffffffffffffffffffffff1663afc1aaca6040518163ffffffff1660e01b8152600401602060405180830381865afa158015613403573d6000803e3d6000fd5b505050506040513d601f19601f820116820180604052508101906134279190615009565b86856040518463ffffffff1660e01b81526004016134479392919061578f565b600060405180830381600087803b15801561346157600080fd5b505af1158015613475573d6000803e3d6000fd5b505050508373ffffffffffffffffffffffffffffffffffffffff168573ffffffffffffffffffffffffffffffffffffffff167f9aa05b3d70a9e3e2f004f039648839560576334fb45c81f91b6db03ad9e2efc9846040516134d69190614be9565b60405180910390a381925050505b92915050565b606560009054906101000a900473ffffffffffffffffffffffffffffffffffffffff1673ffffffffffffffffffffffffffffffffffffffff16637b1391a66040518163ffffffff1660e01b8152600401602060405180830381865afa158015613557573d6000803e3d6000fd5b505050506040513d601f19601f8201168201806040525081019061357b9190615009565b73ffffffffffffffffffffffffffffffffffffffff163373ffffffffffffffffffffffffffffffffffffffff16146135e8576040517f08c379a00000000000000000000000000000000000000000000000000000000081526004016135df906153a1565b60405180910390fd5b60006135f26140fb565b90506000606660008573ffffffffffffffffffffffffffffffffffffffff1673ffffffffffffffffffffffffffffffffffffffff16815260200190815260200160002090506000606c60008673ffffffffffffffffffffffffffffffffffffffff1673ffffffffffffffffffffffffffffffffffffffff1681526020019081526020016000205403613c865760018261368b91906152f8565b81600201819055506001826136a091906152f8565b606b60008673ffffffffffffffffffffffffffffffffffffffff1673ffffffffffffffffffffffffffffffffffffffff168152602001908152602001600020819055506000606560009054906101000a900473ffffffffffffffffffffffffffffffffffffffff1673ffffffffffffffffffffffffffffffffffffffff16637b1391a66040518163ffffffff1660e01b8152600401602060405180830381865afa158015613752573d6000803e3d6000fd5b505050506040513d601f19601f820116820180604052508101906137769190615009565b905060008173ffffffffffffffffffffffffffffffffffffffff16631c50303987886040518363ffffffff1660e01b81526004016137b59291906152cf565b602060405180830381865afa1580156137d2573d6000803e3d6000fd5b505050506040513d601f19601f820116820180604052508101906137f6919061504b565b905080606d60008873ffffffffffffffffffffffffffffffffffffffff1673ffffffffffffffffffffffffffffffffffffffff16815260200190815260200160002060008873ffffffffffffffffffffffffffffffffffffffff1673ffffffffffffffffffffffffffffffffffffffff168152602001908152602001600020819055506138cb81606660008973ffffffffffffffffffffffffffffffffffffffff1673ffffffffffffffffffffffffffffffffffffffff1681526020019081526020016000206000015464e8d4a5100061432d565b606660008873ffffffffffffffffffffffffffffffffffffffff1673ffffffffffffffffffffffffffffffffffffffff16815260200190815260200160002060010160008873ffffffffffffffffffffffffffffffffffffffff1673ffffffffffffffffffffffffffffffffffffffff168152602001908152602001600020819055506000606660008873ffffffffffffffffffffffffffffffffffffffff1673ffffffffffffffffffffffffffffffffffffffff168152602001908152602001600020600501600086815260200190815260200160002054036139f2576000606660008873ffffffffffffffffffffffffffffffffffffffff1673ffffffffffffffffffffffffffffffffffffffff168152602001908152602001600020600301819055505b8173ffffffffffffffffffffffffffffffffffffffff1663e9260898876040518263ffffffff1660e01b8152600401613a2b9190614d85565b602060405180830381865afa158015613a48573d6000803e3d6000fd5b505050506040513d601f19601f82011682018060405250810190613a6c919061504b565b606c60008873ffffffffffffffffffffffffffffffffffffffff1673ffffffffffffffffffffffffffffffffffffffff1681526020019081526020016000208190555060008273ffffffffffffffffffffffffffffffffffffffff1663e0cc26a2886040518263ffffffff1660e01b8152600401613aea9190614d85565b602060405180830381865afa158015613b07573d6000803e3d6000fd5b505050506040513d601f19601f82011682018060405250810190613b2b919061504b565b905080606e60008973ffffffffffffffffffffffffffffffffffffffff1673ffffffffffffffffffffffffffffffffffffffff168152602001908152602001600020819055508673ffffffffffffffffffffffffffffffffffffffff168773ffffffffffffffffffffffffffffffffffffffff167f707ba35f17bd82ff7716c1ab3c1f7d57539b060ccb665d42bf0a5fa2ffc0f37d84604051613bce9190614be9565b60405180910390a38673ffffffffffffffffffffffffffffffffffffffff167fb1d65fa2c78bfd120b826c760f5cbebb55f672f50299df05e214012870d0243c82604051613c1c9190614be9565b60405180910390a28673ffffffffffffffffffffffffffffffffffffffff167f6d47968b2a13605f2dbe5e2e9f6513ad9c81fb14696d94ae9299a452ed62e0e6600187613c6991906152f8565b604051613c769190614be9565b60405180910390a2505050613f1e565b600182613c9391906152f8565b613c9d8386611b21565b14613cdd576040517f08c379a0000000000000000000000000000000000000000000000000000000008152600401613cd490615479565b60405180910390fd5b613cec82858360020154614464565b613d2b576040517f08c379a0000000000000000000000000000000000000000000000000000000008152600401613d22906154e5565b60405180910390fd5b613d358484614208565b613f1d5782606760008673ffffffffffffffffffffffffffffffffffffffff1673ffffffffffffffffffffffffffffffffffffffff1681526020019081526020016000206000606960008873ffffffffffffffffffffffffffffffffffffffff1673ffffffffffffffffffffffffffffffffffffffff16815260200190815260200160002054815260200190815260200160002060006101000a81548173ffffffffffffffffffffffffffffffffffffffff021916908373ffffffffffffffffffffffffffffffffffffffff160217905550606960008573ffffffffffffffffffffffffffffffffffffffff1673ffffffffffffffffffffffffffffffffffffffff16815260200190815260200160002054606860008673ffffffffffffffffffffffffffffffffffffffff1673ffffffffffffffffffffffffffffffffffffffff16815260200190815260200160002060008573ffffffffffffffffffffffffffffffffffffffff1673ffffffffffffffffffffffffffffffffffffffff16815260200190815260200160002081905550606960008573ffffffffffffffffffffffffffffffffffffffff1673ffffffffffffffffffffffffffffffffffffffff1681526020019081526020016000206000815480929190613f17906156db565b91905055505b5b50505050565b600033905090565b6000603360009054906101000a900473ffffffffffffffffffffffffffffffffffffffff16905081603360006101000a81548173ffffffffffffffffffffffffffffffffffffffff021916908373ffffffffffffffffffffffffffffffffffffffff1602179055508173ffffffffffffffffffffffffffffffffffffffff168173ffffffffffffffffffffffffffffffffffffffff167f8be0079c531659141344cd1fd0a4f28419497f9722a3daafe3b4186f6b6457e060405160405180910390a35050565b614075846323b872dd60e01b8585856040516024016140139392919061578f565b604051602081830303815290604052907bffffffffffffffffffffffffffffffffffffffffffffffffffffffff19166020820180517bffffffffffffffffffffffffffffffffffffffffffffffffffffffff83818316178352505050506148ae565b50505050565b818373ffffffffffffffffffffffffffffffffffffffff167f321e2e3f1ba115acb6a515f17fac9b8d36a716f8059839b96e0d2d14700bac7f83600401600086815260200190815260200160002054846005016000878152602001908152602001600020546040516140ee929190615b49565b60405180910390a3505050565b600080606560009054906101000a900473ffffffffffffffffffffffffffffffffffffffff1673ffffffffffffffffffffffffffffffffffffffff166374cb38b06040518163ffffffff1660e01b8152600401602060405180830381865afa15801561416b573d6000803e3d6000fd5b505050506040513d601f19601f8201168201806040525081019061418f9190615009565b90508073ffffffffffffffffffffffffffffffffffffffff16636f853a5d6040518163ffffffff1660e01b81526004016020604051808303816000875af11580156141de573d6000803e3d6000fd5b505050506040513d601f19601f82011682018060405250810190614202919061504b565b91505090565b60008173ffffffffffffffffffffffffffffffffffffffff16606760008573ffffffffffffffffffffffffffffffffffffffff1673ffffffffffffffffffffffffffffffffffffffff1681526020019081526020016000206000606860008773ffffffffffffffffffffffffffffffffffffffff1673ffffffffffffffffffffffffffffffffffffffff16815260200190815260200160002060008673ffffffffffffffffffffffffffffffffffffffff1673ffffffffffffffffffffffffffffffffffffffff16815260200190815260200160002054815260200190815260200160002060009054906101000a900473ffffffffffffffffffffffffffffffffffffffff1673ffffffffffffffffffffffffffffffffffffffff1614905092915050565b600081838561433c9190615a5d565b6143469190615ba1565b90509392505050565b61439c8183606660008673ffffffffffffffffffffffffffffffffffffffff1673ffffffffffffffffffffffffffffffffffffffff16815260200190815260200160002060020154614464565b1561445f578273ffffffffffffffffffffffffffffffffffffffff1663e9260898836040518263ffffffff1660e01b81526004016143da9190614d85565b602060405180830381865afa1580156143f7573d6000803e3d6000fd5b505050506040513d601f19601f8201168201806040525081019061441b919061504b565b606c60008473ffffffffffffffffffffffffffffffffffffffff1673ffffffffffffffffffffffffffffffffffffffff168152602001908152602001600020819055505b505050565b600060018461447391906152f8565b606b60008573ffffffffffffffffffffffffffffffffffffffff1673ffffffffffffffffffffffffffffffffffffffff16815260200190815260200160002054036144c15760019050614745565b6000606960008573ffffffffffffffffffffffffffffffffffffffff1673ffffffffffffffffffffffffffffffffffffffff1681526020019081526020016000205414801561454f57506000606a60008573ffffffffffffffffffffffffffffffffffffffff1673ffffffffffffffffffffffffffffffffffffffff16815260200190815260200160002054145b156146075760018461456191906152f8565b606b60008573ffffffffffffffffffffffffffffffffffffffff1673ffffffffffffffffffffffffffffffffffffffff168152602001908152602001600020819055508273ffffffffffffffffffffffffffffffffffffffff167f6d47968b2a13605f2dbe5e2e9f6513ad9c81fb14696d94ae9299a452ed62e0e66001866145e991906152f8565b6040516145f69190614be9565b60405180910390a260019050614745565b6000606960008573ffffffffffffffffffffffffffffffffffffffff1673ffffffffffffffffffffffffffffffffffffffff168152602001908152602001600020541480156146a05750816001606a60008673ffffffffffffffffffffffffffffffffffffffff1673ffffffffffffffffffffffffffffffffffffffff1681526020019081526020016000205461469e91906152f8565b115b156147405781606b60008573ffffffffffffffffffffffffffffffffffffffff1673ffffffffffffffffffffffffffffffffffffffff168152602001908152602001600020819055508273ffffffffffffffffffffffffffffffffffffffff167f6d47968b2a13605f2dbe5e2e9f6513ad9c81fb14696d94ae9299a452ed62e0e68360405161472f9190614be9565b60405180910390a260019050614745565b600090505b9392505050565b600061475730614975565b15905090565b600060019054906101000a900460ff166147ac576040517f08c379a00000000000000000000000000000000000000000000000000000000081526004016147a390615c44565b60405180910390fd5b6147b4614998565b565b6148378363a9059cbb60e01b84846040516024016147d5929190615c64565b604051602081830303815290604052907bffffffffffffffffffffffffffffffffffffffffffffffffffffffff19166020820180517bffffffffffffffffffffffffffffffffffffffffffffffffffffffff83818316178352505050506148ae565b505050565b60008183111561484e57819050614852565b8290505b92915050565b60008183101561486b576000905061487a565b818361487791906152f8565b90505b92915050565b600060018260018561489291906152f8565b61489c9190615ba1565b6148a691906150a7565b905092915050565b6000614910826040518060400160405280602081526020017f5361666545524332303a206c6f772d6c6576656c2063616c6c206661696c65648152508573ffffffffffffffffffffffffffffffffffffffff166149f99092919063ffffffff16565b905060008151111561497057808060200190518101906149309190615236565b61496f576040517f08c379a000000000000000000000000000000000000000000000000000000000815260040161496690615cff565b60405180910390fd5b5b505050565b6000808273ffffffffffffffffffffffffffffffffffffffff163b119050919050565b600060019054906101000a900460ff166149e7576040517f08c379a00000000000000000000000000000000000000000000000000000000081526004016149de90615c44565b60405180910390fd5b6149f76149f2613f24565b613f2c565b565b6060614a088484600085614a11565b90509392505050565b606082471015614a56576040517f08c379a0000000000000000000000000000000000000000000000000000000008152600401614a4d90615d91565b60405180910390fd5b614a5f85614b25565b614a9e576040517f08c379a0000000000000000000000000000000000000000000000000000000008152600401614a9590615dfd565b60405180910390fd5b6000808673ffffffffffffffffffffffffffffffffffffffff168587604051614ac79190615e97565b60006040518083038185875af1925050503d8060008114614b04576040519150601f19603f3d011682016040523d82523d6000602084013e614b09565b606091505b5091509150614b19828286614b48565b92505050949350505050565b6000808273ffffffffffffffffffffffffffffffffffffffff163b119050919050565b60608315614b5857829050614ba8565b600083511115614b6b5782518084602001fd5b816040517f08c379a0000000000000000000000000000000000000000000000000000000008152600401614b9f9190615ef2565b60405180910390fd5b9392505050565b60405180606001604052806000815260200160008152602001600081525090565b6000819050919050565b614be381614bd0565b82525050565b6000602082019050614bfe6000830184614bda565b92915050565b6000604051905090565b600080fd5b600073ffffffffffffffffffffffffffffffffffffffff82169050919050565b6000614c3e82614c13565b9050919050565b614c4e81614c33565b8114614c5957600080fd5b50565b600081359050614c6b81614c45565b92915050565b600060208284031215614c8757614c86614c0e565b5b6000614c9584828501614c5c565b91505092915050565b614ca781614bd0565b82525050565b606082016000820151614cc36000850182614c9e565b506020820151614cd66020850182614c9e565b506040820151614ce96040850182614c9e565b50505050565b6000606082019050614d046000830184614cad565b92915050565b614d1381614bd0565b8114614d1e57600080fd5b50565b600081359050614d3081614d0a565b92915050565b60008060408385031215614d4d57614d4c614c0e565b5b6000614d5b85828601614c5c565b9250506020614d6c85828601614d21565b9150509250929050565b614d7f81614c33565b82525050565b6000602082019050614d9a6000830184614d76565b92915050565b600080600060608486031215614db957614db8614c0e565b5b6000614dc786828701614c5c565b9350506020614dd886828701614c5c565b9250506040614de986828701614d21565b9150509250925092565b60008060408385031215614e0a57614e09614c0e565b5b6000614e1885828601614c5c565b9250506020614e2985828601614c5c565b9150509250929050565b6000614e3e82614c33565b9050919050565b614e4e81614e33565b8114614e5957600080fd5b50565b600081359050614e6b81614e45565b92915050565b600060208284031215614e8757614e86614c0e565b5b6000614e9584828501614e5c565b91505092915050565b60008060408385031215614eb557614eb4614c0e565b5b6000614ec385828601614d21565b9250506020614ed485828601614c5c565b9150509250929050565b600060208284031215614ef457614ef3614c0e565b5b6000614f0284828501614d21565b91505092915050565b600082825260208201905092915050565b7f4e6f207265776172647300000000000000000000000000000000000000000000600082015250565b6000614f52600a83614f0b565b9150614f5d82614f1c565b602082019050919050565b60006020820190508181036000830152614f8181614f45565b9050919050565b7f4f776e61626c653a2063616c6c6572206973206e6f7420746865206f776e6572600082015250565b6000614fbe602083614f0b565b9150614fc982614f88565b602082019050919050565b60006020820190508181036000830152614fed81614fb1565b9050919050565b60008151905061500381614c45565b92915050565b60006020828403121561501f5761501e614c0e565b5b600061502d84828501614ff4565b91505092915050565b60008151905061504581614d0a565b92915050565b60006020828403121561506157615060614c0e565b5b600061506f84828501615036565b91505092915050565b7f4e487b7100000000000000000000000000000000000000000000000000000000600052601160045260246000fd5b60006150b282614bd0565b91506150bd83614bd0565b9250827fffffffffffffffffffffffffffffffffffffffffffffffffffffffffffffffff038211156150f2576150f1615078565b5b828201905092915050565b7f4e6f2070656e64696e6700000000000000000000000000000000000000000000600082015250565b6000615133600a83614f0b565b915061513e826150fd565b602082019050919050565b6000602082019050818103600083015261516281615126565b9050919050565b7f52657761726473206e6f7420636f6c6c65637465640000000000000000000000600082015250565b600061519f601583614f0b565b91506151aa82615169565b602082019050919050565b600060208201905081810360008301526151ce81615192565b9050919050565b60006040820190506151ea6000830185614bda565b6151f76020830184614d76565b9392505050565b60008115159050919050565b615213816151fe565b811461521e57600080fd5b50565b6000815190506152308161520a565b92915050565b60006020828403121561524c5761524b614c0e565b5b600061525a84828501615221565b91505092915050565b7f5265776172647320506f6f6c206e6f7420636f6c6c6563746564000000000000600082015250565b6000615299601a83614f0b565b91506152a482615263565b602082019050919050565b600060208201905081810360008301526152c88161528c565b9050919050565b60006040820190506152e46000830185614d76565b6152f16020830184614d76565b9392505050565b600061530382614bd0565b915061530e83614bd0565b92508282101561532157615320615078565b5b828203905092915050565b600061533782614bd0565b91506000820361534a57615349615078565b5b600182039050919050565b7f4f6e6c79205374616b696e670000000000000000000000000000000000000000600082015250565b600061538b600c83614f0b565b915061539682615355565b602082019050919050565b600060208201905081810360008301526153ba8161537e565b9050919050565b7f546f6f206561726c790000000000000000000000000000000000000000000000600082015250565b60006153f7600983614f0b565b9150615402826153c1565b602082019050919050565b60006020820190508181036000830152615426816153ea565b9050919050565b7f556e6c65737320636f6c6c656374206174206c61737420657261000000000000600082015250565b6000615463601a83614f0b565b915061546e8261542d565b602082019050919050565b6000602082019050818103600083015261549281615456565b9050919050565b7f4e656564206170706c792070656e64696e670000000000000000000000000000600082015250565b60006154cf601283614f0b565b91506154da82615499565b602082019050919050565b600060208201905081810360008301526154fe816154c2565b9050919050565b7f496e697469616c697a61626c653a20636f6e747261637420697320616c72656160008201527f647920696e697469616c697a6564000000000000000000000000000000000000602082015250565b6000615561602e83614f0b565b915061556c82615505565b604082019050919050565b6000602082019050818103600083015261559081615554565b9050919050565b7f57616974696e67206e6578742065726100000000000000000000000000000000600082015250565b60006155cd601083614f0b565b91506155d882615597565b602082019050919050565b600060208201905081810360008301526155fc816155c0565b9050919050565b7f496e76616c696420696e64657865720000000000000000000000000000000000600082015250565b6000615639600f83614f0b565b915061564482615603565b602082019050919050565b600060208201905081810360008301526156688161562c565b9050919050565b7f50656e64696e67207374616b65206f7220494352000000000000000000000000600082015250565b60006156a5601483614f0b565b91506156b08261566f565b602082019050919050565b600060208201905081810360008301526156d481615698565b9050919050565b60006156e682614bd0565b91507fffffffffffffffffffffffffffffffffffffffffffffffffffffffffffffffff820361571857615717615078565b5b600182019050919050565b7f4e6f6e2d496e6465786572000000000000000000000000000000000000000000600082015250565b6000615759600b83614f0b565b915061576482615723565b602082019050919050565b600060208201905081810360008301526157888161574c565b9050919050565b60006060820190506157a46000830186614d76565b6157b16020830185614d76565b6157be6040830184614bda565b949350505050565b7f4f6e6c79205365727669636541677265656d656e745265676973747279000000600082015250565b60006157fc601d83614f0b565b9150615807826157c6565b602082019050919050565b6000602082019050818103600083015261582b816157ef565b9050919050565b600080fd5b6000601f19601f8301169050919050565b7f4e487b7100000000000000000000000000000000000000000000000000000000600052604160045260246000fd5b61588082615837565b810181811067ffffffffffffffff8211171561589f5761589e615848565b5b80604052505050565b60006158b2614c04565b90506158be8282615877565b919050565b6000819050919050565b6158d6816158c3565b81146158e157600080fd5b50565b6000815190506158f3816158cd565b92915050565b600061010082840312156159105761590f615832565b5b61591b6101006158a8565b9050600061592b84828501614ff4565b600083015250602061593f84828501614ff4565b6020830152506040615953848285016158e4565b604083015250606061596784828501615036565b606083015250608061597b84828501615036565b60808301525060a061598f84828501615036565b60a08301525060c06159a384828501615036565b60c08301525060e06159b784828501615036565b60e08301525092915050565b600061010082840312156159da576159d9614c0e565b5b60006159e8848285016158f9565b91505092915050565b7f496e76616c69642061677265656d656e72740000000000000000000000000000600082015250565b6000615a27601283614f0b565b9150615a32826159f1565b602082019050919050565b60006020820190508181036000830152615a5681615a1a565b9050919050565b6000615a6882614bd0565b9150615a7383614bd0565b9250817fffffffffffffffffffffffffffffffffffffffffffffffffffffffffffffffff0483118215151615615aac57615aab615078565b5b828202905092915050565b7f4f776e61626c653a206e6577206f776e657220697320746865207a65726f206160008201527f6464726573730000000000000000000000000000000000000000000000000000602082015250565b6000615b13602683614f0b565b9150615b1e82615ab7565b604082019050919050565b60006020820190508181036000830152615b4281615b06565b9050919050565b6000604082019050615b5e6000830185614bda565b615b6b6020830184614bda565b9392505050565b7f4e487b7100000000000000000000000000000000000000000000000000000000600052601260045260246000fd5b6000615bac82614bd0565b9150615bb783614bd0565b925082615bc757615bc6615b72565b5b828204905092915050565b7f496e697469616c697a61626c653a20636f6e7472616374206973206e6f74206960008201527f6e697469616c697a696e67000000000000000000000000000000000000000000602082015250565b6000615c2e602b83614f0b565b9150615c3982615bd2565b604082019050919050565b60006020820190508181036000830152615c5d81615c21565b9050919050565b6000604082019050615c796000830185614d76565b615c866020830184614bda565b9392505050565b7f5361666545524332303a204552433230206f7065726174696f6e20646964206e60008201527f6f74207375636365656400000000000000000000000000000000000000000000602082015250565b6000615ce9602a83614f0b565b9150615cf482615c8d565b604082019050919050565b60006020820190508181036000830152615d1881615cdc565b9050919050565b7f416464726573733a20696e73756666696369656e742062616c616e636520666f60008201527f722063616c6c0000000000000000000000000000000000000000000000000000602082015250565b6000615d7b602683614f0b565b9150615d8682615d1f565b604082019050919050565b60006020820190508181036000830152615daa81615d6e565b9050919050565b7f416464726573733a2063616c6c20746f206e6f6e2d636f6e7472616374000000600082015250565b6000615de7601d83614f0b565b9150615df282615db1565b602082019050919050565b60006020820190508181036000830152615e1681615dda565b9050919050565b600081519050919050565b600081905092915050565b60005b83811015615e51578082015181840152602081019050615e36565b83811115615e60576000848401525b50505050565b6000615e7182615e1d565b615e7b8185615e28565b9350615e8b818560208601615e33565b80840191505092915050565b6000615ea38284615e66565b915081905092915050565b600081519050919050565b6000615ec482615eae565b615ece8185614f0b565b9350615ede818560208601615e33565b615ee781615837565b840191505092915050565b60006020820190508181036000830152615f0c8184615eb9565b90509291505056fea2646970667358221220469b6557e7675223f73aa29ff4d5e839f04abad977a3855dff3e25821621b4e164736f6c634300080f0033",
  "linkReferences": {},
  "deployedLinkReferences": {}
}