{
  "_format": "hh-sol-artifact-1",
  "contractName": "StateChannel",
  "sourceName": "contracts/StateChannel.sol",
  "abi": [
    {
      "anonymous": false,
      "inputs": [
        {
          "indexed": true,
          "internalType": "uint256",
          "name": "channelId",
          "type": "uint256"
        },
        {
          "indexed": false,
          "internalType": "uint256",
          "name": "spent",
          "type": "uint256"
        },
        {
          "indexed": false,
          "internalType": "uint256",
          "name": "expiration",
          "type": "uint256"
        }
      ],
      "name": "ChannelChallenge",
      "type": "event"
    },
    {
      "anonymous": false,
      "inputs": [
        {
          "indexed": true,
          "internalType": "uint256",
          "name": "channelId",
          "type": "uint256"
        },
        {
          "indexed": false,
          "internalType": "uint256",
          "name": "spent",
          "type": "uint256"
        }
      ],
      "name": "ChannelCheckpoint",
      "type": "event"
    },
    {
      "anonymous": false,
      "inputs": [
        {
          "indexed": true,
          "internalType": "uint256",
          "name": "channelId",
          "type": "uint256"
        },
        {
          "indexed": false,
          "internalType": "uint256",
          "name": "expiration",
          "type": "uint256"
        }
      ],
      "name": "ChannelExtend",
      "type": "event"
    },
    {
      "anonymous": false,
      "inputs": [
        {
          "indexed": true,
          "internalType": "uint256",
          "name": "channelId",
          "type": "uint256"
        }
      ],
      "name": "ChannelFinalize",
      "type": "event"
    },
    {
      "anonymous": false,
      "inputs": [
        {
          "indexed": true,
          "internalType": "uint256",
          "name": "channelId",
          "type": "uint256"
        },
        {
          "indexed": false,
          "internalType": "uint256",
          "name": "total",
          "type": "uint256"
        }
      ],
      "name": "ChannelFund",
      "type": "event"
    },
    {
      "anonymous": false,
      "inputs": [
        {
          "indexed": true,
          "internalType": "uint256",
          "name": "channelId",
          "type": "uint256"
        },
        {
          "indexed": false,
          "internalType": "address",
          "name": "indexer",
          "type": "address"
        },
        {
          "indexed": false,
          "internalType": "address",
          "name": "consumer",
          "type": "address"
        },
        {
          "indexed": false,
          "internalType": "uint256",
          "name": "total",
          "type": "uint256"
        },
        {
          "indexed": false,
          "internalType": "uint256",
          "name": "expiration",
          "type": "uint256"
        },
        {
          "indexed": false,
          "internalType": "bytes32",
          "name": "deploymentId",
          "type": "bytes32"
        }
      ],
      "name": "ChannelOpen",
      "type": "event"
    },
    {
      "anonymous": false,
      "inputs": [
        {
          "indexed": true,
          "internalType": "uint256",
          "name": "channelId",
          "type": "uint256"
        },
        {
          "indexed": false,
          "internalType": "uint256",
          "name": "spent",
          "type": "uint256"
        }
      ],
      "name": "ChannelRespond",
      "type": "event"
    },
    {
      "anonymous": false,
      "inputs": [
        {
          "indexed": true,
          "internalType": "address",
          "name": "previousOwner",
          "type": "address"
        },
        {
          "indexed": true,
          "internalType": "address",
          "name": "newOwner",
          "type": "address"
        }
      ],
      "name": "OwnershipTransferred",
      "type": "event"
    },
    {
      "inputs": [
        {
          "components": [
            {
              "internalType": "uint256",
              "name": "channelId",
              "type": "uint256"
            },
            {
              "internalType": "uint256",
              "name": "spent",
              "type": "uint256"
            },
            {
              "internalType": "bool",
              "name": "isFinal",
              "type": "bool"
            },
            {
              "internalType": "bytes",
              "name": "indexerSign",
              "type": "bytes"
            },
            {
              "internalType": "bytes",
              "name": "consumerSign",
              "type": "bytes"
            }
          ],
          "internalType": "struct QueryState",
          "name": "query",
          "type": "tuple"
        }
      ],
      "name": "challenge",
      "outputs": [],
      "stateMutability": "nonpayable",
      "type": "function"
    },
    {
      "inputs": [],
      "name": "challengeExpiration",
      "outputs": [
        {
          "internalType": "uint256",
          "name": "",
          "type": "uint256"
        }
      ],
      "stateMutability": "view",
      "type": "function"
    },
    {
      "inputs": [
        {
          "internalType": "uint256",
          "name": "channelId",
          "type": "uint256"
        }
      ],
      "name": "channel",
      "outputs": [
        {
          "components": [
            {
              "internalType": "enum ChannelStatus",
              "name": "status",
              "type": "uint8"
            },
            {
              "internalType": "address",
              "name": "indexer",
              "type": "address"
            },
            {
              "internalType": "address",
              "name": "consumer",
              "type": "address"
            },
            {
              "internalType": "uint256",
              "name": "total",
              "type": "uint256"
            },
            {
              "internalType": "uint256",
              "name": "spent",
              "type": "uint256"
            },
            {
              "internalType": "uint256",
              "name": "expirationAt",
              "type": "uint256"
            },
            {
              "internalType": "uint256",
              "name": "challengeAt",
              "type": "uint256"
            },
            {
              "internalType": "bytes32",
              "name": "deploymentId",
              "type": "bytes32"
            }
          ],
          "internalType": "struct ChannelState",
          "name": "",
          "type": "tuple"
        }
      ],
      "stateMutability": "view",
      "type": "function"
    },
    {
      "inputs": [
        {
          "internalType": "uint256",
          "name": "",
          "type": "uint256"
        }
      ],
      "name": "channels",
      "outputs": [
        {
          "internalType": "enum ChannelStatus",
          "name": "status",
          "type": "uint8"
        },
        {
          "internalType": "address",
          "name": "indexer",
          "type": "address"
        },
        {
          "internalType": "address",
          "name": "consumer",
          "type": "address"
        },
        {
          "internalType": "uint256",
          "name": "total",
          "type": "uint256"
        },
        {
          "internalType": "uint256",
          "name": "spent",
          "type": "uint256"
        },
        {
          "internalType": "uint256",
          "name": "expirationAt",
          "type": "uint256"
        },
        {
          "internalType": "uint256",
          "name": "challengeAt",
          "type": "uint256"
        },
        {
          "internalType": "bytes32",
          "name": "deploymentId",
          "type": "bytes32"
        }
      ],
      "stateMutability": "view",
      "type": "function"
    },
    {
      "inputs": [
        {
          "components": [
            {
              "internalType": "uint256",
              "name": "channelId",
              "type": "uint256"
            },
            {
              "internalType": "uint256",
              "name": "spent",
              "type": "uint256"
            },
            {
              "internalType": "bool",
              "name": "isFinal",
              "type": "bool"
            },
            {
              "internalType": "bytes",
              "name": "indexerSign",
              "type": "bytes"
            },
            {
              "internalType": "bytes",
              "name": "consumerSign",
              "type": "bytes"
            }
          ],
          "internalType": "struct QueryState",
          "name": "query",
          "type": "tuple"
        }
      ],
      "name": "checkpoint",
      "outputs": [],
      "stateMutability": "nonpayable",
      "type": "function"
    },
    {
      "inputs": [
        {
          "internalType": "uint256",
          "name": "channelId",
          "type": "uint256"
        }
      ],
      "name": "claim",
      "outputs": [],
      "stateMutability": "nonpayable",
      "type": "function"
    },
    {
      "inputs": [
        {
          "internalType": "uint256",
          "name": "channelId",
          "type": "uint256"
        },
        {
          "internalType": "uint256",
          "name": "preExpirationAt",
          "type": "uint256"
        },
        {
          "internalType": "uint256",
          "name": "expiration",
          "type": "uint256"
        },
        {
          "internalType": "bytes",
          "name": "indexerSign",
          "type": "bytes"
        },
        {
          "internalType": "bytes",
          "name": "consumerSign",
          "type": "bytes"
        }
      ],
      "name": "extend",
      "outputs": [],
      "stateMutability": "nonpayable",
      "type": "function"
    },
    {
      "inputs": [
        {
          "internalType": "uint256",
          "name": "channelId",
          "type": "uint256"
        },
        {
          "internalType": "uint256",
          "name": "amount",
          "type": "uint256"
        },
        {
          "internalType": "bytes",
          "name": "sign",
          "type": "bytes"
        }
      ],
      "name": "fund",
      "outputs": [],
      "stateMutability": "nonpayable",
      "type": "function"
    },
    {
      "inputs": [
        {
          "internalType": "contract ISettings",
          "name": "_settings",
          "type": "address"
        }
      ],
      "name": "initialize",
      "outputs": [],
      "stateMutability": "nonpayable",
      "type": "function"
    },
    {
      "inputs": [
        {
          "internalType": "uint256",
          "name": "channelId",
          "type": "uint256"
        },
        {
          "internalType": "address",
          "name": "indexer",
          "type": "address"
        },
        {
          "internalType": "address",
          "name": "consumer",
          "type": "address"
        },
        {
          "internalType": "uint256",
          "name": "amount",
          "type": "uint256"
        },
        {
          "internalType": "uint256",
          "name": "expiration",
          "type": "uint256"
        },
        {
          "internalType": "bytes32",
          "name": "deploymentId",
          "type": "bytes32"
        },
        {
          "internalType": "bytes",
          "name": "callback",
          "type": "bytes"
        },
        {
          "internalType": "bytes",
          "name": "indexerSign",
          "type": "bytes"
        },
        {
          "internalType": "bytes",
          "name": "consumerSign",
          "type": "bytes"
        }
      ],
      "name": "open",
      "outputs": [],
      "stateMutability": "nonpayable",
      "type": "function"
    },
    {
      "inputs": [],
      "name": "owner",
      "outputs": [
        {
          "internalType": "address",
          "name": "",
          "type": "address"
        }
      ],
      "stateMutability": "view",
      "type": "function"
    },
    {
      "inputs": [],
      "name": "renounceOwnership",
      "outputs": [],
      "stateMutability": "nonpayable",
      "type": "function"
    },
    {
      "inputs": [
        {
          "components": [
            {
              "internalType": "uint256",
              "name": "channelId",
              "type": "uint256"
            },
            {
              "internalType": "uint256",
              "name": "spent",
              "type": "uint256"
            },
            {
              "internalType": "bool",
              "name": "isFinal",
              "type": "bool"
            },
            {
              "internalType": "bytes",
              "name": "indexerSign",
              "type": "bytes"
            },
            {
              "internalType": "bytes",
              "name": "consumerSign",
              "type": "bytes"
            }
          ],
          "internalType": "struct QueryState",
          "name": "query",
          "type": "tuple"
        }
      ],
      "name": "respond",
      "outputs": [],
      "stateMutability": "nonpayable",
      "type": "function"
    },
    {
      "inputs": [
        {
          "internalType": "uint256",
          "name": "expiration",
          "type": "uint256"
        }
      ],
      "name": "setChallengeExpiration",
      "outputs": [],
      "stateMutability": "nonpayable",
      "type": "function"
    },
    {
      "inputs": [],
      "name": "settings",
      "outputs": [
        {
          "internalType": "contract ISettings",
          "name": "",
          "type": "address"
        }
      ],
      "stateMutability": "view",
      "type": "function"
    },
    {
      "inputs": [
        {
          "internalType": "address",
          "name": "newOwner",
          "type": "address"
        }
      ],
      "name": "transferOwnership",
      "outputs": [],
      "stateMutability": "nonpayable",
      "type": "function"
    }
  ],
  "bytecode": "0x608060405234801561001057600080fd5b50614c58806100206000396000f3fe608060405234801561001057600080fd5b50600436106101005760003560e01c8063c4d66de811610097578063e06174e411610066578063e06174e414610259578063e5949b5d14610277578063f2fde38b146102ae578063fe5d915d146102ca57610100565b8063c4d66de8146101d5578063cd739ca5146101f1578063cd96f64b14610221578063d2e13f501461023d57610100565b8063715018a6116100d3578063715018a6146101755780638da5cb5b1461017f578063bacc28bb1461019d578063c094a1ab146101b957610100565b80630984fd101461010557806319fcd6d0146101215780632005864a1461013d578063379607f514610159575b600080fd5b61011f600480360381019061011a919061329e565b6102e8565b005b61013b600480360381019061013691906132ef565b61036e565b005b610157600480360381019061015291906132ef565b61058f565b005b610173600480360381019061016e919061329e565b6107c7565b005b61017d6108fc565b005b610187610984565b6040516101949190613379565b60405180910390f35b6101b760048036038101906101b291906132ef565b6109ae565b005b6101d360048036038101906101ce919061353c565b610b9b565b005b6101ef60048036038101906101ea9190613698565b611313565b005b61020b6004803603810190610206919061329e565b61144b565b604051610218919061380b565b60405180910390f35b61023b60048036038101906102369190613827565b611592565b005b610257600480360381019061025291906138da565b61182e565b005b610261611b69565b60405161026e91906139a8565b60405180910390f35b610291600480360381019061028c919061329e565b611b8f565b6040516102a59897969594939291906139f0565b60405180910390f35b6102c860048036038101906102c39190613a6e565b611c24565b005b6102d2611d1b565b6040516102df9190613a9b565b60405180910390f35b6102f0611d21565b73ffffffffffffffffffffffffffffffffffffffff1661030e610984565b73ffffffffffffffffffffffffffffffffffffffff1614610364576040517f08c379a000000000000000000000000000000000000000000000000000000000815260040161035b90613b13565b60405180910390fd5b8060668190555050565b6067600082600001358152602001908152602001600020600301548160200135116103ce576040517f08c379a00000000000000000000000000000000000000000000000000000000081526004016103c590613ba5565b60405180910390fd5b6000816000013582602001358360400160208101906103ed9190613bfd565b6040516020016103ff93929190613c39565b6040516020818303038152906040528051906020012090506104cb8260000135828480606001906104309190613c7f565b8080601f016020809104026020016040519081016040528093929190818152602001838380828437600081840152601f19601f820116905080830192505050505050508580608001906104839190613c7f565b8080601f016020809104026020016040519081016040528093929190818152602001838380828437600081840152601f19601f82011690508083019250505050505050611d29565b6104d482611f5a565b6002606760008460000135815260200190815260200160002060000160006101000a81548160ff02191690836002811115610512576105116136c5565b5b02179055506000606654426105279190613d11565b90508060676000856000013581526020019081526020016000206005018190555082600001357f5b96632d79df86a72c51d8cb58ccadb8ab37c370dac8ad96eda95a727645bdfc846020013583604051610582929190613d67565b60405180910390a2505050565b600160028111156105a3576105a26136c5565b5b606760008360000135815260200190815260200160002060000160009054906101000a900460ff1660028111156105dd576105dc6136c5565b5b1461061d576040517f08c379a000000000000000000000000000000000000000000000000000000000815260040161061490613ddc565b60405180910390fd5b60676000826000013581526020019081526020016000206003015481602001351161067d576040517f08c379a000000000000000000000000000000000000000000000000000000000815260040161067490613ba5565b60405180910390fd5b60008160000135826020013583604001602081019061069c9190613bfd565b6040516020016106ae93929190613c39565b60405160208183030381529060405280519060200120905061077a8260000135828480606001906106df9190613c7f565b8080601f016020809104026020016040519081016040528093929190818152602001838380828437600081840152601f19601f820116905080830192505050505050508580608001906107329190613c7f565b8080601f016020809104026020016040519081016040528093929190818152602001838380828437600081840152601f19601f82011690508083019250505050505050611d29565b61078382611f5a565b81600001357f1d7671e690de4911901ec9dc8e15242eec86d481874d4185f10505adba912e0f83602001356040516107bb9190613a9b565b60405180910390a25050565b60006002808111156107dc576107db6136c5565b5b6067600084815260200190815260200160002060000160009054906101000a900460ff166002811115610812576108116136c5565b5b1480156108345750426067600084815260200190815260200160002060050154105b9050600081806108ac575060016002811115610853576108526136c5565b5b6067600085815260200190815260200160002060000160009054906101000a900460ff166002811115610889576108886136c5565b5b1480156108ab5750426067600085815260200190815260200160002060040154105b5b9050806108ee576040517f08c379a00000000000000000000000000000000000000000000000000000000081526004016108e590613e48565b60405180910390fd5b6108f78361233b565b505050565b610904611d21565b73ffffffffffffffffffffffffffffffffffffffff16610922610984565b73ffffffffffffffffffffffffffffffffffffffff1614610978576040517f08c379a000000000000000000000000000000000000000000000000000000000815260040161096f90613b13565b60405180910390fd5b6109826000612595565b565b6000603360009054906101000a900473ffffffffffffffffffffffffffffffffffffffff16905090565b606760008260000135815260200190815260200160002060030154816020013511610a0e576040517f08c379a0000000000000000000000000000000000000000000000000000000008152600401610a0590613ba5565b60405180910390fd5b600081600001358260200135836040016020810190610a2d9190613bfd565b604051602001610a3f93929190613c39565b604051602081830303815290604052805190602001209050610b0b826000013582848060600190610a709190613c7f565b8080601f016020809104026020016040519081016040528093929190818152602001838380828437600081840152601f19601f82011690508083019250505050505050858060800190610ac39190613c7f565b8080601f016020809104026020016040519081016040528093929190818152602001838380828437600081840152601f19601f82011690508083019250505050505050611d29565b6001606760008460000135815260200190815260200160002060000160006101000a81548160ff02191690836002811115610b4957610b486136c5565b5b0217905550610b5782611f5a565b81600001357ff7dd3baec68b0cef0a524d2bce53719b68d28b519e8ff68484b616998c5826ae8360200135604051610b8f9190613a9b565b60405180910390a25050565b60006002811115610baf57610bae6136c5565b5b606760008b815260200190815260200160002060000160009054906101000a900460ff166002811115610be557610be46136c5565b5b14610c25576040517f08c379a0000000000000000000000000000000000000000000000000000000008152600401610c1c90613eb4565b60405180910390fd5b6000606560009054906101000a900473ffffffffffffffffffffffffffffffffffffffff1673ffffffffffffffffffffffffffffffffffffffff1663aef7d8266040518163ffffffff1660e01b8152600401602060405180830381865afa158015610c94573d6000803e3d6000fd5b505050506040513d601f19601f82011682018060405250810190610cb89190613ee9565b90508073ffffffffffffffffffffffffffffffffffffffff16632c6cf4e28a6040518263ffffffff1660e01b8152600401610cf39190613379565b602060405180830381865afa158015610d10573d6000803e3d6000fd5b505050506040513d601f19601f82011682018060405250810190610d349190613f2b565b610d73576040517f08c379a0000000000000000000000000000000000000000000000000000000008152600401610d6a90613fa4565b60405180910390fd5b60008173ffffffffffffffffffffffffffffffffffffffff1663818a7cfb8b6040518263ffffffff1660e01b8152600401610dae9190613379565b602060405180830381865afa158015610dcb573d6000803e3d6000fd5b505050506040513d601f19601f82011682018060405250810190610def9190613ee9565b905060008b8b8b8b8b8b8b604051602001610e10979695949392919061404c565b604051602081830303815290604052805190602001209050610e318a61265b565b1561107157610e7f7f0f70ff04000000000000000000000000000000000000000000000000000000008b73ffffffffffffffffffffffffffffffffffffffff1661267490919063ffffffff16565b610ebe576040517f08c379a0000000000000000000000000000000000000000000000000000000008152600401610eb59061410e565b60405180910390fd5b60008a9050610f3f8287878f878673ffffffffffffffffffffffffffffffffffffffff1663238ac9336040518163ffffffff1660e01b8152600401602060405180830381865afa158015610f16573d6000803e3d6000fd5b505050506040513d601f19601f82011682018060405250810190610f3a9190613ee9565b612699565b610ffc8b308c606560009054906101000a900473ffffffffffffffffffffffffffffffffffffffff1673ffffffffffffffffffffffffffffffffffffffff1663afc1aaca6040518163ffffffff1660e01b8152600401602060405180830381865afa158015610fb2573d6000803e3d6000fd5b505050506040513d601f19601f82011682018060405250810190610fd69190613ee9565b73ffffffffffffffffffffffffffffffffffffffff166127fd909392919063ffffffff16565b8073ffffffffffffffffffffffffffffffffffffffff166389b082608e8c8a6040518463ffffffff1660e01b81526004016110399392919061412e565b600060405180830381600087803b15801561105357600080fd5b505af1158015611067573d6000803e3d6000fd5b505050505061113d565b61107f8186868e868f612699565b61113c8a308b606560009054906101000a900473ffffffffffffffffffffffffffffffffffffffff1673ffffffffffffffffffffffffffffffffffffffff1663afc1aaca6040518163ffffffff1660e01b8152600401602060405180830381865afa1580156110f2573d6000803e3d6000fd5b505050506040513d601f19601f820116820180604052508101906111169190613ee9565b73ffffffffffffffffffffffffffffffffffffffff166127fd909392919063ffffffff16565b5b6001606760008e815260200190815260200160002060000160006101000a81548160ff02191690836002811115611177576111766136c5565b5b02179055508a606760008e815260200190815260200160002060000160016101000a81548173ffffffffffffffffffffffffffffffffffffffff021916908373ffffffffffffffffffffffffffffffffffffffff16021790555089606760008e815260200190815260200160002060010160006101000a81548173ffffffffffffffffffffffffffffffffffffffff021916908373ffffffffffffffffffffffffffffffffffffffff16021790555087426112329190613d11565b606760008e81526020019081526020016000206004018190555088606760008e8152602001908152602001600020600201819055506000606760008e8152602001908152602001600020600301819055506000606760008e81526020019081526020016000206005018190555086606760008e8152602001908152602001600020600601819055508b7fff0bd7c9803fa5a75f4356ed2aed78ce184e94f205acd651f7bd1130065448328c8c8c8c426112eb9190613d11565b8c6040516112fd95949392919061416c565b60405180910390a2505050505050505050505050565b600060019054906101000a900460ff1661133b5760008054906101000a900460ff1615611344565b611343612886565b5b611383576040517f08c379a000000000000000000000000000000000000000000000000000000000815260040161137a90614231565b60405180910390fd5b60008060019054906101000a900460ff1615905080156113d3576001600060016101000a81548160ff02191690831515021790555060016000806101000a81548160ff0219169083151502179055505b6113db612897565b6201518060668190555081606560006101000a81548173ffffffffffffffffffffffffffffffffffffffff021916908373ffffffffffffffffffffffffffffffffffffffff16021790555080156114475760008060016101000a81548160ff0219169083151502179055505b5050565b6114536131ce565b60676000838152602001908152602001600020604051806101000160405290816000820160009054906101000a900460ff166002811115611497576114966136c5565b5b60028111156114a9576114a86136c5565b5b81526020016000820160019054906101000a900473ffffffffffffffffffffffffffffffffffffffff1673ffffffffffffffffffffffffffffffffffffffff1673ffffffffffffffffffffffffffffffffffffffff1681526020016001820160009054906101000a900473ffffffffffffffffffffffffffffffffffffffff1673ffffffffffffffffffffffffffffffffffffffff1673ffffffffffffffffffffffffffffffffffffffff168152602001600282015481526020016003820154815260200160048201548152602001600582015481526020016006820154815250509050919050565b60006067600087815260200190815260200160002060000160019054906101000a900473ffffffffffffffffffffffffffffffffffffffff16905060006067600088815260200190815260200160002060010160009054906101000a900473ffffffffffffffffffffffffffffffffffffffff1690506000606560009054906101000a900473ffffffffffffffffffffffffffffffffffffffff1673ffffffffffffffffffffffffffffffffffffffff1663aef7d8266040518163ffffffff1660e01b8152600401602060405180830381865afa158015611677573d6000803e3d6000fd5b505050506040513d601f19601f8201168201806040525081019061169b9190613ee9565b73ffffffffffffffffffffffffffffffffffffffff1663818a7cfb846040518263ffffffff1660e01b81526004016116d39190613379565b602060405180830381865afa1580156116f0573d6000803e3d6000fd5b505050506040513d601f19601f820116820180604052508101906117149190613ee9565b905086606760008a8152602001908152602001600020600401541461176e576040517f08c379a00000000000000000000000000000000000000000000000000000000081526004016117659061429d565b60405180910390fd5b60008884848a8a6040516020016117899594939291906142bd565b6040516020818303038152906040528051906020012090506117af818787878688612699565b86886117bb9190613d11565b606760008b815260200190815260200160002060040181905550887ff8d4e64f6b2b3db6aaf38b319e259285a48ecd0c5bc0115c9928aba297c73420606760008c81526020019081526020016000206004015460405161181b9190613a9b565b60405180910390a2505050505050505050565b60016002811115611842576118416136c5565b5b6067600085815260200190815260200160002060000160009054906101000a900460ff166002811115611878576118776136c5565b5b14801561189a5750426067600085815260200190815260200160002060040154115b6118d9576040517f08c379a00000000000000000000000000000000000000000000000000000000081526004016118d09061435c565b60405180910390fd5b60006067600085815260200190815260200160002060000160019054906101000a900473ffffffffffffffffffffffffffffffffffffffff16905060006067600086815260200190815260200160002060010160009054906101000a900473ffffffffffffffffffffffffffffffffffffffff169050600085838387604051602001611968949392919061437c565b6040516020818303038152906040528051906020012090506000816040516020016119939190614439565b60405160208183030381529060405280519060200120905060006119b782876128f0565b90508373ffffffffffffffffffffffffffffffffffffffff168173ffffffffffffffffffffffffffffffffffffffff1614611a27576040517f08c379a0000000000000000000000000000000000000000000000000000000008152600401611a1e906144ab565b60405180910390fd5b611ae4843089606560009054906101000a900473ffffffffffffffffffffffffffffffffffffffff1673ffffffffffffffffffffffffffffffffffffffff1663afc1aaca6040518163ffffffff1660e01b8152600401602060405180830381865afa158015611a9a573d6000803e3d6000fd5b505050506040513d601f19601f82011682018060405250810190611abe9190613ee9565b73ffffffffffffffffffffffffffffffffffffffff166127fd909392919063ffffffff16565b86606760008a81526020019081526020016000206002016000828254611b0a9190613d11565b92505081905550877faafe5df45650a785307b1611c11fd383699fc627be57060f585e44afd3e7a4bd606760008b815260200190815260200160002060020154604051611b579190613a9b565b60405180910390a25050505050505050565b606560009054906101000a900473ffffffffffffffffffffffffffffffffffffffff1681565b60676020528060005260406000206000915090508060000160009054906101000a900460ff16908060000160019054906101000a900473ffffffffffffffffffffffffffffffffffffffff16908060010160009054906101000a900473ffffffffffffffffffffffffffffffffffffffff16908060020154908060030154908060040154908060050154908060060154905088565b611c2c611d21565b73ffffffffffffffffffffffffffffffffffffffff16611c4a610984565b73ffffffffffffffffffffffffffffffffffffffff1614611ca0576040517f08c379a0000000000000000000000000000000000000000000000000000000008152600401611c9790613b13565b60405180910390fd5b600073ffffffffffffffffffffffffffffffffffffffff168173ffffffffffffffffffffffffffffffffffffffff1603611d0f576040517f08c379a0000000000000000000000000000000000000000000000000000000008152600401611d069061453d565b60405180910390fd5b611d1881612595565b50565b60665481565b600033905090565b60006067600086815260200190815260200160002060000160019054906101000a900473ffffffffffffffffffffffffffffffffffffffff1690506000606560009054906101000a900473ffffffffffffffffffffffffffffffffffffffff1673ffffffffffffffffffffffffffffffffffffffff1663aef7d8266040518163ffffffff1660e01b8152600401602060405180830381865afa158015611dd3573d6000803e3d6000fd5b505050506040513d601f19601f82011682018060405250810190611df79190613ee9565b73ffffffffffffffffffffffffffffffffffffffff1663818a7cfb836040518263ffffffff1660e01b8152600401611e2f9190613379565b602060405180830381865afa158015611e4c573d6000803e3d6000fd5b505050506040513d601f19601f82011682018060405250810190611e709190613ee9565b905060006067600088815260200190815260200160002060010160009054906101000a900473ffffffffffffffffffffffffffffffffffffffff169050611eb68161265b565b15611f425760008173ffffffffffffffffffffffffffffffffffffffff1663238ac9336040518163ffffffff1660e01b8152600401602060405180830381865afa158015611f08573d6000803e3d6000fd5b505050506040513d601f19601f82011682018060405250810190611f2c9190613ee9565b9050611f3c878787878786612699565b50611f51565b611f50868686868686612699565b5b50505050505050565b60006067600083600001358152602001908152602001600020600301548260200135611f86919061455d565b905081602001356067600084600001358152602001908152602001600020600201541115611fd6578160200135606760008460000135815260200190815260200160002060030181905550612052565b606760008360000135815260200190815260200160002060030154606760008460000135815260200190815260200160002060020154612016919061455d565b90506067600083600001358152602001908152602001600020600201546067600084600001358152602001908152602001600020600301819055505b60008260400160208101906120679190613bfd565b9050600081806120775750600083145b9050600081806120a0575060676000866000013581526020019081526020016000206004015442115b905080156120b6576120b5856000013561233b565b5b6000841115612334576000606760008760000135815260200190815260200160002060000160019054906101000a900473ffffffffffffffffffffffffffffffffffffffff1690506000606560009054906101000a900473ffffffffffffffffffffffffffffffffffffffff1673ffffffffffffffffffffffffffffffffffffffff16638e5a4ab66040518163ffffffff1660e01b8152600401602060405180830381865afa15801561216d573d6000803e3d6000fd5b505050506040513d601f19601f820116820180604052508101906121919190613ee9565b9050606560009054906101000a900473ffffffffffffffffffffffffffffffffffffffff1673ffffffffffffffffffffffffffffffffffffffff1663afc1aaca6040518163ffffffff1660e01b8152600401602060405180830381865afa158015612200573d6000803e3d6000fd5b505050506040513d601f19601f820116820180604052508101906122249190613ee9565b73ffffffffffffffffffffffffffffffffffffffff1663095ea7b382886040518363ffffffff1660e01b815260040161225e929190614591565b6020604051808303816000875af115801561227d573d6000803e3d6000fd5b505050506040513d601f19601f820116820180604052508101906122a19190613f2b565b5060008190508073ffffffffffffffffffffffffffffffffffffffff16638b72ad0d606760008b60000135815260200190815260200160002060060154858a6040518463ffffffff1660e01b81526004016122fe939291906145ba565b600060405180830381600087803b15801561231857600080fd5b505af115801561232c573d6000803e3d6000fd5b505050505050505b5050505050565b60006067600083815260200190815260200160002060010160009054906101000a900473ffffffffffffffffffffffffffffffffffffffff1690506000606760008481526020019081526020016000206003015460676000858152602001908152602001600020600201546123b0919061455d565b905060008111156124f3576124768282606560009054906101000a900473ffffffffffffffffffffffffffffffffffffffff1673ffffffffffffffffffffffffffffffffffffffff1663afc1aaca6040518163ffffffff1660e01b8152600401602060405180830381865afa15801561242d573d6000803e3d6000fd5b505050506040513d601f19601f820116820180604052508101906124519190613ee9565b73ffffffffffffffffffffffffffffffffffffffff166129179092919063ffffffff16565b61247f8261265b565b156124f2578173ffffffffffffffffffffffffffffffffffffffff1663a54ab45784836040518363ffffffff1660e01b81526004016124bf929190613d67565b600060405180830381600087803b1580156124d957600080fd5b505af11580156124ed573d6000803e3d6000fd5b505050505b5b60006067600085815260200190815260200160002060000160006101000a81548160ff0219169083600281111561252d5761252c6136c5565b5b021790555060676000848152602001908152602001600020600201546067600085815260200190815260200160002060030181905550827f523372be787f21a2229fc1e02d40221d4b03be27bfefd388c1787765c1317d8b60405160405180910390a2505050565b6000603360009054906101000a900473ffffffffffffffffffffffffffffffffffffffff16905081603360006101000a81548173ffffffffffffffffffffffffffffffffffffffff021916908373ffffffffffffffffffffffffffffffffffffffff1602179055508173ffffffffffffffffffffffffffffffffffffffff168173ffffffffffffffffffffffffffffffffffffffff167f8be0079c531659141344cd1fd0a4f28419497f9722a3daafe3b4186f6b6457e060405160405180910390a35050565b600080823b905060008163ffffffff1611915050919050565b600061267f8361299d565b8015612691575061269083836129ea565b5b905092915050565b6000866040516020016126ac9190614439565b60405160208183030381529060405280519060200120905060006126d082886128f0565b90508473ffffffffffffffffffffffffffffffffffffffff168173ffffffffffffffffffffffffffffffffffffffff16148061273757508373ffffffffffffffffffffffffffffffffffffffff168173ffffffffffffffffffffffffffffffffffffffff16145b612776576040517f08c379a000000000000000000000000000000000000000000000000000000000815260040161276d9061463d565b60405180910390fd5b600061278283886128f0565b90508373ffffffffffffffffffffffffffffffffffffffff168173ffffffffffffffffffffffffffffffffffffffff16146127f2576040517f08c379a00000000000000000000000000000000000000000000000000000000081526004016127e9906144ab565b60405180910390fd5b505050505050505050565b612880846323b872dd60e01b85858560405160240161281e9392919061465d565b604051602081830303815290604052907bffffffffffffffffffffffffffffffffffffffffffffffffffffffff19166020820180517bffffffffffffffffffffffffffffffffffffffffffffffffffffffff8381831617835250505050612b15565b50505050565b600061289130612bdc565b15905090565b600060019054906101000a900460ff166128e6576040517f08c379a00000000000000000000000000000000000000000000000000000000081526004016128dd90614706565b60405180910390fd5b6128ee612bff565b565b60008060006128ff8585612c60565b9150915061290c81612ce1565b819250505092915050565b6129988363a9059cbb60e01b8484604051602401612936929190614591565b604051602081830303815290604052907bffffffffffffffffffffffffffffffffffffffffffffffffffffffff19166020820180517bffffffffffffffffffffffffffffffffffffffffffffffffffffffff8381831617835250505050612b15565b505050565b60006129c9827f01ffc9a7000000000000000000000000000000000000000000000000000000006129ea565b80156129e357506129e18263ffffffff60e01b6129ea565b155b9050919050565b6000806301ffc9a760e01b83604051602401612a069190614761565b604051602081830303815290604052907bffffffffffffffffffffffffffffffffffffffffffffffffffffffff19166020820180517bffffffffffffffffffffffffffffffffffffffffffffffffffffffff838183161783525050505090506000808573ffffffffffffffffffffffffffffffffffffffff1661753084604051612a9091906147b8565b6000604051808303818686fa925050503d8060008114612acc576040519150601f19603f3d011682016040523d82523d6000602084013e612ad1565b606091505b5091509150602081511015612aec5760009350505050612b0f565b818015612b09575080806020019051810190612b089190613f2b565b5b93505050505b92915050565b6000612b77826040518060400160405280602081526020017f5361666545524332303a206c6f772d6c6576656c2063616c6c206661696c65648152508573ffffffffffffffffffffffffffffffffffffffff16612ead9092919063ffffffff16565b9050600081511115612bd75780806020019051810190612b979190613f2b565b612bd6576040517f08c379a0000000000000000000000000000000000000000000000000000000008152600401612bcd90614841565b60405180910390fd5b5b505050565b6000808273ffffffffffffffffffffffffffffffffffffffff163b119050919050565b600060019054906101000a900460ff16612c4e576040517f08c379a0000000000000000000000000000000000000000000000000000000008152600401612c4590614706565b60405180910390fd5b612c5e612c59611d21565b612595565b565b6000806041835103612ca15760008060006020860151925060408601519150606086015160001a9050612c9587828585612ec5565b94509450505050612cda565b6040835103612cd1576000806020850151915060408501519050612cc6868383612fd1565b935093505050612cda565b60006002915091505b9250929050565b60006004811115612cf557612cf46136c5565b5b816004811115612d0857612d076136c5565b5b0315612eaa5760016004811115612d2257612d216136c5565b5b816004811115612d3557612d346136c5565b5b03612d75576040517f08c379a0000000000000000000000000000000000000000000000000000000008152600401612d6c906148ad565b60405180910390fd5b60026004811115612d8957612d886136c5565b5b816004811115612d9c57612d9b6136c5565b5b03612ddc576040517f08c379a0000000000000000000000000000000000000000000000000000000008152600401612dd390614919565b60405180910390fd5b60036004811115612df057612def6136c5565b5b816004811115612e0357612e026136c5565b5b03612e43576040517f08c379a0000000000000000000000000000000000000000000000000000000008152600401612e3a906149ab565b60405180910390fd5b600480811115612e5657612e556136c5565b5b816004811115612e6957612e686136c5565b5b03612ea9576040517f08c379a0000000000000000000000000000000000000000000000000000000008152600401612ea090614a3d565b60405180910390fd5b5b50565b6060612ebc8484600085613030565b90509392505050565b6000807f7fffffffffffffffffffffffffffffff5d576e7357a4501ddfe92f46681b20a08360001c1115612f00576000600391509150612fc8565b601b8560ff1614158015612f185750601c8560ff1614155b15612f2a576000600491509150612fc8565b600060018787878760405160008152602001604052604051612f4f9493929190614a79565b6020604051602081039080840390855afa158015612f71573d6000803e3d6000fd5b505050602060405103519050600073ffffffffffffffffffffffffffffffffffffffff168173ffffffffffffffffffffffffffffffffffffffff1603612fbf57600060019250925050612fc8565b80600092509250505b94509492505050565b60008060007f7fffffffffffffffffffffffffffffffffffffffffffffffffffffffffffffff60001b841690506000601b60ff8660001c901c6130149190613d11565b905061302287828885612ec5565b935093505050935093915050565b606082471015613075576040517f08c379a000000000000000000000000000000000000000000000000000000000815260040161306c90614b30565b60405180910390fd5b61307e85613144565b6130bd576040517f08c379a00000000000000000000000000000000000000000000000000000000081526004016130b490614b9c565b60405180910390fd5b6000808673ffffffffffffffffffffffffffffffffffffffff1685876040516130e691906147b8565b60006040518083038185875af1925050503d8060008114613123576040519150601f19603f3d011682016040523d82523d6000602084013e613128565b606091505b5091509150613138828286613167565b92505050949350505050565b6000808273ffffffffffffffffffffffffffffffffffffffff163b119050919050565b60608315613177578290506131c7565b60008351111561318a5782518084602001fd5b816040517f08c379a00000000000000000000000000000000000000000000000000000000081526004016131be9190614c00565b60405180910390fd5b9392505050565b604051806101000160405280600060028111156131ee576131ed6136c5565b5b8152602001600073ffffffffffffffffffffffffffffffffffffffff168152602001600073ffffffffffffffffffffffffffffffffffffffff16815260200160008152602001600081526020016000815260200160008152602001600080191681525090565b6000604051905090565b600080fd5b600080fd5b6000819050919050565b61327b81613268565b811461328657600080fd5b50565b60008135905061329881613272565b92915050565b6000602082840312156132b4576132b361325e565b5b60006132c284828501613289565b91505092915050565b600080fd5b600060a082840312156132e6576132e56132cb565b5b81905092915050565b6000602082840312156133055761330461325e565b5b600082013567ffffffffffffffff81111561332357613322613263565b5b61332f848285016132d0565b91505092915050565b600073ffffffffffffffffffffffffffffffffffffffff82169050919050565b600061336382613338565b9050919050565b61337381613358565b82525050565b600060208201905061338e600083018461336a565b92915050565b61339d81613358565b81146133a857600080fd5b50565b6000813590506133ba81613394565b92915050565b6000819050919050565b6133d3816133c0565b81146133de57600080fd5b50565b6000813590506133f0816133ca565b92915050565b600080fd5b600080fd5b6000601f19601f8301169050919050565b7f4e487b7100000000000000000000000000000000000000000000000000000000600052604160045260246000fd5b61344982613400565b810181811067ffffffffffffffff8211171561346857613467613411565b5b80604052505050565b600061347b613254565b90506134878282613440565b919050565b600067ffffffffffffffff8211156134a7576134a6613411565b5b6134b082613400565b9050602081019050919050565b82818337600083830152505050565b60006134df6134da8461348c565b613471565b9050828152602081018484840111156134fb576134fa6133fb565b5b6135068482856134bd565b509392505050565b600082601f830112613523576135226133f6565b5b81356135338482602086016134cc565b91505092915050565b60008060008060008060008060006101208a8c03121561355f5761355e61325e565b5b600061356d8c828d01613289565b995050602061357e8c828d016133ab565b985050604061358f8c828d016133ab565b97505060606135a08c828d01613289565b96505060806135b18c828d01613289565b95505060a06135c28c828d016133e1565b94505060c08a013567ffffffffffffffff8111156135e3576135e2613263565b5b6135ef8c828d0161350e565b93505060e08a013567ffffffffffffffff8111156136105761360f613263565b5b61361c8c828d0161350e565b9250506101008a013567ffffffffffffffff81111561363e5761363d613263565b5b61364a8c828d0161350e565b9150509295985092959850929598565b600061366582613358565b9050919050565b6136758161365a565b811461368057600080fd5b50565b6000813590506136928161366c565b92915050565b6000602082840312156136ae576136ad61325e565b5b60006136bc84828501613683565b91505092915050565b7f4e487b7100000000000000000000000000000000000000000000000000000000600052602160045260246000fd5b60038110613705576137046136c5565b5b50565b6000819050613716826136f4565b919050565b600061372682613708565b9050919050565b6137368161371b565b82525050565b61374581613358565b82525050565b61375481613268565b82525050565b613763816133c0565b82525050565b61010082016000820151613780600085018261372d565b506020820151613793602085018261373c565b5060408201516137a6604085018261373c565b5060608201516137b9606085018261374b565b5060808201516137cc608085018261374b565b5060a08201516137df60a085018261374b565b5060c08201516137f260c085018261374b565b5060e082015161380560e085018261375a565b50505050565b6000610100820190506138216000830184613769565b92915050565b600080600080600060a086880312156138435761384261325e565b5b600061385188828901613289565b955050602061386288828901613289565b945050604061387388828901613289565b935050606086013567ffffffffffffffff81111561389457613893613263565b5b6138a08882890161350e565b925050608086013567ffffffffffffffff8111156138c1576138c0613263565b5b6138cd8882890161350e565b9150509295509295909350565b6000806000606084860312156138f3576138f261325e565b5b600061390186828701613289565b935050602061391286828701613289565b925050604084013567ffffffffffffffff81111561393357613932613263565b5b61393f8682870161350e565b9150509250925092565b6000819050919050565b600061396e61396961396484613338565b613949565b613338565b9050919050565b600061398082613953565b9050919050565b600061399282613975565b9050919050565b6139a281613987565b82525050565b60006020820190506139bd6000830184613999565b92915050565b6139cc8161371b565b82525050565b6139db81613268565b82525050565b6139ea816133c0565b82525050565b600061010082019050613a06600083018b6139c3565b613a13602083018a61336a565b613a20604083018961336a565b613a2d60608301886139d2565b613a3a60808301876139d2565b613a4760a08301866139d2565b613a5460c08301856139d2565b613a6160e08301846139e1565b9998505050505050505050565b600060208284031215613a8457613a8361325e565b5b6000613a92848285016133ab565b91505092915050565b6000602082019050613ab060008301846139d2565b92915050565b600082825260208201905092915050565b7f4f776e61626c653a2063616c6c6572206973206e6f7420746865206f776e6572600082015250565b6000613afd602083613ab6565b9150613b0882613ac7565b602082019050919050565b60006020820190508181036000830152613b2c81613af0565b9050919050565b7f5175657279207374617465206d75737420626967676572207468616e2063686160008201527f6e6e656c20737461746500000000000000000000000000000000000000000000602082015250565b6000613b8f602a83613ab6565b9150613b9a82613b33565b604082019050919050565b60006020820190508181036000830152613bbe81613b82565b9050919050565b60008115159050919050565b613bda81613bc5565b8114613be557600080fd5b50565b600081359050613bf781613bd1565b92915050565b600060208284031215613c1357613c1261325e565b5b6000613c2184828501613be8565b91505092915050565b613c3381613bc5565b82525050565b6000606082019050613c4e60008301866139d2565b613c5b60208301856139d2565b613c686040830184613c2a565b949350505050565b600080fd5b600080fd5b600080fd5b60008083356001602003843603038112613c9c57613c9b613c70565b5b80840192508235915067ffffffffffffffff821115613cbe57613cbd613c75565b5b602083019250600182023603831315613cda57613cd9613c7a565b5b509250929050565b7f4e487b7100000000000000000000000000000000000000000000000000000000600052601160045260246000fd5b6000613d1c82613268565b9150613d2783613268565b9250827fffffffffffffffffffffffffffffffffffffffffffffffffffffffffffffffff03821115613d5c57613d5b613ce2565b5b828201905092915050565b6000604082019050613d7c60008301856139d2565b613d8960208301846139d2565b9392505050565b7f4368616e6e656c206d7573742062652061637469766564000000000000000000600082015250565b6000613dc6601783613ab6565b9150613dd182613d90565b602082019050919050565b60006020820190508181036000830152613df581613db9565b9050919050565b7f4368616e6e656c206e6f74206578706972656400000000000000000000000000600082015250565b6000613e32601383613ab6565b9150613e3d82613dfc565b602082019050919050565b60006020820190508181036000830152613e6181613e25565b9050919050565b7f4368616e6e656c496420616c7265616479206578697374656400000000000000600082015250565b6000613e9e601983613ab6565b9150613ea982613e68565b602082019050919050565b60006020820190508181036000830152613ecd81613e91565b9050919050565b600081519050613ee381613394565b92915050565b600060208284031215613eff57613efe61325e565b5b6000613f0d84828501613ed4565b91505092915050565b600081519050613f2581613bd1565b92915050565b600060208284031215613f4157613f4061325e565b5b6000613f4f84828501613f16565b91505092915050565b7f696e6465786572206973206e6f74207265676973746572656400000000000000600082015250565b6000613f8e601983613ab6565b9150613f9982613f58565b602082019050919050565b60006020820190508181036000830152613fbd81613f81565b9050919050565b600081519050919050565b600082825260208201905092915050565b60005b83811015613ffe578082015181840152602081019050613fe3565b8381111561400d576000848401525b50505050565b600061401e82613fc4565b6140288185613fcf565b9350614038818560208601613fe0565b61404181613400565b840191505092915050565b600060e082019050614061600083018a6139d2565b61406e602083018961336a565b61407b604083018861336a565b61408860608301876139d2565b61409560808301866139d2565b6140a260a08301856139e1565b81810360c08301526140b48184614013565b905098975050505050505050565b7f436f6e7472616374206973206e6f742049436f6e73756d657200000000000000600082015250565b60006140f8601983613ab6565b9150614103826140c2565b602082019050919050565b60006020820190508181036000830152614127816140eb565b9050919050565b600060608201905061414360008301866139d2565b61415060208301856139d2565b81810360408301526141628184614013565b9050949350505050565b600060a082019050614181600083018861336a565b61418e602083018761336a565b61419b60408301866139d2565b6141a860608301856139d2565b6141b560808301846139e1565b9695505050505050565b7f496e697469616c697a61626c653a20636f6e747261637420697320616c72656160008201527f647920696e697469616c697a6564000000000000000000000000000000000000602082015250565b600061421b602e83613ab6565b9150614226826141bf565b604082019050919050565b6000602082019050818103600083015261424a8161420e565b9050919050565b7f5265717565737420697320657870697265640000000000000000000000000000600082015250565b6000614287601283613ab6565b915061429282614251565b602082019050919050565b600060208201905081810360008301526142b68161427a565b9050919050565b600060a0820190506142d260008301886139d2565b6142df602083018761336a565b6142ec604083018661336a565b6142f960608301856139d2565b61430660808301846139d2565b9695505050505050565b7f4368616e6e656c206c6f73742065666669636163790000000000000000000000600082015250565b6000614346601583613ab6565b915061435182614310565b602082019050919050565b6000602082019050818103600083015261437581614339565b9050919050565b600060808201905061439160008301876139d2565b61439e602083018661336a565b6143ab604083018561336a565b6143b860608301846139d2565b95945050505050565b600081905092915050565b7f19457468657265756d205369676e6564204d6573736167653a0a333200000000600082015250565b6000614402601c836143c1565b915061440d826143cc565b601c82019050919050565b6000819050919050565b61443361442e826133c0565b614418565b82525050565b6000614444826143f5565b91506144508284614422565b60208201915081905092915050565b7f436f6e73756d6572207369676e617475726520696e76616c6964000000000000600082015250565b6000614495601a83613ab6565b91506144a08261445f565b602082019050919050565b600060208201905081810360008301526144c481614488565b9050919050565b7f4f776e61626c653a206e6577206f776e657220697320746865207a65726f206160008201527f6464726573730000000000000000000000000000000000000000000000000000602082015250565b6000614527602683613ab6565b9150614532826144cb565b604082019050919050565b600060208201905081810360008301526145568161451a565b9050919050565b600061456882613268565b915061457383613268565b92508282101561458657614585613ce2565b5b828203905092915050565b60006040820190506145a6600083018561336a565b6145b360208301846139d2565b9392505050565b60006060820190506145cf60008301866139e1565b6145dc602083018561336a565b6145e960408301846139d2565b949350505050565b7f496e6465786572207369676e617475726520696e76616c696400000000000000600082015250565b6000614627601983613ab6565b9150614632826145f1565b602082019050919050565b600060208201905081810360008301526146568161461a565b9050919050565b6000606082019050614672600083018661336a565b61467f602083018561336a565b61468c60408301846139d2565b949350505050565b7f496e697469616c697a61626c653a20636f6e7472616374206973206e6f74206960008201527f6e697469616c697a696e67000000000000000000000000000000000000000000602082015250565b60006146f0602b83613ab6565b91506146fb82614694565b604082019050919050565b6000602082019050818103600083015261471f816146e3565b9050919050565b60007fffffffff0000000000000000000000000000000000000000000000000000000082169050919050565b61475b81614726565b82525050565b60006020820190506147766000830184614752565b92915050565b600081905092915050565b600061479282613fc4565b61479c818561477c565b93506147ac818560208601613fe0565b80840191505092915050565b60006147c48284614787565b915081905092915050565b7f5361666545524332303a204552433230206f7065726174696f6e20646964206e60008201527f6f74207375636365656400000000000000000000000000000000000000000000602082015250565b600061482b602a83613ab6565b9150614836826147cf565b604082019050919050565b6000602082019050818103600083015261485a8161481e565b9050919050565b7f45434453413a20696e76616c6964207369676e61747572650000000000000000600082015250565b6000614897601883613ab6565b91506148a282614861565b602082019050919050565b600060208201905081810360008301526148c68161488a565b9050919050565b7f45434453413a20696e76616c6964207369676e6174757265206c656e67746800600082015250565b6000614903601f83613ab6565b915061490e826148cd565b602082019050919050565b60006020820190508181036000830152614932816148f6565b9050919050565b7f45434453413a20696e76616c6964207369676e6174757265202773272076616c60008201527f7565000000000000000000000000000000000000000000000000000000000000602082015250565b6000614995602283613ab6565b91506149a082614939565b604082019050919050565b600060208201905081810360008301526149c481614988565b9050919050565b7f45434453413a20696e76616c6964207369676e6174757265202776272076616c60008201527f7565000000000000000000000000000000000000000000000000000000000000602082015250565b6000614a27602283613ab6565b9150614a32826149cb565b604082019050919050565b60006020820190508181036000830152614a5681614a1a565b9050919050565b600060ff82169050919050565b614a7381614a5d565b82525050565b6000608082019050614a8e60008301876139e1565b614a9b6020830186614a6a565b614aa860408301856139e1565b614ab560608301846139e1565b95945050505050565b7f416464726573733a20696e73756666696369656e742062616c616e636520666f60008201527f722063616c6c0000000000000000000000000000000000000000000000000000602082015250565b6000614b1a602683613ab6565b9150614b2582614abe565b604082019050919050565b60006020820190508181036000830152614b4981614b0d565b9050919050565b7f416464726573733a2063616c6c20746f206e6f6e2d636f6e7472616374000000600082015250565b6000614b86601d83613ab6565b9150614b9182614b50565b602082019050919050565b60006020820190508181036000830152614bb581614b79565b9050919050565b600081519050919050565b6000614bd282614bbc565b614bdc8185613ab6565b9350614bec818560208601613fe0565b614bf581613400565b840191505092915050565b60006020820190508181036000830152614c1a8184614bc7565b90509291505056fea26469706673582212206340bcbf548301e91db7ba05a3768e76759f128f2d0c5f9b65d27975dc8de90164736f6c634300080f0033",
  "linkReferences": {},
  "deployedLinkReferences": {}
}