{
  "_format": "hh-sol-artifact-1",
  "contractName": "PlanManager",
  "sourceName": "contracts/PlanManager.sol",
  "abi": [
    {
      "anonymous": false,
      "inputs": [
        {
          "indexed": true,
          "internalType": "address",
          "name": "previousOwner",
          "type": "address"
        },
        {
          "indexed": true,
          "internalType": "address",
          "name": "newOwner",
          "type": "address"
        }
      ],
      "name": "OwnershipTransferred",
      "type": "event"
    },
    {
      "anonymous": false,
      "inputs": [
        {
          "indexed": true,
          "internalType": "address",
          "name": "creator",
          "type": "address"
        },
        {
          "indexed": true,
          "internalType": "bytes32",
          "name": "deploymentId",
          "type": "bytes32"
        },
        {
          "indexed": false,
          "internalType": "uint256",
          "name": "planTemplateId",
          "type": "uint256"
        },
        {
          "indexed": false,
          "internalType": "uint256",
          "name": "planId",
          "type": "uint256"
        },
        {
          "indexed": false,
          "internalType": "uint256",
          "name": "price",
          "type": "uint256"
        }
      ],
      "name": "PlanCreated",
      "type": "event"
    },
    {
      "anonymous": false,
      "inputs": [
        {
          "indexed": true,
          "internalType": "address",
          "name": "source",
          "type": "address"
        },
        {
          "indexed": false,
          "internalType": "uint256",
          "name": "id",
          "type": "uint256"
        },
        {
          "indexed": false,
          "internalType": "bytes32",
          "name": "deploymentId",
          "type": "bytes32"
        }
      ],
      "name": "PlanRemoved",
      "type": "event"
    },
    {
      "anonymous": false,
      "inputs": [
        {
          "indexed": true,
          "internalType": "uint256",
          "name": "planTemplateId",
          "type": "uint256"
        }
      ],
      "name": "PlanTemplateCreated",
      "type": "event"
    },
    {
      "anonymous": false,
      "inputs": [
        {
          "indexed": true,
          "internalType": "uint256",
          "name": "planTemplateId",
          "type": "uint256"
        },
        {
          "indexed": false,
          "internalType": "bytes32",
          "name": "metadata",
          "type": "bytes32"
        }
      ],
      "name": "PlanTemplateMetadataChanged",
      "type": "event"
    },
    {
      "anonymous": false,
      "inputs": [
        {
          "indexed": true,
          "internalType": "uint256",
          "name": "planTemplateId",
          "type": "uint256"
        },
        {
          "indexed": false,
          "internalType": "bool",
          "name": "active",
          "type": "bool"
        }
      ],
      "name": "PlanTemplateStatusChanged",
      "type": "event"
    },
    {
      "inputs": [
        {
          "internalType": "address",
          "name": "_indexer",
          "type": "address"
        },
        {
          "internalType": "bytes32",
          "name": "_deploymentId",
          "type": "bytes32"
        },
        {
          "internalType": "uint256",
          "name": "_planId",
          "type": "uint256"
        }
      ],
      "name": "acceptPlan",
      "outputs": [],
      "stateMutability": "nonpayable",
      "type": "function"
    },
    {
      "inputs": [
        {
          "internalType": "uint256",
          "name": "_price",
          "type": "uint256"
        },
        {
          "internalType": "uint256",
          "name": "_planTemplateId",
          "type": "uint256"
        },
        {
          "internalType": "bytes32",
          "name": "_deploymentId",
          "type": "bytes32"
        }
      ],
      "name": "createPlan",
      "outputs": [],
      "stateMutability": "nonpayable",
      "type": "function"
    },
    {
      "inputs": [
        {
          "internalType": "uint256",
          "name": "_period",
          "type": "uint256"
        },
        {
          "internalType": "uint256",
          "name": "_dailyReqCap",
          "type": "uint256"
        },
        {
          "internalType": "uint256",
          "name": "_rateLimit",
          "type": "uint256"
        },
        {
          "internalType": "bytes32",
          "name": "_metadata",
          "type": "bytes32"
        }
      ],
      "name": "createPlanTemplate",
      "outputs": [],
      "stateMutability": "nonpayable",
      "type": "function"
    },
    {
      "inputs": [
        {
          "internalType": "address",
          "name": "indexer",
          "type": "address"
        },
        {
          "internalType": "uint256",
          "name": "planId",
          "type": "uint256"
        }
      ],
      "name": "getPlan",
      "outputs": [
        {
          "internalType": "uint256",
          "name": "price",
          "type": "uint256"
        },
        {
          "internalType": "uint256",
          "name": "planTemplateId",
          "type": "uint256"
        },
        {
          "internalType": "bytes32",
          "name": "deploymentId",
          "type": "bytes32"
        },
        {
          "internalType": "bool",
          "name": "active",
          "type": "bool"
        }
      ],
      "stateMutability": "view",
      "type": "function"
    },
    {
      "inputs": [
        {
          "internalType": "uint256",
          "name": "planTemplateId",
          "type": "uint256"
        }
      ],
      "name": "getPlanTemplate",
      "outputs": [
        {
          "internalType": "uint256",
          "name": "period",
          "type": "uint256"
        },
        {
          "internalType": "uint256",
          "name": "dailyReqCap",
          "type": "uint256"
        },
        {
          "internalType": "uint256",
          "name": "rateLimit",
          "type": "uint256"
        },
        {
          "internalType": "bytes32",
          "name": "metadata",
          "type": "bytes32"
        },
        {
          "internalType": "bool",
          "name": "active",
          "type": "bool"
        }
      ],
      "stateMutability": "view",
      "type": "function"
    },
    {
      "inputs": [],
      "name": "indexerPlanLimit",
      "outputs": [
        {
          "internalType": "uint16",
          "name": "",
          "type": "uint16"
        }
      ],
      "stateMutability": "view",
      "type": "function"
    },
    {
      "inputs": [
        {
          "internalType": "contract ISettings",
          "name": "_settings",
          "type": "address"
        }
      ],
      "name": "initialize",
      "outputs": [],
      "stateMutability": "nonpayable",
      "type": "function"
    },
    {
      "inputs": [
        {
          "internalType": "address",
          "name": "",
          "type": "address"
        }
      ],
      "name": "nextPlanId",
      "outputs": [
        {
          "internalType": "uint256",
          "name": "",
          "type": "uint256"
        }
      ],
      "stateMutability": "view",
      "type": "function"
    },
    {
      "inputs": [],
      "name": "owner",
      "outputs": [
        {
          "internalType": "address",
          "name": "",
          "type": "address"
        }
      ],
      "stateMutability": "view",
      "type": "function"
    },
    {
      "inputs": [
        {
          "internalType": "address",
          "name": "",
          "type": "address"
        },
        {
          "internalType": "bytes32",
          "name": "",
          "type": "bytes32"
        },
        {
          "internalType": "uint256",
          "name": "",
          "type": "uint256"
        }
      ],
      "name": "planIds",
      "outputs": [
        {
          "internalType": "uint256",
          "name": "",
          "type": "uint256"
        }
      ],
      "stateMutability": "view",
      "type": "function"
    },
    {
      "inputs": [],
      "name": "planTemplateIds",
      "outputs": [
        {
          "internalType": "uint256",
          "name": "",
          "type": "uint256"
        }
      ],
      "stateMutability": "view",
      "type": "function"
    },
    {
      "inputs": [
        {
          "internalType": "uint256",
          "name": "",
          "type": "uint256"
        }
      ],
      "name": "planTemplates",
      "outputs": [
        {
          "internalType": "uint256",
          "name": "period",
          "type": "uint256"
        },
        {
          "internalType": "uint256",
          "name": "dailyReqCap",
          "type": "uint256"
        },
        {
          "internalType": "uint256",
          "name": "rateLimit",
          "type": "uint256"
        },
        {
          "internalType": "bytes32",
          "name": "metadata",
          "type": "bytes32"
        },
        {
          "internalType": "bool",
          "name": "active",
          "type": "bool"
        }
      ],
      "stateMutability": "view",
      "type": "function"
    },
    {
      "inputs": [
        {
          "internalType": "address",
          "name": "",
          "type": "address"
        },
        {
          "internalType": "uint256",
          "name": "",
          "type": "uint256"
        }
      ],
      "name": "plans",
      "outputs": [
        {
          "internalType": "uint256",
          "name": "price",
          "type": "uint256"
        },
        {
          "internalType": "uint256",
          "name": "planTemplateId",
          "type": "uint256"
        },
        {
          "internalType": "bytes32",
          "name": "deploymentId",
          "type": "bytes32"
        },
        {
          "internalType": "bool",
          "name": "active",
          "type": "bool"
        }
      ],
      "stateMutability": "view",
      "type": "function"
    },
    {
      "inputs": [
        {
          "internalType": "uint256",
          "name": "_planId",
          "type": "uint256"
        }
      ],
      "name": "removePlan",
      "outputs": [],
      "stateMutability": "nonpayable",
      "type": "function"
    },
    {
      "inputs": [],
      "name": "renounceOwnership",
      "outputs": [],
      "stateMutability": "nonpayable",
      "type": "function"
    },
    {
      "inputs": [
        {
          "internalType": "uint16",
          "name": "_indexerPlanLimit",
          "type": "uint16"
        }
      ],
      "name": "setIndexerPlanLimit",
      "outputs": [],
      "stateMutability": "nonpayable",
      "type": "function"
    },
    {
      "inputs": [],
      "name": "settings",
      "outputs": [
        {
          "internalType": "contract ISettings",
          "name": "",
          "type": "address"
        }
      ],
      "stateMutability": "view",
      "type": "function"
    },
    {
      "inputs": [],
      "name": "templates",
      "outputs": [
        {
          "components": [
            {
              "internalType": "uint256",
              "name": "period",
              "type": "uint256"
            },
            {
              "internalType": "uint256",
              "name": "dailyReqCap",
              "type": "uint256"
            },
            {
              "internalType": "uint256",
              "name": "rateLimit",
              "type": "uint256"
            },
            {
              "internalType": "bytes32",
              "name": "metadata",
              "type": "bytes32"
            },
            {
              "internalType": "bool",
              "name": "active",
              "type": "bool"
            }
          ],
          "internalType": "struct PlanManager.PlanTemplate[]",
          "name": "",
          "type": "tuple[]"
        }
      ],
      "stateMutability": "view",
      "type": "function"
    },
    {
      "inputs": [
        {
          "internalType": "address",
          "name": "newOwner",
          "type": "address"
        }
      ],
      "name": "transferOwnership",
      "outputs": [],
      "stateMutability": "nonpayable",
      "type": "function"
    },
    {
      "inputs": [
        {
          "internalType": "uint256",
          "name": "_planTemplateId",
          "type": "uint256"
        },
        {
          "internalType": "bytes32",
          "name": "_metadata",
          "type": "bytes32"
        }
      ],
      "name": "updatePlanTemplateMetadata",
      "outputs": [],
      "stateMutability": "nonpayable",
      "type": "function"
    },
    {
      "inputs": [
        {
          "internalType": "uint256",
          "name": "_planTemplateId",
          "type": "uint256"
        },
        {
          "internalType": "bool",
          "name": "_active",
          "type": "bool"
        }
      ],
      "name": "updatePlanTemplateStatus",
      "outputs": [],
      "stateMutability": "nonpayable",
      "type": "function"
    }
  ],
  "bytecode": "0x608060405234801561001057600080fd5b506130e4806100206000396000f3fe608060405234801561001057600080fd5b50600436106101375760003560e01c8063771ebc56116100b8578063af31d9b01161007c578063af31d9b01461035a578063c4d66de814610376578063df6d98a514610392578063e06174e4146103ae578063f0afb955146103cc578063f2fde38b146103ea57610137565b8063771ebc56146102a05780637c109cd1146102d45780638da5cb5b146102f05780639b1aaa8a1461030e578063a8eb77401461032a57610137565b8063538b5d49116100ff578063538b5d49146101e457806368c2fe99146102175780636b4693311461024a578063715018a61461027a57806371a9e2631461028457610137565b806328e550e61461013c5780633986418f146101585780633a283d7d146101745780633ce71873146101925780634349287a146101c6575b600080fd5b61015660048036038101906101519190611f37565b610406565b005b610172600480360381019061016d9190611f9a565b61078a565b005b61017c610b6f565b604051610189919061213d565b60405180910390f35b6101ac60048036038101906101a79190611f37565b610c72565b6040516101bd95949392919061218c565b60405180910390f35b6101ce610cb5565b6040516101db91906121df565b60405180910390f35b6101fe60048036038101906101f99190612258565b610cbb565b60405161020e9493929190612298565b60405180910390f35b610231600480360381019061022c9190612258565b610d05565b6040516102419493929190612298565b60405180910390f35b610264600480360381019061025f91906122dd565b610dc9565b60405161027191906121df565b60405180910390f35b610282610e07565b005b61029e60048036038101906102999190612330565b610e8f565b005b6102ba60048036038101906102b59190611f37565b610fbb565b6040516102cb95949392919061218c565b60405180910390f35b6102ee60048036038101906102e991906123aa565b611054565b005b6102f86110f0565b60405161030591906123e6565b60405180910390f35b61032860048036038101906103239190612401565b61111a565b005b610344600480360381019061033f9190612468565b611336565b60405161035191906121df565b60405180910390f35b610374600480360381019061036f91906124c1565b61134e565b005b610390600480360381019061038b919061253f565b61148d565b005b6103ac60048036038101906103a791906122dd565b6115d9565b005b6103b6611b9d565b6040516103c391906125cb565b60405180910390f35b6103d4611bc3565b6040516103e191906125f5565b60405180910390f35b61040460048036038101906103ff9190612468565b611bd7565b005b606960003373ffffffffffffffffffffffffffffffffffffffff1673ffffffffffffffffffffffffffffffffffffffff168152602001908152602001600020600082815260200190815260200160002060030160009054906101000a900460ff166104a6576040517f08c379a000000000000000000000000000000000000000000000000000000000815260040161049d9061266d565b60405180910390fd5b6000606960003373ffffffffffffffffffffffffffffffffffffffff1673ffffffffffffffffffffffffffffffffffffffff16815260200190815260200160002060008381526020019081526020016000206002015490506000606a60003373ffffffffffffffffffffffffffffffffffffffff1673ffffffffffffffffffffffffffffffffffffffff168152602001908152602001600020600083815260200190815260200160002080548060200260200160405190810160405280929190818152602001828054801561059a57602002820191906000526020600020905b815481526020019060010190808311610586575b50505050509050606a60003373ffffffffffffffffffffffffffffffffffffffff1673ffffffffffffffffffffffffffffffffffffffff168152602001908152602001600020600083815260200190815260200160002060006105fd9190611e8a565b60005b81518110156106b55781818151811061061c5761061b61268d565b5b602002602001015184146106a257606a60003373ffffffffffffffffffffffffffffffffffffffff1673ffffffffffffffffffffffffffffffffffffffff16815260200190815260200160002060008481526020019081526020016000208490806001815401808255809150506001900390600052602060002001600090919091909150555b80806106ad906126eb565b915050610600565b50606960003373ffffffffffffffffffffffffffffffffffffffff1673ffffffffffffffffffffffffffffffffffffffff1681526020019081526020016000206000848152602001908152602001600020600080820160009055600182016000905560028201600090556003820160006101000a81549060ff021916905550503373ffffffffffffffffffffffffffffffffffffffff167f7d5ec826d76c439a1e9bee610d65879cf070af76c5f30ccdcca035d10d2c08a1848460405161077d929190612733565b60405180910390a2505050565b600083116107cd576040517f08c379a00000000000000000000000000000000000000000000000000000000081526004016107c4906127a8565b60405180910390fd5b6067600083815260200190815260200160002060040160009054906101000a900460ff16610830576040517f08c379a000000000000000000000000000000000000000000000000000000000815260040161082790612814565b60405180910390fd5b606b60009054906101000a900461ffff1661ffff16606a60003373ffffffffffffffffffffffffffffffffffffffff1673ffffffffffffffffffffffffffffffffffffffff168152602001908152602001600020600083815260200190815260200160002080549050106108d9576040517f08c379a00000000000000000000000000000000000000000000000000000000081526004016108d090612880565b60405180910390fd5b606860003373ffffffffffffffffffffffffffffffffffffffff1673ffffffffffffffffffffffffffffffffffffffff1681526020019081526020016000206000815480929190610929906126eb565b9190505550604051806080016040528084815260200183815260200182815260200160011515815250606960003373ffffffffffffffffffffffffffffffffffffffff1673ffffffffffffffffffffffffffffffffffffffff1681526020019081526020016000206000606860003373ffffffffffffffffffffffffffffffffffffffff1673ffffffffffffffffffffffffffffffffffffffff16815260200190815260200160002054815260200190815260200160002060008201518160000155602082015181600101556040820151816002015560608201518160030160006101000a81548160ff021916908315150217905550905050606a60003373ffffffffffffffffffffffffffffffffffffffff1673ffffffffffffffffffffffffffffffffffffffff1681526020019081526020016000206000828152602001908152602001600020606860003373ffffffffffffffffffffffffffffffffffffffff1673ffffffffffffffffffffffffffffffffffffffff168152602001908152602001600020549080600181540180825580915050600190039060005260206000200160009091909190915055803373ffffffffffffffffffffffffffffffffffffffff167fd754983b68ee0fa854bafddcb4cb4ec71bbf667853dfee555e10edd85957242c84606860003373ffffffffffffffffffffffffffffffffffffffff1673ffffffffffffffffffffffffffffffffffffffff1681526020019081526020016000205487604051610b62939291906128a0565b60405180910390a3505050565b6060600060665467ffffffffffffffff811115610b8f57610b8e6128d7565b5b604051908082528060200260200182016040528015610bc857816020015b610bb5611eab565b815260200190600190039081610bad5790505b50905060005b606654811015610c6a57606760008281526020019081526020016000206040518060a0016040529081600082015481526020016001820154815260200160028201548152602001600382015481526020016004820160009054906101000a900460ff161515151581525050828281518110610c4c57610c4b61268d565b5b60200260200101819052508080610c62906126eb565b915050610bce565b508091505090565b60676020528060005260406000206000915090508060000154908060010154908060020154908060030154908060040160009054906101000a900460ff16905085565b60665481565b6069602052816000526040600020602052806000526040600020600091509150508060000154908060010154908060020154908060030160009054906101000a900460ff16905084565b6000806000806000606960008873ffffffffffffffffffffffffffffffffffffffff1673ffffffffffffffffffffffffffffffffffffffff16815260200190815260200160002060008781526020019081526020016000206040518060800160405290816000820154815260200160018201548152602001600282015481526020016003820160009054906101000a900460ff1615151515815250509050806000015194508060200151935080604001519250806060015191505092959194509250565b606a6020528260005260406000206020528160005260406000208181548110610df157600080fd5b9060005260206000200160009250925050505481565b610e0f611cce565b73ffffffffffffffffffffffffffffffffffffffff16610e2d6110f0565b73ffffffffffffffffffffffffffffffffffffffff1614610e83576040517f08c379a0000000000000000000000000000000000000000000000000000000008152600401610e7a90612952565b60405180910390fd5b610e8d6000611cd6565b565b610e97611cce565b73ffffffffffffffffffffffffffffffffffffffff16610eb56110f0565b73ffffffffffffffffffffffffffffffffffffffff1614610f0b576040517f08c379a0000000000000000000000000000000000000000000000000000000008152600401610f0290612952565b60405180910390fd5b6000606760008481526020019081526020016000206000015411610f64576040517f08c379a0000000000000000000000000000000000000000000000000000000008152600401610f5b906129be565b60405180910390fd5b806067600084815260200190815260200160002060030181905550817f048b5c5804ae54ee57319d92a5b97cb415e564ea8d6125187c51f6d1476003f482604051610faf91906129de565b60405180910390a25050565b600080600080600080606760008881526020019081526020016000206040518060a0016040529081600082015481526020016001820154815260200160028201548152602001600382015481526020016004820160009054906101000a900460ff161515151581525050905080600001519550806020015194508060400151935080606001519250806080015191505091939590929450565b61105c611cce565b73ffffffffffffffffffffffffffffffffffffffff1661107a6110f0565b73ffffffffffffffffffffffffffffffffffffffff16146110d0576040517f08c379a00000000000000000000000000000000000000000000000000000000081526004016110c790612952565b60405180910390fd5b80606b60006101000a81548161ffff021916908361ffff16021790555050565b6000603360009054906101000a900473ffffffffffffffffffffffffffffffffffffffff16905090565b611122611cce565b73ffffffffffffffffffffffffffffffffffffffff166111406110f0565b73ffffffffffffffffffffffffffffffffffffffff1614611196576040517f08c379a000000000000000000000000000000000000000000000000000000000815260040161118d90612952565b60405180910390fd5b600084116111d9576040517f08c379a00000000000000000000000000000000000000000000000000000000081526004016111d090612a45565b60405180910390fd5b6000831161121c576040517f08c379a000000000000000000000000000000000000000000000000000000000815260040161121390612ab1565b60405180910390fd5b6000821161125f576040517f08c379a000000000000000000000000000000000000000000000000000000000815260040161125690612b1d565b60405180910390fd5b6040518060a00160405280858152602001848152602001838152602001828152602001600115158152506067600060665481526020019081526020016000206000820151816000015560208201518160010155604082015181600201556060820151816003015560808201518160040160006101000a81548160ff0219169083151502179055509050506066547fb44f2aaf744711ccf7df65adea7b18bee26176f01c756baf9474cc0a1f9b8d2660405160405180910390a26066600081548092919061132b906126eb565b919050555050505050565b60686020528060005260406000206000915090505481565b611356611cce565b73ffffffffffffffffffffffffffffffffffffffff166113746110f0565b73ffffffffffffffffffffffffffffffffffffffff16146113ca576040517f08c379a00000000000000000000000000000000000000000000000000000000081526004016113c190612952565b60405180910390fd5b6000606760008481526020019081526020016000206000015411611423576040517f08c379a000000000000000000000000000000000000000000000000000000000815260040161141a906129be565b60405180910390fd5b806067600084815260200190815260200160002060040160006101000a81548160ff021916908315150217905550817f6278f09839d69e7091c5930d4e8ded33276747b835feaeca81d0880ab6eb4910826040516114819190612b3d565b60405180910390a25050565b600060019054906101000a900460ff166114b55760008054906101000a900460ff16156114be565b6114bd611d9c565b5b6114fd576040517f08c379a00000000000000000000000000000000000000000000000000000000081526004016114f490612bca565b60405180910390fd5b60008060019054906101000a900460ff16159050801561154d576001600060016101000a81548160ff02191690831515021790555060016000806101000a81548160ff0219169083151502179055505b611555611dad565b81606560006101000a81548173ffffffffffffffffffffffffffffffffffffffff021916908373ffffffffffffffffffffffffffffffffffffffff1602179055506005606b60006101000a81548161ffff021916908361ffff16021790555080156115d55760008060016101000a81548160ff0219169083151502179055505b5050565b6000606960008573ffffffffffffffffffffffffffffffffffffffff1673ffffffffffffffffffffffffffffffffffffffff16815260200190815260200160002060008381526020019081526020016000206040518060800160405290816000820154815260200160018201548152602001600282015481526020016003820160009054906101000a900460ff161515151581525050905080606001516116b5576040517f08c379a00000000000000000000000000000000000000000000000000000000081526004016116ac90612c36565b60405180910390fd5b6000801b83036116fa576040517f08c379a00000000000000000000000000000000000000000000000000000000081526004016116f190612ca2565b60405180910390fd5b6000606a60008673ffffffffffffffffffffffffffffffffffffffff1673ffffffffffffffffffffffffffffffffffffffff1681526020019081526020016000206000858152602001908152602001600020805490501461175b5782611760565b6000801b5b8160400151146117a5576040517f08c379a000000000000000000000000000000000000000000000000000000000815260040161179c90612d34565b60405180910390fd5b60006040518061010001604052803373ffffffffffffffffffffffffffffffffffffffff1681526020018673ffffffffffffffffffffffffffffffffffffffff16815260200185815260200183600001518152602001428152602001606760008560200151815260200190815260200160002060000154815260200184815260200183602001518152509050606560009054906101000a900473ffffffffffffffffffffffffffffffffffffffff1673ffffffffffffffffffffffffffffffffffffffff1663afc1aaca6040518163ffffffff1660e01b8152600401602060405180830381865afa15801561189e573d6000803e3d6000fd5b505050506040513d601f19601f820116820180604052508101906118c29190612d69565b73ffffffffffffffffffffffffffffffffffffffff166323b872dd33606560009054906101000a900473ffffffffffffffffffffffffffffffffffffffff1673ffffffffffffffffffffffffffffffffffffffff16635dfdb6e96040518163ffffffff1660e01b8152600401602060405180830381865afa15801561194b573d6000803e3d6000fd5b505050506040513d601f19601f8201168201806040525081019061196f9190612d69565b85600001516040518463ffffffff1660e01b815260040161199293929190612d96565b6020604051808303816000875af11580156119b1573d6000803e3d6000fd5b505050506040513d601f19601f820116820180604052508101906119d59190612de2565b611a14576040517f08c379a0000000000000000000000000000000000000000000000000000000008152600401611a0b90612e5b565b60405180910390fd5b6000606560009054906101000a900473ffffffffffffffffffffffffffffffffffffffff1673ffffffffffffffffffffffffffffffffffffffff16635dfdb6e96040518163ffffffff1660e01b8152600401602060405180830381865afa158015611a83573d6000803e3d6000fd5b505050506040513d601f19601f82011682018060405250810190611aa79190612d69565b905060008173ffffffffffffffffffffffffffffffffffffffff16637217158f846040518263ffffffff1660e01b8152600401611ae49190612f2c565b6020604051808303816000875af1158015611b03573d6000803e3d6000fd5b505050506040513d601f19601f82011682018060405250810190611b279190612f5d565b90508173ffffffffffffffffffffffffffffffffffffffff166308051199826040518263ffffffff1660e01b8152600401611b6291906121df565b600060405180830381600087803b158015611b7c57600080fd5b505af1158015611b90573d6000803e3d6000fd5b5050505050505050505050565b606560009054906101000a900473ffffffffffffffffffffffffffffffffffffffff1681565b606b60009054906101000a900461ffff1681565b611bdf611cce565b73ffffffffffffffffffffffffffffffffffffffff16611bfd6110f0565b73ffffffffffffffffffffffffffffffffffffffff1614611c53576040517f08c379a0000000000000000000000000000000000000000000000000000000008152600401611c4a90612952565b60405180910390fd5b600073ffffffffffffffffffffffffffffffffffffffff168173ffffffffffffffffffffffffffffffffffffffff1603611cc2576040517f08c379a0000000000000000000000000000000000000000000000000000000008152600401611cb990612ffc565b60405180910390fd5b611ccb81611cd6565b50565b600033905090565b6000603360009054906101000a900473ffffffffffffffffffffffffffffffffffffffff16905081603360006101000a81548173ffffffffffffffffffffffffffffffffffffffff021916908373ffffffffffffffffffffffffffffffffffffffff1602179055508173ffffffffffffffffffffffffffffffffffffffff168173ffffffffffffffffffffffffffffffffffffffff167f8be0079c531659141344cd1fd0a4f28419497f9722a3daafe3b4186f6b6457e060405160405180910390a35050565b6000611da730611e06565b15905090565b600060019054906101000a900460ff16611dfc576040517f08c379a0000000000000000000000000000000000000000000000000000000008152600401611df39061308e565b60405180910390fd5b611e04611e29565b565b6000808273ffffffffffffffffffffffffffffffffffffffff163b119050919050565b600060019054906101000a900460ff16611e78576040517f08c379a0000000000000000000000000000000000000000000000000000000008152600401611e6f9061308e565b60405180910390fd5b611e88611e83611cce565b611cd6565b565b5080546000825590600052602060002090810190611ea89190611edf565b50565b6040518060a00160405280600081526020016000815260200160008152602001600080191681526020016000151581525090565b5b80821115611ef8576000816000905550600101611ee0565b5090565b600080fd5b6000819050919050565b611f1481611f01565b8114611f1f57600080fd5b50565b600081359050611f3181611f0b565b92915050565b600060208284031215611f4d57611f4c611efc565b5b6000611f5b84828501611f22565b91505092915050565b6000819050919050565b611f7781611f64565b8114611f8257600080fd5b50565b600081359050611f9481611f6e565b92915050565b600080600060608486031215611fb357611fb2611efc565b5b6000611fc186828701611f22565b9350506020611fd286828701611f22565b9250506040611fe386828701611f85565b9150509250925092565b600081519050919050565b600082825260208201905092915050565b6000819050602082019050919050565b61202281611f01565b82525050565b61203181611f64565b82525050565b60008115159050919050565b61204c81612037565b82525050565b60a0820160008201516120686000850182612019565b50602082015161207b6020850182612019565b50604082015161208e6040850182612019565b5060608201516120a16060850182612028565b5060808201516120b46080850182612043565b50505050565b60006120c68383612052565b60a08301905092915050565b6000602082019050919050565b60006120ea82611fed565b6120f48185611ff8565b93506120ff83612009565b8060005b8381101561213057815161211788826120ba565b9750612122836120d2565b925050600181019050612103565b5085935050505092915050565b6000602082019050818103600083015261215781846120df565b905092915050565b61216881611f01565b82525050565b61217781611f64565b82525050565b61218681612037565b82525050565b600060a0820190506121a1600083018861215f565b6121ae602083018761215f565b6121bb604083018661215f565b6121c8606083018561216e565b6121d5608083018461217d565b9695505050505050565b60006020820190506121f4600083018461215f565b92915050565b600073ffffffffffffffffffffffffffffffffffffffff82169050919050565b6000612225826121fa565b9050919050565b6122358161221a565b811461224057600080fd5b50565b6000813590506122528161222c565b92915050565b6000806040838503121561226f5761226e611efc565b5b600061227d85828601612243565b925050602061228e85828601611f22565b9150509250929050565b60006080820190506122ad600083018761215f565b6122ba602083018661215f565b6122c7604083018561216e565b6122d4606083018461217d565b95945050505050565b6000806000606084860312156122f6576122f5611efc565b5b600061230486828701612243565b935050602061231586828701611f85565b925050604061232686828701611f22565b9150509250925092565b6000806040838503121561234757612346611efc565b5b600061235585828601611f22565b925050602061236685828601611f85565b9150509250929050565b600061ffff82169050919050565b61238781612370565b811461239257600080fd5b50565b6000813590506123a48161237e565b92915050565b6000602082840312156123c0576123bf611efc565b5b60006123ce84828501612395565b91505092915050565b6123e08161221a565b82525050565b60006020820190506123fb60008301846123d7565b92915050565b6000806000806080858703121561241b5761241a611efc565b5b600061242987828801611f22565b945050602061243a87828801611f22565b935050604061244b87828801611f22565b925050606061245c87828801611f85565b91505092959194509250565b60006020828403121561247e5761247d611efc565b5b600061248c84828501612243565b91505092915050565b61249e81612037565b81146124a957600080fd5b50565b6000813590506124bb81612495565b92915050565b600080604083850312156124d8576124d7611efc565b5b60006124e685828601611f22565b92505060206124f7858286016124ac565b9150509250929050565b600061250c8261221a565b9050919050565b61251c81612501565b811461252757600080fd5b50565b60008135905061253981612513565b92915050565b60006020828403121561255557612554611efc565b5b60006125638482850161252a565b91505092915050565b6000819050919050565b600061259161258c612587846121fa565b61256c565b6121fa565b9050919050565b60006125a382612576565b9050919050565b60006125b582612598565b9050919050565b6125c5816125aa565b82525050565b60006020820190506125e060008301846125bc565b92915050565b6125ef81612370565b82525050565b600060208201905061260a60008301846125e6565b92915050565b600082825260208201905092915050565b7f496e61637469766520706c616e2063616e206e6f742062652072656d6f766564600082015250565b6000612657602083612610565b915061266282612621565b602082019050919050565b600060208201905081810360008301526126868161264a565b9050919050565b7f4e487b7100000000000000000000000000000000000000000000000000000000600052603260045260246000fd5b7f4e487b7100000000000000000000000000000000000000000000000000000000600052601160045260246000fd5b60006126f682611f01565b91507fffffffffffffffffffffffffffffffffffffffffffffffffffffffffffffffff8203612728576127276126bc565b5b600182019050919050565b6000604082019050612748600083018561215f565b612755602083018461216e565b9392505050565b7f5072696365206e65656420746f20626520706f73697469766500000000000000600082015250565b6000612792601983612610565b915061279d8261275c565b602082019050919050565b600060208201905081810360008301526127c181612785565b9050919050565b7f496e61637469766520706c616e2074656d706c61746500000000000000000000600082015250565b60006127fe601683612610565b9150612809826127c8565b602082019050919050565b6000602082019050818103600083015261282d816127f1565b9050919050565b7f496e646578657220706c616e206c696d69746174696f6e207265616368656400600082015250565b600061286a601f83612610565b915061287582612834565b602082019050919050565b600060208201905081810360008301526128998161285d565b9050919050565b60006060820190506128b5600083018661215f565b6128c2602083018561215f565b6128cf604083018461215f565b949350505050565b7f4e487b7100000000000000000000000000000000000000000000000000000000600052604160045260246000fd5b7f4f776e61626c653a2063616c6c6572206973206e6f7420746865206f776e6572600082015250565b600061293c602083612610565b915061294782612906565b602082019050919050565b6000602082019050818103600083015261296b8161292f565b9050919050565b7f506c616e2074656d706c617465206e6f74206578697374696e67000000000000600082015250565b60006129a8601a83612610565b91506129b382612972565b602082019050919050565b600060208201905081810360008301526129d78161299b565b9050919050565b60006020820190506129f3600083018461216e565b92915050565b7f506572696f64206e65656420746f20626520706f736974697665000000000000600082015250565b6000612a2f601a83612610565b9150612a3a826129f9565b602082019050919050565b60006020820190508181036000830152612a5e81612a22565b9050919050565b7f4461696c79526571436170206e65656420746f20626520706f73697469766500600082015250565b6000612a9b601f83612610565b9150612aa682612a65565b602082019050919050565b60006020820190508181036000830152612aca81612a8e565b9050919050565b7f526174654c696d6974206e65656420746f20626520706f736974697665000000600082015250565b6000612b07601d83612610565b9150612b1282612ad1565b602082019050919050565b60006020820190508181036000830152612b3681612afa565b9050919050565b6000602082019050612b52600083018461217d565b92915050565b7f496e697469616c697a61626c653a20636f6e747261637420697320616c72656160008201527f647920696e697469616c697a6564000000000000000000000000000000000000602082015250565b6000612bb4602e83612610565b9150612bbf82612b58565b604082019050919050565b60006020820190508181036000830152612be381612ba7565b9050919050565b7f496e61637469766520706c616e00000000000000000000000000000000000000600082015250565b6000612c20600d83612610565b9150612c2b82612bea565b602082019050919050565b60006020820190508181036000830152612c4f81612c13565b9050919050565b7f4465706c6f796d656e7449642063616e206e6f7420626520656d707479000000600082015250565b6000612c8c601d83612610565b9150612c9782612c56565b602082019050919050565b60006020820190508181036000830152612cbb81612c7f565b9050919050565b7f506c616e206e6f74206d61746368207769746820746865206465706c6f796d6560008201527f6e74000000000000000000000000000000000000000000000000000000000000602082015250565b6000612d1e602283612610565b9150612d2982612cc2565b604082019050919050565b60006020820190508181036000830152612d4d81612d11565b9050919050565b600081519050612d638161222c565b92915050565b600060208284031215612d7f57612d7e611efc565b5b6000612d8d84828501612d54565b91505092915050565b6000606082019050612dab60008301866123d7565b612db860208301856123d7565b612dc5604083018461215f565b949350505050565b600081519050612ddc81612495565b92915050565b600060208284031215612df857612df7611efc565b5b6000612e0684828501612dcd565b91505092915050565b7f7472616e73666572206661696c00000000000000000000000000000000000000600082015250565b6000612e45600d83612610565b9150612e5082612e0f565b602082019050919050565b60006020820190508181036000830152612e7481612e38565b9050919050565b612e848161221a565b82525050565b61010082016000820151612ea16000850182612e7b565b506020820151612eb46020850182612e7b565b506040820151612ec76040850182612028565b506060820151612eda6060850182612019565b506080820151612eed6080850182612019565b5060a0820151612f0060a0850182612019565b5060c0820151612f1360c0850182612019565b5060e0820151612f2660e0850182612019565b50505050565b600061010082019050612f426000830184612e8a565b92915050565b600081519050612f5781611f0b565b92915050565b600060208284031215612f7357612f72611efc565b5b6000612f8184828501612f48565b91505092915050565b7f4f776e61626c653a206e6577206f776e657220697320746865207a65726f206160008201527f6464726573730000000000000000000000000000000000000000000000000000602082015250565b6000612fe6602683612610565b9150612ff182612f8a565b604082019050919050565b6000602082019050818103600083015261301581612fd9565b9050919050565b7f496e697469616c697a61626c653a20636f6e7472616374206973206e6f74206960008201527f6e697469616c697a696e67000000000000000000000000000000000000000000602082015250565b6000613078602b83612610565b91506130838261301c565b604082019050919050565b600060208201905081810360008301526130a78161306b565b905091905056fea26469706673582212203686dee63e55ceed162f36784e26aa978c0d744cab3c4c3d7ae0cf977a81b37564736f6c634300080f0033",
  "linkReferences": {},
  "deployedLinkReferences": {}
}