{
  "_format": "hh-sol-artifact-1",
  "contractName": "IndexerRegistry",
  "sourceName": "contracts/IndexerRegistry.sol",
  "abi": [
    {
      "anonymous": false,
      "inputs": [
        {
          "indexed": true,
          "internalType": "address",
          "name": "previousOwner",
          "type": "address"
        },
        {
          "indexed": true,
          "internalType": "address",
          "name": "newOwner",
          "type": "address"
        }
      ],
      "name": "OwnershipTransferred",
      "type": "event"
    },
    {
      "anonymous": false,
      "inputs": [
        {
          "indexed": true,
          "internalType": "address",
          "name": "indexer",
          "type": "address"
        },
        {
          "indexed": false,
          "internalType": "uint256",
          "name": "amount",
          "type": "uint256"
        },
        {
          "indexed": false,
          "internalType": "bytes32",
          "name": "metadata",
          "type": "bytes32"
        }
      ],
      "name": "RegisterIndexer",
      "type": "event"
    },
    {
      "anonymous": false,
      "inputs": [
        {
          "indexed": true,
          "internalType": "address",
          "name": "indexer",
          "type": "address"
        },
        {
          "indexed": true,
          "internalType": "address",
          "name": "controller",
          "type": "address"
        }
      ],
      "name": "RemoveControllerAccount",
      "type": "event"
    },
    {
      "anonymous": false,
      "inputs": [
        {
          "indexed": true,
          "internalType": "address",
          "name": "indexer",
          "type": "address"
        },
        {
          "indexed": true,
          "internalType": "address",
          "name": "controller",
          "type": "address"
        }
      ],
      "name": "SetControllerAccount",
      "type": "event"
    },
    {
      "anonymous": false,
      "inputs": [
        {
          "indexed": true,
          "internalType": "address",
          "name": "indexer",
          "type": "address"
        }
      ],
      "name": "UnregisterIndexer",
      "type": "event"
    },
    {
      "anonymous": false,
      "inputs": [
        {
          "indexed": true,
          "internalType": "address",
          "name": "indexer",
          "type": "address"
        },
        {
          "indexed": false,
          "internalType": "bytes32",
          "name": "metadata",
          "type": "bytes32"
        }
      ],
      "name": "UpdateMetadata",
      "type": "event"
    },
    {
      "inputs": [],
      "name": "PER_BILL",
      "outputs": [
        {
          "internalType": "uint256",
          "name": "",
          "type": "uint256"
        }
      ],
      "stateMutability": "view",
      "type": "function"
    },
    {
      "inputs": [],
      "name": "PER_MILL",
      "outputs": [
        {
          "internalType": "uint256",
          "name": "",
          "type": "uint256"
        }
      ],
      "stateMutability": "view",
      "type": "function"
    },
    {
      "inputs": [],
      "name": "PER_TRILL",
      "outputs": [
        {
          "internalType": "uint256",
          "name": "",
          "type": "uint256"
        }
      ],
      "stateMutability": "view",
      "type": "function"
    },
    {
      "inputs": [],
      "name": "ZERO_ADDRESS",
      "outputs": [
        {
          "internalType": "address",
          "name": "",
          "type": "address"
        }
      ],
      "stateMutability": "view",
      "type": "function"
    },
    {
      "inputs": [
        {
          "internalType": "address",
          "name": "",
          "type": "address"
        }
      ],
      "name": "controllerToIndexer",
      "outputs": [
        {
          "internalType": "address",
          "name": "",
          "type": "address"
        }
      ],
      "stateMutability": "view",
      "type": "function"
    },
    {
      "inputs": [
        {
          "internalType": "address",
          "name": "",
          "type": "address"
        }
      ],
      "name": "indexerToController",
      "outputs": [
        {
          "internalType": "address",
          "name": "",
          "type": "address"
        }
      ],
      "stateMutability": "view",
      "type": "function"
    },
    {
      "inputs": [
        {
          "internalType": "contract ISettings",
          "name": "_settings",
          "type": "address"
        }
      ],
      "name": "initialize",
      "outputs": [],
      "stateMutability": "nonpayable",
      "type": "function"
    },
    {
      "inputs": [
        {
          "internalType": "address",
          "name": "_address",
          "type": "address"
        }
      ],
      "name": "isController",
      "outputs": [
        {
          "internalType": "bool",
          "name": "",
          "type": "bool"
        }
      ],
      "stateMutability": "view",
      "type": "function"
    },
    {
      "inputs": [
        {
          "internalType": "address",
          "name": "",
          "type": "address"
        }
      ],
      "name": "isIndexer",
      "outputs": [
        {
          "internalType": "bool",
          "name": "",
          "type": "bool"
        }
      ],
      "stateMutability": "view",
      "type": "function"
    },
    {
      "inputs": [
        {
          "internalType": "address",
          "name": "",
          "type": "address"
        }
      ],
      "name": "metadataByIndexer",
      "outputs": [
        {
          "internalType": "bytes32",
          "name": "",
          "type": "bytes32"
        }
      ],
      "stateMutability": "view",
      "type": "function"
    },
    {
      "inputs": [],
      "name": "minimumStakingAmount",
      "outputs": [
        {
          "internalType": "uint256",
          "name": "",
          "type": "uint256"
        }
      ],
      "stateMutability": "view",
      "type": "function"
    },
    {
      "inputs": [],
      "name": "owner",
      "outputs": [
        {
          "internalType": "address",
          "name": "",
          "type": "address"
        }
      ],
      "stateMutability": "view",
      "type": "function"
    },
    {
      "inputs": [
        {
          "internalType": "uint256",
          "name": "_amount",
          "type": "uint256"
        },
        {
          "internalType": "bytes32",
          "name": "_metadata",
          "type": "bytes32"
        },
        {
          "internalType": "uint256",
          "name": "_rate",
          "type": "uint256"
        }
      ],
      "name": "registerIndexer",
      "outputs": [],
      "stateMutability": "nonpayable",
      "type": "function"
    },
    {
      "inputs": [],
      "name": "removeControllerAccount",
      "outputs": [],
      "stateMutability": "nonpayable",
      "type": "function"
    },
    {
      "inputs": [],
      "name": "renounceOwnership",
      "outputs": [],
      "stateMutability": "nonpayable",
      "type": "function"
    },
    {
      "inputs": [
        {
          "internalType": "address",
          "name": "_controller",
          "type": "address"
        }
      ],
      "name": "setControllerAccount",
      "outputs": [],
      "stateMutability": "nonpayable",
      "type": "function"
    },
    {
      "inputs": [
        {
          "internalType": "contract ISettings",
          "name": "_settings",
          "type": "address"
        }
      ],
      "name": "setSettings",
      "outputs": [],
      "stateMutability": "nonpayable",
      "type": "function"
    },
    {
      "inputs": [
        {
          "internalType": "uint256",
          "name": "_amount",
          "type": "uint256"
        }
      ],
      "name": "setminimumStakingAmount",
      "outputs": [],
      "stateMutability": "nonpayable",
      "type": "function"
    },
    {
      "inputs": [],
      "name": "settings",
      "outputs": [
        {
          "internalType": "contract ISettings",
          "name": "",
          "type": "address"
        }
      ],
      "stateMutability": "view",
      "type": "function"
    },
    {
      "inputs": [
        {
          "internalType": "address",
          "name": "newOwner",
          "type": "address"
        }
      ],
      "name": "transferOwnership",
      "outputs": [],
      "stateMutability": "nonpayable",
      "type": "function"
    },
    {
      "inputs": [],
      "name": "unregisterIndexer",
      "outputs": [],
      "stateMutability": "nonpayable",
      "type": "function"
    },
    {
      "inputs": [
        {
          "internalType": "bytes32",
          "name": "_metadata",
          "type": "bytes32"
        }
      ],
      "name": "updateMetadata",
      "outputs": [],
      "stateMutability": "nonpayable",
      "type": "function"
    }
  ],
  "bytecode": "0x608060405234801561001057600080fd5b5061245d806100206000396000f3fe608060405234801561001057600080fd5b50600436106101425760003560e01c8063818a7cfb116100b8578063b429afeb1161007c578063b429afeb1461033f578063c4d66de81461036f578063e06174e41461038b578063ee29d1bd146103a9578063f2fde38b146103b3578063f9177cd8146103cf57610142565b8063818a7cfb1461029b5780638da5cb5b146102cb57806399b3c88f146102e9578063a01d3c2c14610305578063b0d2d0111461032157610142565b80634aa83d0e1161010a5780634aa83d0e146102135780634f2d777814610231578063538ba4f91461024d578063612151cb1461026b578063715018a6146102755780637ef9ea981461027f57610142565b8063044609031461014757806308def16214610165578063240ba518146101835780632c6cf4e2146101b3578063430df1f0146101e3575b600080fd5b61014f6103eb565b60405161015c9190611988565b60405180910390f35b61016d6103f2565b60405161017a9190611988565b60405180910390f35b61019d60048036038101906101989190611a06565b6103fb565b6040516101aa9190611a4c565b60405180910390f35b6101cd60048036038101906101c89190611a06565b610413565b6040516101da9190611a82565b60405180910390f35b6101fd60048036038101906101f89190611a06565b610433565b60405161020a9190611aac565b60405180910390f35b61021b610466565b6040516102289190611988565b60405180910390f35b61024b60048036038101906102469190611af3565b61046e565b005b61025561058f565b6040516102629190611aac565b60405180910390f35b610273610594565b005b61027d6109d8565b005b61029960048036038101906102949190611b4c565b610a60565b005b6102b560048036038101906102b09190611a06565b610ae6565b6040516102c29190611aac565b60405180910390f35b6102d3610b19565b6040516102e09190611aac565b60405180910390f35b61030360048036038101906102fe9190611b79565b610b43565b005b61031f600480360381019061031a9190611c0a565b610e76565b005b610329610f36565b6040516103369190611988565b60405180910390f35b61035960048036038101906103549190611a06565b610f3c565b6040516103669190611a82565b60405180910390f35b61038960048036038101906103849190611c0a565b610fd4565b005b61039361110b565b6040516103a09190611c96565b60405180910390f35b6103b1611131565b005b6103cd60048036038101906103c89190611a06565b611342565b005b6103e960048036038101906103e49190611a06565b611439565b005b620f424081565b64e8d4a5100081565b60676020528060005260406000206000915090505481565b60666020528060005260406000206000915054906101000a900460ff1681565b60696020528060005260406000206000915054906101000a900473ffffffffffffffffffffffffffffffffffffffff1681565b633b9aca0081565b606660003373ffffffffffffffffffffffffffffffffffffffff1673ffffffffffffffffffffffffffffffffffffffff16815260200190815260200160002060009054906101000a900460ff166104fa576040517f08c379a00000000000000000000000000000000000000000000000000000000081526004016104f190611d0e565b60405180910390fd5b80606760003373ffffffffffffffffffffffffffffffffffffffff1673ffffffffffffffffffffffffffffffffffffffff168152602001908152602001600020819055503373ffffffffffffffffffffffffffffffffffffffff167f44289b921d3e02ec951a3de29d99dc8810fc78e19cb9befe7dbadfbc2522f9b0826040516105849190611a4c565b60405180910390a250565b600081565b606660003373ffffffffffffffffffffffffffffffffffffffff1673ffffffffffffffffffffffffffffffffffffffff16815260200190815260200160002060009054906101000a900460ff16610620576040517f08c379a000000000000000000000000000000000000000000000000000000000815260040161061790611d7a565b60405180910390fd5b6000606560009054906101000a900473ffffffffffffffffffffffffffffffffffffffff1673ffffffffffffffffffffffffffffffffffffffff16631e1ea0eb6040518163ffffffff1660e01b8152600401602060405180830381865afa15801561068f573d6000803e3d6000fd5b505050506040513d601f19601f820116820180604052508101906106b39190611daf565b73ffffffffffffffffffffffffffffffffffffffff1663349ef7e3336040518263ffffffff1660e01b81526004016106eb9190611aac565b602060405180830381865afa158015610708573d6000803e3d6000fd5b505050506040513d601f19601f8201168201806040525081019061072c9190611df1565b1461076c576040517f08c379a000000000000000000000000000000000000000000000000000000000815260040161076390611eb6565b60405180910390fd5b610774611131565b6000606660003373ffffffffffffffffffffffffffffffffffffffff1673ffffffffffffffffffffffffffffffffffffffff16815260200190815260200160002060006101000a81548160ff021916908315150217905550606760003373ffffffffffffffffffffffffffffffffffffffff1673ffffffffffffffffffffffffffffffffffffffff168152602001908152602001600020600090556000606560009054906101000a900473ffffffffffffffffffffffffffffffffffffffff1673ffffffffffffffffffffffffffffffffffffffff16637b1391a66040518163ffffffff1660e01b8152600401602060405180830381865afa15801561087e573d6000803e3d6000fd5b505050506040513d601f19601f820116820180604052508101906108a29190611daf565b905060008173ffffffffffffffffffffffffffffffffffffffff16631c50303933336040518363ffffffff1660e01b81526004016108e1929190611ed6565b602060405180830381865afa1580156108fe573d6000803e3d6000fd5b505050506040513d601f19601f820116820180604052508101906109229190611df1565b90508173ffffffffffffffffffffffffffffffffffffffff1663c2a672e033836040518363ffffffff1660e01b815260040161095f929190611eff565b600060405180830381600087803b15801561097957600080fd5b505af115801561098d573d6000803e3d6000fd5b505050503373ffffffffffffffffffffffffffffffffffffffff167f60da6651c250ab7d79cb948c43525e34c7f78f2412e89a17abb94800e029b57b60405160405180910390a25050565b6109e06117b3565b73ffffffffffffffffffffffffffffffffffffffff166109fe610b19565b73ffffffffffffffffffffffffffffffffffffffff1614610a54576040517f08c379a0000000000000000000000000000000000000000000000000000000008152600401610a4b90611f74565b60405180910390fd5b610a5e60006117bb565b565b610a686117b3565b73ffffffffffffffffffffffffffffffffffffffff16610a86610b19565b73ffffffffffffffffffffffffffffffffffffffff1614610adc576040517f08c379a0000000000000000000000000000000000000000000000000000000008152600401610ad390611f74565b60405180910390fd5b80606a8190555050565b60686020528060005260406000206000915054906101000a900473ffffffffffffffffffffffffffffffffffffffff1681565b6000603360009054906101000a900473ffffffffffffffffffffffffffffffffffffffff16905090565b606660003373ffffffffffffffffffffffffffffffffffffffff1673ffffffffffffffffffffffffffffffffffffffff16815260200190815260200160002060009054906101000a900460ff1615610bd0576040517f08c379a0000000000000000000000000000000000000000000000000000000008152600401610bc790611fe0565b60405180910390fd5b606a54831015610c15576040517f08c379a0000000000000000000000000000000000000000000000000000000008152600401610c0c90612072565b60405180910390fd5b6001606660003373ffffffffffffffffffffffffffffffffffffffff1673ffffffffffffffffffffffffffffffffffffffff16815260200190815260200160002060006101000a81548160ff02191690831515021790555081606760003373ffffffffffffffffffffffffffffffffffffffff1673ffffffffffffffffffffffffffffffffffffffff168152602001908152602001600020819055506000606560009054906101000a900473ffffffffffffffffffffffffffffffffffffffff1673ffffffffffffffffffffffffffffffffffffffff16637b1391a66040518163ffffffff1660e01b8152600401602060405180830381865afa158015610d20573d6000803e3d6000fd5b505050506040513d601f19601f82011682018060405250810190610d449190611daf565b90508073ffffffffffffffffffffffffffffffffffffffff166399fb834c33846040518363ffffffff1660e01b8152600401610d81929190611eff565b600060405180830381600087803b158015610d9b57600080fd5b505af1158015610daf573d6000803e3d6000fd5b505050508073ffffffffffffffffffffffffffffffffffffffff1663adc9772e33866040518363ffffffff1660e01b8152600401610dee929190611eff565b600060405180830381600087803b158015610e0857600080fd5b505af1158015610e1c573d6000803e3d6000fd5b505050503373ffffffffffffffffffffffffffffffffffffffff167f8e35b797463c2d9c47a13c7e78bdcd45873d462332995c29023a516085f27f798585604051610e68929190612092565b60405180910390a250505050565b610e7e6117b3565b73ffffffffffffffffffffffffffffffffffffffff16610e9c610b19565b73ffffffffffffffffffffffffffffffffffffffff1614610ef2576040517f08c379a0000000000000000000000000000000000000000000000000000000008152600401610ee990611f74565b60405180910390fd5b80606560006101000a81548173ffffffffffffffffffffffffffffffffffffffff021916908373ffffffffffffffffffffffffffffffffffffffff16021790555050565b606a5481565b60008073ffffffffffffffffffffffffffffffffffffffff16606960008473ffffffffffffffffffffffffffffffffffffffff1673ffffffffffffffffffffffffffffffffffffffff16815260200190815260200160002060009054906101000a900473ffffffffffffffffffffffffffffffffffffffff1673ffffffffffffffffffffffffffffffffffffffff1614159050919050565b600060019054906101000a900460ff16610ffc5760008054906101000a900460ff1615611005565b611004611881565b5b611044576040517f08c379a000000000000000000000000000000000000000000000000000000000815260040161103b9061212d565b60405180910390fd5b60008060019054906101000a900460ff161590508015611094576001600060016101000a81548160ff02191690831515021790555060016000806101000a81548160ff0219169083151502179055505b61109c611892565b81606560006101000a81548173ffffffffffffffffffffffffffffffffffffffff021916908373ffffffffffffffffffffffffffffffffffffffff1602179055506103e8606a8190555080156111075760008060016101000a81548160ff0219169083151502179055505b5050565b606560009054906101000a900473ffffffffffffffffffffffffffffffffffffffff1681565b606660003373ffffffffffffffffffffffffffffffffffffffff1673ffffffffffffffffffffffffffffffffffffffff16815260200190815260200160002060009054906101000a900460ff166111bd576040517f08c379a00000000000000000000000000000000000000000000000000000000081526004016111b4906121bf565b60405180910390fd5b6000606860003373ffffffffffffffffffffffffffffffffffffffff1673ffffffffffffffffffffffffffffffffffffffff16815260200190815260200160002060009054906101000a900473ffffffffffffffffffffffffffffffffffffffff169050606860003373ffffffffffffffffffffffffffffffffffffffff1673ffffffffffffffffffffffffffffffffffffffff16815260200190815260200160002060006101000a81549073ffffffffffffffffffffffffffffffffffffffff0219169055606960008273ffffffffffffffffffffffffffffffffffffffff1673ffffffffffffffffffffffffffffffffffffffff16815260200190815260200160002060006101000a81549073ffffffffffffffffffffffffffffffffffffffff02191690558073ffffffffffffffffffffffffffffffffffffffff163373ffffffffffffffffffffffffffffffffffffffff167fa8c9fb2d4cca03d48ddcd3403fd25170256b7afe003b5c7c4e4c386b02d9b97a60405160405180910390a350565b61134a6117b3565b73ffffffffffffffffffffffffffffffffffffffff16611368610b19565b73ffffffffffffffffffffffffffffffffffffffff16146113be576040517f08c379a00000000000000000000000000000000000000000000000000000000081526004016113b590611f74565b60405180910390fd5b600073ffffffffffffffffffffffffffffffffffffffff168173ffffffffffffffffffffffffffffffffffffffff160361142d576040517f08c379a000000000000000000000000000000000000000000000000000000000815260040161142490612251565b60405180910390fd5b611436816117bb565b50565b606660003373ffffffffffffffffffffffffffffffffffffffff1673ffffffffffffffffffffffffffffffffffffffff16815260200190815260200160002060009054906101000a900460ff166114c5576040517f08c379a00000000000000000000000000000000000000000000000000000000081526004016114bc906122e3565b60405180910390fd5b600073ffffffffffffffffffffffffffffffffffffffff16606960008373ffffffffffffffffffffffffffffffffffffffff1673ffffffffffffffffffffffffffffffffffffffff16815260200190815260200160002060009054906101000a900473ffffffffffffffffffffffffffffffffffffffff1673ffffffffffffffffffffffffffffffffffffffff1614611593576040517f08c379a000000000000000000000000000000000000000000000000000000000815260040161158a90612375565b60405180910390fd5b6000606860003373ffffffffffffffffffffffffffffffffffffffff1673ffffffffffffffffffffffffffffffffffffffff16815260200190815260200160002060009054906101000a900473ffffffffffffffffffffffffffffffffffffffff169050606960008273ffffffffffffffffffffffffffffffffffffffff1673ffffffffffffffffffffffffffffffffffffffff16815260200190815260200160002060006101000a81549073ffffffffffffffffffffffffffffffffffffffff021916905581606860003373ffffffffffffffffffffffffffffffffffffffff1673ffffffffffffffffffffffffffffffffffffffff16815260200190815260200160002060006101000a81548173ffffffffffffffffffffffffffffffffffffffff021916908373ffffffffffffffffffffffffffffffffffffffff16021790555033606960008473ffffffffffffffffffffffffffffffffffffffff1673ffffffffffffffffffffffffffffffffffffffff16815260200190815260200160002060006101000a81548173ffffffffffffffffffffffffffffffffffffffff021916908373ffffffffffffffffffffffffffffffffffffffff1602179055508173ffffffffffffffffffffffffffffffffffffffff163373ffffffffffffffffffffffffffffffffffffffff167f2a463b1631b8f93341dbed1b8977e705efa18406ba5a9ddcd4e3a8e1e849dfd060405160405180910390a35050565b600033905090565b6000603360009054906101000a900473ffffffffffffffffffffffffffffffffffffffff16905081603360006101000a81548173ffffffffffffffffffffffffffffffffffffffff021916908373ffffffffffffffffffffffffffffffffffffffff1602179055508173ffffffffffffffffffffffffffffffffffffffff168173ffffffffffffffffffffffffffffffffffffffff167f8be0079c531659141344cd1fd0a4f28419497f9722a3daafe3b4186f6b6457e060405160405180910390a35050565b600061188c306118eb565b15905090565b600060019054906101000a900460ff166118e1576040517f08c379a00000000000000000000000000000000000000000000000000000000081526004016118d890612407565b60405180910390fd5b6118e961190e565b565b6000808273ffffffffffffffffffffffffffffffffffffffff163b119050919050565b600060019054906101000a900460ff1661195d576040517f08c379a000000000000000000000000000000000000000000000000000000000815260040161195490612407565b60405180910390fd5b61196d6119686117b3565b6117bb565b565b6000819050919050565b6119828161196f565b82525050565b600060208201905061199d6000830184611979565b92915050565b600080fd5b600073ffffffffffffffffffffffffffffffffffffffff82169050919050565b60006119d3826119a8565b9050919050565b6119e3816119c8565b81146119ee57600080fd5b50565b600081359050611a00816119da565b92915050565b600060208284031215611a1c57611a1b6119a3565b5b6000611a2a848285016119f1565b91505092915050565b6000819050919050565b611a4681611a33565b82525050565b6000602082019050611a616000830184611a3d565b92915050565b60008115159050919050565b611a7c81611a67565b82525050565b6000602082019050611a976000830184611a73565b92915050565b611aa6816119c8565b82525050565b6000602082019050611ac16000830184611a9d565b92915050565b611ad081611a33565b8114611adb57600080fd5b50565b600081359050611aed81611ac7565b92915050565b600060208284031215611b0957611b086119a3565b5b6000611b1784828501611ade565b91505092915050565b611b298161196f565b8114611b3457600080fd5b50565b600081359050611b4681611b20565b92915050565b600060208284031215611b6257611b616119a3565b5b6000611b7084828501611b37565b91505092915050565b600080600060608486031215611b9257611b916119a3565b5b6000611ba086828701611b37565b9350506020611bb186828701611ade565b9250506040611bc286828701611b37565b9150509250925092565b6000611bd7826119c8565b9050919050565b611be781611bcc565b8114611bf257600080fd5b50565b600081359050611c0481611bde565b92915050565b600060208284031215611c2057611c1f6119a3565b5b6000611c2e84828501611bf5565b91505092915050565b6000819050919050565b6000611c5c611c57611c52846119a8565b611c37565b6119a8565b9050919050565b6000611c6e82611c41565b9050919050565b6000611c8082611c63565b9050919050565b611c9081611c75565b82525050565b6000602082019050611cab6000830184611c87565b92915050565b600082825260208201905092915050565b7f4e6f7420616e20696e6465786572000000000000000000000000000000000000600082015250565b6000611cf8600e83611cb1565b9150611d0382611cc2565b602082019050919050565b60006020820190508181036000830152611d2781611ceb565b9050919050565b7f4e6f742072656769737465726564000000000000000000000000000000000000600082015250565b6000611d64600e83611cb1565b9150611d6f82611d2e565b602082019050919050565b60006020820190508181036000830152611d9381611d57565b9050919050565b600081519050611da9816119da565b92915050565b600060208284031215611dc557611dc46119a3565b5b6000611dd384828501611d9a565b91505092915050565b600081519050611deb81611b20565b92915050565b600060208284031215611e0757611e066119a3565b5b6000611e1584828501611ddc565b91505092915050565b7f43616e206e6f7420756e72656769737465722066726f6d20746865206e65747760008201527f6f726b2064756520746f2072756e6e696e6720696e646578696e672070726f6a60208201527f6563747300000000000000000000000000000000000000000000000000000000604082015250565b6000611ea0604483611cb1565b9150611eab82611e1e565b606082019050919050565b60006020820190508181036000830152611ecf81611e93565b9050919050565b6000604082019050611eeb6000830185611a9d565b611ef86020830184611a9d565b9392505050565b6000604082019050611f146000830185611a9d565b611f216020830184611979565b9392505050565b7f4f776e61626c653a2063616c6c6572206973206e6f7420746865206f776e6572600082015250565b6000611f5e602083611cb1565b9150611f6982611f28565b602082019050919050565b60006020820190508181036000830152611f8d81611f51565b9050919050565b7f416c726561647920726567697374657265640000000000000000000000000000600082015250565b6000611fca601283611cb1565b9150611fd582611f94565b602082019050919050565b60006020820190508181036000830152611ff981611fbd565b9050919050565b7f4e6f74206d65657420746865206d696e696d756d207374616b696e6720616d6f60008201527f756e740000000000000000000000000000000000000000000000000000000000602082015250565b600061205c602383611cb1565b915061206782612000565b604082019050919050565b6000602082019050818103600083015261208b8161204f565b9050919050565b60006040820190506120a76000830185611979565b6120b46020830184611a3d565b9392505050565b7f496e697469616c697a61626c653a20636f6e747261637420697320616c72656160008201527f647920696e697469616c697a6564000000000000000000000000000000000000602082015250565b6000612117602e83611cb1565b9150612122826120bb565b604082019050919050565b600060208201905081810360008301526121468161210a565b9050919050565b7f4f6e6c7920696e64657865722063616e2072656d6f766520636f6e74726f6c6c60008201527f6572206163636f756e7400000000000000000000000000000000000000000000602082015250565b60006121a9602a83611cb1565b91506121b48261214d565b604082019050919050565b600060208201905081810360008301526121d88161219c565b9050919050565b7f4f776e61626c653a206e6577206f776e657220697320746865207a65726f206160008201527f6464726573730000000000000000000000000000000000000000000000000000602082015250565b600061223b602683611cb1565b9150612246826121df565b604082019050919050565b6000602082019050818103600083015261226a8161222e565b9050919050565b7f4f6e6c7920696e64657865722063616e2073657420636f6e74726f6c6c65722060008201527f6163636f756e7400000000000000000000000000000000000000000000000000602082015250565b60006122cd602783611cb1565b91506122d882612271565b604082019050919050565b600060208201905081810360008301526122fc816122c0565b9050919050565b7f436f6e74726f6c6c6572206163636f756e74206973207573656420627920616e60008201527f20696e646578657220616c726561647900000000000000000000000000000000602082015250565b600061235f603083611cb1565b915061236a82612303565b604082019050919050565b6000602082019050818103600083015261238e81612352565b9050919050565b7f496e697469616c697a61626c653a20636f6e7472616374206973206e6f74206960008201527f6e697469616c697a696e67000000000000000000000000000000000000000000602082015250565b60006123f1602b83611cb1565b91506123fc82612395565b604082019050919050565b60006020820190508181036000830152612420816123e4565b905091905056fea2646970667358221220e9ce04bbdaab9bcc2e6ec75e8b591a1687a32dc2669960f091ff9470bfd1da5364736f6c634300080f0033",
  "linkReferences": {},
  "deployedLinkReferences": {}
}