{
  "_format": "hh-sol-artifact-1",
  "contractName": "RewardsPool",
  "sourceName": "contracts/RewardsPool.sol",
  "abi": [
    {
      "anonymous": false,
      "inputs": [
        {
          "indexed": false,
          "internalType": "int32",
          "name": "alphaNumerator",
          "type": "int32"
        },
        {
          "indexed": false,
          "internalType": "int32",
          "name": "alphaDenominator",
          "type": "int32"
        }
      ],
      "name": "Alpha",
      "type": "event"
    },
    {
      "anonymous": false,
      "inputs": [
        {
          "indexed": false,
          "internalType": "bytes32",
          "name": "deploymentId",
          "type": "bytes32"
        },
        {
          "indexed": false,
          "internalType": "address",
          "name": "indexer",
          "type": "address"
        },
        {
          "indexed": false,
          "internalType": "uint256",
          "name": "era",
          "type": "uint256"
        },
        {
          "indexed": false,
          "internalType": "uint256",
          "name": "amount",
          "type": "uint256"
        }
      ],
      "name": "Collect",
      "type": "event"
    },
    {
      "anonymous": false,
      "inputs": [
        {
          "indexed": false,
          "internalType": "bytes32",
          "name": "deploymentId",
          "type": "bytes32"
        },
        {
          "indexed": false,
          "internalType": "address",
          "name": "indexer",
          "type": "address"
        },
        {
          "indexed": false,
          "internalType": "uint256",
          "name": "amount",
          "type": "uint256"
        },
        {
          "indexed": false,
          "internalType": "uint256",
          "name": "total",
          "type": "uint256"
        }
      ],
      "name": "Labor",
      "type": "event"
    },
    {
      "anonymous": false,
      "inputs": [
        {
          "indexed": true,
          "internalType": "address",
          "name": "previousOwner",
          "type": "address"
        },
        {
          "indexed": true,
          "internalType": "address",
          "name": "newOwner",
          "type": "address"
        }
      ],
      "name": "OwnershipTransferred",
      "type": "event"
    },
    {
      "inputs": [],
      "name": "PER_BILL",
      "outputs": [
        {
          "internalType": "uint256",
          "name": "",
          "type": "uint256"
        }
      ],
      "stateMutability": "view",
      "type": "function"
    },
    {
      "inputs": [],
      "name": "PER_MILL",
      "outputs": [
        {
          "internalType": "uint256",
          "name": "",
          "type": "uint256"
        }
      ],
      "stateMutability": "view",
      "type": "function"
    },
    {
      "inputs": [],
      "name": "PER_TRILL",
      "outputs": [
        {
          "internalType": "uint256",
          "name": "",
          "type": "uint256"
        }
      ],
      "stateMutability": "view",
      "type": "function"
    },
    {
      "inputs": [],
      "name": "ZERO_ADDRESS",
      "outputs": [
        {
          "internalType": "address",
          "name": "",
          "type": "address"
        }
      ],
      "stateMutability": "view",
      "type": "function"
    },
    {
      "inputs": [],
      "name": "alphaDenominator",
      "outputs": [
        {
          "internalType": "int32",
          "name": "",
          "type": "int32"
        }
      ],
      "stateMutability": "view",
      "type": "function"
    },
    {
      "inputs": [],
      "name": "alphaNumerator",
      "outputs": [
        {
          "internalType": "int32",
          "name": "",
          "type": "int32"
        }
      ],
      "stateMutability": "view",
      "type": "function"
    },
    {
      "inputs": [
        {
          "internalType": "bytes32",
          "name": "deploymentId",
          "type": "bytes32"
        },
        {
          "internalType": "address",
          "name": "indexer",
          "type": "address"
        }
      ],
      "name": "collect",
      "outputs": [],
      "stateMutability": "nonpayable",
      "type": "function"
    },
    {
      "inputs": [
        {
          "internalType": "uint256",
          "name": "era",
          "type": "uint256"
        },
        {
          "internalType": "bytes32",
          "name": "deploymentId",
          "type": "bytes32"
        },
        {
          "internalType": "address",
          "name": "indexer",
          "type": "address"
        }
      ],
      "name": "collect_era",
      "outputs": [],
      "stateMutability": "nonpayable",
      "type": "function"
    },
    {
      "inputs": [
        {
          "internalType": "bytes32",
          "name": "deploymentId",
          "type": "bytes32"
        },
        {
          "internalType": "uint256",
          "name": "era",
          "type": "uint256"
        },
        {
          "internalType": "address",
          "name": "indexer",
          "type": "address"
        }
      ],
      "name": "getReward",
      "outputs": [
        {
          "internalType": "uint256",
          "name": "",
          "type": "uint256"
        },
        {
          "internalType": "uint256",
          "name": "",
          "type": "uint256"
        }
      ],
      "stateMutability": "view",
      "type": "function"
    },
    {
      "inputs": [
        {
          "internalType": "contract ISettings",
          "name": "_settings",
          "type": "address"
        }
      ],
      "name": "initialize",
      "outputs": [],
      "stateMutability": "nonpayable",
      "type": "function"
    },
    {
      "inputs": [
        {
          "internalType": "uint256",
          "name": "era",
          "type": "uint256"
        },
        {
          "internalType": "address",
          "name": "indexer",
          "type": "address"
        }
      ],
      "name": "isClaimed",
      "outputs": [
        {
          "internalType": "bool",
          "name": "",
          "type": "bool"
        }
      ],
      "stateMutability": "view",
      "type": "function"
    },
    {
      "inputs": [
        {
          "internalType": "bytes32",
          "name": "deploymentId",
          "type": "bytes32"
        },
        {
          "internalType": "address",
          "name": "indexer",
          "type": "address"
        },
        {
          "internalType": "uint256",
          "name": "amount",
          "type": "uint256"
        }
      ],
      "name": "labor",
      "outputs": [],
      "stateMutability": "nonpayable",
      "type": "function"
    },
    {
      "inputs": [],
      "name": "owner",
      "outputs": [
        {
          "internalType": "address",
          "name": "",
          "type": "address"
        }
      ],
      "stateMutability": "view",
      "type": "function"
    },
    {
      "inputs": [],
      "name": "renounceOwnership",
      "outputs": [],
      "stateMutability": "nonpayable",
      "type": "function"
    },
    {
      "inputs": [
        {
          "internalType": "int32",
          "name": "_alphaNumerator",
          "type": "int32"
        },
        {
          "internalType": "int32",
          "name": "_alphaDenominator",
          "type": "int32"
        }
      ],
      "name": "setAlpha",
      "outputs": [],
      "stateMutability": "nonpayable",
      "type": "function"
    },
    {
      "inputs": [
        {
          "internalType": "contract ISettings",
          "name": "_settings",
          "type": "address"
        }
      ],
      "name": "setSettings",
      "outputs": [],
      "stateMutability": "nonpayable",
      "type": "function"
    },
    {
      "inputs": [],
      "name": "settings",
      "outputs": [
        {
          "internalType": "contract ISettings",
          "name": "",
          "type": "address"
        }
      ],
      "stateMutability": "view",
      "type": "function"
    },
    {
      "inputs": [
        {
          "internalType": "address",
          "name": "newOwner",
          "type": "address"
        }
      ],
      "name": "transferOwnership",
      "outputs": [],
      "stateMutability": "nonpayable",
      "type": "function"
    }
  ],
  "bytecode": "0x608060405234801561001057600080fd5b50614533806100206000396000f3fe608060405234801561001057600080fd5b50600436106101165760003560e01c8063a01d3c2c116100a2578063cece6f3d11610071578063cece6f3d14610298578063d2ef0795146102b4578063e06174e4146102e4578063e6dfba1514610302578063f2fde38b1461031e57610116565b8063a01d3c2c14610226578063c113653014610242578063c4d66de81461025e578063ce8536131461027a57610116565b8063675813a7116100e9578063675813a714610193578063715018a6146101c45780637ef82070146101ce5780638b72ad0d146101ec5780638da5cb5b1461020857610116565b8063044609031461011b57806308def162146101395780634aa83d0e14610157578063538ba4f914610175575b600080fd5b61012361033a565b60405161013091906132d9565b60405180910390f35b610141610341565b60405161014e91906132d9565b60405180910390f35b61015f61034a565b60405161016c91906132d9565b60405180910390f35b61017d610352565b60405161018a9190613335565b60405180910390f35b6101ad60048036038101906101a891906133e3565b610357565b6040516101bb929190613436565b60405180910390f35b6101cc6103d9565b005b6101d6610461565b6040516101e3919061347b565b60405180910390f35b61020660048036038101906102019190613496565b610474565b005b610210610a20565b60405161021d9190613335565b60405180910390f35b610240600480360381019061023b9190613527565b610a4a565b005b61025c60048036038101906102579190613580565b610b0a565b005b61027860048036038101906102739190613527565b610c7e565b005b610282610df6565b60405161028f919061347b565b60405180910390f35b6102b260048036038101906102ad91906135c0565b610e09565b005b6102ce60048036038101906102c99190613600565b610f2a565b6040516102db919061365b565b60405180910390f35b6102ec610f8a565b6040516102f991906136d5565b60405180910390f35b61031c600480360381019061031791906136f0565b610fb0565b005b61033860048036038101906103339190613743565b611108565b005b620f424081565b64e8d4a5100081565b633b9aca0081565b600081565b600080600060656000868152602001908152602001600020600201600087815260200190815260200160002090508060050160008573ffffffffffffffffffffffffffffffffffffffff1673ffffffffffffffffffffffffffffffffffffffff1681526020019081526020016000205481600101549250925050935093915050565b6103e16111ff565b73ffffffffffffffffffffffffffffffffffffffff166103ff610a20565b73ffffffffffffffffffffffffffffffffffffffff1614610455576040517f08c379a000000000000000000000000000000000000000000000000000000000815260040161044c906137cd565b60405180910390fd5b61045f6000611207565b565b606660149054906101000a900460030b81565b600081116104b7576040517f08c379a00000000000000000000000000000000000000000000000000000000081526004016104ae90613839565b60405180910390fd5b610574333083606660009054906101000a900473ffffffffffffffffffffffffffffffffffffffff1673ffffffffffffffffffffffffffffffffffffffff1663afc1aaca6040518163ffffffff1660e01b8152600401602060405180830381865afa15801561052a573d6000803e3d6000fd5b505050506040513d601f19601f8201168201806040525081019061054e919061386e565b73ffffffffffffffffffffffffffffffffffffffff166112cd909392919063ffffffff16565b6000606660009054906101000a900473ffffffffffffffffffffffffffffffffffffffff1673ffffffffffffffffffffffffffffffffffffffff166374cb38b06040518163ffffffff1660e01b8152600401602060405180830381865afa1580156105e3573d6000803e3d6000fd5b505050506040513d601f19601f82011682018060405250810190610607919061386e565b73ffffffffffffffffffffffffffffffffffffffff16636f853a5d6040518163ffffffff1660e01b81526004016020604051808303816000875af1158015610653573d6000803e3d6000fd5b505050506040513d601f19601f8201168201806040525081019061067791906138b0565b905060006065600083815260200190815260200160002090506000816002016000878152602001908152602001600020905060008160010154036106d25760018260000160008282546106ca919061390c565b925050819055505b60008160050160008773ffffffffffffffffffffffffffffffffffffffff1673ffffffffffffffffffffffffffffffffffffffff168152602001908152602001600020540361092e5760018260010160008773ffffffffffffffffffffffffffffffffffffffff1673ffffffffffffffffffffffffffffffffffffffff168152602001908152602001600020600082825461076d919061390c565b925050819055506000606660009054906101000a900473ffffffffffffffffffffffffffffffffffffffff1673ffffffffffffffffffffffffffffffffffffffff16637b1391a66040518163ffffffff1660e01b8152600401602060405180830381865afa1580156107e3573d6000803e3d6000fd5b505050506040513d601f19601f82011682018060405250810190610807919061386e565b905060008173ffffffffffffffffffffffffffffffffffffffff1663e9260898886040518263ffffffff1660e01b81526004016108449190613335565b602060405180830381865afa158015610861573d6000803e3d6000fd5b505050506040513d601f19601f8201168201806040525081019061088591906138b0565b9050600081116108ca576040517f08c379a00000000000000000000000000000000000000000000000000000000081526004016108c1906139ae565b60405180910390fd5b808360040160008973ffffffffffffffffffffffffffffffffffffffff1673ffffffffffffffffffffffffffffffffffffffff1681526020019081526020016000208190555080836000016000828254610924919061390c565b9250508190555050505b838160050160008773ffffffffffffffffffffffffffffffffffffffff1673ffffffffffffffffffffffffffffffffffffffff168152602001908152602001600020600082825461097f919061390c565b925050819055508381600101600082825461099a919061390c565b92505081905550838160020160008282546109b5919061390c565b92505081905550838160030160008282546109d0919061390c565b925050819055507f110a3fbc82c17915d70bf4b380aa8c78bb13c5baf3cd00040ca7ddb3ac2c9dde8686868460010154604051610a1094939291906139dd565b60405180910390a1505050505050565b6000603360009054906101000a900473ffffffffffffffffffffffffffffffffffffffff16905090565b610a526111ff565b73ffffffffffffffffffffffffffffffffffffffff16610a70610a20565b73ffffffffffffffffffffffffffffffffffffffff1614610ac6576040517f08c379a0000000000000000000000000000000000000000000000000000000008152600401610abd906137cd565b60405180910390fd5b80606660006101000a81548173ffffffffffffffffffffffffffffffffffffffff021916908373ffffffffffffffffffffffffffffffffffffffff16021790555050565b610b126111ff565b73ffffffffffffffffffffffffffffffffffffffff16610b30610a20565b73ffffffffffffffffffffffffffffffffffffffff1614610b86576040517f08c379a0000000000000000000000000000000000000000000000000000000008152600401610b7d906137cd565b60405180910390fd5b60008260030b138015610b9c575060008160030b135b610bdb576040517f08c379a0000000000000000000000000000000000000000000000000000000008152600401610bd290613a6e565b60405180910390fd5b81606660146101000a81548163ffffffff021916908360030b63ffffffff16021790555080606660186101000a81548163ffffffff021916908360030b63ffffffff1602179055507fec92f210d262da30d97393b5828b77b95b4f5e52b754d010e84078e115ec6342606660149054906101000a900460030b606660189054906101000a900460030b604051610c72929190613a8e565b60405180910390a15050565b600060019054906101000a900460ff16610ca65760008054906101000a900460ff1615610caf565b610cae611356565b5b610cee576040517f08c379a0000000000000000000000000000000000000000000000000000000008152600401610ce590613b29565b60405180910390fd5b60008060019054906101000a900460ff161590508015610d3e576001600060016101000a81548160ff02191690831515021790555060016000806101000a81548160ff0219169083151502179055505b610d46611367565b6001606660146101000a81548163ffffffff021916908360030b63ffffffff1602179055506003606660186101000a81548163ffffffff021916908360030b63ffffffff16021790555081606660006101000a81548173ffffffffffffffffffffffffffffffffffffffff021916908373ffffffffffffffffffffffffffffffffffffffff1602179055508015610df25760008060016101000a81548160ff0219169083151502179055505b5050565b606660189054906101000a900460030b81565b6000606660009054906101000a900473ffffffffffffffffffffffffffffffffffffffff1673ffffffffffffffffffffffffffffffffffffffff166374cb38b06040518163ffffffff1660e01b8152600401602060405180830381865afa158015610e78573d6000803e3d6000fd5b505050506040513d601f19601f82011682018060405250810190610e9c919061386e565b73ffffffffffffffffffffffffffffffffffffffff16636f853a5d6040518163ffffffff1660e01b81526004016020604051808303816000875af1158015610ee8573d6000803e3d6000fd5b505050506040513d601f19601f82011682018060405250810190610f0c91906138b0565b9050610f25600182610f1e9190613b49565b84846113c0565b505050565b6000806065600085815260200190815260200160002060010160008473ffffffffffffffffffffffffffffffffffffffff1673ffffffffffffffffffffffffffffffffffffffff1681526020019081526020016000205414905092915050565b606660009054906101000a900473ffffffffffffffffffffffffffffffffffffffff1681565b6000606660009054906101000a900473ffffffffffffffffffffffffffffffffffffffff1673ffffffffffffffffffffffffffffffffffffffff166374cb38b06040518163ffffffff1660e01b8152600401602060405180830381865afa15801561101f573d6000803e3d6000fd5b505050506040513d601f19601f82011682018060405250810190611043919061386e565b73ffffffffffffffffffffffffffffffffffffffff16636f853a5d6040518163ffffffff1660e01b81526004016020604051808303816000875af115801561108f573d6000803e3d6000fd5b505050506040513d601f19601f820116820180604052508101906110b391906138b0565b90508381116110f7576040517f08c379a00000000000000000000000000000000000000000000000000000000081526004016110ee90613bc9565b60405180910390fd5b6111028484846113c0565b50505050565b6111106111ff565b73ffffffffffffffffffffffffffffffffffffffff1661112e610a20565b73ffffffffffffffffffffffffffffffffffffffff1614611184576040517f08c379a000000000000000000000000000000000000000000000000000000000815260040161117b906137cd565b60405180910390fd5b600073ffffffffffffffffffffffffffffffffffffffff168173ffffffffffffffffffffffffffffffffffffffff16036111f3576040517f08c379a00000000000000000000000000000000000000000000000000000000081526004016111ea90613c5b565b60405180910390fd5b6111fc81611207565b50565b600033905090565b6000603360009054906101000a900473ffffffffffffffffffffffffffffffffffffffff16905081603360006101000a81548173ffffffffffffffffffffffffffffffffffffffff021916908373ffffffffffffffffffffffffffffffffffffffff1602179055508173ffffffffffffffffffffffffffffffffffffffff168173ffffffffffffffffffffffffffffffffffffffff167f8be0079c531659141344cd1fd0a4f28419497f9722a3daafe3b4186f6b6457e060405160405180910390a35050565b611350846323b872dd60e01b8585856040516024016112ee93929190613c7b565b604051602081830303815290604052907bffffffffffffffffffffffffffffffffffffffffffffffffffffffff19166020820180517bffffffffffffffffffffffffffffffffffffffffffffffffffffffff8381831617835250505050611a76565b50505050565b600061136130611b3d565b15905090565b600060019054906101000a900460ff166113b6576040517f08c379a00000000000000000000000000000000000000000000000000000000081526004016113ad90613d24565b60405180910390fd5b6113be611b60565b565b60006065600085815260200190815260200160002090506000816002016000858152602001908152602001600020905060008160010154118015611445575060008160050160008573ffffffffffffffffffffffffffffffffffffffff1673ffffffffffffffffffffffffffffffffffffffff16815260200190815260200160002054115b611484576040517f08c379a000000000000000000000000000000000000000000000000000000000815260040161147b90613d90565b60405180910390fd5b600061151c82600101548360050160008773ffffffffffffffffffffffffffffffffffffffff1673ffffffffffffffffffffffffffffffffffffffff168152602001908152602001600020548460040160008873ffffffffffffffffffffffffffffffffffffffff1673ffffffffffffffffffffffffffffffffffffffff168152602001908152602001600020548560000154611bc1565b90506000606660009054906101000a900473ffffffffffffffffffffffffffffffffffffffff1673ffffffffffffffffffffffffffffffffffffffff166373589db36040518163ffffffff1660e01b8152600401602060405180830381865afa15801561158d573d6000803e3d6000fd5b505050506040513d601f19601f820116820180604052508101906115b1919061386e565b90506000819050606660009054906101000a900473ffffffffffffffffffffffffffffffffffffffff1673ffffffffffffffffffffffffffffffffffffffff1663afc1aaca6040518163ffffffff1660e01b8152600401602060405180830381865afa158015611625573d6000803e3d6000fd5b505050506040513d601f19601f82011682018060405250810190611649919061386e565b73ffffffffffffffffffffffffffffffffffffffff1663095ea7b383856040518363ffffffff1660e01b8152600401611683929190613db0565b6020604051808303816000875af11580156116a2573d6000803e3d6000fd5b505050506040513d601f19601f820116820180604052508101906116c69190613e05565b508073ffffffffffffffffffffffffffffffffffffffff1663998e21698730866040518463ffffffff1660e01b815260040161170493929190613c7b565b600060405180830381600087803b15801561171e57600080fd5b505af1158015611732573d6000803e3d6000fd5b5050505060018560010160008873ffffffffffffffffffffffffffffffffffffffff1673ffffffffffffffffffffffffffffffffffffffff16815260200190815260200160002060008282546117889190613b49565b925050819055508360050160008773ffffffffffffffffffffffffffffffffffffffff1673ffffffffffffffffffffffffffffffffffffffff168152602001908152602001600020548460020160008282546117e49190613b49565b92505081905550828460030160008282546117ff9190613b49565b925050819055508360050160008773ffffffffffffffffffffffffffffffffffffffff1673ffffffffffffffffffffffffffffffffffffffff168152602001908152602001600020600090558360040160008773ffffffffffffffffffffffffffffffffffffffff1673ffffffffffffffffffffffffffffffffffffffff168152602001908152602001600020600090556000846002015403611a2f576000846003015411156119af576000606660009054906101000a900473ffffffffffffffffffffffffffffffffffffffff1673ffffffffffffffffffffffffffffffffffffffff1663afc1aaca6040518163ffffffff1660e01b8152600401602060405180830381865afa158015611918573d6000803e3d6000fd5b505050506040513d601f19601f8201168201806040525081019061193c919061386e565b90508073ffffffffffffffffffffffffffffffffffffffff166342966c6886600301546040518263ffffffff1660e01b815260040161197b91906132d9565b600060405180830381600087803b15801561199557600080fd5b505af11580156119a9573d6000803e3d6000fd5b50505050505b846002016000888152602001908152602001600020600080820160009055600182016000905560028201600090556003820160009055505060018560000160008282546119fc9190613b49565b925050819055506000856000015403611a2e576065600089815260200190815260200160002060008082016000905550505b5b7f0dffebc0f562cda9f14ea495ab21fd21b4791ae0b16da1a93010a86f0729f4fd87878a86604051611a6494939291906139dd565b60405180910390a15050505050505050565b6000611ad8826040518060400160405280602081526020017f5361666545524332303a206c6f772d6c6576656c2063616c6c206661696c65648152508573ffffffffffffffffffffffffffffffffffffffff16611ca09092919063ffffffff16565b9050600081511115611b385780806020019051810190611af89190613e05565b611b37576040517f08c379a0000000000000000000000000000000000000000000000000000000008152600401611b2e90613ea4565b60405180910390fd5b5b505050565b6000808273ffffffffffffffffffffffffffffffffffffffff163b119050919050565b600060019054906101000a900460ff16611baf576040517f08c379a0000000000000000000000000000000000000000000000000000000008152600401611ba690613d24565b60405180910390fd5b611bbf611bba6111ff565b611207565b565b600080611bce8587611cb8565b90506000611bdc8585611cb8565b90506000821480611bed5750600081145b15611bfd57600092505050611c98565b600081831315611c1657611c118284611d6c565b611c21565b611c208383611d6c565b5b9050611c62611c5d611c3283611d99565b606660149054906101000a900460030b60030b606660189054906101000a900460030b60030b612651565b61266f565b905081831315611c7b57611c768282611d6c565b611c86565b611c858282612fb3565b5b9050611c928189612fe2565b93505050505b949350505050565b6060611caf8484600085613056565b90509392505050565b600080831215611cfd576040517f08c379a0000000000000000000000000000000000000000000000000000000008152600401611cf490613f10565b60405180910390fd5b6000821215611d41576040517f08c379a0000000000000000000000000000000000000000000000000000000008152600401611d3890613f10565b60405180910390fd5b611d64611d5e846f8000000000000000000000000000000061316a565b836131de565b905092915050565b6000611d91611d8b846f8000000000000000000000000000000061316a565b836131de565b905092915050565b60006f80000000000000000000000000000000821315611dee576040517f08c379a0000000000000000000000000000000000000000000000000000000008152600401611de590613f10565b60405180910390fd5b60008213611e31576040517f08c379a0000000000000000000000000000000000000000000000000000000008152600401611e2890613f10565b60405180910390fd5b6f800000000000000000000000000000008203611e51576000905061264c565b640733048c5a8213611e7f57701ff0000000000000000000000000000000611e7890613f3a565b905061264c565b60008060006a01c8464f761647600000008513611eea5770100000000000000000000000000000000084611eb39190613f82565b93506a01c8464f761647600000006f8000000000000000000000000000000086611edd9190614016565b611ee7919061415c565b94505b6cf1aaddd7742e900000000000008513611f545770080000000000000000000000000000000084611f1b9190613f82565b93506cf1aaddd7742e900000000000006f8000000000000000000000000000000086611f479190614016565b611f51919061415c565b94505b6e0afe10820813d780000000000000008513611fc25770040000000000000000000000000000000084611f879190613f82565b93506e0afe10820813d780000000000000006f8000000000000000000000000000000086611fb59190614016565b611fbf919061415c565b94505b6f02582ab704279ec0000000000000000085136120325770020000000000000000000000000000000084611ff69190613f82565b93506f02582ab704279ec000000000000000006f80000000000000000000000000000000866120259190614016565b61202f919061415c565b94505b6f1152aaa3bf81cc00000000000000000085136120a257700100000000000000000000000000000000846120669190613f82565b93506f1152aaa3bf81cc0000000000000000006f80000000000000000000000000000000866120959190614016565b61209f919061415c565b94505b6f2f16ac6c59de700000000000000000008513612111576f80000000000000000000000000000000846120d59190613f82565b93506f2f16ac6c59de700000000000000000006f80000000000000000000000000000000866121049190614016565b61210e919061415c565b94505b6f4da2cbf1be58280000000000000000008513612180576f40000000000000000000000000000000846121449190613f82565b93506f4da2cbf1be58280000000000000000006f80000000000000000000000000000000866121739190614016565b61217d919061415c565b94505b6f63afbe7ab2082c00000000000000000085136121ef576f20000000000000000000000000000000846121b39190613f82565b93506f63afbe7ab2082c0000000000000000006f80000000000000000000000000000000866121e29190614016565b6121ec919061415c565b94505b6f70f5a893b608861e1f58934f97aea57d851361225e576f10000000000000000000000000000000846122229190613f82565b93506f70f5a893b608861e1f58934f97aea57d6f80000000000000000000000000000000866122519190614016565b61225b919061415c565b94505b6f800000000000000000000000000000008561227a9190613f82565b92508291506f80000000000000000000000000000000838461229c9190614016565b6122a6919061415c565b9050700100000000000000000000000000000000837001000000000000000000000000000000006122d79190613f82565b836122e29190614016565b6122ec919061415c565b846122f791906141c6565b93506f8000000000000000000000000000000081836123169190614016565b612320919061415c565b9150700200000000000000000000000000000000836faaaaaaaaaaaaaaaaaaaaaaaaaaaaaaaa6123509190613f82565b8361235b9190614016565b612365919061415c565b8461237091906141c6565b93506f80000000000000000000000000000000818361238f9190614016565b612399919061415c565b9150700300000000000000000000000000000000836f999999999999999999999999999999996123c99190613f82565b836123d49190614016565b6123de919061415c565b846123e991906141c6565b93506f8000000000000000000000000000000081836124089190614016565b612412919061415c565b9150700400000000000000000000000000000000836f924924924924924924924924924924926124429190613f82565b8361244d9190614016565b612457919061415c565b8461246291906141c6565b93506f8000000000000000000000000000000081836124819190614016565b61248b919061415c565b9150700500000000000000000000000000000000836f8e38e38e38e38e38e38e38e38e38e38e6124bb9190613f82565b836124c69190614016565b6124d0919061415c565b846124db91906141c6565b93506f8000000000000000000000000000000081836124fa9190614016565b612504919061415c565b9150700600000000000000000000000000000000836f8ba2e8ba2e8ba2e8ba2e8ba2e8ba2e8b6125349190613f82565b8361253f9190614016565b612549919061415c565b8461255491906141c6565b93506f8000000000000000000000000000000081836125739190614016565b61257d919061415c565b9150700700000000000000000000000000000000836f89d89d89d89d89d89d89d89d89d89d896125ad9190613f82565b836125b89190614016565b6125c2919061415c565b846125cd91906141c6565b93506f8000000000000000000000000000000081836125ec9190614016565b6125f6919061415c565b9150700800000000000000000000000000000000836f888888888888888888888888888888886126269190613f82565b836126319190614016565b61263b919061415c565b8461264691906141c6565b93505050505b919050565b6000612666612660858561316a565b836131de565b90509392505050565b6000701ff000000000000000000000000000000061268c90613f3a565b82121561269c5760009050612fae565b600082036126bc576f800000000000000000000000000000009050612fae565b6000821315612700576040517f08c379a00000000000000000000000000000000000000000000000000000000081526004016126f790613f10565b60405180910390fd5b6000806f100000000000000000000000000000008461271f919061425a565b91508190506f8000000000000000000000000000000082826127419190614016565b61274b919061415c565b90506710e1b3be415a0000816127619190614016565b8361276c91906141c6565b92506f80000000000000000000000000000000828261278b9190614016565b612795919061415c565b90506705a0913f6b1e0000816127ab9190614016565b836127b691906141c6565b92506f8000000000000000000000000000000082826127d59190614016565b6127df919061415c565b9050670168244fdac78000816127f59190614016565b8361280091906141c6565b92506f80000000000000000000000000000000828261281f9190614016565b612829919061415c565b9050664807432bc180008161283e9190614016565b8361284991906141c6565b92506f8000000000000000000000000000000082826128689190614016565b612872919061415c565b9050660c0135dca04000816128879190614016565b8361289291906141c6565b92506f8000000000000000000000000000000082826128b19190614016565b6128bb919061415c565b90506601b707b1cdc000816128d09190614016565b836128db91906141c6565b92506f8000000000000000000000000000000082826128fa9190614016565b612904919061415c565b90506536e0f639b800816129189190614016565b8361292391906141c6565b92506f8000000000000000000000000000000082826129429190614016565b61294c919061415c565b9050650618fee9f800816129609190614016565b8361296b91906141c6565b92506f80000000000000000000000000000000828261298a9190614016565b612994919061415c565b9050649c197dcc00816129a79190614016565b836129b291906141c6565b92506f8000000000000000000000000000000082826129d19190614016565b6129db919061415c565b9050640e30dce400816129ee9190614016565b836129f991906141c6565b92506f800000000000000000000000000000008282612a189190614016565b612a22919061415c565b905064012ebd130081612a359190614016565b83612a4091906141c6565b92506f800000000000000000000000000000008282612a5f9190614016565b612a69919061415c565b90506317499f0081612a7b9190614016565b83612a8691906141c6565b92506f800000000000000000000000000000008282612aa59190614016565b612aaf919061415c565b90506301a9d48081612ac19190614016565b83612acc91906141c6565b92506f800000000000000000000000000000008282612aeb9190614016565b612af5919061415c565b9050621c638081612b069190614016565b83612b1191906141c6565b92506f800000000000000000000000000000008282612b309190614016565b612b3a919061415c565b90506201c63881612b4b9190614016565b83612b5691906141c6565b92506f800000000000000000000000000000008282612b759190614016565b612b7f919061415c565b9050611ab881612b8f9190614016565b83612b9a91906141c6565b92506f800000000000000000000000000000008282612bb99190614016565b612bc3919061415c565b905061017c81612bd39190614016565b83612bde91906141c6565b92506f800000000000000000000000000000008282612bfd9190614016565b612c07919061415c565b9050601481612c169190614016565b83612c2191906141c6565b92506f800000000000000000000000000000008282612c409190614016565b612c4a919061415c565b9050600181612c599190614016565b83612c6491906141c6565b92506f80000000000000000000000000000000826721c3677c82b4000085612c8c919061415c565b612c9691906141c6565b612ca091906141c6565b925083612cac90613f3a565b93506000701000000000000000000000000000000000851614612d03577243cbaf42a000812488fc5c220ad7b97bf6e99e6cf1aaddd7742e56d32fb9f9974484612cf69190614016565b612d00919061415c565b92505b6000700800000000000000000000000000000000851614612d59577105d27a9f51c31b7c2f8038212a05747799916e0afe10820813d65dfe6a33c07f738f84612d4c9190614016565b612d56919061415c565b92505b6000700400000000000000000000000000000000851614612daf57701b4c902e273a58678d6d3bfdb93db96d026f02582ab704279e8efd15e0265855c47a84612da29190614016565b612dac919061415c565b92505b6000700200000000000000000000000000000000851614612e05577003b1cc971a9bb5b9867477440d6d1577506f1152aaa3bf81cb9fdb76eae12d02957184612df89190614016565b612e02919061415c565b92505b6000700100000000000000000000000000000000851614612e5b5770015bf0a8b1457695355fb8ac404e7a79e36f2f16ac6c59de6f8d5d6f63c1482a7c8684612e4e9190614016565b612e58919061415c565b92505b60006f80000000000000000000000000000000851614612eaf576fd3094c70f034de4b96ff7d5b6f99fcd86f4da2cbf1be5827f9eb3ad1aa9866ebb384612ea29190614016565b612eac919061415c565b92505b60006f40000000000000000000000000000000851614612f03576fa45af1e1f40c333b3de1db4dd55f29a76f63afbe7ab2082ba1a0ae5e4eb1b479dc84612ef69190614016565b612f00919061415c565b92505b60006f20000000000000000000000000000000851614612f57576f910b022db7ae67ce76b441c27035c6a16f70f5a893b608861e1f58934f97aea57d84612f4a9190614016565b612f54919061415c565b92505b60006f10000000000000000000000000000000851614612fab576f88415abbe9a76bead8d00cf112e4d4a86f783eafef1c0a8f3978c7f81824d62ebf84612f9e9190614016565b612fa8919061415c565b92505b50505b919050565b60006f80000000000000000000000000000000612fd0848461316a565b612fda919061415c565b905092915050565b600080821215613027576040517f08c379a000000000000000000000000000000000000000000000000000000000815260040161301e90613f10565b60405180910390fd5b6000613033848461316a565b905060008113613047576000915050613050565b607f81901c9150505b92915050565b60608247101561309b576040517f08c379a0000000000000000000000000000000000000000000000000000000008152600401613092906142fd565b60405180910390fd5b6130a485613236565b6130e3576040517f08c379a00000000000000000000000000000000000000000000000000000000081526004016130da90614369565b60405180910390fd5b6000808673ffffffffffffffffffffffffffffffffffffffff16858760405161310c9190614403565b60006040518083038185875af1925050503d8060008114613149576040519150601f19603f3d011682016040523d82523d6000602084013e61314e565b606091505b509150915061315e828286613259565b92505050949350505050565b600080830361317c57600090506131d8565b81836131889190614016565b9050818382613197919061415c565b146131d7576040517f08c379a00000000000000000000000000000000000000000000000000000000081526004016131ce90614466565b60405180910390fd5b5b92915050565b6000808203613222576040517f08c379a000000000000000000000000000000000000000000000000000000000815260040161321990614466565b60405180910390fd5b818361322e919061415c565b905092915050565b6000808273ffffffffffffffffffffffffffffffffffffffff163b119050919050565b60608315613269578290506132b9565b60008351111561327c5782518084602001fd5b816040517f08c379a00000000000000000000000000000000000000000000000000000000081526004016132b091906144db565b60405180910390fd5b9392505050565b6000819050919050565b6132d3816132c0565b82525050565b60006020820190506132ee60008301846132ca565b92915050565b600073ffffffffffffffffffffffffffffffffffffffff82169050919050565b600061331f826132f4565b9050919050565b61332f81613314565b82525050565b600060208201905061334a6000830184613326565b92915050565b600080fd5b6000819050919050565b61336881613355565b811461337357600080fd5b50565b6000813590506133858161335f565b92915050565b613394816132c0565b811461339f57600080fd5b50565b6000813590506133b18161338b565b92915050565b6133c081613314565b81146133cb57600080fd5b50565b6000813590506133dd816133b7565b92915050565b6000806000606084860312156133fc576133fb613350565b5b600061340a86828701613376565b935050602061341b868287016133a2565b925050604061342c868287016133ce565b9150509250925092565b600060408201905061344b60008301856132ca565b61345860208301846132ca565b9392505050565b60008160030b9050919050565b6134758161345f565b82525050565b6000602082019050613490600083018461346c565b92915050565b6000806000606084860312156134af576134ae613350565b5b60006134bd86828701613376565b93505060206134ce868287016133ce565b92505060406134df868287016133a2565b9150509250925092565b60006134f482613314565b9050919050565b613504816134e9565b811461350f57600080fd5b50565b600081359050613521816134fb565b92915050565b60006020828403121561353d5761353c613350565b5b600061354b84828501613512565b91505092915050565b61355d8161345f565b811461356857600080fd5b50565b60008135905061357a81613554565b92915050565b6000806040838503121561359757613596613350565b5b60006135a58582860161356b565b92505060206135b68582860161356b565b9150509250929050565b600080604083850312156135d7576135d6613350565b5b60006135e585828601613376565b92505060206135f6858286016133ce565b9150509250929050565b6000806040838503121561361757613616613350565b5b6000613625858286016133a2565b9250506020613636858286016133ce565b9150509250929050565b60008115159050919050565b61365581613640565b82525050565b6000602082019050613670600083018461364c565b92915050565b6000819050919050565b600061369b613696613691846132f4565b613676565b6132f4565b9050919050565b60006136ad82613680565b9050919050565b60006136bf826136a2565b9050919050565b6136cf816136b4565b82525050565b60006020820190506136ea60008301846136c6565b92915050565b60008060006060848603121561370957613708613350565b5b6000613717868287016133a2565b935050602061372886828701613376565b9250506040613739868287016133ce565b9150509250925092565b60006020828403121561375957613758613350565b5b6000613767848285016133ce565b91505092915050565b600082825260208201905092915050565b7f4f776e61626c653a2063616c6c6572206973206e6f7420746865206f776e6572600082015250565b60006137b7602083613770565b91506137c282613781565b602082019050919050565b600060208201905081810360008301526137e6816137aa565b9050919050565b7f496e76616c696420616d6f756e74000000000000000000000000000000000000600082015250565b6000613823600e83613770565b915061382e826137ed565b602082019050919050565b6000602082019050818103600083015261385281613816565b9050919050565b600081519050613868816133b7565b92915050565b60006020828403121561388457613883613350565b5b600061389284828501613859565b91505092915050565b6000815190506138aa8161338b565b92915050565b6000602082840312156138c6576138c5613350565b5b60006138d48482850161389b565b91505092915050565b7f4e487b7100000000000000000000000000000000000000000000000000000000600052601160045260246000fd5b6000613917826132c0565b9150613922836132c0565b9250827fffffffffffffffffffffffffffffffffffffffffffffffffffffffffffffffff03821115613957576139566138dd565b5b828201905092915050565b7f4e6f7420696e6465786572000000000000000000000000000000000000000000600082015250565b6000613998600b83613770565b91506139a382613962565b602082019050919050565b600060208201905081810360008301526139c78161398b565b9050919050565b6139d781613355565b82525050565b60006080820190506139f260008301876139ce565b6139ff6020830186613326565b613a0c60408301856132ca565b613a1960608301846132ca565b95945050505050565b7f21616c7068610000000000000000000000000000000000000000000000000000600082015250565b6000613a58600683613770565b9150613a6382613a22565b602082019050919050565b60006020820190508181036000830152613a8781613a4b565b9050919050565b6000604082019050613aa3600083018561346c565b613ab0602083018461346c565b9392505050565b7f496e697469616c697a61626c653a20636f6e747261637420697320616c72656160008201527f647920696e697469616c697a6564000000000000000000000000000000000000602082015250565b6000613b13602e83613770565b9150613b1e82613ab7565b604082019050919050565b60006020820190508181036000830152613b4281613b06565b9050919050565b6000613b54826132c0565b9150613b5f836132c0565b925082821015613b7257613b716138dd565b5b828203905092915050565b7f57616974696e6720457261000000000000000000000000000000000000000000600082015250565b6000613bb3600b83613770565b9150613bbe82613b7d565b602082019050919050565b60006020820190508181036000830152613be281613ba6565b9050919050565b7f4f776e61626c653a206e6577206f776e657220697320746865207a65726f206160008201527f6464726573730000000000000000000000000000000000000000000000000000602082015250565b6000613c45602683613770565b9150613c5082613be9565b604082019050919050565b60006020820190508181036000830152613c7481613c38565b9050919050565b6000606082019050613c906000830186613326565b613c9d6020830185613326565b613caa60408301846132ca565b949350505050565b7f496e697469616c697a61626c653a20636f6e7472616374206973206e6f74206960008201527f6e697469616c697a696e67000000000000000000000000000000000000000000602082015250565b6000613d0e602b83613770565b9150613d1982613cb2565b604082019050919050565b60006020820190508181036000830152613d3d81613d01565b9050919050565b7f4e6f207265776172640000000000000000000000000000000000000000000000600082015250565b6000613d7a600983613770565b9150613d8582613d44565b602082019050919050565b60006020820190508181036000830152613da981613d6d565b9050919050565b6000604082019050613dc56000830185613326565b613dd260208301846132ca565b9392505050565b613de281613640565b8114613ded57600080fd5b50565b600081519050613dff81613dd9565b92915050565b600060208284031215613e1b57613e1a613350565b5b6000613e2984828501613df0565b91505092915050565b7f5361666545524332303a204552433230206f7065726174696f6e20646964206e60008201527f6f74207375636365656400000000000000000000000000000000000000000000602082015250565b6000613e8e602a83613770565b9150613e9982613e32565b604082019050919050565b60006020820190508181036000830152613ebd81613e81565b9050919050565b7f6e6f706500000000000000000000000000000000000000000000000000000000600082015250565b6000613efa600483613770565b9150613f0582613ec4565b602082019050919050565b60006020820190508181036000830152613f2981613eed565b9050919050565b6000819050919050565b6000613f4582613f30565b91507f80000000000000000000000000000000000000000000000000000000000000008203613f7757613f766138dd565b5b816000039050919050565b6000613f8d82613f30565b9150613f9883613f30565b9250827f800000000000000000000000000000000000000000000000000000000000000001821260008412151615613fd357613fd26138dd565b5b827f7fffffffffffffffffffffffffffffffffffffffffffffffffffffffffffffff01821360008412161561400b5761400a6138dd565b5b828203905092915050565b600061402182613f30565b915061402c83613f30565b9250827f7fffffffffffffffffffffffffffffffffffffffffffffffffffffffffffffff048211600084136000841316161561406b5761406a6138dd565b5b817f800000000000000000000000000000000000000000000000000000000000000005831260008412600084131616156140a8576140a76138dd565b5b827f800000000000000000000000000000000000000000000000000000000000000005821260008413600084121616156140e5576140e46138dd565b5b827f7fffffffffffffffffffffffffffffffffffffffffffffffffffffffffffffff0582126000841260008412161615614122576141216138dd565b5b828202905092915050565b7f4e487b7100000000000000000000000000000000000000000000000000000000600052601260045260246000fd5b600061416782613f30565b915061417283613f30565b9250826141825761418161412d565b5b600160000383147f8000000000000000000000000000000000000000000000000000000000000000831416156141bb576141ba6138dd565b5b828205905092915050565b60006141d182613f30565b91506141dc83613f30565b9250817f7fffffffffffffffffffffffffffffffffffffffffffffffffffffffffffffff03831360008312151615614217576142166138dd565b5b817f800000000000000000000000000000000000000000000000000000000000000003831260008312161561424f5761424e6138dd565b5b828201905092915050565b600061426582613f30565b915061427083613f30565b9250826142805761427f61412d565b5b828207905092915050565b7f416464726573733a20696e73756666696369656e742062616c616e636520666f60008201527f722063616c6c0000000000000000000000000000000000000000000000000000602082015250565b60006142e7602683613770565b91506142f28261428b565b604082019050919050565b60006020820190508181036000830152614316816142da565b9050919050565b7f416464726573733a2063616c6c20746f206e6f6e2d636f6e7472616374000000600082015250565b6000614353601d83613770565b915061435e8261431d565b602082019050919050565b6000602082019050818103600083015261438281614346565b9050919050565b600081519050919050565b600081905092915050565b60005b838110156143bd5780820151818401526020810190506143a2565b838111156143cc576000848401525b50505050565b60006143dd82614389565b6143e78185614394565b93506143f781856020860161439f565b80840191505092915050565b600061440f82846143d2565b915081905092915050565b7f62696e5f6f700000000000000000000000000000000000000000000000000000600082015250565b6000614450600683613770565b915061445b8261441a565b602082019050919050565b6000602082019050818103600083015261447f81614443565b9050919050565b600081519050919050565b6000601f19601f8301169050919050565b60006144ad82614486565b6144b78185613770565b93506144c781856020860161439f565b6144d081614491565b840191505092915050565b600060208201905081810360008301526144f581846144a2565b90509291505056fea264697066735822122042c0a568b442506ff31ee3770479dc2ba18c1984d3b07538531b4c9984d9b0b564736f6c634300080f0033",
  "linkReferences": {},
  "deployedLinkReferences": {}
}