{
  "_format": "hh-sol-artifact-1",
  "contractName": "RewardsHelper",
  "sourceName": "contracts/RewardsHelper.sol",
  "abi": [
    {
      "anonymous": false,
      "inputs": [
        {
          "indexed": true,
          "internalType": "address",
          "name": "previousOwner",
          "type": "address"
        },
        {
          "indexed": true,
          "internalType": "address",
          "name": "newOwner",
          "type": "address"
        }
      ],
      "name": "OwnershipTransferred",
      "type": "event"
    },
    {
      "inputs": [
        {
          "internalType": "address",
          "name": "indexer",
          "type": "address"
        },
        {
          "internalType": "address[]",
          "name": "stakers",
          "type": "address[]"
        }
      ],
      "name": "batchApplyStakeChange",
      "outputs": [],
      "stateMutability": "nonpayable",
      "type": "function"
    },
    {
      "inputs": [
        {
          "internalType": "address",
          "name": "delegator",
          "type": "address"
        },
        {
          "internalType": "address[]",
          "name": "indexers",
          "type": "address[]"
        }
      ],
      "name": "batchClaim",
      "outputs": [],
      "stateMutability": "nonpayable",
      "type": "function"
    },
    {
      "inputs": [
        {
          "internalType": "address",
          "name": "indexer",
          "type": "address"
        },
        {
          "internalType": "uint256",
          "name": "batchSize",
          "type": "uint256"
        }
      ],
      "name": "batchCollectAndDistributeRewards",
      "outputs": [],
      "stateMutability": "nonpayable",
      "type": "function"
    },
    {
      "inputs": [
        {
          "internalType": "address",
          "name": "indexer",
          "type": "address"
        },
        {
          "internalType": "bytes32[]",
          "name": "deployments",
          "type": "bytes32[]"
        }
      ],
      "name": "batchCollectWithPool",
      "outputs": [],
      "stateMutability": "nonpayable",
      "type": "function"
    },
    {
      "inputs": [
        {
          "internalType": "address",
          "name": "indexer",
          "type": "address"
        }
      ],
      "name": "getPendingStakers",
      "outputs": [
        {
          "internalType": "address[]",
          "name": "",
          "type": "address[]"
        }
      ],
      "stateMutability": "view",
      "type": "function"
    },
    {
      "inputs": [
        {
          "internalType": "address",
          "name": "indexer",
          "type": "address"
        },
        {
          "internalType": "uint256",
          "name": "startEra",
          "type": "uint256"
        },
        {
          "internalType": "uint256",
          "name": "length",
          "type": "uint256"
        }
      ],
      "name": "getRewardsAddTable",
      "outputs": [
        {
          "internalType": "uint256[]",
          "name": "",
          "type": "uint256[]"
        }
      ],
      "stateMutability": "view",
      "type": "function"
    },
    {
      "inputs": [
        {
          "internalType": "address",
          "name": "indexer",
          "type": "address"
        },
        {
          "internalType": "uint256",
          "name": "startEra",
          "type": "uint256"
        },
        {
          "internalType": "uint256",
          "name": "length",
          "type": "uint256"
        }
      ],
      "name": "getRewardsRemoveTable",
      "outputs": [
        {
          "internalType": "uint256[]",
          "name": "",
          "type": "uint256[]"
        }
      ],
      "stateMutability": "view",
      "type": "function"
    },
    {
      "inputs": [
        {
          "internalType": "contract ISettings",
          "name": "_settings",
          "type": "address"
        }
      ],
      "name": "initialize",
      "outputs": [],
      "stateMutability": "nonpayable",
      "type": "function"
    },
    {
      "inputs": [],
      "name": "owner",
      "outputs": [
        {
          "internalType": "address",
          "name": "",
          "type": "address"
        }
      ],
      "stateMutability": "view",
      "type": "function"
    },
    {
      "inputs": [],
      "name": "renounceOwnership",
      "outputs": [],
      "stateMutability": "nonpayable",
      "type": "function"
    },
    {
      "inputs": [
        {
          "internalType": "address",
          "name": "newOwner",
          "type": "address"
        }
      ],
      "name": "transferOwnership",
      "outputs": [],
      "stateMutability": "nonpayable",
      "type": "function"
    }
  ],
  "bytecode": "0x608060405234801561001057600080fd5b50612075806100206000396000f3fe608060405234801561001057600080fd5b50600436106100a95760003560e01c80638d3a2e52116100715780638d3a2e521461013c5780638da5cb5b1461016c5780639a0795521461018a578063c4d66de8146101ba578063d0dbe54b146101d6578063f2fde38b146101f2576100a9565b8063331367eb146100ae5780635a227510146100ca5780635e563101146100e657806362a1b14814610116578063715018a614610132575b600080fd5b6100c860048036038101906100c39190611604565b61020e565b005b6100e460048036038101906100df9190611759565b610361565b005b61010060048036038101906100fb91906117eb565b6105a3565b60405161010d91906118fc565b60405180910390f35b610130600480360381019061012b9190611604565b610758565b005b61013a610899565b005b6101566004803603810190610151919061191e565b610921565b6040516101639190611a09565b60405180910390f35b610174610b76565b6040516101819190611a3a565b60405180910390f35b6101a4600480360381019061019f91906117eb565b610ba0565b6040516101b191906118fc565b60405180910390f35b6101d460048036038101906101cf9190611a93565b610d55565b005b6101f060048036038101906101eb9190611ac0565b610e83565b005b61020c6004803603810190610207919061191e565b61116a565b005b6000606560009054906101000a900473ffffffffffffffffffffffffffffffffffffffff1673ffffffffffffffffffffffffffffffffffffffff166373589db36040518163ffffffff1660e01b8152600401602060405180830381865afa15801561027d573d6000803e3d6000fd5b505050506040513d601f19601f820116820180604052508101906102a19190611b15565b905060005b825181101561035b578173ffffffffffffffffffffffffffffffffffffffff1663f65caaa78483815181106102de576102dd611b42565b5b6020026020010151866040518363ffffffff1660e01b8152600401610304929190611b71565b6020604051808303816000875af1158015610323573d6000803e3d6000fd5b505050506040513d601f19601f820116820180604052508101906103479190611baf565b50808061035390611c0b565b9150506102a6565b50505050565b6000606560009054906101000a900473ffffffffffffffffffffffffffffffffffffffff1673ffffffffffffffffffffffffffffffffffffffff16638e5a4ab66040518163ffffffff1660e01b8152600401602060405180830381865afa1580156103d0573d6000803e3d6000fd5b505050506040513d601f19601f820116820180604052508101906103f49190611b15565b905060005b825181101561049c578173ffffffffffffffffffffffffffffffffffffffff1663cece6f3d84838151811061043157610430611b42565b5b6020026020010151866040518363ffffffff1660e01b8152600401610457929190611c62565b600060405180830381600087803b15801561047157600080fd5b505af1158015610485573d6000803e3d6000fd5b50505050808061049490611c0b565b9150506103f9565b506000606560009054906101000a900473ffffffffffffffffffffffffffffffffffffffff1673ffffffffffffffffffffffffffffffffffffffff166373589db36040518163ffffffff1660e01b8152600401602060405180830381865afa15801561050c573d6000803e3d6000fd5b505050506040513d601f19601f820116820180604052508101906105309190611b15565b90508073ffffffffffffffffffffffffffffffffffffffff1663c731196a856040518263ffffffff1660e01b815260040161056b9190611a3a565b600060405180830381600087803b15801561058557600080fd5b505af1158015610599573d6000803e3d6000fd5b5050505050505050565b60606000606560009054906101000a900473ffffffffffffffffffffffffffffffffffffffff1673ffffffffffffffffffffffffffffffffffffffff166373589db36040518163ffffffff1660e01b8152600401602060405180830381865afa158015610614573d6000803e3d6000fd5b505050506040513d601f19601f820116820180604052508101906106389190611b15565b905060008367ffffffffffffffff811115610656576106556114c1565b5b6040519080825280602002602001820160405280156106845781602001602082028036833780820191505090505b50905060005b8481101561074b578273ffffffffffffffffffffffffffffffffffffffff1663e726880c8888846106bb9190611c8b565b6040518363ffffffff1660e01b81526004016106d8929190611cf0565b602060405180830381865afa1580156106f5573d6000803e3d6000fd5b505050506040513d601f19601f820116820180604052508101906107199190611baf565b82828151811061072c5761072b611b42565b5b602002602001018181525050808061074390611c0b565b91505061068a565b5080925050509392505050565b6000606560009054906101000a900473ffffffffffffffffffffffffffffffffffffffff1673ffffffffffffffffffffffffffffffffffffffff166373589db36040518163ffffffff1660e01b8152600401602060405180830381865afa1580156107c7573d6000803e3d6000fd5b505050506040513d601f19601f820116820180604052508101906107eb9190611b15565b905060005b8251811015610893578173ffffffffffffffffffffffffffffffffffffffff16639ca0e97f8585848151811061082957610828611b42565b5b60200260200101516040518363ffffffff1660e01b815260040161084e929190611b71565b600060405180830381600087803b15801561086857600080fd5b505af115801561087c573d6000803e3d6000fd5b50505050808061088b90611c0b565b9150506107f0565b50505050565b6108a1611261565b73ffffffffffffffffffffffffffffffffffffffff166108bf610b76565b73ffffffffffffffffffffffffffffffffffffffff1614610915576040517f08c379a000000000000000000000000000000000000000000000000000000000815260040161090c90611d76565b60405180910390fd5b61091f6000611269565b565b60606000606560009054906101000a900473ffffffffffffffffffffffffffffffffffffffff1673ffffffffffffffffffffffffffffffffffffffff166373589db36040518163ffffffff1660e01b8152600401602060405180830381865afa158015610992573d6000803e3d6000fd5b505050506040513d601f19601f820116820180604052508101906109b69190611b15565b905060008173ffffffffffffffffffffffffffffffffffffffff1663695721f0856040518263ffffffff1660e01b81526004016109f39190611a3a565b602060405180830381865afa158015610a10573d6000803e3d6000fd5b505050506040513d601f19601f82011682018060405250810190610a349190611baf565b905060008167ffffffffffffffff811115610a5257610a516114c1565b5b604051908082528060200260200182016040528015610a805781602001602082028036833780820191505090505b50905060005b82811015610b6a578373ffffffffffffffffffffffffffffffffffffffff1663f20fa88787836040518363ffffffff1660e01b8152600401610ac9929190611cf0565b602060405180830381865afa158015610ae6573d6000803e3d6000fd5b505050506040513d601f19601f82011682018060405250810190610b0a9190611b15565b828281518110610b1d57610b1c611b42565b5b602002602001019073ffffffffffffffffffffffffffffffffffffffff16908173ffffffffffffffffffffffffffffffffffffffff16815250508080610b6290611c0b565b915050610a86565b50809350505050919050565b6000603360009054906101000a900473ffffffffffffffffffffffffffffffffffffffff16905090565b60606000606560009054906101000a900473ffffffffffffffffffffffffffffffffffffffff1673ffffffffffffffffffffffffffffffffffffffff166373589db36040518163ffffffff1660e01b8152600401602060405180830381865afa158015610c11573d6000803e3d6000fd5b505050506040513d601f19601f82011682018060405250810190610c359190611b15565b905060008367ffffffffffffffff811115610c5357610c526114c1565b5b604051908082528060200260200182016040528015610c815781602001602082028036833780820191505090505b50905060005b84811015610d48578273ffffffffffffffffffffffffffffffffffffffff1663242b39a0888884610cb89190611c8b565b6040518363ffffffff1660e01b8152600401610cd5929190611cf0565b602060405180830381865afa158015610cf2573d6000803e3d6000fd5b505050506040513d601f19601f82011682018060405250810190610d169190611baf565b828281518110610d2957610d28611b42565b5b6020026020010181815250508080610d4090611c0b565b915050610c87565b5080925050509392505050565b600060019054906101000a900460ff16610d7d5760008054906101000a900460ff1615610d86565b610d8561132f565b5b610dc5576040517f08c379a0000000000000000000000000000000000000000000000000000000008152600401610dbc90611e08565b60405180910390fd5b60008060019054906101000a900460ff161590508015610e15576001600060016101000a81548160ff02191690831515021790555060016000806101000a81548160ff0219169083151502179055505b610e1d611340565b81606560006101000a81548173ffffffffffffffffffffffffffffffffffffffff021916908373ffffffffffffffffffffffffffffffffffffffff1602179055508015610e7f5760008060016101000a81548160ff0219169083151502179055505b5050565b6000606560009054906101000a900473ffffffffffffffffffffffffffffffffffffffff1673ffffffffffffffffffffffffffffffffffffffff166373589db36040518163ffffffff1660e01b8152600401602060405180830381865afa158015610ef2573d6000803e3d6000fd5b505050506040513d601f19601f82011682018060405250810190610f169190611b15565b90506000606560009054906101000a900473ffffffffffffffffffffffffffffffffffffffff1673ffffffffffffffffffffffffffffffffffffffff166374cb38b06040518163ffffffff1660e01b8152600401602060405180830381865afa158015610f87573d6000803e3d6000fd5b505050506040513d601f19601f82011682018060405250810190610fab9190611b15565b905060008173ffffffffffffffffffffffffffffffffffffffff16636f853a5d6040518163ffffffff1660e01b81526004016020604051808303816000875af1158015610ffc573d6000803e3d6000fd5b505050506040513d601f19601f820116820180604052508101906110209190611baf565b905060006110c28560018673ffffffffffffffffffffffffffffffffffffffff166306032d748a6040518263ffffffff1660e01b81526004016110639190611a3a565b606060405180830381865afa158015611080573d6000803e3d6000fd5b505050506040513d601f19601f820116820180604052508101906110a49190611e91565b60200151856110b39190611ebe565b6110bd9190611ebe565b611399565b905060005b81811015611161578473ffffffffffffffffffffffffffffffffffffffff1663d579f9b384896040518363ffffffff1660e01b815260040161110a929190611ef2565b6020604051808303816000875af1158015611129573d6000803e3d6000fd5b505050506040513d601f19601f8201168201806040525081019061114d9190611baf565b50808061115990611c0b565b9150506110c7565b50505050505050565b611172611261565b73ffffffffffffffffffffffffffffffffffffffff16611190610b76565b73ffffffffffffffffffffffffffffffffffffffff16146111e6576040517f08c379a00000000000000000000000000000000000000000000000000000000081526004016111dd90611d76565b60405180910390fd5b600073ffffffffffffffffffffffffffffffffffffffff168173ffffffffffffffffffffffffffffffffffffffff1603611255576040517f08c379a000000000000000000000000000000000000000000000000000000000815260040161124c90611f8d565b60405180910390fd5b61125e81611269565b50565b600033905090565b6000603360009054906101000a900473ffffffffffffffffffffffffffffffffffffffff16905081603360006101000a81548173ffffffffffffffffffffffffffffffffffffffff021916908373ffffffffffffffffffffffffffffffffffffffff1602179055508173ffffffffffffffffffffffffffffffffffffffff168173ffffffffffffffffffffffffffffffffffffffff167f8be0079c531659141344cd1fd0a4f28419497f9722a3daafe3b4186f6b6457e060405160405180910390a35050565b600061133a306113b5565b15905090565b600060019054906101000a900460ff1661138f576040517f08c379a00000000000000000000000000000000000000000000000000000000081526004016113869061201f565b60405180910390fd5b6113976113d8565b565b6000818311156113ab578190506113af565b8290505b92915050565b6000808273ffffffffffffffffffffffffffffffffffffffff163b119050919050565b600060019054906101000a900460ff16611427576040517f08c379a000000000000000000000000000000000000000000000000000000000815260040161141e9061201f565b60405180910390fd5b611437611432611261565b611269565b565b6000604051905090565b600080fd5b600080fd5b600073ffffffffffffffffffffffffffffffffffffffff82169050919050565b60006114788261144d565b9050919050565b6114888161146d565b811461149357600080fd5b50565b6000813590506114a58161147f565b92915050565b600080fd5b6000601f19601f8301169050919050565b7f4e487b7100000000000000000000000000000000000000000000000000000000600052604160045260246000fd5b6114f9826114b0565b810181811067ffffffffffffffff82111715611518576115176114c1565b5b80604052505050565b600061152b611439565b905061153782826114f0565b919050565b600067ffffffffffffffff821115611557576115566114c1565b5b602082029050602081019050919050565b600080fd5b600061158061157b8461153c565b611521565b905080838252602082019050602084028301858111156115a3576115a2611568565b5b835b818110156115cc57806115b88882611496565b8452602084019350506020810190506115a5565b5050509392505050565b600082601f8301126115eb576115ea6114ab565b5b81356115fb84826020860161156d565b91505092915050565b6000806040838503121561161b5761161a611443565b5b600061162985828601611496565b925050602083013567ffffffffffffffff81111561164a57611649611448565b5b611656858286016115d6565b9150509250929050565b600067ffffffffffffffff82111561167b5761167a6114c1565b5b602082029050602081019050919050565b6000819050919050565b61169f8161168c565b81146116aa57600080fd5b50565b6000813590506116bc81611696565b92915050565b60006116d56116d084611660565b611521565b905080838252602082019050602084028301858111156116f8576116f7611568565b5b835b81811015611721578061170d88826116ad565b8452602084019350506020810190506116fa565b5050509392505050565b600082601f8301126117405761173f6114ab565b5b81356117508482602086016116c2565b91505092915050565b600080604083850312156117705761176f611443565b5b600061177e85828601611496565b925050602083013567ffffffffffffffff81111561179f5761179e611448565b5b6117ab8582860161172b565b9150509250929050565b6000819050919050565b6117c8816117b5565b81146117d357600080fd5b50565b6000813590506117e5816117bf565b92915050565b60008060006060848603121561180457611803611443565b5b600061181286828701611496565b9350506020611823868287016117d6565b9250506040611834868287016117d6565b9150509250925092565b600081519050919050565b600082825260208201905092915050565b6000819050602082019050919050565b611873816117b5565b82525050565b6000611885838361186a565b60208301905092915050565b6000602082019050919050565b60006118a98261183e565b6118b38185611849565b93506118be8361185a565b8060005b838110156118ef5781516118d68882611879565b97506118e183611891565b9250506001810190506118c2565b5085935050505092915050565b60006020820190508181036000830152611916818461189e565b905092915050565b60006020828403121561193457611933611443565b5b600061194284828501611496565b91505092915050565b600081519050919050565b600082825260208201905092915050565b6000819050602082019050919050565b6119808161146d565b82525050565b60006119928383611977565b60208301905092915050565b6000602082019050919050565b60006119b68261194b565b6119c08185611956565b93506119cb83611967565b8060005b838110156119fc5781516119e38882611986565b97506119ee8361199e565b9250506001810190506119cf565b5085935050505092915050565b60006020820190508181036000830152611a2381846119ab565b905092915050565b611a348161146d565b82525050565b6000602082019050611a4f6000830184611a2b565b92915050565b6000611a608261146d565b9050919050565b611a7081611a55565b8114611a7b57600080fd5b50565b600081359050611a8d81611a67565b92915050565b600060208284031215611aa957611aa8611443565b5b6000611ab784828501611a7e565b91505092915050565b60008060408385031215611ad757611ad6611443565b5b6000611ae585828601611496565b9250506020611af6858286016117d6565b9150509250929050565b600081519050611b0f8161147f565b92915050565b600060208284031215611b2b57611b2a611443565b5b6000611b3984828501611b00565b91505092915050565b7f4e487b7100000000000000000000000000000000000000000000000000000000600052603260045260246000fd5b6000604082019050611b866000830185611a2b565b611b936020830184611a2b565b9392505050565b600081519050611ba9816117bf565b92915050565b600060208284031215611bc557611bc4611443565b5b6000611bd384828501611b9a565b91505092915050565b7f4e487b7100000000000000000000000000000000000000000000000000000000600052601160045260246000fd5b6000611c16826117b5565b91507fffffffffffffffffffffffffffffffffffffffffffffffffffffffffffffffff8203611c4857611c47611bdc565b5b600182019050919050565b611c5c8161168c565b82525050565b6000604082019050611c776000830185611c53565b611c846020830184611a2b565b9392505050565b6000611c96826117b5565b9150611ca1836117b5565b9250827fffffffffffffffffffffffffffffffffffffffffffffffffffffffffffffffff03821115611cd657611cd5611bdc565b5b828201905092915050565b611cea816117b5565b82525050565b6000604082019050611d056000830185611a2b565b611d126020830184611ce1565b9392505050565b600082825260208201905092915050565b7f4f776e61626c653a2063616c6c6572206973206e6f7420746865206f776e6572600082015250565b6000611d60602083611d19565b9150611d6b82611d2a565b602082019050919050565b60006020820190508181036000830152611d8f81611d53565b9050919050565b7f496e697469616c697a61626c653a20636f6e747261637420697320616c72656160008201527f647920696e697469616c697a6564000000000000000000000000000000000000602082015250565b6000611df2602e83611d19565b9150611dfd82611d96565b604082019050919050565b60006020820190508181036000830152611e2181611de5565b9050919050565b600080fd5b600060608284031215611e4357611e42611e28565b5b611e4d6060611521565b90506000611e5d84828501611b9a565b6000830152506020611e7184828501611b9a565b6020830152506040611e8584828501611b9a565b60408301525092915050565b600060608284031215611ea757611ea6611443565b5b6000611eb584828501611e2d565b91505092915050565b6000611ec9826117b5565b9150611ed4836117b5565b925082821015611ee757611ee6611bdc565b5b828203905092915050565b6000604082019050611f076000830185611ce1565b611f146020830184611a2b565b9392505050565b7f4f776e61626c653a206e6577206f776e657220697320746865207a65726f206160008201527f6464726573730000000000000000000000000000000000000000000000000000602082015250565b6000611f77602683611d19565b9150611f8282611f1b565b604082019050919050565b60006020820190508181036000830152611fa681611f6a565b9050919050565b7f496e697469616c697a61626c653a20636f6e7472616374206973206e6f74206960008201527f6e697469616c697a696e67000000000000000000000000000000000000000000602082015250565b6000612009602b83611d19565b915061201482611fad565b604082019050919050565b6000602082019050818103600083015261203881611ffc565b905091905056fea26469706673582212207a0895ecdcffdcbe0e7414bc506249f8f4801ec4385113a5d4fbdf33c4b69ec864736f6c634300080f0033",
  "linkReferences": {},
  "deployedLinkReferences": {}
}