{
  "_format": "hh-sol-artifact-1",
  "contractName": "VSQToken",
  "sourceName": "contracts/VSQToken.sol",
  "abi": [
    {
      "inputs": [
        {
          "internalType": "address",
          "name": "account",
          "type": "address"
        }
      ],
      "name": "balanceOf",
      "outputs": [
        {
          "internalType": "uint256",
          "name": "",
          "type": "uint256"
        }
      ],
      "stateMutability": "view",
      "type": "function"
    },
    {
      "inputs": [],
      "name": "decimals",
      "outputs": [
        {
          "internalType": "uint8",
          "name": "",
          "type": "uint8"
        }
      ],
      "stateMutability": "pure",
      "type": "function"
    },
    {
      "inputs": [
        {
          "internalType": "contract ISettings",
          "name": "_settings",
          "type": "address"
        }
      ],
      "name": "initialize",
      "outputs": [],
      "stateMutability": "nonpayable",
      "type": "function"
    },
    {
      "inputs": [],
      "name": "name",
      "outputs": [
        {
          "internalType": "string",
          "name": "",
          "type": "string"
        }
      ],
      "stateMutability": "view",
      "type": "function"
    },
    {
      "inputs": [],
      "name": "settings",
      "outputs": [
        {
          "internalType": "contract ISettings",
          "name": "",
          "type": "address"
        }
      ],
      "stateMutability": "view",
      "type": "function"
    },
    {
      "inputs": [],
      "name": "symbol",
      "outputs": [
        {
          "internalType": "string",
          "name": "",
          "type": "string"
        }
      ],
      "stateMutability": "view",
      "type": "function"
    }
  ],
  "bytecode": "0x60806040526040518060400160405280601381526020017f566f74696e675375625175657279546f6b656e00000000000000000000000000815250600190816200004a91906200033c565b506040518060400160405280600481526020017f5653515400000000000000000000000000000000000000000000000000000000815250600290816200009191906200033c565b506012600360006101000a81548160ff021916908360ff160217905550348015620000bb57600080fd5b5062000423565b600081519050919050565b7f4e487b7100000000000000000000000000000000000000000000000000000000600052604160045260246000fd5b7f4e487b7100000000000000000000000000000000000000000000000000000000600052602260045260246000fd5b600060028204905060018216806200014457607f821691505b6020821081036200015a5762000159620000fc565b5b50919050565b60008190508160005260206000209050919050565b60006020601f8301049050919050565b600082821b905092915050565b600060088302620001c47fffffffffffffffffffffffffffffffffffffffffffffffffffffffffffffffff8262000185565b620001d0868362000185565b95508019841693508086168417925050509392505050565b6000819050919050565b6000819050919050565b60006200021d620002176200021184620001e8565b620001f2565b620001e8565b9050919050565b6000819050919050565b6200023983620001fc565b62000251620002488262000224565b84845462000192565b825550505050565b600090565b6200026862000259565b620002758184846200022e565b505050565b5b818110156200029d57620002916000826200025e565b6001810190506200027b565b5050565b601f821115620002ec57620002b68162000160565b620002c18462000175565b81016020851015620002d1578190505b620002e9620002e08562000175565b8301826200027a565b50505b505050565b600082821c905092915050565b60006200031160001984600802620002f1565b1980831691505092915050565b60006200032c8383620002fe565b9150826002028217905092915050565b6200034782620000c2565b67ffffffffffffffff811115620003635762000362620000cd565b5b6200036f82546200012b565b6200037c828285620002a1565b600060209050601f831160018114620003b457600084156200039f578287015190505b620003ab85826200031e565b8655506200041b565b601f198416620003c48662000160565b60005b82811015620003ee57848901518255600182019150602085019450602081019050620003c7565b868310156200040e57848901516200040a601f891682620002fe565b8355505b6001600288020188555050505b505050505050565b610cef80620004336000396000f3fe608060405234801561001057600080fd5b50600436106100625760003560e01c806306fdde0314610067578063313ce5671461008557806370a08231146100a357806395d89b41146100d3578063c4d66de8146100f1578063e06174e41461010d575b600080fd5b61006f61012b565b60405161007c9190610847565b60405180910390f35b61008d6101bd565b60405161009a9190610885565b60405180910390f35b6100bd60048036038101906100b89190610903565b6101c6565b6040516100ca9190610949565b60405180910390f35b6100db61059c565b6040516100e89190610847565b60405180910390f35b61010b600480360381019061010691906109a2565b61062e565b005b610115610754565b6040516101229190610a2e565b60405180910390f35b60606001805461013a90610a78565b80601f016020809104026020016040519081016040528092919081815260200182805461016690610a78565b80156101b35780601f10610188576101008083540402835291602001916101b3565b820191906000526020600020905b81548152906001019060200180831161019657829003601f168201915b5050505050905090565b60006012905090565b600080600360019054906101000a900473ffffffffffffffffffffffffffffffffffffffff1673ffffffffffffffffffffffffffffffffffffffff1663afc1aaca6040518163ffffffff1660e01b8152600401602060405180830381865afa158015610236573d6000803e3d6000fd5b505050506040513d601f19601f8201168201806040525081019061025a9190610abe565b73ffffffffffffffffffffffffffffffffffffffff166370a08231846040518263ffffffff1660e01b81526004016102929190610afa565b602060405180830381865afa1580156102af573d6000803e3d6000fd5b505050506040513d601f19601f820116820180604052508101906102d39190610b41565b90506000600360019054906101000a900473ffffffffffffffffffffffffffffffffffffffff1673ffffffffffffffffffffffffffffffffffffffff16637b1391a66040518163ffffffff1660e01b8152600401602060405180830381865afa158015610344573d6000803e3d6000fd5b505050506040513d601f19601f820116820180604052508101906103689190610abe565b73ffffffffffffffffffffffffffffffffffffffff1663a153e708856040518263ffffffff1660e01b81526004016103a09190610afa565b602060405180830381865afa1580156103bd573d6000803e3d6000fd5b505050506040513d601f19601f820116820180604052508101906103e19190610b41565b90506000600360019054906101000a900473ffffffffffffffffffffffffffffffffffffffff1673ffffffffffffffffffffffffffffffffffffffff1663bcc4e4ab6040518163ffffffff1660e01b8152600401602060405180830381865afa158015610452573d6000803e3d6000fd5b505050506040513d601f19601f820116820180604052508101906104769190610abe565b905060008173ffffffffffffffffffffffffffffffffffffffff1663c884ef83876040518263ffffffff1660e01b81526004016104b39190610afa565b602060405180830381865afa1580156104d0573d6000803e3d6000fd5b505050506040513d601f19601f820116820180604052508101906104f49190610b41565b8273ffffffffffffffffffffffffffffffffffffffff166352a9039c886040518263ffffffff1660e01b815260040161052d9190610afa565b602060405180830381865afa15801561054a573d6000803e3d6000fd5b505050506040513d601f19601f8201168201806040525081019061056e9190610b41565b6105789190610b9d565b90508083856105879190610bd1565b6105919190610bd1565b945050505050919050565b6060600280546105ab90610a78565b80601f01602080910402602001604051908101604052809291908181526020018280546105d790610a78565b80156106245780601f106105f957610100808354040283529160200191610624565b820191906000526020600020905b81548152906001019060200180831161060757829003601f168201915b5050505050905090565b600060019054906101000a900460ff166106565760008054906101000a900460ff161561065f565b61065e61077a565b5b61069e576040517f08c379a000000000000000000000000000000000000000000000000000000000815260040161069590610c99565b60405180910390fd5b60008060019054906101000a900460ff1615905080156106ee576001600060016101000a81548160ff02191690831515021790555060016000806101000a81548160ff0219169083151502179055505b81600360016101000a81548173ffffffffffffffffffffffffffffffffffffffff021916908373ffffffffffffffffffffffffffffffffffffffff16021790555080156107505760008060016101000a81548160ff0219169083151502179055505b5050565b600360019054906101000a900473ffffffffffffffffffffffffffffffffffffffff1681565b60006107853061078b565b15905090565b6000808273ffffffffffffffffffffffffffffffffffffffff163b119050919050565b600081519050919050565b600082825260208201905092915050565b60005b838110156107e85780820151818401526020810190506107cd565b838111156107f7576000848401525b50505050565b6000601f19601f8301169050919050565b6000610819826107ae565b61082381856107b9565b93506108338185602086016107ca565b61083c816107fd565b840191505092915050565b60006020820190508181036000830152610861818461080e565b905092915050565b600060ff82169050919050565b61087f81610869565b82525050565b600060208201905061089a6000830184610876565b92915050565b600080fd5b600073ffffffffffffffffffffffffffffffffffffffff82169050919050565b60006108d0826108a5565b9050919050565b6108e0816108c5565b81146108eb57600080fd5b50565b6000813590506108fd816108d7565b92915050565b600060208284031215610919576109186108a0565b5b6000610927848285016108ee565b91505092915050565b6000819050919050565b61094381610930565b82525050565b600060208201905061095e600083018461093a565b92915050565b600061096f826108c5565b9050919050565b61097f81610964565b811461098a57600080fd5b50565b60008135905061099c81610976565b92915050565b6000602082840312156109b8576109b76108a0565b5b60006109c68482850161098d565b91505092915050565b6000819050919050565b60006109f46109ef6109ea846108a5565b6109cf565b6108a5565b9050919050565b6000610a06826109d9565b9050919050565b6000610a18826109fb565b9050919050565b610a2881610a0d565b82525050565b6000602082019050610a436000830184610a1f565b92915050565b7f4e487b7100000000000000000000000000000000000000000000000000000000600052602260045260246000fd5b60006002820490506001821680610a9057607f821691505b602082108103610aa357610aa2610a49565b5b50919050565b600081519050610ab8816108d7565b92915050565b600060208284031215610ad457610ad36108a0565b5b6000610ae284828501610aa9565b91505092915050565b610af4816108c5565b82525050565b6000602082019050610b0f6000830184610aeb565b92915050565b610b1e81610930565b8114610b2957600080fd5b50565b600081519050610b3b81610b15565b92915050565b600060208284031215610b5757610b566108a0565b5b6000610b6584828501610b2c565b91505092915050565b7f4e487b7100000000000000000000000000000000000000000000000000000000600052601160045260246000fd5b6000610ba882610930565b9150610bb383610930565b925082821015610bc657610bc5610b6e565b5b828203905092915050565b6000610bdc82610930565b9150610be783610930565b9250827fffffffffffffffffffffffffffffffffffffffffffffffffffffffffffffffff03821115610c1c57610c1b610b6e565b5b828201905092915050565b7f496e697469616c697a61626c653a20636f6e747261637420697320616c72656160008201527f647920696e697469616c697a6564000000000000000000000000000000000000602082015250565b6000610c83602e836107b9565b9150610c8e82610c27565b604082019050919050565b60006020820190508181036000830152610cb281610c76565b905091905056fea26469706673582212203d8ddcd1dcd4d4128daedd25016faaba7505c4bd235af16bdba3c19edc262eaf64736f6c634300080f0033",
  "linkReferences": {},
  "deployedLinkReferences": {}
}