{
  "_format": "hh-sol-artifact-1",
  "contractName": "Settings",
  "sourceName": "contracts/Settings.sol",
  "abi": [
    {
      "inputs": [],
      "stateMutability": "nonpayable",
      "type": "constructor"
    },
    {
      "anonymous": false,
      "inputs": [
        {
          "indexed": true,
          "internalType": "address",
          "name": "previousOwner",
          "type": "address"
        },
        {
          "indexed": true,
          "internalType": "address",
          "name": "newOwner",
          "type": "address"
        }
      ],
      "name": "OwnershipTransferred",
      "type": "event"
    },
    {
      "inputs": [],
      "name": "PER_BILL",
      "outputs": [
        {
          "internalType": "uint256",
          "name": "",
          "type": "uint256"
        }
      ],
      "stateMutability": "view",
      "type": "function"
    },
    {
      "inputs": [],
      "name": "PER_MILL",
      "outputs": [
        {
          "internalType": "uint256",
          "name": "",
          "type": "uint256"
        }
      ],
      "stateMutability": "view",
      "type": "function"
    },
    {
      "inputs": [],
      "name": "PER_TRILL",
      "outputs": [
        {
          "internalType": "uint256",
          "name": "",
          "type": "uint256"
        }
      ],
      "stateMutability": "view",
      "type": "function"
    },
    {
      "inputs": [],
      "name": "ZERO_ADDRESS",
      "outputs": [
        {
          "internalType": "address",
          "name": "",
          "type": "address"
        }
      ],
      "stateMutability": "view",
      "type": "function"
    },
    {
      "inputs": [],
      "name": "eraManager",
      "outputs": [
        {
          "internalType": "address",
          "name": "",
          "type": "address"
        }
      ],
      "stateMutability": "view",
      "type": "function"
    },
    {
      "inputs": [],
      "name": "getEraManager",
      "outputs": [
        {
          "internalType": "address",
          "name": "",
          "type": "address"
        }
      ],
      "stateMutability": "view",
      "type": "function"
    },
    {
      "inputs": [],
      "name": "getIndexerRegistry",
      "outputs": [
        {
          "internalType": "address",
          "name": "",
          "type": "address"
        }
      ],
      "stateMutability": "view",
      "type": "function"
    },
    {
      "inputs": [],
      "name": "getInflationController",
      "outputs": [
        {
          "internalType": "address",
          "name": "",
          "type": "address"
        }
      ],
      "stateMutability": "view",
      "type": "function"
    },
    {
      "inputs": [],
      "name": "getPermissionedExchange",
      "outputs": [
        {
          "internalType": "address",
          "name": "",
          "type": "address"
        }
      ],
      "stateMutability": "view",
      "type": "function"
    },
    {
      "inputs": [],
      "name": "getPlanManager",
      "outputs": [
        {
          "internalType": "address",
          "name": "",
          "type": "address"
        }
      ],
      "stateMutability": "view",
      "type": "function"
    },
    {
      "inputs": [],
      "name": "getQueryRegistry",
      "outputs": [
        {
          "internalType": "address",
          "name": "",
          "type": "address"
        }
      ],
      "stateMutability": "view",
      "type": "function"
    },
    {
      "inputs": [],
      "name": "getRewardsDistributer",
      "outputs": [
        {
          "internalType": "address",
          "name": "",
          "type": "address"
        }
      ],
      "stateMutability": "view",
      "type": "function"
    },
    {
      "inputs": [],
      "name": "getRewardsHelper",
      "outputs": [
        {
          "internalType": "address",
          "name": "",
          "type": "address"
        }
      ],
      "stateMutability": "view",
      "type": "function"
    },
    {
      "inputs": [],
      "name": "getRewardsPool",
      "outputs": [
        {
          "internalType": "address",
          "name": "",
          "type": "address"
        }
      ],
      "stateMutability": "view",
      "type": "function"
    },
    {
      "inputs": [],
      "name": "getSQToken",
      "outputs": [
        {
          "internalType": "address",
          "name": "",
          "type": "address"
        }
      ],
      "stateMutability": "view",
      "type": "function"
    },
    {
      "inputs": [],
      "name": "getServiceAgreementRegistry",
      "outputs": [
        {
          "internalType": "address",
          "name": "",
          "type": "address"
        }
      ],
      "stateMutability": "view",
      "type": "function"
    },
    {
      "inputs": [],
      "name": "getStaking",
      "outputs": [
        {
          "internalType": "address",
          "name": "",
          "type": "address"
        }
      ],
      "stateMutability": "view",
      "type": "function"
    },
    {
      "inputs": [],
      "name": "getVesting",
      "outputs": [
        {
          "internalType": "address",
          "name": "",
          "type": "address"
        }
      ],
      "stateMutability": "view",
      "type": "function"
    },
    {
      "inputs": [],
      "name": "indexerRegistry",
      "outputs": [
        {
          "internalType": "address",
          "name": "",
          "type": "address"
        }
      ],
      "stateMutability": "view",
      "type": "function"
    },
    {
      "inputs": [],
      "name": "inflationController",
      "outputs": [
        {
          "internalType": "address",
          "name": "",
          "type": "address"
        }
      ],
      "stateMutability": "view",
      "type": "function"
    },
    {
      "inputs": [],
      "name": "owner",
      "outputs": [
        {
          "internalType": "address",
          "name": "",
          "type": "address"
        }
      ],
      "stateMutability": "view",
      "type": "function"
    },
    {
      "inputs": [],
      "name": "permissionedExchange",
      "outputs": [
        {
          "internalType": "address",
          "name": "",
          "type": "address"
        }
      ],
      "stateMutability": "view",
      "type": "function"
    },
    {
      "inputs": [],
      "name": "planManager",
      "outputs": [
        {
          "internalType": "address",
          "name": "",
          "type": "address"
        }
      ],
      "stateMutability": "view",
      "type": "function"
    },
    {
      "inputs": [],
      "name": "queryRegistry",
      "outputs": [
        {
          "internalType": "address",
          "name": "",
          "type": "address"
        }
      ],
      "stateMutability": "view",
      "type": "function"
    },
    {
      "inputs": [],
      "name": "renounceOwnership",
      "outputs": [],
      "stateMutability": "nonpayable",
      "type": "function"
    },
    {
      "inputs": [],
      "name": "rewardsDistributer",
      "outputs": [
        {
          "internalType": "address",
          "name": "",
          "type": "address"
        }
      ],
      "stateMutability": "view",
      "type": "function"
    },
    {
      "inputs": [],
      "name": "rewardsHelper",
      "outputs": [
        {
          "internalType": "address",
          "name": "",
          "type": "address"
        }
      ],
      "stateMutability": "view",
      "type": "function"
    },
    {
      "inputs": [],
      "name": "rewardsPool",
      "outputs": [
        {
          "internalType": "address",
          "name": "",
          "type": "address"
        }
      ],
      "stateMutability": "view",
      "type": "function"
    },
    {
      "inputs": [],
      "name": "serviceAgreementRegistry",
      "outputs": [
        {
          "internalType": "address",
          "name": "",
          "type": "address"
        }
      ],
      "stateMutability": "view",
      "type": "function"
    },
    {
      "inputs": [
        {
          "internalType": "address",
          "name": "_eraManager",
          "type": "address"
        }
      ],
      "name": "setEraManager",
      "outputs": [],
      "stateMutability": "nonpayable",
      "type": "function"
    },
    {
      "inputs": [
        {
          "internalType": "address",
          "name": "_indexerRegistry",
          "type": "address"
        }
      ],
      "name": "setIndexerRegistry",
      "outputs": [],
      "stateMutability": "nonpayable",
      "type": "function"
    },
    {
      "inputs": [
        {
          "internalType": "address",
          "name": "_inflationController",
          "type": "address"
        }
      ],
      "name": "setInflationController",
      "outputs": [],
      "stateMutability": "nonpayable",
      "type": "function"
    },
    {
      "inputs": [
        {
          "internalType": "address",
          "name": "_permissionedExchange",
          "type": "address"
        }
      ],
      "name": "setPermissionedExchange",
      "outputs": [],
      "stateMutability": "nonpayable",
      "type": "function"
    },
    {
      "inputs": [
        {
          "internalType": "address",
          "name": "_planManager",
          "type": "address"
        }
      ],
      "name": "setPlanManager",
      "outputs": [],
      "stateMutability": "nonpayable",
      "type": "function"
    },
    {
      "inputs": [
        {
          "internalType": "address",
          "name": "_indexerRegistry",
          "type": "address"
        },
        {
          "internalType": "address",
          "name": "_queryRegistry",
          "type": "address"
        },
        {
          "internalType": "address",
          "name": "_eraManager",
          "type": "address"
        },
        {
          "internalType": "address",
          "name": "_planManager",
          "type": "address"
        },
        {
          "internalType": "address",
          "name": "_serviceAgreementRegistry",
          "type": "address"
        }
      ],
      "name": "setProjectAddresses",
      "outputs": [],
      "stateMutability": "nonpayable",
      "type": "function"
    },
    {
      "inputs": [
        {
          "internalType": "address",
          "name": "_queryRegistry",
          "type": "address"
        }
      ],
      "name": "setQueryRegistry",
      "outputs": [],
      "stateMutability": "nonpayable",
      "type": "function"
    },
    {
      "inputs": [
        {
          "internalType": "address",
          "name": "_rewardsDistributer",
          "type": "address"
        }
      ],
      "name": "setRewardsDistributer",
      "outputs": [],
      "stateMutability": "nonpayable",
      "type": "function"
    },
    {
      "inputs": [
        {
          "internalType": "address",
          "name": "_rewardsHelper",
          "type": "address"
        }
      ],
      "name": "setRewardsHelper",
      "outputs": [],
      "stateMutability": "nonpayable",
      "type": "function"
    },
    {
      "inputs": [
        {
          "internalType": "address",
          "name": "_rewardsPool",
          "type": "address"
        }
      ],
      "name": "setRewardsPool",
      "outputs": [],
      "stateMutability": "nonpayable",
      "type": "function"
    },
    {
      "inputs": [
        {
          "internalType": "address",
          "name": "_sqToken",
          "type": "address"
        }
      ],
      "name": "setSQToken",
      "outputs": [],
      "stateMutability": "nonpayable",
      "type": "function"
    },
    {
      "inputs": [
        {
          "internalType": "address",
          "name": "_serviceAgreementRegistry",
          "type": "address"
        }
      ],
      "name": "setServiceAgreementRegistry",
      "outputs": [],
      "stateMutability": "nonpayable",
      "type": "function"
    },
    {
      "inputs": [
        {
          "internalType": "address",
          "name": "_staking",
          "type": "address"
        }
      ],
      "name": "setStaking",
      "outputs": [],
      "stateMutability": "nonpayable",
      "type": "function"
    },
    {
      "inputs": [
        {
          "internalType": "address",
          "name": "_sqToken",
          "type": "address"
        },
        {
          "internalType": "address",
          "name": "_staking",
          "type": "address"
        },
        {
          "internalType": "address",
          "name": "_rewardsDistributer",
          "type": "address"
        },
        {
          "internalType": "address",
          "name": "_rewardsPool",
          "type": "address"
        },
        {
          "internalType": "address",
          "name": "_rewardsHelper",
          "type": "address"
        },
        {
          "internalType": "address",
          "name": "_inflationController",
          "type": "address"
        },
        {
          "internalType": "address",
          "name": "_vesting",
          "type": "address"
        },
        {
          "internalType": "address",
          "name": "_permissionedExchange",
          "type": "address"
        }
      ],
      "name": "setTokenAddresses",
      "outputs": [],
      "stateMutability": "nonpayable",
      "type": "function"
    },
    {
      "inputs": [
        {
          "internalType": "address",
          "name": "_vesting",
          "type": "address"
        }
      ],
      "name": "setVesting",
      "outputs": [],
      "stateMutability": "nonpayable",
      "type": "function"
    },
    {
      "inputs": [],
      "name": "sqToken",
      "outputs": [
        {
          "internalType": "address",
          "name": "",
          "type": "address"
        }
      ],
      "stateMutability": "view",
      "type": "function"
    },
    {
      "inputs": [],
      "name": "staking",
      "outputs": [
        {
          "internalType": "address",
          "name": "",
          "type": "address"
        }
      ],
      "stateMutability": "view",
      "type": "function"
    },
    {
      "inputs": [
        {
          "internalType": "address",
          "name": "newOwner",
          "type": "address"
        }
      ],
      "name": "transferOwnership",
      "outputs": [],
      "stateMutability": "nonpayable",
      "type": "function"
    },
    {
      "inputs": [],
      "name": "vesting",
      "outputs": [
        {
          "internalType": "address",
          "name": "",
          "type": "address"
        }
      ],
      "stateMutability": "view",
      "type": "function"
    }
  ],
  "bytecode": "0x60806040523480156200001157600080fd5b5062000032620000266200003860201b60201c565b6200004060201b60201c565b62000104565b600033905090565b60008060009054906101000a900473ffffffffffffffffffffffffffffffffffffffff169050816000806101000a81548173ffffffffffffffffffffffffffffffffffffffff021916908373ffffffffffffffffffffffffffffffffffffffff1602179055508173ffffffffffffffffffffffffffffffffffffffff168173ffffffffffffffffffffffffffffffffffffffff167f8be0079c531659141344cd1fd0a4f28419497f9722a3daafe3b4186f6b6457e060405160405180910390a35050565b61251280620001146000396000f3fe608060405234801561001057600080fd5b50600436106102a05760003560e01c80637c00029311610167578063bcc4e4ab116100ce578063dc303a1211610087578063dc303a1214610765578063dffc91d114610781578063eb50aa1d1461079d578063ebb83c07146107bb578063f2fde38b146107d7578063f80fcb33146107f3576102a0565b8063bcc4e4ab146106b5578063bd7b8bce146106d3578063c60b8146146106ef578063c8bb198f1461070d578063d2a706c414610729578063d62ae57f14610747576102a0565b806395e1bc081161012057806395e1bc08146106055780639bd1761a14610623578063aef7d8261461063f578063afc1aaca1461065d578063b78394951461067b578063b989ab1d14610697576102a0565b80637c00029314610555578063891288f3146105715780638da5cb5b1461058f5780638e5a4ab6146105ad5780638e7e9cf1146105cb5780638ff39099146105e9576102a0565b80634cf088d91161020b5780636f6ff3bc116101c45780636f6ff3bc146104b7578063715018a6146104d357806373589db3146104dd57806374cb38b0146104fb57806376dcf98e146105195780637b1391a614610537576102a0565b80634cf088d9146104055780634d6792ea14610423578063526d863e14610441578063538ba4f91461045f5780635c9192c61461047d5780635dfdb6e914610499576102a0565b806329c694d91161025d57806329c694d91461035557806341a32e261461037157806342bcfef71461038d57806344c63eec146103ab57806347475083146103c95780634aa83d0e146103e7576102a0565b80630359fea9146102a557806304460903146102c357806308def162146102e15780630d3b66dc146102ff5780631e1ea0eb1461031b578063217f7cd614610339575b600080fd5b6102ad610811565b6040516102ba91906121ef565b60405180910390f35b6102cb610837565b6040516102d89190612223565b60405180910390f35b6102e961083e565b6040516102f69190612223565b60405180910390f35b6103196004803603810190610314919061226f565b610847565b005b610323610940565b60405161033091906121ef565b60405180910390f35b610353600480360381019061034e919061229c565b61096a565b005b61036f600480360381019061036a919061226f565b610c4f565b005b61038b6004803603810190610386919061226f565b610d48565b005b610395610e41565b6040516103a291906121ef565b60405180910390f35b6103b3610e67565b6040516103c091906121ef565b60405180910390f35b6103d1610e8d565b6040516103de91906121ef565b60405180910390f35b6103ef610eb3565b6040516103fc9190612223565b60405180910390f35b61040d610ebb565b60405161041a91906121ef565b60405180910390f35b61042b610ee1565b60405161043891906121ef565b60405180910390f35b610449610f07565b60405161045691906121ef565b60405180910390f35b610467610f2d565b60405161047491906121ef565b60405180910390f35b6104976004803603810190610492919061226f565b610f32565b005b6104a161102b565b6040516104ae91906121ef565b60405180910390f35b6104d160048036038101906104cc919061226f565b611055565b005b6104db611115565b005b6104e561119d565b6040516104f291906121ef565b60405180910390f35b6105036111c7565b60405161051091906121ef565b60405180910390f35b6105216111f1565b60405161052e91906121ef565b60405180910390f35b61053f61121b565b60405161054c91906121ef565b60405180910390f35b61056f600480360381019061056a919061226f565b611245565b005b610579611305565b60405161058691906121ef565b60405180910390f35b61059761132f565b6040516105a491906121ef565b60405180910390f35b6105b5611358565b6040516105c291906121ef565b60405180910390f35b6105d3611382565b6040516105e091906121ef565b60405180910390f35b61060360048036038101906105fe919061226f565b6113ac565b005b61060d6114a5565b60405161061a91906121ef565b60405180910390f35b61063d6004803603810190610638919061226f565b6114cb565b005b6106476115c4565b60405161065491906121ef565b60405180910390f35b6106656115ee565b60405161067291906121ef565b60405180910390f35b6106956004803603810190610690919061226f565b611618565b005b61069f611711565b6040516106ac91906121ef565b60405180910390f35b6106bd61173b565b6040516106ca91906121ef565b60405180910390f35b6106ed60048036038101906106e8919061226f565b611765565b005b6106f7611825565b60405161070491906121ef565b60405180910390f35b6107276004803603810190610722919061226f565b61184b565b005b610731611944565b60405161073e91906121ef565b60405180910390f35b61074f61196a565b60405161075c91906121ef565b60405180910390f35b61077f600480360381019061077a9190612317565b611990565b005b61079b6004803603810190610796919061226f565b611de6565b005b6107a5611edf565b6040516107b291906121ef565b60405180910390f35b6107d560048036038101906107d0919061226f565b611f05565b005b6107f160048036038101906107ec919061226f565b611fc5565b005b6107fb6120bc565b60405161080891906121ef565b60405180910390f35b600960009054906101000a900473ffffffffffffffffffffffffffffffffffffffff1681565b620f424081565b64e8d4a5100081565b61084f6120e2565b73ffffffffffffffffffffffffffffffffffffffff1661086d61132f565b73ffffffffffffffffffffffffffffffffffffffff16146108c3576040517f08c379a00000000000000000000000000000000000000000000000000000000081526004016108ba9061242a565b60405180910390fd5b600073ffffffffffffffffffffffffffffffffffffffff168173ffffffffffffffffffffffffffffffffffffffff16036108fc57600080fd5b80600860006101000a81548173ffffffffffffffffffffffffffffffffffffffff021916908373ffffffffffffffffffffffffffffffffffffffff16021790555050565b6000600460009054906101000a900473ffffffffffffffffffffffffffffffffffffffff16905090565b6109726120e2565b73ffffffffffffffffffffffffffffffffffffffff1661099061132f565b73ffffffffffffffffffffffffffffffffffffffff16146109e6576040517f08c379a00000000000000000000000000000000000000000000000000000000081526004016109dd9061242a565b60405180910390fd5b600073ffffffffffffffffffffffffffffffffffffffff168573ffffffffffffffffffffffffffffffffffffffff1603610a1f57600080fd5b600073ffffffffffffffffffffffffffffffffffffffff168473ffffffffffffffffffffffffffffffffffffffff1603610a5857600080fd5b600073ffffffffffffffffffffffffffffffffffffffff168373ffffffffffffffffffffffffffffffffffffffff1603610a9157600080fd5b600073ffffffffffffffffffffffffffffffffffffffff168273ffffffffffffffffffffffffffffffffffffffff1603610aca57600080fd5b600073ffffffffffffffffffffffffffffffffffffffff168173ffffffffffffffffffffffffffffffffffffffff1603610b0357600080fd5b84600360006101000a81548173ffffffffffffffffffffffffffffffffffffffff021916908373ffffffffffffffffffffffffffffffffffffffff16021790555083600460006101000a81548173ffffffffffffffffffffffffffffffffffffffff021916908373ffffffffffffffffffffffffffffffffffffffff16021790555082600560006101000a81548173ffffffffffffffffffffffffffffffffffffffff021916908373ffffffffffffffffffffffffffffffffffffffff16021790555081600660006101000a81548173ffffffffffffffffffffffffffffffffffffffff021916908373ffffffffffffffffffffffffffffffffffffffff16021790555080600760006101000a81548173ffffffffffffffffffffffffffffffffffffffff021916908373ffffffffffffffffffffffffffffffffffffffff1602179055505050505050565b610c576120e2565b73ffffffffffffffffffffffffffffffffffffffff16610c7561132f565b73ffffffffffffffffffffffffffffffffffffffff1614610ccb576040517f08c379a0000000000000000000000000000000000000000000000000000000008152600401610cc29061242a565b60405180910390fd5b600073ffffffffffffffffffffffffffffffffffffffff168173ffffffffffffffffffffffffffffffffffffffff1603610d0457600080fd5b80600660006101000a81548173ffffffffffffffffffffffffffffffffffffffff021916908373ffffffffffffffffffffffffffffffffffffffff16021790555050565b610d506120e2565b73ffffffffffffffffffffffffffffffffffffffff16610d6e61132f565b73ffffffffffffffffffffffffffffffffffffffff1614610dc4576040517f08c379a0000000000000000000000000000000000000000000000000000000008152600401610dbb9061242a565b60405180910390fd5b600073ffffffffffffffffffffffffffffffffffffffff168173ffffffffffffffffffffffffffffffffffffffff1603610dfd57600080fd5b80600360006101000a81548173ffffffffffffffffffffffffffffffffffffffff021916908373ffffffffffffffffffffffffffffffffffffffff16021790555050565b600360009054906101000a900473ffffffffffffffffffffffffffffffffffffffff1681565b600c60009054906101000a900473ffffffffffffffffffffffffffffffffffffffff1681565b600160009054906101000a900473ffffffffffffffffffffffffffffffffffffffff1681565b633b9aca0081565b600260009054906101000a900473ffffffffffffffffffffffffffffffffffffffff1681565b600b60009054906101000a900473ffffffffffffffffffffffffffffffffffffffff1681565b600660009054906101000a900473ffffffffffffffffffffffffffffffffffffffff1681565b600081565b610f3a6120e2565b73ffffffffffffffffffffffffffffffffffffffff16610f5861132f565b73ffffffffffffffffffffffffffffffffffffffff1614610fae576040517f08c379a0000000000000000000000000000000000000000000000000000000008152600401610fa59061242a565b60405180910390fd5b600073ffffffffffffffffffffffffffffffffffffffff168173ffffffffffffffffffffffffffffffffffffffff1603610fe757600080fd5b80600b60006101000a81548173ffffffffffffffffffffffffffffffffffffffff021916908373ffffffffffffffffffffffffffffffffffffffff16021790555050565b6000600760009054906101000a900473ffffffffffffffffffffffffffffffffffffffff16905090565b61105d6120e2565b73ffffffffffffffffffffffffffffffffffffffff1661107b61132f565b73ffffffffffffffffffffffffffffffffffffffff16146110d1576040517f08c379a00000000000000000000000000000000000000000000000000000000081526004016110c89061242a565b60405180910390fd5b80600c60006101000a81548173ffffffffffffffffffffffffffffffffffffffff021916908373ffffffffffffffffffffffffffffffffffffffff16021790555050565b61111d6120e2565b73ffffffffffffffffffffffffffffffffffffffff1661113b61132f565b73ffffffffffffffffffffffffffffffffffffffff1614611191576040517f08c379a00000000000000000000000000000000000000000000000000000000081526004016111889061242a565b60405180910390fd5b61119b60006120ea565b565b6000600860009054906101000a900473ffffffffffffffffffffffffffffffffffffffff16905090565b6000600560009054906101000a900473ffffffffffffffffffffffffffffffffffffffff16905090565b6000600b60009054906101000a900473ffffffffffffffffffffffffffffffffffffffff16905090565b6000600260009054906101000a900473ffffffffffffffffffffffffffffffffffffffff16905090565b61124d6120e2565b73ffffffffffffffffffffffffffffffffffffffff1661126b61132f565b73ffffffffffffffffffffffffffffffffffffffff16146112c1576040517f08c379a00000000000000000000000000000000000000000000000000000000081526004016112b89061242a565b60405180910390fd5b80600960006101000a81548173ffffffffffffffffffffffffffffffffffffffff021916908373ffffffffffffffffffffffffffffffffffffffff16021790555050565b6000600660009054906101000a900473ffffffffffffffffffffffffffffffffffffffff16905090565b60008060009054906101000a900473ffffffffffffffffffffffffffffffffffffffff16905090565b6000600960009054906101000a900473ffffffffffffffffffffffffffffffffffffffff16905090565b6000600a60009054906101000a900473ffffffffffffffffffffffffffffffffffffffff16905090565b6113b46120e2565b73ffffffffffffffffffffffffffffffffffffffff166113d261132f565b73ffffffffffffffffffffffffffffffffffffffff1614611428576040517f08c379a000000000000000000000000000000000000000000000000000000000815260040161141f9061242a565b60405180910390fd5b600073ffffffffffffffffffffffffffffffffffffffff168173ffffffffffffffffffffffffffffffffffffffff160361146157600080fd5b80600260006101000a81548173ffffffffffffffffffffffffffffffffffffffff021916908373ffffffffffffffffffffffffffffffffffffffff16021790555050565b600a60009054906101000a900473ffffffffffffffffffffffffffffffffffffffff1681565b6114d36120e2565b73ffffffffffffffffffffffffffffffffffffffff166114f161132f565b73ffffffffffffffffffffffffffffffffffffffff1614611547576040517f08c379a000000000000000000000000000000000000000000000000000000000815260040161153e9061242a565b60405180910390fd5b600073ffffffffffffffffffffffffffffffffffffffff168173ffffffffffffffffffffffffffffffffffffffff160361158057600080fd5b80600160006101000a81548173ffffffffffffffffffffffffffffffffffffffff021916908373ffffffffffffffffffffffffffffffffffffffff16021790555050565b6000600360009054906101000a900473ffffffffffffffffffffffffffffffffffffffff16905090565b6000600160009054906101000a900473ffffffffffffffffffffffffffffffffffffffff16905090565b6116206120e2565b73ffffffffffffffffffffffffffffffffffffffff1661163e61132f565b73ffffffffffffffffffffffffffffffffffffffff1614611694576040517f08c379a000000000000000000000000000000000000000000000000000000000815260040161168b9061242a565b60405180910390fd5b600073ffffffffffffffffffffffffffffffffffffffff168173ffffffffffffffffffffffffffffffffffffffff16036116cd57600080fd5b80600460006101000a81548173ffffffffffffffffffffffffffffffffffffffff021916908373ffffffffffffffffffffffffffffffffffffffff16021790555050565b6000600d60009054906101000a900473ffffffffffffffffffffffffffffffffffffffff16905090565b6000600c60009054906101000a900473ffffffffffffffffffffffffffffffffffffffff16905090565b61176d6120e2565b73ffffffffffffffffffffffffffffffffffffffff1661178b61132f565b73ffffffffffffffffffffffffffffffffffffffff16146117e1576040517f08c379a00000000000000000000000000000000000000000000000000000000081526004016117d89061242a565b60405180910390fd5b80600a60006101000a81548173ffffffffffffffffffffffffffffffffffffffff021916908373ffffffffffffffffffffffffffffffffffffffff16021790555050565b600d60009054906101000a900473ffffffffffffffffffffffffffffffffffffffff1681565b6118536120e2565b73ffffffffffffffffffffffffffffffffffffffff1661187161132f565b73ffffffffffffffffffffffffffffffffffffffff16146118c7576040517f08c379a00000000000000000000000000000000000000000000000000000000081526004016118be9061242a565b60405180910390fd5b600073ffffffffffffffffffffffffffffffffffffffff168173ffffffffffffffffffffffffffffffffffffffff160361190057600080fd5b80600560006101000a81548173ffffffffffffffffffffffffffffffffffffffff021916908373ffffffffffffffffffffffffffffffffffffffff16021790555050565b600560009054906101000a900473ffffffffffffffffffffffffffffffffffffffff1681565b600760009054906101000a900473ffffffffffffffffffffffffffffffffffffffff1681565b6119986120e2565b73ffffffffffffffffffffffffffffffffffffffff166119b661132f565b73ffffffffffffffffffffffffffffffffffffffff1614611a0c576040517f08c379a0000000000000000000000000000000000000000000000000000000008152600401611a039061242a565b60405180910390fd5b600073ffffffffffffffffffffffffffffffffffffffff168873ffffffffffffffffffffffffffffffffffffffff1603611a4557600080fd5b600073ffffffffffffffffffffffffffffffffffffffff168773ffffffffffffffffffffffffffffffffffffffff1603611a7e57600080fd5b600073ffffffffffffffffffffffffffffffffffffffff168673ffffffffffffffffffffffffffffffffffffffff1603611ab757600080fd5b600073ffffffffffffffffffffffffffffffffffffffff168373ffffffffffffffffffffffffffffffffffffffff1603611af057600080fd5b600073ffffffffffffffffffffffffffffffffffffffff168273ffffffffffffffffffffffffffffffffffffffff1603611b2957600080fd5b600073ffffffffffffffffffffffffffffffffffffffff168473ffffffffffffffffffffffffffffffffffffffff1603611b6257600080fd5b600073ffffffffffffffffffffffffffffffffffffffff168573ffffffffffffffffffffffffffffffffffffffff1603611b9b57600080fd5b600073ffffffffffffffffffffffffffffffffffffffff168173ffffffffffffffffffffffffffffffffffffffff1603611bd457600080fd5b87600160006101000a81548173ffffffffffffffffffffffffffffffffffffffff021916908373ffffffffffffffffffffffffffffffffffffffff16021790555086600260006101000a81548173ffffffffffffffffffffffffffffffffffffffff021916908373ffffffffffffffffffffffffffffffffffffffff16021790555085600860006101000a81548173ffffffffffffffffffffffffffffffffffffffff021916908373ffffffffffffffffffffffffffffffffffffffff16021790555084600960006101000a81548173ffffffffffffffffffffffffffffffffffffffff021916908373ffffffffffffffffffffffffffffffffffffffff16021790555083600a60006101000a81548173ffffffffffffffffffffffffffffffffffffffff021916908373ffffffffffffffffffffffffffffffffffffffff16021790555082600b60006101000a81548173ffffffffffffffffffffffffffffffffffffffff021916908373ffffffffffffffffffffffffffffffffffffffff16021790555081600c60006101000a81548173ffffffffffffffffffffffffffffffffffffffff021916908373ffffffffffffffffffffffffffffffffffffffff16021790555080600d60006101000a81548173ffffffffffffffffffffffffffffffffffffffff021916908373ffffffffffffffffffffffffffffffffffffffff1602179055505050505050505050565b611dee6120e2565b73ffffffffffffffffffffffffffffffffffffffff16611e0c61132f565b73ffffffffffffffffffffffffffffffffffffffff1614611e62576040517f08c379a0000000000000000000000000000000000000000000000000000000008152600401611e599061242a565b60405180910390fd5b600073ffffffffffffffffffffffffffffffffffffffff168173ffffffffffffffffffffffffffffffffffffffff1603611e9b57600080fd5b80600760006101000a81548173ffffffffffffffffffffffffffffffffffffffff021916908373ffffffffffffffffffffffffffffffffffffffff16021790555050565b600460009054906101000a900473ffffffffffffffffffffffffffffffffffffffff1681565b611f0d6120e2565b73ffffffffffffffffffffffffffffffffffffffff16611f2b61132f565b73ffffffffffffffffffffffffffffffffffffffff1614611f81576040517f08c379a0000000000000000000000000000000000000000000000000000000008152600401611f789061242a565b60405180910390fd5b80600d60006101000a81548173ffffffffffffffffffffffffffffffffffffffff021916908373ffffffffffffffffffffffffffffffffffffffff16021790555050565b611fcd6120e2565b73ffffffffffffffffffffffffffffffffffffffff16611feb61132f565b73ffffffffffffffffffffffffffffffffffffffff1614612041576040517f08c379a00000000000000000000000000000000000000000000000000000000081526004016120389061242a565b60405180910390fd5b600073ffffffffffffffffffffffffffffffffffffffff168173ffffffffffffffffffffffffffffffffffffffff16036120b0576040517f08c379a00000000000000000000000000000000000000000000000000000000081526004016120a7906124bc565b60405180910390fd5b6120b9816120ea565b50565b600860009054906101000a900473ffffffffffffffffffffffffffffffffffffffff1681565b600033905090565b60008060009054906101000a900473ffffffffffffffffffffffffffffffffffffffff169050816000806101000a81548173ffffffffffffffffffffffffffffffffffffffff021916908373ffffffffffffffffffffffffffffffffffffffff1602179055508173ffffffffffffffffffffffffffffffffffffffff168173ffffffffffffffffffffffffffffffffffffffff167f8be0079c531659141344cd1fd0a4f28419497f9722a3daafe3b4186f6b6457e060405160405180910390a35050565b600073ffffffffffffffffffffffffffffffffffffffff82169050919050565b60006121d9826121ae565b9050919050565b6121e9816121ce565b82525050565b600060208201905061220460008301846121e0565b92915050565b6000819050919050565b61221d8161220a565b82525050565b60006020820190506122386000830184612214565b92915050565b600080fd5b61224c816121ce565b811461225757600080fd5b50565b60008135905061226981612243565b92915050565b6000602082840312156122855761228461223e565b5b60006122938482850161225a565b91505092915050565b600080600080600060a086880312156122b8576122b761223e565b5b60006122c68882890161225a565b95505060206122d78882890161225a565b94505060406122e88882890161225a565b93505060606122f98882890161225a565b925050608061230a8882890161225a565b9150509295509295909350565b600080600080600080600080610100898b0312156123385761233761223e565b5b60006123468b828c0161225a565b98505060206123578b828c0161225a565b97505060406123688b828c0161225a565b96505060606123798b828c0161225a565b955050608061238a8b828c0161225a565b94505060a061239b8b828c0161225a565b93505060c06123ac8b828c0161225a565b92505060e06123bd8b828c0161225a565b9150509295985092959890939650565b600082825260208201905092915050565b7f4f776e61626c653a2063616c6c6572206973206e6f7420746865206f776e6572600082015250565b60006124146020836123cd565b915061241f826123de565b602082019050919050565b6000602082019050818103600083015261244381612407565b9050919050565b7f4f776e61626c653a206e6577206f776e657220697320746865207a65726f206160008201527f6464726573730000000000000000000000000000000000000000000000000000602082015250565b60006124a66026836123cd565b91506124b18261244a565b604082019050919050565b600060208201905081810360008301526124d581612499565b905091905056fea2646970667358221220d3775ae84377850ee9718333dbbe533f41b3a0f6f96af6e69c602f0bd5915ffa64736f6c634300080f0033",
  "linkReferences": {},
  "deployedLinkReferences": {}
}