{
  "_format": "hh-sol-artifact-1",
  "contractName": "EraManager",
  "sourceName": "contracts/EraManager.sol",
  "abi": [
    {
      "anonymous": false,
      "inputs": [
        {
          "indexed": true,
          "internalType": "uint256",
          "name": "era",
          "type": "uint256"
        },
        {
          "indexed": false,
          "internalType": "uint256",
          "name": "eraPeriod",
          "type": "uint256"
        }
      ],
      "name": "EraPeriodUpdate",
      "type": "event"
    },
    {
      "anonymous": false,
      "inputs": [
        {
          "indexed": true,
          "internalType": "uint256",
          "name": "era",
          "type": "uint256"
        },
        {
          "indexed": false,
          "internalType": "address",
          "name": "caller",
          "type": "address"
        }
      ],
      "name": "NewEraStart",
      "type": "event"
    },
    {
      "anonymous": false,
      "inputs": [
        {
          "indexed": true,
          "internalType": "address",
          "name": "previousOwner",
          "type": "address"
        },
        {
          "indexed": true,
          "internalType": "address",
          "name": "newOwner",
          "type": "address"
        }
      ],
      "name": "OwnershipTransferred",
      "type": "event"
    },
    {
      "inputs": [],
      "name": "eraNumber",
      "outputs": [
        {
          "internalType": "uint256",
          "name": "",
          "type": "uint256"
        }
      ],
      "stateMutability": "view",
      "type": "function"
    },
    {
      "inputs": [],
      "name": "eraPeriod",
      "outputs": [
        {
          "internalType": "uint256",
          "name": "",
          "type": "uint256"
        }
      ],
      "stateMutability": "view",
      "type": "function"
    },
    {
      "inputs": [],
      "name": "eraStartTime",
      "outputs": [
        {
          "internalType": "uint256",
          "name": "",
          "type": "uint256"
        }
      ],
      "stateMutability": "view",
      "type": "function"
    },
    {
      "inputs": [
        {
          "internalType": "contract ISettings",
          "name": "_settings",
          "type": "address"
        },
        {
          "internalType": "uint256",
          "name": "_eraPeriod",
          "type": "uint256"
        }
      ],
      "name": "initialize",
      "outputs": [],
      "stateMutability": "nonpayable",
      "type": "function"
    },
    {
      "inputs": [],
      "name": "owner",
      "outputs": [
        {
          "internalType": "address",
          "name": "",
          "type": "address"
        }
      ],
      "stateMutability": "view",
      "type": "function"
    },
    {
      "inputs": [],
      "name": "renounceOwnership",
      "outputs": [],
      "stateMutability": "nonpayable",
      "type": "function"
    },
    {
      "inputs": [],
      "name": "safeUpdateAndGetEra",
      "outputs": [
        {
          "internalType": "uint256",
          "name": "",
          "type": "uint256"
        }
      ],
      "stateMutability": "nonpayable",
      "type": "function"
    },
    {
      "inputs": [],
      "name": "settings",
      "outputs": [
        {
          "internalType": "contract ISettings",
          "name": "",
          "type": "address"
        }
      ],
      "stateMutability": "view",
      "type": "function"
    },
    {
      "inputs": [],
      "name": "startNewEra",
      "outputs": [],
      "stateMutability": "nonpayable",
      "type": "function"
    },
    {
      "inputs": [
        {
          "internalType": "uint256",
          "name": "timestamp",
          "type": "uint256"
        }
      ],
      "name": "timestampToEraNumber",
      "outputs": [
        {
          "internalType": "uint256",
          "name": "",
          "type": "uint256"
        }
      ],
      "stateMutability": "view",
      "type": "function"
    },
    {
      "inputs": [
        {
          "internalType": "address",
          "name": "newOwner",
          "type": "address"
        }
      ],
      "name": "transferOwnership",
      "outputs": [],
      "stateMutability": "nonpayable",
      "type": "function"
    },
    {
      "inputs": [
        {
          "internalType": "uint256",
          "name": "newEraPeriod",
          "type": "uint256"
        }
      ],
      "name": "updateEraPeriod",
      "outputs": [],
      "stateMutability": "nonpayable",
      "type": "function"
    }
  ],
  "bytecode": "0x608060405234801561001057600080fd5b5061129f806100206000396000f3fe608060405234801561001057600080fd5b50600436106100b45760003560e01c8063b811419011610071578063b811419014610145578063ba08553a14610175578063cd6dc68714610193578063e06174e4146101af578063f2fde38b146101cd578063f40241bb146101e9576100b4565b80631e70953e146100b957806323401763146100c35780636f853a5d146100e1578063715018a6146100ff5780637d884c74146101095780638da5cb5b14610127575b600080fd5b6100c1610205565b005b6100cb6103a7565b6040516100d89190610abd565b60405180910390f35b6100e96103ad565b6040516100f69190610abd565b60405180910390f35b6101076103d7565b005b61011161045f565b60405161011e9190610abd565b60405180910390f35b61012f610465565b60405161013c9190610b19565b60405180910390f35b61015f600480360381019061015a9190610b65565b61048f565b60405161016c9190610abd565b60405180910390f35b61017d610505565b60405161018a9190610abd565b60405180910390f35b6101ad60048036038101906101a89190610bd0565b61050b565b005b6101b76106c6565b6040516101c49190610c6f565b60405180910390f35b6101e760048036038101906101e29190610cb6565b6106ec565b005b61020360048036038101906101fe9190610b65565b6107e3565b005b426066546068546102169190610d12565b10610256576040517f08c379a000000000000000000000000000000000000000000000000000000000815260040161024d90610dc5565b60405180910390fd5b6067600081548092919061026990610de5565b9190505550426068819055506000606560009054906101000a900473ffffffffffffffffffffffffffffffffffffffff1673ffffffffffffffffffffffffffffffffffffffff166376dcf98e6040518163ffffffff1660e01b8152600401602060405180830381865afa1580156102e4573d6000803e3d6000fd5b505050506040513d601f19601f820116820180604052508101906103089190610e42565b90508073ffffffffffffffffffffffffffffffffffffffff1663d2024fa66040518163ffffffff1660e01b8152600401600060405180830381600087803b15801561035257600080fd5b505af1158015610366573d6000803e3d6000fd5b505050506067547f7835cd24e2804ab5cb4f4a613f38e83f9c79ca4b42b58beef4faf77de9e50c353360405161039c9190610b19565b60405180910390a250565b60685481565b6000426066546068546103c09190610d12565b10156103cf576103ce610205565b5b606754905090565b6103df6108e8565b73ffffffffffffffffffffffffffffffffffffffff166103fd610465565b73ffffffffffffffffffffffffffffffffffffffff1614610453576040517f08c379a000000000000000000000000000000000000000000000000000000000815260040161044a90610ebb565b60405180910390fd5b61045d60006108f0565b565b60675481565b6000603360009054906101000a900473ffffffffffffffffffffffffffffffffffffffff16905090565b60006068548210156104d6576040517f08c379a00000000000000000000000000000000000000000000000000000000081526004016104cd90610f27565b60405180910390fd5b606654606854836104e79190610f47565b6104f19190610faa565b6067546104fe9190610d12565b9050919050565b60665481565b600060019054906101000a900460ff166105335760008054906101000a900460ff161561053c565b61053b6109b6565b5b61057b576040517f08c379a00000000000000000000000000000000000000000000000000000000081526004016105729061104d565b60405180910390fd5b60008060019054906101000a900460ff1615905080156105cb576001600060016101000a81548160ff02191690831515021790555060016000806101000a81548160ff0219169083151502179055505b6105d36109c7565b60008211610616576040517f08c379a000000000000000000000000000000000000000000000000000000000815260040161060d906110b9565b60405180910390fd5b82606560006101000a81548173ffffffffffffffffffffffffffffffffffffffff021916908373ffffffffffffffffffffffffffffffffffffffff1602179055508160668190555060016067819055506067547f7835cd24e2804ab5cb4f4a613f38e83f9c79ca4b42b58beef4faf77de9e50c35336040516106989190610b19565b60405180910390a280156106c15760008060016101000a81548160ff0219169083151502179055505b505050565b606560009054906101000a900473ffffffffffffffffffffffffffffffffffffffff1681565b6106f46108e8565b73ffffffffffffffffffffffffffffffffffffffff16610712610465565b73ffffffffffffffffffffffffffffffffffffffff1614610768576040517f08c379a000000000000000000000000000000000000000000000000000000000815260040161075f90610ebb565b60405180910390fd5b600073ffffffffffffffffffffffffffffffffffffffff168173ffffffffffffffffffffffffffffffffffffffff16036107d7576040517f08c379a00000000000000000000000000000000000000000000000000000000081526004016107ce9061114b565b60405180910390fd5b6107e0816108f0565b50565b6107eb6108e8565b73ffffffffffffffffffffffffffffffffffffffff16610809610465565b73ffffffffffffffffffffffffffffffffffffffff161461085f576040517f08c379a000000000000000000000000000000000000000000000000000000000815260040161085690610ebb565b60405180910390fd5b600081116108a2576040517f08c379a0000000000000000000000000000000000000000000000000000000008152600401610899906111b7565b60405180910390fd5b806066819055506067547f561a1e0e9bcf8e14fe06886c6c8d275bda3d294425400f65e4b3cf93db7e43db6066546040516108dd9190610abd565b60405180910390a250565b600033905090565b6000603360009054906101000a900473ffffffffffffffffffffffffffffffffffffffff16905081603360006101000a81548173ffffffffffffffffffffffffffffffffffffffff021916908373ffffffffffffffffffffffffffffffffffffffff1602179055508173ffffffffffffffffffffffffffffffffffffffff168173ffffffffffffffffffffffffffffffffffffffff167f8be0079c531659141344cd1fd0a4f28419497f9722a3daafe3b4186f6b6457e060405160405180910390a35050565b60006109c130610a20565b15905090565b600060019054906101000a900460ff16610a16576040517f08c379a0000000000000000000000000000000000000000000000000000000008152600401610a0d90611249565b60405180910390fd5b610a1e610a43565b565b6000808273ffffffffffffffffffffffffffffffffffffffff163b119050919050565b600060019054906101000a900460ff16610a92576040517f08c379a0000000000000000000000000000000000000000000000000000000008152600401610a8990611249565b60405180910390fd5b610aa2610a9d6108e8565b6108f0565b565b6000819050919050565b610ab781610aa4565b82525050565b6000602082019050610ad26000830184610aae565b92915050565b600073ffffffffffffffffffffffffffffffffffffffff82169050919050565b6000610b0382610ad8565b9050919050565b610b1381610af8565b82525050565b6000602082019050610b2e6000830184610b0a565b92915050565b600080fd5b610b4281610aa4565b8114610b4d57600080fd5b50565b600081359050610b5f81610b39565b92915050565b600060208284031215610b7b57610b7a610b34565b5b6000610b8984828501610b50565b91505092915050565b6000610b9d82610af8565b9050919050565b610bad81610b92565b8114610bb857600080fd5b50565b600081359050610bca81610ba4565b92915050565b60008060408385031215610be757610be6610b34565b5b6000610bf585828601610bbb565b9250506020610c0685828601610b50565b9150509250929050565b6000819050919050565b6000610c35610c30610c2b84610ad8565b610c10565b610ad8565b9050919050565b6000610c4782610c1a565b9050919050565b6000610c5982610c3c565b9050919050565b610c6981610c4e565b82525050565b6000602082019050610c846000830184610c60565b92915050565b610c9381610af8565b8114610c9e57600080fd5b50565b600081359050610cb081610c8a565b92915050565b600060208284031215610ccc57610ccb610b34565b5b6000610cda84828501610ca1565b91505092915050565b7f4e487b7100000000000000000000000000000000000000000000000000000000600052601160045260246000fd5b6000610d1d82610aa4565b9150610d2883610aa4565b9250827fffffffffffffffffffffffffffffffffffffffffffffffffffffffffffffffff03821115610d5d57610d5c610ce3565b5b828201905092915050565b600082825260208201905092915050565b7f43757272656e7420657261206973207374696c6c206163746976650000000000600082015250565b6000610daf601b83610d68565b9150610dba82610d79565b602082019050919050565b60006020820190508181036000830152610dde81610da2565b9050919050565b6000610df082610aa4565b91507fffffffffffffffffffffffffffffffffffffffffffffffffffffffffffffffff8203610e2257610e21610ce3565b5b600182019050919050565b600081519050610e3c81610c8a565b92915050565b600060208284031215610e5857610e57610b34565b5b6000610e6684828501610e2d565b91505092915050565b7f4f776e61626c653a2063616c6c6572206973206e6f7420746865206f776e6572600082015250565b6000610ea5602083610d68565b9150610eb082610e6f565b602082019050919050565b60006020820190508181036000830152610ed481610e98565b9050919050565b7f6f6e6c7920667572746865722074696d657374616d7020617661696c61626c65600082015250565b6000610f11602083610d68565b9150610f1c82610edb565b602082019050919050565b60006020820190508181036000830152610f4081610f04565b9050919050565b6000610f5282610aa4565b9150610f5d83610aa4565b925082821015610f7057610f6f610ce3565b5b828203905092915050565b7f4e487b7100000000000000000000000000000000000000000000000000000000600052601260045260246000fd5b6000610fb582610aa4565b9150610fc083610aa4565b925082610fd057610fcf610f7b565b5b828204905092915050565b7f496e697469616c697a61626c653a20636f6e747261637420697320616c72656160008201527f647920696e697469616c697a6564000000000000000000000000000000000000602082015250565b6000611037602e83610d68565b915061104282610fdb565b604082019050919050565b600060208201905081810360008301526110668161102a565b9050919050565b7f657261506572696f642063616e206e6f74206265203000000000000000000000600082015250565b60006110a3601683610d68565b91506110ae8261106d565b602082019050919050565b600060208201905081810360008301526110d281611096565b9050919050565b7f4f776e61626c653a206e6577206f776e657220697320746865207a65726f206160008201527f6464726573730000000000000000000000000000000000000000000000000000602082015250565b6000611135602683610d68565b9150611140826110d9565b604082019050919050565b6000602082019050818103600083015261116481611128565b9050919050565b7f6e6577206572612063616e206e6f742062652030000000000000000000000000600082015250565b60006111a1601483610d68565b91506111ac8261116b565b602082019050919050565b600060208201905081810360008301526111d081611194565b9050919050565b7f496e697469616c697a61626c653a20636f6e7472616374206973206e6f74206960008201527f6e697469616c697a696e67000000000000000000000000000000000000000000602082015250565b6000611233602b83610d68565b915061123e826111d7565b604082019050919050565b6000602082019050818103600083015261126281611226565b905091905056fea2646970667358221220fc2157a5d50563c16148665764ed9ef055dd63a72f32c1cdabd94b065e4ceecc64736f6c634300080f0033",
  "linkReferences": {},
  "deployedLinkReferences": {}
}