{
  "_format": "hh-sol-artifact-1",
  "contractName": "QueryRegistry",
  "sourceName": "contracts/QueryRegistry.sol",
  "abi": [
    {
      "anonymous": false,
      "inputs": [
        {
          "indexed": true,
          "internalType": "uint256",
          "name": "queryId",
          "type": "uint256"
        },
        {
          "indexed": true,
          "internalType": "address",
          "name": "creator",
          "type": "address"
        },
        {
          "indexed": false,
          "internalType": "bytes32",
          "name": "metadata",
          "type": "bytes32"
        },
        {
          "indexed": false,
          "internalType": "bytes32",
          "name": "deploymentId",
          "type": "bytes32"
        },
        {
          "indexed": false,
          "internalType": "bytes32",
          "name": "version",
          "type": "bytes32"
        }
      ],
      "name": "CreateQuery",
      "type": "event"
    },
    {
      "anonymous": false,
      "inputs": [
        {
          "indexed": true,
          "internalType": "address",
          "name": "previousOwner",
          "type": "address"
        },
        {
          "indexed": true,
          "internalType": "address",
          "name": "newOwner",
          "type": "address"
        }
      ],
      "name": "OwnershipTransferred",
      "type": "event"
    },
    {
      "anonymous": false,
      "inputs": [
        {
          "indexed": true,
          "internalType": "address",
          "name": "indexer",
          "type": "address"
        },
        {
          "indexed": true,
          "internalType": "bytes32",
          "name": "deploymentId",
          "type": "bytes32"
        }
      ],
      "name": "StartIndexing",
      "type": "event"
    },
    {
      "anonymous": false,
      "inputs": [
        {
          "indexed": true,
          "internalType": "address",
          "name": "indexer",
          "type": "address"
        },
        {
          "indexed": true,
          "internalType": "bytes32",
          "name": "deploymentId",
          "type": "bytes32"
        }
      ],
      "name": "StopIndexing",
      "type": "event"
    },
    {
      "anonymous": false,
      "inputs": [
        {
          "indexed": true,
          "internalType": "address",
          "name": "indexer",
          "type": "address"
        },
        {
          "indexed": true,
          "internalType": "bytes32",
          "name": "deploymentId",
          "type": "bytes32"
        },
        {
          "indexed": false,
          "internalType": "uint256",
          "name": "blockheight",
          "type": "uint256"
        },
        {
          "indexed": false,
          "internalType": "bytes32",
          "name": "mmrRoot",
          "type": "bytes32"
        },
        {
          "indexed": false,
          "internalType": "uint256",
          "name": "timestamp",
          "type": "uint256"
        }
      ],
      "name": "UpdateDeploymentStatus",
      "type": "event"
    },
    {
      "anonymous": false,
      "inputs": [
        {
          "indexed": true,
          "internalType": "address",
          "name": "indexer",
          "type": "address"
        },
        {
          "indexed": true,
          "internalType": "bytes32",
          "name": "deploymentId",
          "type": "bytes32"
        }
      ],
      "name": "UpdateIndexingStatusToReady",
      "type": "event"
    },
    {
      "anonymous": false,
      "inputs": [
        {
          "indexed": true,
          "internalType": "address",
          "name": "owner",
          "type": "address"
        },
        {
          "indexed": true,
          "internalType": "uint256",
          "name": "queryId",
          "type": "uint256"
        },
        {
          "indexed": false,
          "internalType": "bytes32",
          "name": "deploymentId",
          "type": "bytes32"
        },
        {
          "indexed": false,
          "internalType": "bytes32",
          "name": "version",
          "type": "bytes32"
        }
      ],
      "name": "UpdateQueryDeployment",
      "type": "event"
    },
    {
      "anonymous": false,
      "inputs": [
        {
          "indexed": true,
          "internalType": "address",
          "name": "owner",
          "type": "address"
        },
        {
          "indexed": true,
          "internalType": "uint256",
          "name": "queryId",
          "type": "uint256"
        },
        {
          "indexed": false,
          "internalType": "bytes32",
          "name": "metadata",
          "type": "bytes32"
        }
      ],
      "name": "UpdateQueryMetadata",
      "type": "event"
    },
    {
      "inputs": [
        {
          "internalType": "address",
          "name": "creator",
          "type": "address"
        }
      ],
      "name": "addCreator",
      "outputs": [],
      "stateMutability": "nonpayable",
      "type": "function"
    },
    {
      "inputs": [
        {
          "internalType": "bytes32",
          "name": "metadata",
          "type": "bytes32"
        },
        {
          "internalType": "bytes32",
          "name": "version",
          "type": "bytes32"
        },
        {
          "internalType": "bytes32",
          "name": "deploymentId",
          "type": "bytes32"
        }
      ],
      "name": "createQueryProject",
      "outputs": [],
      "stateMutability": "nonpayable",
      "type": "function"
    },
    {
      "inputs": [],
      "name": "creatorRestricted",
      "outputs": [
        {
          "internalType": "bool",
          "name": "",
          "type": "bool"
        }
      ],
      "stateMutability": "view",
      "type": "function"
    },
    {
      "inputs": [
        {
          "internalType": "address",
          "name": "",
          "type": "address"
        }
      ],
      "name": "creatorWhitelist",
      "outputs": [
        {
          "internalType": "bool",
          "name": "",
          "type": "bool"
        }
      ],
      "stateMutability": "view",
      "type": "function"
    },
    {
      "inputs": [
        {
          "internalType": "bytes32",
          "name": "",
          "type": "bytes32"
        },
        {
          "internalType": "address",
          "name": "",
          "type": "address"
        }
      ],
      "name": "deploymentStatusByIndexer",
      "outputs": [
        {
          "internalType": "bytes32",
          "name": "deploymentId",
          "type": "bytes32"
        },
        {
          "internalType": "uint256",
          "name": "timestamp",
          "type": "uint256"
        },
        {
          "internalType": "uint256",
          "name": "blockHeight",
          "type": "uint256"
        },
        {
          "internalType": "enum IndexingServiceStatus",
          "name": "status",
          "type": "uint8"
        }
      ],
      "stateMutability": "view",
      "type": "function"
    },
    {
      "inputs": [
        {
          "internalType": "contract ISettings",
          "name": "_settings",
          "type": "address"
        }
      ],
      "name": "initialize",
      "outputs": [],
      "stateMutability": "nonpayable",
      "type": "function"
    },
    {
      "inputs": [
        {
          "internalType": "bytes32",
          "name": "deploymentId",
          "type": "bytes32"
        },
        {
          "internalType": "address",
          "name": "indexer",
          "type": "address"
        }
      ],
      "name": "isIndexingAvailable",
      "outputs": [
        {
          "internalType": "bool",
          "name": "",
          "type": "bool"
        }
      ],
      "stateMutability": "view",
      "type": "function"
    },
    {
      "inputs": [
        {
          "internalType": "bytes32",
          "name": "deploymentId",
          "type": "bytes32"
        },
        {
          "internalType": "address",
          "name": "indexer",
          "type": "address"
        }
      ],
      "name": "isOffline",
      "outputs": [
        {
          "internalType": "bool",
          "name": "",
          "type": "bool"
        }
      ],
      "stateMutability": "view",
      "type": "function"
    },
    {
      "inputs": [],
      "name": "nextQueryId",
      "outputs": [
        {
          "internalType": "uint256",
          "name": "",
          "type": "uint256"
        }
      ],
      "stateMutability": "view",
      "type": "function"
    },
    {
      "inputs": [
        {
          "internalType": "address",
          "name": "",
          "type": "address"
        }
      ],
      "name": "numberOfIndexingDeployments",
      "outputs": [
        {
          "internalType": "uint256",
          "name": "",
          "type": "uint256"
        }
      ],
      "stateMutability": "view",
      "type": "function"
    },
    {
      "inputs": [],
      "name": "owner",
      "outputs": [
        {
          "internalType": "address",
          "name": "",
          "type": "address"
        }
      ],
      "stateMutability": "view",
      "type": "function"
    },
    {
      "inputs": [
        {
          "internalType": "address",
          "name": "user",
          "type": "address"
        }
      ],
      "name": "queryInfoCountByOwner",
      "outputs": [
        {
          "internalType": "uint256",
          "name": "",
          "type": "uint256"
        }
      ],
      "stateMutability": "view",
      "type": "function"
    },
    {
      "inputs": [
        {
          "internalType": "address",
          "name": "",
          "type": "address"
        },
        {
          "internalType": "uint256",
          "name": "",
          "type": "uint256"
        }
      ],
      "name": "queryInfoIdsByOwner",
      "outputs": [
        {
          "internalType": "uint256",
          "name": "",
          "type": "uint256"
        }
      ],
      "stateMutability": "view",
      "type": "function"
    },
    {
      "inputs": [
        {
          "internalType": "uint256",
          "name": "",
          "type": "uint256"
        }
      ],
      "name": "queryInfos",
      "outputs": [
        {
          "internalType": "uint256",
          "name": "queryId",
          "type": "uint256"
        },
        {
          "internalType": "address",
          "name": "owner",
          "type": "address"
        },
        {
          "internalType": "bytes32",
          "name": "latestVersion",
          "type": "bytes32"
        },
        {
          "internalType": "bytes32",
          "name": "latestDeploymentId",
          "type": "bytes32"
        },
        {
          "internalType": "bytes32",
          "name": "metadata",
          "type": "bytes32"
        }
      ],
      "stateMutability": "view",
      "type": "function"
    },
    {
      "inputs": [
        {
          "internalType": "address",
          "name": "creator",
          "type": "address"
        }
      ],
      "name": "removeCreator",
      "outputs": [],
      "stateMutability": "nonpayable",
      "type": "function"
    },
    {
      "inputs": [],
      "name": "renounceOwnership",
      "outputs": [],
      "stateMutability": "nonpayable",
      "type": "function"
    },
    {
      "inputs": [
        {
          "internalType": "bytes32",
          "name": "deploymentId",
          "type": "bytes32"
        },
        {
          "internalType": "uint256",
          "name": "_blockheight",
          "type": "uint256"
        },
        {
          "internalType": "bytes32",
          "name": "_mmrRoot",
          "type": "bytes32"
        },
        {
          "internalType": "uint256",
          "name": "_timestamp",
          "type": "uint256"
        }
      ],
      "name": "reportIndexingStatus",
      "outputs": [],
      "stateMutability": "nonpayable",
      "type": "function"
    },
    {
      "inputs": [
        {
          "internalType": "bool",
          "name": "_creatorRestricted",
          "type": "bool"
        }
      ],
      "name": "setCreatorRestricted",
      "outputs": [],
      "stateMutability": "nonpayable",
      "type": "function"
    },
    {
      "inputs": [
        {
          "internalType": "uint256",
          "name": "_offlineCalcThreshold",
          "type": "uint256"
        }
      ],
      "name": "setOfflineCalcThreshold",
      "outputs": [],
      "stateMutability": "nonpayable",
      "type": "function"
    },
    {
      "inputs": [
        {
          "internalType": "contract ISettings",
          "name": "_settings",
          "type": "address"
        }
      ],
      "name": "setSettings",
      "outputs": [],
      "stateMutability": "nonpayable",
      "type": "function"
    },
    {
      "inputs": [],
      "name": "settings",
      "outputs": [
        {
          "internalType": "contract ISettings",
          "name": "",
          "type": "address"
        }
      ],
      "stateMutability": "view",
      "type": "function"
    },
    {
      "inputs": [
        {
          "internalType": "bytes32",
          "name": "deploymentId",
          "type": "bytes32"
        }
      ],
      "name": "startIndexing",
      "outputs": [],
      "stateMutability": "nonpayable",
      "type": "function"
    },
    {
      "inputs": [
        {
          "internalType": "bytes32",
          "name": "deploymentId",
          "type": "bytes32"
        }
      ],
      "name": "stopIndexing",
      "outputs": [],
      "stateMutability": "nonpayable",
      "type": "function"
    },
    {
      "inputs": [
        {
          "internalType": "address",
          "name": "newOwner",
          "type": "address"
        }
      ],
      "name": "transferOwnership",
      "outputs": [],
      "stateMutability": "nonpayable",
      "type": "function"
    },
    {
      "inputs": [
        {
          "internalType": "uint256",
          "name": "queryId",
          "type": "uint256"
        },
        {
          "internalType": "bytes32",
          "name": "deploymentId",
          "type": "bytes32"
        },
        {
          "internalType": "bytes32",
          "name": "version",
          "type": "bytes32"
        }
      ],
      "name": "updateDeployment",
      "outputs": [],
      "stateMutability": "nonpayable",
      "type": "function"
    },
    {
      "inputs": [
        {
          "internalType": "bytes32",
          "name": "deploymentId",
          "type": "bytes32"
        }
      ],
      "name": "updateIndexingStatusToReady",
      "outputs": [],
      "stateMutability": "nonpayable",
      "type": "function"
    },
    {
      "inputs": [
        {
          "internalType": "uint256",
          "name": "queryId",
          "type": "uint256"
        },
        {
          "internalType": "bytes32",
          "name": "metadata",
          "type": "bytes32"
        }
      ],
      "name": "updateQueryProjectMetadata",
      "outputs": [],
      "stateMutability": "nonpayable",
      "type": "function"
    }
  ],
  "bytecode": "0x608060405234801561001057600080fd5b50613a52806100206000396000f3fe608060405234801561001057600080fd5b50600436106101a95760003560e01c80638da5cb5b116100f9578063c9a2045611610097578063e06174e411610071578063e06174e4146104b7578063edd1f284146104d5578063f2fde38b14610505578063f64f593614610521576101a9565b8063c9a2045614610438578063cbaf94fa1461046b578063d56292d214610487576101a9565b8063a01d3c2c116100d3578063a01d3c2c146103c6578063bd6018bb146103e2578063c4c4829c146103fe578063c4d66de81461041c576101a9565b80638da5cb5b1461035c5780638e7a71521461037a5780639ba4fd8c14610396576101a9565b80635a8f647811610166578063715018a611610140578063715018a6146102fe5780637983c08e146103085780638470492c1461032457806385a76d1d14610340576101a9565b80635a8f6478146102925780636b56819d146102c65780636b5eca2d146102e2576101a9565b80631b3f13c3146101ae57806326e50e7b146101ca5780632ea6dd7e146101fa578063349ef7e3146102165780633994a4e6146102465780633b9dce0514610276575b600080fd5b6101c860048036038101906101c39190612898565b61053f565b005b6101e460048036038101906101df9190612936565b6106f9565b6040516101f19190612985565b60405180910390f35b610214600480360381019061020f91906129a0565b61072a565b005b610230600480360381019061022b91906129cd565b610ba4565b60405161023d9190612985565b60405180910390f35b610260600480360381019061025b91906129fa565b610bbc565b60405161026d9190612a55565b60405180910390f35b610290600480360381019061028b91906129cd565b610cc5565b005b6102ac60048036038101906102a79190612a70565b610d9c565b6040516102bd959493929190612abb565b60405180910390f35b6102e060048036038101906102db9190612b0e565b610df2565b005b6102fc60048036038101906102f79190612a70565b6111e6565b005b61030661126c565b005b610322600480360381019061031d9190612b75565b6112f4565b005b61033e60048036038101906103399190612bf4565b611559565b005b61035a600480360381019061035591906129a0565b6115f2565b005b6103646119db565b6040516103719190612c21565b60405180910390f35b610394600480360381019061038f9190612c3c565b611a05565b005b6103b060048036038101906103ab91906129cd565b611cd4565b6040516103bd9190612a55565b60405180910390f35b6103e060048036038101906103db9190612ccd565b611cf4565b005b6103fc60048036038101906103f791906129cd565b611db4565b005b610406611e8b565b6040516104139190612985565b60405180910390f35b61043660048036038101906104319190612ccd565b611e91565b005b610452600480360381019061044d91906129fa565b61203c565b6040516104629493929190612d71565b60405180910390f35b610485600480360381019061048091906129a0565b612086565b005b6104a1600480360381019061049c91906129fa565b61231b565b6040516104ae9190612a55565b60405180910390f35b6104bf6123ac565b6040516104cc9190612e15565b60405180910390f35b6104ef60048036038101906104ea91906129cd565b6123d2565b6040516104fc9190612985565b60405180910390f35b61051f600480360381019061051a91906129cd565b61241e565b005b610529612515565b6040516105369190612a55565b60405180910390f35b606b60009054906101000a900460ff16156105e157606860003373ffffffffffffffffffffffffffffffffffffffff1673ffffffffffffffffffffffffffffffffffffffff16815260200190815260200160002060009054906101000a900460ff166105e0576040517f08c379a00000000000000000000000000000000000000000000000000000000081526004016105d790612eb3565b60405180910390fd5b5b60006067600084815260200190815260200160002060010160009054906101000a900473ffffffffffffffffffffffffffffffffffffffff1690503373ffffffffffffffffffffffffffffffffffffffff168173ffffffffffffffffffffffffffffffffffffffff161461068a576040517f08c379a000000000000000000000000000000000000000000000000000000000815260040161068190612f45565b60405180910390fd5b816067600085815260200190815260200160002060040181905550828173ffffffffffffffffffffffffffffffffffffffff167f583db66f3d03715fc9301b267c77dedf2500a5590bfabbdfb9abc9cb1ba6aa06846040516106ec9190612f65565b60405180910390a3505050565b6066602052816000526040600020818154811061071557600080fd5b90600052602060002001600091509150505481565b606560009054906101000a900473ffffffffffffffffffffffffffffffffffffffff1673ffffffffffffffffffffffffffffffffffffffff1663aef7d8266040518163ffffffff1660e01b8152600401602060405180830381865afa158015610797573d6000803e3d6000fd5b505050506040513d601f19601f820116820180604052508101906107bb9190612f95565b73ffffffffffffffffffffffffffffffffffffffff16632c6cf4e2336040518263ffffffff1660e01b81526004016107f39190612c21565b602060405180830381865afa158015610810573d6000803e3d6000fd5b505050506040513d601f19601f820116820180604052508101906108349190612fd7565b610873576040517f08c379a000000000000000000000000000000000000000000000000000000000815260040161086a90613050565b60405180910390fd5b6000606c600083815260200190815260200160002060003373ffffffffffffffffffffffffffffffffffffffff1673ffffffffffffffffffffffffffffffffffffffff16815260200190815260200160002060030160009054906101000a900460ff169050600060028111156108ec576108eb612cfa565b5b8160028111156108ff576108fe612cfa565b5b0361093f576040517f08c379a0000000000000000000000000000000000000000000000000000000008152600401610936906130e2565b60405180910390fd5b606560009054906101000a900473ffffffffffffffffffffffffffffffffffffffff1673ffffffffffffffffffffffffffffffffffffffff16635dfdb6e96040518163ffffffff1660e01b8152600401602060405180830381865afa1580156109ac573d6000803e3d6000fd5b505050506040513d601f19601f820116820180604052508101906109d09190612f95565b73ffffffffffffffffffffffffffffffffffffffff16633fc1f64233846040518363ffffffff1660e01b8152600401610a0a929190613102565b602060405180830381865afa158015610a27573d6000803e3d6000fd5b505050506040513d601f19601f82011682018060405250810190610a4b9190612fd7565b15610a8b576040517f08c379a0000000000000000000000000000000000000000000000000000000008152600401610a829061319d565b60405180910390fd5b6000606c600084815260200190815260200160002060003373ffffffffffffffffffffffffffffffffffffffff1673ffffffffffffffffffffffffffffffffffffffff16815260200190815260200160002060030160006101000a81548160ff02191690836002811115610b0257610b01612cfa565b5b0217905550606d60003373ffffffffffffffffffffffffffffffffffffffff1673ffffffffffffffffffffffffffffffffffffffff1681526020019081526020016000206000815480929190610b57906131ec565b9190505550813373ffffffffffffffffffffffffffffffffffffffff167fbd12b017f0eb57219e6ea924c4b789b9f3797dcb500c28463b2c60e460f0282d60405160405180910390a35050565b606d6020528060005260406000206000915090505481565b600080606c600085815260200190815260200160002060008473ffffffffffffffffffffffffffffffffffffffff1673ffffffffffffffffffffffffffffffffffffffff16815260200190815260200160002060030160009054906101000a900460ff16905060006002811115610c3657610c35612cfa565b5b816002811115610c4957610c48612cfa565b5b03610c58576000915050610cbf565b42606a54606c600087815260200190815260200160002060008673ffffffffffffffffffffffffffffffffffffffff1673ffffffffffffffffffffffffffffffffffffffff16815260200190815260200160002060010154610cba9190613215565b109150505b92915050565b610ccd612528565b73ffffffffffffffffffffffffffffffffffffffff16610ceb6119db565b73ffffffffffffffffffffffffffffffffffffffff1614610d41576040517f08c379a0000000000000000000000000000000000000000000000000000000008152600401610d38906132b7565b60405180910390fd5b6001606860008373ffffffffffffffffffffffffffffffffffffffff1673ffffffffffffffffffffffffffffffffffffffff16815260200190815260200160002060006101000a81548160ff02191690831515021790555050565b60676020528060005260406000206000915090508060000154908060010160009054906101000a900473ffffffffffffffffffffffffffffffffffffffff16908060020154908060030154908060040154905085565b606560009054906101000a900473ffffffffffffffffffffffffffffffffffffffff1673ffffffffffffffffffffffffffffffffffffffff1663aef7d8266040518163ffffffff1660e01b8152600401602060405180830381865afa158015610e5f573d6000803e3d6000fd5b505050506040513d601f19601f82011682018060405250810190610e839190612f95565b73ffffffffffffffffffffffffffffffffffffffff1663b429afeb336040518263ffffffff1660e01b8152600401610ebb9190612c21565b602060405180830381865afa158015610ed8573d6000803e3d6000fd5b505050506040513d601f19601f82011682018060405250810190610efc9190612fd7565b610f3b576040517f08c379a0000000000000000000000000000000000000000000000000000000008152600401610f3290613323565b60405180910390fd5b6000606560009054906101000a900473ffffffffffffffffffffffffffffffffffffffff1673ffffffffffffffffffffffffffffffffffffffff1663aef7d8266040518163ffffffff1660e01b8152600401602060405180830381865afa158015610faa573d6000803e3d6000fd5b505050506040513d601f19601f82011682018060405250810190610fce9190612f95565b73ffffffffffffffffffffffffffffffffffffffff1663430df1f0336040518263ffffffff1660e01b81526004016110069190612c21565b602060405180830381865afa158015611023573d6000803e3d6000fd5b505050506040513d601f19601f820116820180604052508101906110479190612f95565b90506000606c600087815260200190815260200160002060008373ffffffffffffffffffffffffffffffffffffffff1673ffffffffffffffffffffffffffffffffffffffff168152602001908152602001600020905061110b816040518060800160405290816000820154815260200160018201548152602001600282015481526020016003820160009054906101000a900460ff1660028111156110ef576110ee612cfa565b5b600281111561110157611100612cfa565b5b8152505084612530565b611179816040518060800160405290816000820154815260200160018201548152602001600282015481526020016003820160009054906101000a900460ff16600281111561115d5761115c612cfa565b5b600281111561116f5761116e612cfa565b5b8152505086612628565b828160010181905550848160020181905550858273ffffffffffffffffffffffffffffffffffffffff167f82f70712d33e935d1dce64e744b5c6a969d5c332aa2b096e125e3314ae69e4008787876040516111d693929190613343565b60405180910390a3505050505050565b6111ee612528565b73ffffffffffffffffffffffffffffffffffffffff1661120c6119db565b73ffffffffffffffffffffffffffffffffffffffff1614611262576040517f08c379a0000000000000000000000000000000000000000000000000000000008152600401611259906132b7565b60405180910390fd5b80606a8190555050565b611274612528565b73ffffffffffffffffffffffffffffffffffffffff166112926119db565b73ffffffffffffffffffffffffffffffffffffffff16146112e8576040517f08c379a00000000000000000000000000000000000000000000000000000000081526004016112df906132b7565b60405180910390fd5b6112f26000612673565b565b606b60009054906101000a900460ff161561139657606860003373ffffffffffffffffffffffffffffffffffffffff1673ffffffffffffffffffffffffffffffffffffffff16815260200190815260200160002060009054906101000a900460ff16611395576040517f08c379a000000000000000000000000000000000000000000000000000000000815260040161138c90612eb3565b60405180910390fd5b5b60006067600085815260200190815260200160002060010160009054906101000a900473ffffffffffffffffffffffffffffffffffffffff1690503373ffffffffffffffffffffffffffffffffffffffff168173ffffffffffffffffffffffffffffffffffffffff161461143f576040517f08c379a0000000000000000000000000000000000000000000000000000000008152600401611436906133ec565b60405180910390fd5b606e600084815260200190815260200160002060009054906101000a900460ff16156114a0576040517f08c379a000000000000000000000000000000000000000000000000000000000815260040161149790613458565b60405180910390fd5b8260676000868152602001908152602001600020600301819055508160676000868152602001908152602001600020600201819055506001606e600085815260200190815260200160002060006101000a81548160ff021916908315150217905550838173ffffffffffffffffffffffffffffffffffffffff167f51237b0eb710176a94e25c4a6a6c119efa4989d7a96a382c998566bbd6c3a9c5858560405161154b929190613478565b60405180910390a350505050565b611561612528565b73ffffffffffffffffffffffffffffffffffffffff1661157f6119db565b73ffffffffffffffffffffffffffffffffffffffff16146115d5576040517f08c379a00000000000000000000000000000000000000000000000000000000081526004016115cc906132b7565b60405180910390fd5b80606b60006101000a81548160ff02191690831515021790555050565b606560009054906101000a900473ffffffffffffffffffffffffffffffffffffffff1673ffffffffffffffffffffffffffffffffffffffff1663aef7d8266040518163ffffffff1660e01b8152600401602060405180830381865afa15801561165f573d6000803e3d6000fd5b505050506040513d601f19601f820116820180604052508101906116839190612f95565b73ffffffffffffffffffffffffffffffffffffffff16632c6cf4e2336040518263ffffffff1660e01b81526004016116bb9190612c21565b602060405180830381865afa1580156116d8573d6000803e3d6000fd5b505050506040513d601f19601f820116820180604052508101906116fc9190612fd7565b61173b576040517f08c379a000000000000000000000000000000000000000000000000000000000815260040161173290613050565b60405180910390fd5b6000606c600083815260200190815260200160002060003373ffffffffffffffffffffffffffffffffffffffff1673ffffffffffffffffffffffffffffffffffffffff16815260200190815260200160002060030160009054906101000a900460ff169050600060028111156117b4576117b3612cfa565b5b8160028111156117c7576117c6612cfa565b5b14611807576040517f08c379a00000000000000000000000000000000000000000000000000000000081526004016117fe90613513565b60405180910390fd5b606e600083815260200190815260200160002060009054906101000a900460ff16611867576040517f08c379a000000000000000000000000000000000000000000000000000000000815260040161185e9061357f565b60405180910390fd5b604051806080016040528083815260200160008152602001600081526020016001600281111561189a57611899612cfa565b5b815250606c600084815260200190815260200160002060003373ffffffffffffffffffffffffffffffffffffffff1673ffffffffffffffffffffffffffffffffffffffff16815260200190815260200160002060008201518160000155602082015181600101556040820151816002015560608201518160030160006101000a81548160ff0219169083600281111561193657611935612cfa565b5b0217905550905050606d60003373ffffffffffffffffffffffffffffffffffffffff1673ffffffffffffffffffffffffffffffffffffffff168152602001908152602001600020600081548092919061198e9061359f565b9190505550813373ffffffffffffffffffffffffffffffffffffffff167fe220757cf0bd1e3e39269b6b1ad496f4e11500d7ca8936d6f48bfabe937a4c8960405160405180910390a35050565b6000603360009054906101000a900473ffffffffffffffffffffffffffffffffffffffff16905090565b606b60009054906101000a900460ff1615611aa757606860003373ffffffffffffffffffffffffffffffffffffffff1673ffffffffffffffffffffffffffffffffffffffff16815260200190815260200160002060009054906101000a900460ff16611aa6576040517f08c379a0000000000000000000000000000000000000000000000000000000008152600401611a9d90612eb3565b60405180910390fd5b5b60006069549050606e600083815260200190815260200160002060009054906101000a900460ff1615611b0f576040517f08c379a0000000000000000000000000000000000000000000000000000000008152600401611b0690613458565b60405180910390fd5b6040518060a001604052808281526020013373ffffffffffffffffffffffffffffffffffffffff16815260200184815260200183815260200185815250606760008381526020019081526020016000206000820151816000015560208201518160010160006101000a81548173ffffffffffffffffffffffffffffffffffffffff021916908373ffffffffffffffffffffffffffffffffffffffff160217905550604082015181600201556060820151816003015560808201518160040155905050606660003373ffffffffffffffffffffffffffffffffffffffff1673ffffffffffffffffffffffffffffffffffffffff16815260200190815260200160002081908060018154018082558091505060019003906000526020600020016000909190919091505560696000815480929190611c4a9061359f565b91905055506001606e600084815260200190815260200160002060006101000a81548160ff0219169083151502179055503373ffffffffffffffffffffffffffffffffffffffff16817f50dee88972c8867c93102c2ef6efd0e8d9e17cd3de6656ae79421c9efc530115868587604051611cc6939291906135e7565b60405180910390a350505050565b60686020528060005260406000206000915054906101000a900460ff1681565b611cfc612528565b73ffffffffffffffffffffffffffffffffffffffff16611d1a6119db565b73ffffffffffffffffffffffffffffffffffffffff1614611d70576040517f08c379a0000000000000000000000000000000000000000000000000000000008152600401611d67906132b7565b60405180910390fd5b80606560006101000a81548173ffffffffffffffffffffffffffffffffffffffff021916908373ffffffffffffffffffffffffffffffffffffffff16021790555050565b611dbc612528565b73ffffffffffffffffffffffffffffffffffffffff16611dda6119db565b73ffffffffffffffffffffffffffffffffffffffff1614611e30576040517f08c379a0000000000000000000000000000000000000000000000000000000008152600401611e27906132b7565b60405180910390fd5b6000606860008373ffffffffffffffffffffffffffffffffffffffff1673ffffffffffffffffffffffffffffffffffffffff16815260200190815260200160002060006101000a81548160ff02191690831515021790555050565b60695481565b600060019054906101000a900460ff16611eb95760008054906101000a900460ff1615611ec2565b611ec1612739565b5b611f01576040517f08c379a0000000000000000000000000000000000000000000000000000000008152600401611ef890613690565b60405180910390fd5b60008060019054906101000a900460ff161590508015611f51576001600060016101000a81548160ff02191690831515021790555060016000806101000a81548160ff0219169083151502179055505b611f5961274a565b81606560006101000a81548173ffffffffffffffffffffffffffffffffffffffff021916908373ffffffffffffffffffffffffffffffffffffffff16021790555062015180606a819055506001606b60006101000a81548160ff0219169083151502179055506001606860003373ffffffffffffffffffffffffffffffffffffffff1673ffffffffffffffffffffffffffffffffffffffff16815260200190815260200160002060006101000a81548160ff02191690831515021790555080156120385760008060016101000a81548160ff0219169083151502179055505b5050565b606c602052816000526040600020602052806000526040600020600091509150508060000154908060010154908060020154908060030160009054906101000a900460ff16905084565b606560009054906101000a900473ffffffffffffffffffffffffffffffffffffffff1673ffffffffffffffffffffffffffffffffffffffff1663aef7d8266040518163ffffffff1660e01b8152600401602060405180830381865afa1580156120f3573d6000803e3d6000fd5b505050506040513d601f19601f820116820180604052508101906121179190612f95565b73ffffffffffffffffffffffffffffffffffffffff16632c6cf4e2336040518263ffffffff1660e01b815260040161214f9190612c21565b602060405180830381865afa15801561216c573d6000803e3d6000fd5b505050506040513d601f19601f820116820180604052508101906121909190612fd7565b6121cf576040517f08c379a00000000000000000000000000000000000000000000000000000000081526004016121c690613050565b60405180910390fd5b600033905060004290506000606c600085815260200190815260200160002060008473ffffffffffffffffffffffffffffffffffffffff1673ffffffffffffffffffffffffffffffffffffffff168152602001908152602001600020905061229b816040518060800160405290816000820154815260200160018201548152602001600282015481526020016003820160009054906101000a900460ff16600281111561227f5761227e612cfa565b5b600281111561229157612290612cfa565b5b8152505083612530565b60028160030160006101000a81548160ff021916908360028111156122c3576122c2612cfa565b5b0217905550818160010181905550838373ffffffffffffffffffffffffffffffffffffffff167f443e4201d903241cf148c6c3e65518d8b3c9d8acc98a92825c67f853f230af5e60405160405180910390a350505050565b60006002808111156123305761232f612cfa565b5b606c600085815260200190815260200160002060008473ffffffffffffffffffffffffffffffffffffffff1673ffffffffffffffffffffffffffffffffffffffff16815260200190815260200160002060030160009054906101000a900460ff1660028111156123a3576123a2612cfa565b5b14905092915050565b606560009054906101000a900473ffffffffffffffffffffffffffffffffffffffff1681565b6000606660008373ffffffffffffffffffffffffffffffffffffffff1673ffffffffffffffffffffffffffffffffffffffff168152602001908152602001600020805490509050919050565b612426612528565b73ffffffffffffffffffffffffffffffffffffffff166124446119db565b73ffffffffffffffffffffffffffffffffffffffff161461249a576040517f08c379a0000000000000000000000000000000000000000000000000000000008152600401612491906132b7565b60405180910390fd5b600073ffffffffffffffffffffffffffffffffffffffff168173ffffffffffffffffffffffffffffffffffffffff1603612509576040517f08c379a000000000000000000000000000000000000000000000000000000000815260040161250090613722565b60405180910390fd5b61251281612673565b50565b606b60009054906101000a900460ff1681565b600033905090565b6000600281111561254457612543612cfa565b5b8260600151600281111561255b5761255a612cfa565b5b0361259b576040517f08c379a0000000000000000000000000000000000000000000000000000000008152600401612592906137b4565b60405180910390fd5b808260200151106125e1576040517f08c379a00000000000000000000000000000000000000000000000000000000081526004016125d890613846565b60405180910390fd5b42811115612624576040517f08c379a000000000000000000000000000000000000000000000000000000000815260040161261b906138d8565b60405180910390fd5b5050565b816040015181101561266f576040517f08c379a00000000000000000000000000000000000000000000000000000000081526004016126669061396a565b60405180910390fd5b5050565b6000603360009054906101000a900473ffffffffffffffffffffffffffffffffffffffff16905081603360006101000a81548173ffffffffffffffffffffffffffffffffffffffff021916908373ffffffffffffffffffffffffffffffffffffffff1602179055508173ffffffffffffffffffffffffffffffffffffffff168173ffffffffffffffffffffffffffffffffffffffff167f8be0079c531659141344cd1fd0a4f28419497f9722a3daafe3b4186f6b6457e060405160405180910390a35050565b6000612744306127a3565b15905090565b600060019054906101000a900460ff16612799576040517f08c379a0000000000000000000000000000000000000000000000000000000008152600401612790906139fc565b60405180910390fd5b6127a16127c6565b565b6000808273ffffffffffffffffffffffffffffffffffffffff163b119050919050565b600060019054906101000a900460ff16612815576040517f08c379a000000000000000000000000000000000000000000000000000000000815260040161280c906139fc565b60405180910390fd5b612825612820612528565b612673565b565b600080fd5b6000819050919050565b61283f8161282c565b811461284a57600080fd5b50565b60008135905061285c81612836565b92915050565b6000819050919050565b61287581612862565b811461288057600080fd5b50565b6000813590506128928161286c565b92915050565b600080604083850312156128af576128ae612827565b5b60006128bd8582860161284d565b92505060206128ce85828601612883565b9150509250929050565b600073ffffffffffffffffffffffffffffffffffffffff82169050919050565b6000612903826128d8565b9050919050565b612913816128f8565b811461291e57600080fd5b50565b6000813590506129308161290a565b92915050565b6000806040838503121561294d5761294c612827565b5b600061295b85828601612921565b925050602061296c8582860161284d565b9150509250929050565b61297f8161282c565b82525050565b600060208201905061299a6000830184612976565b92915050565b6000602082840312156129b6576129b5612827565b5b60006129c484828501612883565b91505092915050565b6000602082840312156129e3576129e2612827565b5b60006129f184828501612921565b91505092915050565b60008060408385031215612a1157612a10612827565b5b6000612a1f85828601612883565b9250506020612a3085828601612921565b9150509250929050565b60008115159050919050565b612a4f81612a3a565b82525050565b6000602082019050612a6a6000830184612a46565b92915050565b600060208284031215612a8657612a85612827565b5b6000612a948482850161284d565b91505092915050565b612aa6816128f8565b82525050565b612ab581612862565b82525050565b600060a082019050612ad06000830188612976565b612add6020830187612a9d565b612aea6040830186612aac565b612af76060830185612aac565b612b046080830184612aac565b9695505050505050565b60008060008060808587031215612b2857612b27612827565b5b6000612b3687828801612883565b9450506020612b478782880161284d565b9350506040612b5887828801612883565b9250506060612b698782880161284d565b91505092959194509250565b600080600060608486031215612b8e57612b8d612827565b5b6000612b9c8682870161284d565b9350506020612bad86828701612883565b9250506040612bbe86828701612883565b9150509250925092565b612bd181612a3a565b8114612bdc57600080fd5b50565b600081359050612bee81612bc8565b92915050565b600060208284031215612c0a57612c09612827565b5b6000612c1884828501612bdf565b91505092915050565b6000602082019050612c366000830184612a9d565b92915050565b600080600060608486031215612c5557612c54612827565b5b6000612c6386828701612883565b9350506020612c7486828701612883565b9250506040612c8586828701612883565b9150509250925092565b6000612c9a826128f8565b9050919050565b612caa81612c8f565b8114612cb557600080fd5b50565b600081359050612cc781612ca1565b92915050565b600060208284031215612ce357612ce2612827565b5b6000612cf184828501612cb8565b91505092915050565b7f4e487b7100000000000000000000000000000000000000000000000000000000600052602160045260246000fd5b60038110612d3a57612d39612cfa565b5b50565b6000819050612d4b82612d29565b919050565b6000612d5b82612d3d565b9050919050565b612d6b81612d50565b82525050565b6000608082019050612d866000830187612aac565b612d936020830186612976565b612da06040830185612976565b612dad6060830184612d62565b95945050505050565b6000819050919050565b6000612ddb612dd6612dd1846128d8565b612db6565b6128d8565b9050919050565b6000612ded82612dc0565b9050919050565b6000612dff82612de2565b9050919050565b612e0f81612df4565b82525050565b6000602082019050612e2a6000830184612e06565b92915050565b600082825260208201905092915050565b7f41646472657373206973206e6f7420617574686f726973656420746f206f706560008201527f726174652071756572792070726f6a6563740000000000000000000000000000602082015250565b6000612e9d603283612e30565b9150612ea882612e41565b604082019050919050565b60006020820190508181036000830152612ecc81612e90565b9050919050565b7f6e6f207065726d697373696f6e20746f2075706461746520717565727920707260008201527f6f6a656374206d65746164617461000000000000000000000000000000000000602082015250565b6000612f2f602e83612e30565b9150612f3a82612ed3565b604082019050919050565b60006020820190508181036000830152612f5e81612f22565b9050919050565b6000602082019050612f7a6000830184612aac565b92915050565b600081519050612f8f8161290a565b92915050565b600060208284031215612fab57612faa612827565b5b6000612fb984828501612f80565b91505092915050565b600081519050612fd181612bc8565b92915050565b600060208284031215612fed57612fec612827565b5b6000612ffb84828501612fc2565b91505092915050565b7f63616c6c6572206973206e6f7420616e20696e64657865720000000000000000600082015250565b600061303a601883612e30565b915061304582613004565b602082019050919050565b600060208201905081810360008301526130698161302d565b9050919050565b7f63616e206e6f742073746f7020696e646578696e6720666f72204e4f54494e4460008201527f4558494e47207365727669636573000000000000000000000000000000000000602082015250565b60006130cc602e83612e30565b91506130d782613070565b604082019050919050565b600060208201905081810360008301526130fb816130bf565b9050919050565b60006040820190506131176000830185612a9d565b6131246020830184612aac565b9392505050565b7f63616e6e6f742073746f7020696e646578696e67207769746820616e206f6e6760008201527f6f696e6720736572766963652061677265656d656e7400000000000000000000602082015250565b6000613187603683612e30565b91506131928261312b565b604082019050919050565b600060208201905081810360008301526131b68161317a565b9050919050565b7f4e487b7100000000000000000000000000000000000000000000000000000000600052601160045260246000fd5b60006131f78261282c565b91506000820361320a576132096131bd565b5b600182039050919050565b60006132208261282c565b915061322b8361282c565b9250827fffffffffffffffffffffffffffffffffffffffffffffffffffffffffffffffff038211156132605761325f6131bd565b5b828201905092915050565b7f4f776e61626c653a2063616c6c6572206973206e6f7420746865206f776e6572600082015250565b60006132a1602083612e30565b91506132ac8261326b565b602082019050919050565b600060208201905081810360008301526132d081613294565b9050919050565b7f63616c6c6572206973206e6f74206120636f6e74726f6c6c6572000000000000600082015250565b600061330d601a83612e30565b9150613318826132d7565b602082019050919050565b6000602082019050818103600083015261333c81613300565b9050919050565b60006060820190506133586000830186612976565b6133656020830185612aac565b6133726040830184612976565b949350505050565b7f6e6f207065726d697373696f6e20746f2075706461746520717565727920707260008201527f6f6a656374206465706c6f796d656e7400000000000000000000000000000000602082015250565b60006133d6603083612e30565b91506133e18261337a565b604082019050919050565b60006020820190508181036000830152613405816133c9565b9050919050565b7f4465706c6f796d656e7420496420616c72656164792072656769737465726564600082015250565b6000613442602083612e30565b915061344d8261340c565b602082019050919050565b6000602082019050818103600083015261347181613435565b9050919050565b600060408201905061348d6000830185612aac565b61349a6020830184612aac565b9392505050565b7f696e646578696e67207374617475732073686f756c64206265204e4f54494e4460008201527f4558494e47207374617475730000000000000000000000000000000000000000602082015250565b60006134fd602c83612e30565b9150613508826134a1565b604082019050919050565b6000602082019050818103600083015261352c816134f0565b9050919050565b7f4465706c6f796d656e74204964206e6f74207265676973746572656400000000600082015250565b6000613569601c83612e30565b915061357482613533565b602082019050919050565b600060208201905081810360008301526135988161355c565b9050919050565b60006135aa8261282c565b91507fffffffffffffffffffffffffffffffffffffffffffffffffffffffffffffffff82036135dc576135db6131bd565b5b600182019050919050565b60006060820190506135fc6000830186612aac565b6136096020830185612aac565b6136166040830184612aac565b949350505050565b7f496e697469616c697a61626c653a20636f6e747261637420697320616c72656160008201527f647920696e697469616c697a6564000000000000000000000000000000000000602082015250565b600061367a602e83612e30565b91506136858261361e565b604082019050919050565b600060208201905081810360008301526136a98161366d565b9050919050565b7f4f776e61626c653a206e6577206f776e657220697320746865207a65726f206160008201527f6464726573730000000000000000000000000000000000000000000000000000602082015250565b600061370c602683612e30565b9150613717826136b0565b604082019050919050565b6000602082019050818103600083015261373b816136ff565b9050919050565b7f63616e206e6f74207570646174652073746174757320666f72204e4f54494e4460008201527f4558494e47207365727669636573000000000000000000000000000000000000602082015250565b600061379e602e83612e30565b91506137a982613742565b604082019050919050565b600060208201905081810360008301526137cd81613791565b9050919050565b7f6f6e6c792074696d657374616d7020746861742069732061667465722070726560008201527f76696f75732074696d657374616d702069732076616c69640000000000000000602082015250565b6000613830603883612e30565b915061383b826137d4565b604082019050919050565b6000602082019050818103600083015261385f81613823565b9050919050565b7f74696d657374616d702063616e6e6f7420626520696e2074686520667574757260008201527f6500000000000000000000000000000000000000000000000000000000000000602082015250565b60006138c2602183612e30565b91506138cd82613866565b604082019050919050565b600060208201905081810360008301526138f1816138b5565b9050919050565b7f63616e206e6f742075706461746520737461747573207768656e20626c6f636b60008201527f686569676874207375626d6974746564203c2063757272656e742076616c7565602082015250565b6000613954604083612e30565b915061395f826138f8565b604082019050919050565b6000602082019050818103600083015261398381613947565b9050919050565b7f496e697469616c697a61626c653a20636f6e7472616374206973206e6f74206960008201527f6e697469616c697a696e67000000000000000000000000000000000000000000602082015250565b60006139e6602b83612e30565b91506139f18261398a565b604082019050919050565b60006020820190508181036000830152613a15816139d9565b905091905056fea264697066735822122009ee717f569c106f305d9fbfc39e5beb58260a6ddfead7fad16ee38f0a80b40d64736f6c634300080f0033",
  "linkReferences": {},
  "deployedLinkReferences": {}
}