{
  "_format": "hh-sol-artifact-1",
  "contractName": "ServiceAgreementRegistry",
  "sourceName": "contracts/ServiceAgreementRegistry.sol",
  "abi": [
    {
      "anonymous": false,
      "inputs": [
        {
          "indexed": true,
          "internalType": "address",
          "name": "consumer",
          "type": "address"
        },
        {
          "indexed": true,
          "internalType": "address",
          "name": "indexer",
          "type": "address"
        },
        {
          "indexed": true,
          "internalType": "bytes32",
          "name": "deploymentId",
          "type": "bytes32"
        },
        {
          "indexed": false,
          "internalType": "uint256",
          "name": "serviceAgreementId",
          "type": "uint256"
        }
      ],
      "name": "ClosedAgreementCreated",
      "type": "event"
    },
    {
      "anonymous": false,
      "inputs": [
        {
          "indexed": true,
          "internalType": "address",
          "name": "consumer",
          "type": "address"
        },
        {
          "indexed": true,
          "internalType": "address",
          "name": "indexer",
          "type": "address"
        },
        {
          "indexed": true,
          "internalType": "bytes32",
          "name": "deploymentId",
          "type": "bytes32"
        },
        {
          "indexed": false,
          "internalType": "uint256",
          "name": "serviceAgreementId",
          "type": "uint256"
        }
      ],
      "name": "ClosedAgreementRemoved",
      "type": "event"
    },
    {
      "anonymous": false,
      "inputs": [
        {
          "indexed": true,
          "internalType": "address",
          "name": "previousOwner",
          "type": "address"
        },
        {
          "indexed": true,
          "internalType": "address",
          "name": "newOwner",
          "type": "address"
        }
      ],
      "name": "OwnershipTransferred",
      "type": "event"
    },
    {
      "inputs": [],
      "name": "PER_BILL",
      "outputs": [
        {
          "internalType": "uint256",
          "name": "",
          "type": "uint256"
        }
      ],
      "stateMutability": "view",
      "type": "function"
    },
    {
      "inputs": [],
      "name": "PER_MILL",
      "outputs": [
        {
          "internalType": "uint256",
          "name": "",
          "type": "uint256"
        }
      ],
      "stateMutability": "view",
      "type": "function"
    },
    {
      "inputs": [],
      "name": "PER_TRILL",
      "outputs": [
        {
          "internalType": "uint256",
          "name": "",
          "type": "uint256"
        }
      ],
      "stateMutability": "view",
      "type": "function"
    },
    {
      "inputs": [],
      "name": "ZERO_ADDRESS",
      "outputs": [
        {
          "internalType": "address",
          "name": "",
          "type": "address"
        }
      ],
      "stateMutability": "view",
      "type": "function"
    },
    {
      "inputs": [
        {
          "internalType": "address",
          "name": "establisher",
          "type": "address"
        }
      ],
      "name": "addEstablisher",
      "outputs": [],
      "stateMutability": "nonpayable",
      "type": "function"
    },
    {
      "inputs": [
        {
          "internalType": "address",
          "name": "consumer",
          "type": "address"
        },
        {
          "internalType": "address",
          "name": "user",
          "type": "address"
        }
      ],
      "name": "addUser",
      "outputs": [],
      "stateMutability": "nonpayable",
      "type": "function"
    },
    {
      "inputs": [
        {
          "internalType": "address",
          "name": "indexer",
          "type": "address"
        }
      ],
      "name": "clearAllEndedAgreements",
      "outputs": [],
      "stateMutability": "nonpayable",
      "type": "function"
    },
    {
      "inputs": [
        {
          "internalType": "address",
          "name": "indexer",
          "type": "address"
        },
        {
          "internalType": "uint256",
          "name": "id",
          "type": "uint256"
        }
      ],
      "name": "clearEndedAgreement",
      "outputs": [],
      "stateMutability": "nonpayable",
      "type": "function"
    },
    {
      "inputs": [
        {
          "internalType": "uint256",
          "name": "agreementId",
          "type": "uint256"
        }
      ],
      "name": "closedServiceAgreementExpired",
      "outputs": [
        {
          "internalType": "bool",
          "name": "",
          "type": "bool"
        }
      ],
      "stateMutability": "view",
      "type": "function"
    },
    {
      "inputs": [
        {
          "internalType": "address",
          "name": "",
          "type": "address"
        },
        {
          "internalType": "uint256",
          "name": "",
          "type": "uint256"
        }
      ],
      "name": "closedServiceAgreementIds",
      "outputs": [
        {
          "internalType": "uint256",
          "name": "",
          "type": "uint256"
        }
      ],
      "stateMutability": "view",
      "type": "function"
    },
    {
      "inputs": [
        {
          "internalType": "address",
          "name": "",
          "type": "address"
        },
        {
          "internalType": "address",
          "name": "",
          "type": "address"
        }
      ],
      "name": "consumerAuthAllows",
      "outputs": [
        {
          "internalType": "bool",
          "name": "",
          "type": "bool"
        }
      ],
      "stateMutability": "view",
      "type": "function"
    },
    {
      "inputs": [
        {
          "components": [
            {
              "internalType": "address",
              "name": "consumer",
              "type": "address"
            },
            {
              "internalType": "address",
              "name": "indexer",
              "type": "address"
            },
            {
              "internalType": "bytes32",
              "name": "deploymentId",
              "type": "bytes32"
            },
            {
              "internalType": "uint256",
              "name": "lockedAmount",
              "type": "uint256"
            },
            {
              "internalType": "uint256",
              "name": "startDate",
              "type": "uint256"
            },
            {
              "internalType": "uint256",
              "name": "period",
              "type": "uint256"
            },
            {
              "internalType": "uint256",
              "name": "planId",
              "type": "uint256"
            },
            {
              "internalType": "uint256",
              "name": "planTemplateId",
              "type": "uint256"
            }
          ],
          "internalType": "struct ClosedServiceAgreementInfo",
          "name": "agreement",
          "type": "tuple"
        }
      ],
      "name": "createClosedServiceAgreement",
      "outputs": [
        {
          "internalType": "uint256",
          "name": "",
          "type": "uint256"
        }
      ],
      "stateMutability": "nonpayable",
      "type": "function"
    },
    {
      "inputs": [
        {
          "internalType": "uint256",
          "name": "agreementId",
          "type": "uint256"
        }
      ],
      "name": "establishServiceAgreement",
      "outputs": [],
      "stateMutability": "nonpayable",
      "type": "function"
    },
    {
      "inputs": [
        {
          "internalType": "address",
          "name": "",
          "type": "address"
        }
      ],
      "name": "establisherWhitelist",
      "outputs": [
        {
          "internalType": "bool",
          "name": "",
          "type": "bool"
        }
      ],
      "stateMutability": "view",
      "type": "function"
    },
    {
      "inputs": [
        {
          "internalType": "uint256",
          "name": "agreementId",
          "type": "uint256"
        }
      ],
      "name": "getClosedServiceAgreement",
      "outputs": [
        {
          "components": [
            {
              "internalType": "address",
              "name": "consumer",
              "type": "address"
            },
            {
              "internalType": "address",
              "name": "indexer",
              "type": "address"
            },
            {
              "internalType": "bytes32",
              "name": "deploymentId",
              "type": "bytes32"
            },
            {
              "internalType": "uint256",
              "name": "lockedAmount",
              "type": "uint256"
            },
            {
              "internalType": "uint256",
              "name": "startDate",
              "type": "uint256"
            },
            {
              "internalType": "uint256",
              "name": "period",
              "type": "uint256"
            },
            {
              "internalType": "uint256",
              "name": "planId",
              "type": "uint256"
            },
            {
              "internalType": "uint256",
              "name": "planTemplateId",
              "type": "uint256"
            }
          ],
          "internalType": "struct ClosedServiceAgreementInfo",
          "name": "",
          "type": "tuple"
        }
      ],
      "stateMutability": "view",
      "type": "function"
    },
    {
      "inputs": [
        {
          "internalType": "address",
          "name": "indexer",
          "type": "address"
        },
        {
          "internalType": "bytes32",
          "name": "deploymentId",
          "type": "bytes32"
        }
      ],
      "name": "hasOngoingClosedServiceAgreement",
      "outputs": [
        {
          "internalType": "bool",
          "name": "",
          "type": "bool"
        }
      ],
      "stateMutability": "view",
      "type": "function"
    },
    {
      "inputs": [
        {
          "internalType": "address",
          "name": "",
          "type": "address"
        }
      ],
      "name": "indexerCsaLength",
      "outputs": [
        {
          "internalType": "uint256",
          "name": "",
          "type": "uint256"
        }
      ],
      "stateMutability": "view",
      "type": "function"
    },
    {
      "inputs": [
        {
          "internalType": "address",
          "name": "",
          "type": "address"
        },
        {
          "internalType": "bytes32",
          "name": "",
          "type": "bytes32"
        }
      ],
      "name": "indexerDeploymentCsaLength",
      "outputs": [
        {
          "internalType": "uint256",
          "name": "",
          "type": "uint256"
        }
      ],
      "stateMutability": "view",
      "type": "function"
    },
    {
      "inputs": [
        {
          "internalType": "contract ISettings",
          "name": "_settings",
          "type": "address"
        },
        {
          "internalType": "address[]",
          "name": "_whitelist",
          "type": "address[]"
        }
      ],
      "name": "initialize",
      "outputs": [],
      "stateMutability": "nonpayable",
      "type": "function"
    },
    {
      "inputs": [],
      "name": "nextServiceAgreementId",
      "outputs": [
        {
          "internalType": "uint256",
          "name": "",
          "type": "uint256"
        }
      ],
      "stateMutability": "view",
      "type": "function"
    },
    {
      "inputs": [],
      "name": "owner",
      "outputs": [
        {
          "internalType": "address",
          "name": "",
          "type": "address"
        }
      ],
      "stateMutability": "view",
      "type": "function"
    },
    {
      "inputs": [
        {
          "internalType": "address",
          "name": "establisher",
          "type": "address"
        }
      ],
      "name": "removeEstablisher",
      "outputs": [],
      "stateMutability": "nonpayable",
      "type": "function"
    },
    {
      "inputs": [
        {
          "internalType": "address",
          "name": "consumer",
          "type": "address"
        },
        {
          "internalType": "address",
          "name": "user",
          "type": "address"
        }
      ],
      "name": "removeUser",
      "outputs": [],
      "stateMutability": "nonpayable",
      "type": "function"
    },
    {
      "inputs": [
        {
          "internalType": "uint256",
          "name": "agreementId",
          "type": "uint256"
        }
      ],
      "name": "renewAgreement",
      "outputs": [],
      "stateMutability": "nonpayable",
      "type": "function"
    },
    {
      "inputs": [],
      "name": "renounceOwnership",
      "outputs": [],
      "stateMutability": "nonpayable",
      "type": "function"
    },
    {
      "inputs": [
        {
          "internalType": "contract ISettings",
          "name": "_settings",
          "type": "address"
        }
      ],
      "name": "setSettings",
      "outputs": [],
      "stateMutability": "nonpayable",
      "type": "function"
    },
    {
      "inputs": [
        {
          "internalType": "uint256",
          "name": "_threshold",
          "type": "uint256"
        }
      ],
      "name": "setThreshold",
      "outputs": [],
      "stateMutability": "nonpayable",
      "type": "function"
    },
    {
      "inputs": [],
      "name": "settings",
      "outputs": [
        {
          "internalType": "contract ISettings",
          "name": "",
          "type": "address"
        }
      ],
      "stateMutability": "view",
      "type": "function"
    },
    {
      "inputs": [
        {
          "internalType": "address",
          "name": "",
          "type": "address"
        }
      ],
      "name": "sumDailyReward",
      "outputs": [
        {
          "internalType": "uint256",
          "name": "",
          "type": "uint256"
        }
      ],
      "stateMutability": "view",
      "type": "function"
    },
    {
      "inputs": [],
      "name": "threshold",
      "outputs": [
        {
          "internalType": "uint256",
          "name": "",
          "type": "uint256"
        }
      ],
      "stateMutability": "view",
      "type": "function"
    },
    {
      "inputs": [
        {
          "internalType": "address",
          "name": "newOwner",
          "type": "address"
        }
      ],
      "name": "transferOwnership",
      "outputs": [],
      "stateMutability": "nonpayable",
      "type": "function"
    }
  ],
  "bytecode": "0x608060405234801561001057600080fd5b50614238806100206000396000f3fe608060405234801561001057600080fd5b50600436106101e55760003560e01c8063715018a61161010f5780639e66d843116100a2578063e06174e411610071578063e06174e41461057a578063f19f230314610598578063f2fde38b146105c8578063fedd3ea8146105e4576101e5565b80639e66d843146104ce578063a01d3c2c146104fe578063b019fb601461051a578063ba7177891461054a576101e5565b80638da5cb5b116100de5780638da5cb5b1461045c578063946d92041461047a57806394f8f46914610496578063960bfe04146104b2576101e5565b8063715018a6146103d65780637217158f146103e05780638c0f4553146104105780638ca3b44814610440576101e5565b806342cde4e811610187578063538ba4f911610156578063538ba4f91461034e578063578e198c1461036c57806365d4e7701461039c5780636958c860146103ba576101e5565b806342cde4e8146102da57806348ba6843146102f85780634aa83d0e1461031457806352e0463e14610332576101e5565b806322928d6b116101c357806322928d6b1461024257806329a4ddb01461025e578063329bd36d1461027a5780633fc1f642146102aa576101e5565b806304460903146101ea578063080511991461020857806308def16214610224575b600080fd5b6101f2610614565b6040516101ff9190612fc2565b60405180910390f35b610222600480360381019061021d919061301d565b61061b565b005b61022c611048565b6040516102399190612fc2565b60405180910390f35b61025c600480360381019061025791906130a8565b611051565b005b610278600480360381019061027391906130e8565b611158565b005b610294600480360381019061028f91906130a8565b61122f565b6040516102a19190613130565b60405180910390f35b6102c460048036038101906102bf9190613181565b61125e565b6040516102d19190613130565b60405180910390f35b6102e26112bb565b6040516102ef9190612fc2565b60405180910390f35b610312600480360381019061030d91906131c1565b6112c1565b005b61031c6118e7565b6040516103299190612fc2565b60405180910390f35b61034c6004803603810190610347919061301d565b6118ef565b005b610356611f4f565b6040516103639190613210565b60405180910390f35b610386600480360381019061038191906130e8565b611f54565b6040516103939190612fc2565b60405180910390f35b6103a4611f6c565b6040516103b19190612fc2565b60405180910390f35b6103d460048036038101906103cf91906130e8565b611f72565b005b6103de612195565b005b6103fa60048036038101906103f59190613386565b61221d565b6040516104079190612fc2565b60405180910390f35b61042a600480360381019061042591906130e8565b6123ec565b6040516104379190613130565b60405180910390f35b61045a600480360381019061045591906130a8565b61240c565b005b610464612513565b6040516104719190613210565b60405180910390f35b610494600480360381019061048f9190613457565b61253d565b005b6104b060048036038101906104ab91906130e8565b612716565b005b6104cc60048036038101906104c7919061301d565b6127ed565b005b6104e860048036038101906104e39190613181565b612886565b6040516104f59190612fc2565b60405180910390f35b610518600480360381019061051391906134b7565b6128ab565b005b610534600480360381019061052f919061301d565b61296b565b60405161054191906135b3565b60405180910390f35b610564600480360381019061055f91906130e8565b612a81565b6040516105719190612fc2565b60405180910390f35b610582612a99565b60405161058f919061362e565b60405180910390f35b6105b260048036038101906105ad91906131c1565b612abf565b6040516105bf9190612fc2565b60405180910390f35b6105e260048036038101906105dd91906130e8565b612ae4565b005b6105fe60048036038101906105f9919061301d565b612bdb565b60405161060b9190613130565b60405180910390f35b620f424081565b3073ffffffffffffffffffffffffffffffffffffffff163373ffffffffffffffffffffffffffffffffffffffff16146106db57606b60003373ffffffffffffffffffffffffffffffffffffffff1673ffffffffffffffffffffffffffffffffffffffff16815260200190815260200160002060009054906101000a900460ff166106da576040517f08c379a00000000000000000000000000000000000000000000000000000000081526004016106d1906136a6565b60405180910390fd5b5b600060676000838152602001908152602001600020604051806101000160405290816000820160009054906101000a900473ffffffffffffffffffffffffffffffffffffffff1673ffffffffffffffffffffffffffffffffffffffff1673ffffffffffffffffffffffffffffffffffffffff1681526020016001820160009054906101000a900473ffffffffffffffffffffffffffffffffffffffff1673ffffffffffffffffffffffffffffffffffffffff1673ffffffffffffffffffffffffffffffffffffffff16815260200160028201548152602001600382015481526020016004820154815260200160058201548152602001600682015481526020016007820154815250509050600073ffffffffffffffffffffffffffffffffffffffff16816000015173ffffffffffffffffffffffffffffffffffffffff1603610859576040517f08c379a000000000000000000000000000000000000000000000000000000000815260040161085090613712565b60405180910390fd5b600081602001519050600082600001519050600083604001519050606560009054906101000a900473ffffffffffffffffffffffffffffffffffffffff1673ffffffffffffffffffffffffffffffffffffffff16631e1ea0eb6040518163ffffffff1660e01b8152600401602060405180830381865afa1580156108e1573d6000803e3d6000fd5b505050506040513d601f19601f820116820180604052508101906109059190613747565b73ffffffffffffffffffffffffffffffffffffffff1663d56292d282856040518363ffffffff1660e01b815260040161093f929190613783565b602060405180830381865afa15801561095c573d6000803e3d6000fd5b505050506040513d601f19601f8201168201806040525081019061098091906137d8565b6109bf576040517f08c379a00000000000000000000000000000000000000000000000000000000081526004016109b690613877565b60405180910390fd5b6000606560009054906101000a900473ffffffffffffffffffffffffffffffffffffffff1673ffffffffffffffffffffffffffffffffffffffff16637b1391a66040518163ffffffff1660e01b8152600401602060405180830381865afa158015610a2e573d6000803e3d6000fd5b505050506040513d601f19601f82011682018060405250810190610a529190613747565b905060008173ffffffffffffffffffffffffffffffffffffffff1663e9260898866040518263ffffffff1660e01b8152600401610a8f9190613210565b602060405180830381865afa158015610aac573d6000803e3d6000fd5b505050506040513d601f19601f82011682018060405250810190610ad091906138ac565b90506000866060015190506000610aea8860a00151612d05565b90508082610af89190613937565b606c60008973ffffffffffffffffffffffffffffffffffffffff1673ffffffffffffffffffffffffffffffffffffffff1681526020019081526020016000206000828254610b469190613968565b92505081905550610b9c606c60008973ffffffffffffffffffffffffffffffffffffffff1673ffffffffffffffffffffffffffffffffffffffff16815260200190815260200160002054606e54620f4240612d2f565b831015610bde576040517f08c379a0000000000000000000000000000000000000000000000000000000008152600401610bd590613a30565b60405180910390fd5b88606860008973ffffffffffffffffffffffffffffffffffffffff1673ffffffffffffffffffffffffffffffffffffffff1681526020019081526020016000206000606960008b73ffffffffffffffffffffffffffffffffffffffff1673ffffffffffffffffffffffffffffffffffffffff168152602001908152602001600020548152602001908152602001600020819055506001606960008973ffffffffffffffffffffffffffffffffffffffff1673ffffffffffffffffffffffffffffffffffffffff1681526020019081526020016000206000828254610cc29190613968565b925050819055506001606a60008973ffffffffffffffffffffffffffffffffffffffff1673ffffffffffffffffffffffffffffffffffffffff16815260200190815260200160002060008781526020019081526020016000206000828254610d2a9190613968565b925050819055506000606560009054906101000a900473ffffffffffffffffffffffffffffffffffffffff1673ffffffffffffffffffffffffffffffffffffffff1663afc1aaca6040518163ffffffff1660e01b8152600401602060405180830381865afa158015610da0573d6000803e3d6000fd5b505050506040513d601f19601f82011682018060405250810190610dc49190613747565b90508073ffffffffffffffffffffffffffffffffffffffff1663095ea7b3606560009054906101000a900473ffffffffffffffffffffffffffffffffffffffff1673ffffffffffffffffffffffffffffffffffffffff166373589db36040518163ffffffff1660e01b8152600401602060405180830381865afa158015610e4f573d6000803e3d6000fd5b505050506040513d601f19601f82011682018060405250810190610e739190613747565b856040518363ffffffff1660e01b8152600401610e91929190613a50565b6020604051808303816000875af1158015610eb0573d6000803e3d6000fd5b505050506040513d601f19601f82011682018060405250810190610ed491906137d8565b506000606560009054906101000a900473ffffffffffffffffffffffffffffffffffffffff1673ffffffffffffffffffffffffffffffffffffffff166373589db36040518163ffffffff1660e01b8152600401602060405180830381865afa158015610f44573d6000803e3d6000fd5b505050506040513d601f19601f82011682018060405250810190610f689190613747565b90508073ffffffffffffffffffffffffffffffffffffffff1663d7b26a118c6040518263ffffffff1660e01b8152600401610fa39190612fc2565b600060405180830381600087803b158015610fbd57600080fd5b505af1158015610fd1573d6000803e3d6000fd5b50505050868973ffffffffffffffffffffffffffffffffffffffff168973ffffffffffffffffffffffffffffffffffffffff167f290e4e0d9e2fe42eec12d9636d08cf20aa3d81b14bbc9d9f3e13ae93fa7173a48e6040516110339190612fc2565b60405180910390a45050505050505050505050565b64e8d4a5100081565b8173ffffffffffffffffffffffffffffffffffffffff163373ffffffffffffffffffffffffffffffffffffffff16146110bf576040517f08c379a00000000000000000000000000000000000000000000000000000000081526004016110b690613ac5565b60405180910390fd5b6000606d60008373ffffffffffffffffffffffffffffffffffffffff1673ffffffffffffffffffffffffffffffffffffffff16815260200190815260200160002060008473ffffffffffffffffffffffffffffffffffffffff1673ffffffffffffffffffffffffffffffffffffffff16815260200190815260200160002060006101000a81548160ff0219169083151502179055505050565b611160612d51565b73ffffffffffffffffffffffffffffffffffffffff1661117e612513565b73ffffffffffffffffffffffffffffffffffffffff16146111d4576040517f08c379a00000000000000000000000000000000000000000000000000000000081526004016111cb90613b31565b60405180910390fd5b6000606b60008373ffffffffffffffffffffffffffffffffffffffff1673ffffffffffffffffffffffffffffffffffffffff16815260200190815260200160002060006101000a81548160ff02191690831515021790555050565b606d6020528160005260406000206020528060005260406000206000915091509054906101000a900460ff1681565b600080606a60008573ffffffffffffffffffffffffffffffffffffffff1673ffffffffffffffffffffffffffffffffffffffff16815260200190815260200160002060008481526020019081526020016000205411905092915050565b606e5481565b606960008373ffffffffffffffffffffffffffffffffffffffff1673ffffffffffffffffffffffffffffffffffffffff168152602001908152602001600020548110611342576040517f08c379a000000000000000000000000000000000000000000000000000000000815260040161133990613712565b60405180910390fd5b6000606860008473ffffffffffffffffffffffffffffffffffffffff1673ffffffffffffffffffffffffffffffffffffffff1681526020019081526020016000206000838152602001908152602001600020549050600060676000838152602001908152602001600020604051806101000160405290816000820160009054906101000a900473ffffffffffffffffffffffffffffffffffffffff1673ffffffffffffffffffffffffffffffffffffffff1673ffffffffffffffffffffffffffffffffffffffff1681526020016001820160009054906101000a900473ffffffffffffffffffffffffffffffffffffffff1673ffffffffffffffffffffffffffffffffffffffff1673ffffffffffffffffffffffffffffffffffffffff16815260200160028201548152602001600382015481526020016004820154815260200160058201548152602001600682015481526020016007820154815250509050600073ffffffffffffffffffffffffffffffffffffffff16816000015173ffffffffffffffffffffffffffffffffffffffff1603611515576040517f08c379a000000000000000000000000000000000000000000000000000000000815260040161150c90613712565b60405180910390fd5b8060a0015181608001516115299190613968565b421161156a576040517f08c379a000000000000000000000000000000000000000000000000000000000815260040161156190613b9d565b60405180910390fd5b60008160600151905060006115828360a00151612d05565b90506115d8606c60008873ffffffffffffffffffffffffffffffffffffffff1673ffffffffffffffffffffffffffffffffffffffff1681526020019081526020016000205482846115d39190613937565b612d59565b606c60008873ffffffffffffffffffffffffffffffffffffffff1673ffffffffffffffffffffffffffffffffffffffff16815260200190815260200160002081905550606860008773ffffffffffffffffffffffffffffffffffffffff1673ffffffffffffffffffffffffffffffffffffffff16815260200190815260200160002060006001606960008a73ffffffffffffffffffffffffffffffffffffffff1673ffffffffffffffffffffffffffffffffffffffff168152602001908152602001600020546116a89190613bbd565b815260200190815260200160002054606860008873ffffffffffffffffffffffffffffffffffffffff1673ffffffffffffffffffffffffffffffffffffffff168152602001908152602001600020600087815260200190815260200160002081905550606860008773ffffffffffffffffffffffffffffffffffffffff1673ffffffffffffffffffffffffffffffffffffffff16815260200190815260200160002060006001606960008a73ffffffffffffffffffffffffffffffffffffffff1673ffffffffffffffffffffffffffffffffffffffff168152602001908152602001600020546117989190613bbd565b8152602001908152602001600020600090556001606960008873ffffffffffffffffffffffffffffffffffffffff1673ffffffffffffffffffffffffffffffffffffffff16815260200190815260200160002060008282546117fa9190613bbd565b925050819055506001606a60008873ffffffffffffffffffffffffffffffffffffffff1673ffffffffffffffffffffffffffffffffffffffff16815260200190815260200160002060008560400151815260200190815260200160002060008282546118669190613bbd565b925050819055508260400151836020015173ffffffffffffffffffffffffffffffffffffffff16846000015173ffffffffffffffffffffffffffffffffffffffff167f9909f05e6fefc277d4e3f0810aeb790cb25f9816df42b7c3e9d3fb5976d76ecf876040516118d79190612fc2565b60405180910390a4505050505050565b633b9aca0081565b600060676000838152602001908152602001600020604051806101000160405290816000820160009054906101000a900473ffffffffffffffffffffffffffffffffffffffff1673ffffffffffffffffffffffffffffffffffffffff1673ffffffffffffffffffffffffffffffffffffffff1681526020016001820160009054906101000a900473ffffffffffffffffffffffffffffffffffffffff1673ffffffffffffffffffffffffffffffffffffffff1673ffffffffffffffffffffffffffffffffffffffff16815260200160028201548152602001600382015481526020016004820154815260200160058201548152602001600682015481526020016007820154815250509050806000015173ffffffffffffffffffffffffffffffffffffffff163373ffffffffffffffffffffffffffffffffffffffff1614611a6c576040517f08c379a0000000000000000000000000000000000000000000000000000000008152600401611a6390613c3d565b60405180910390fd5b42816080015110611ab2576040517f08c379a0000000000000000000000000000000000000000000000000000000008152600401611aa990613ca9565b60405180910390fd5b60008160c0015103611af9576040517f08c379a0000000000000000000000000000000000000000000000000000000008152600401611af090613d3b565b60405180910390fd5b6000606560009054906101000a900473ffffffffffffffffffffffffffffffffffffffff1673ffffffffffffffffffffffffffffffffffffffff1663891288f36040518163ffffffff1660e01b8152600401602060405180830381865afa158015611b68573d6000803e3d6000fd5b505050506040513d601f19601f82011682018060405250810190611b8c9190613747565b905060008173ffffffffffffffffffffffffffffffffffffffff166368c2fe9984602001518560c001516040518363ffffffff1660e01b8152600401611bd3929190613a50565b608060405180830381865afa158015611bf0573d6000803e3d6000fd5b505050506040513d601f19601f82011682018060405250810190611c149190613d70565b935050505080611c59576040517f08c379a0000000000000000000000000000000000000000000000000000000008152600401611c5090613e23565b60405180910390fd5b428360a001518460800151611c6e9190613968565b11611cae576040517f08c379a0000000000000000000000000000000000000000000000000000000008152600401611ca590613e8f565b60405180910390fd5b6000604051806101000160405280856000015173ffffffffffffffffffffffffffffffffffffffff168152602001856020015173ffffffffffffffffffffffffffffffffffffffff16815260200185604001518152602001856060015181526020018560a001518660800151611d249190613968565b81526020018560a0015181526020018560c0015181526020018560e00151815250905060003073ffffffffffffffffffffffffffffffffffffffff16637217158f836040518263ffffffff1660e01b8152600401611d8291906135b3565b6020604051808303816000875af1158015611da1573d6000803e3d6000fd5b505050506040513d601f19601f82011682018060405250810190611dc591906138ac565b9050606560009054906101000a900473ffffffffffffffffffffffffffffffffffffffff1673ffffffffffffffffffffffffffffffffffffffff1663afc1aaca6040518163ffffffff1660e01b8152600401602060405180830381865afa158015611e34573d6000803e3d6000fd5b505050506040513d601f19601f82011682018060405250810190611e589190613747565b73ffffffffffffffffffffffffffffffffffffffff166323b872dd333088606001516040518463ffffffff1660e01b8152600401611e9893929190613eaf565b6020604051808303816000875af1158015611eb7573d6000803e3d6000fd5b505050506040513d601f19601f82011682018060405250810190611edb91906137d8565b503073ffffffffffffffffffffffffffffffffffffffff166308051199826040518263ffffffff1660e01b8152600401611f159190612fc2565b600060405180830381600087803b158015611f2f57600080fd5b505af1158015611f43573d6000803e3d6000fd5b50505050505050505050565b600081565b606c6020528060005260406000206000915090505481565b60665481565b600080606960008473ffffffffffffffffffffffffffffffffffffffff1673ffffffffffffffffffffffffffffffffffffffff1681526020019081526020016000205490505b60018110612190576000606860008573ffffffffffffffffffffffffffffffffffffffff1673ffffffffffffffffffffffffffffffffffffffff16815260200190815260200160002060006001846120109190613bbd565b8152602001908152602001600020549050600060676000838152602001908152602001600020604051806101000160405290816000820160009054906101000a900473ffffffffffffffffffffffffffffffffffffffff1673ffffffffffffffffffffffffffffffffffffffff1673ffffffffffffffffffffffffffffffffffffffff1681526020016001820160009054906101000a900473ffffffffffffffffffffffffffffffffffffffff1673ffffffffffffffffffffffffffffffffffffffff1673ffffffffffffffffffffffffffffffffffffffff168152602001600282015481526020016003820154815260200160048201548152602001600582015481526020016006820154815260200160078201548152505090508060a0015181608001516121409190613968565b42111561217b5761215d856001856121589190613bbd565b6112c1565b838061216890613ee6565b945050600a841061217a575050612190565b5b5050808061218890613f2e565b915050611fb8565b505050565b61219d612d51565b73ffffffffffffffffffffffffffffffffffffffff166121bb612513565b73ffffffffffffffffffffffffffffffffffffffff1614612211576040517f08c379a000000000000000000000000000000000000000000000000000000000815260040161220890613b31565b60405180910390fd5b61221b6000612d81565b565b60003073ffffffffffffffffffffffffffffffffffffffff163373ffffffffffffffffffffffffffffffffffffffff16146122df57606b60003373ffffffffffffffffffffffffffffffffffffffff1673ffffffffffffffffffffffffffffffffffffffff16815260200190815260200160002060009054906101000a900460ff166122de576040517f08c379a00000000000000000000000000000000000000000000000000000000081526004016122d5906136a6565b60405180910390fd5b5b8160676000606654815260200190815260200160002060008201518160000160006101000a81548173ffffffffffffffffffffffffffffffffffffffff021916908373ffffffffffffffffffffffffffffffffffffffff16021790555060208201518160010160006101000a81548173ffffffffffffffffffffffffffffffffffffffff021916908373ffffffffffffffffffffffffffffffffffffffff16021790555060408201518160020155606082015181600301556080820151816004015560a0820151816005015560c0820151816006015560e08201518160070155905050600060665490506001606660008282546123dc9190613968565b9250508190555080915050919050565b606b6020528060005260406000206000915054906101000a900460ff1681565b8173ffffffffffffffffffffffffffffffffffffffff163373ffffffffffffffffffffffffffffffffffffffff161461247a576040517f08c379a000000000000000000000000000000000000000000000000000000000815260040161247190613fa3565b60405180910390fd5b6001606d60008373ffffffffffffffffffffffffffffffffffffffff1673ffffffffffffffffffffffffffffffffffffffff16815260200190815260200160002060008473ffffffffffffffffffffffffffffffffffffffff1673ffffffffffffffffffffffffffffffffffffffff16815260200190815260200160002060006101000a81548160ff0219169083151502179055505050565b6000603360009054906101000a900473ffffffffffffffffffffffffffffffffffffffff16905090565b600060019054906101000a900460ff166125655760008054906101000a900460ff161561256e565b61256d612e47565b5b6125ad576040517f08c379a00000000000000000000000000000000000000000000000000000000081526004016125a490614035565b60405180910390fd5b60008060019054906101000a900460ff1615905080156125fd576001600060016101000a81548160ff02191690831515021790555060016000806101000a81548160ff0219169083151502179055505b612605612e58565b83606560006101000a81548173ffffffffffffffffffffffffffffffffffffffff021916908373ffffffffffffffffffffffffffffffffffffffff160217905550600160668190555060005b838390508110156126ee576001606b600086868581811061267557612674614055565b5b905060200201602081019061268a91906130e8565b73ffffffffffffffffffffffffffffffffffffffff1673ffffffffffffffffffffffffffffffffffffffff16815260200190815260200160002060006101000a81548160ff02191690831515021790555080806126e690613ee6565b915050612651565b5080156127105760008060016101000a81548160ff0219169083151502179055505b50505050565b61271e612d51565b73ffffffffffffffffffffffffffffffffffffffff1661273c612513565b73ffffffffffffffffffffffffffffffffffffffff1614612792576040517f08c379a000000000000000000000000000000000000000000000000000000000815260040161278990613b31565b60405180910390fd5b6001606b60008373ffffffffffffffffffffffffffffffffffffffff1673ffffffffffffffffffffffffffffffffffffffff16815260200190815260200160002060006101000a81548160ff02191690831515021790555050565b6127f5612d51565b73ffffffffffffffffffffffffffffffffffffffff16612813612513565b73ffffffffffffffffffffffffffffffffffffffff1614612869576040517f08c379a000000000000000000000000000000000000000000000000000000000815260040161286090613b31565b60405180910390fd5b620f424081101561287b57600061287d565b805b606e8190555050565b606a602052816000526040600020602052806000526040600020600091509150505481565b6128b3612d51565b73ffffffffffffffffffffffffffffffffffffffff166128d1612513565b73ffffffffffffffffffffffffffffffffffffffff1614612927576040517f08c379a000000000000000000000000000000000000000000000000000000000815260040161291e90613b31565b60405180910390fd5b80606560006101000a81548173ffffffffffffffffffffffffffffffffffffffff021916908373ffffffffffffffffffffffffffffffffffffffff16021790555050565b612973612f35565b60676000838152602001908152602001600020604051806101000160405290816000820160009054906101000a900473ffffffffffffffffffffffffffffffffffffffff1673ffffffffffffffffffffffffffffffffffffffff1673ffffffffffffffffffffffffffffffffffffffff1681526020016001820160009054906101000a900473ffffffffffffffffffffffffffffffffffffffff1673ffffffffffffffffffffffffffffffffffffffff1673ffffffffffffffffffffffffffffffffffffffff16815260200160028201548152602001600382015481526020016004820154815260200160058201548152602001600682015481526020016007820154815250509050919050565b60696020528060005260406000206000915090505481565b606560009054906101000a900473ffffffffffffffffffffffffffffffffffffffff1681565b6068602052816000526040600020602052806000526040600020600091509150505481565b612aec612d51565b73ffffffffffffffffffffffffffffffffffffffff16612b0a612513565b73ffffffffffffffffffffffffffffffffffffffff1614612b60576040517f08c379a0000000000000000000000000000000000000000000000000000000008152600401612b5790613b31565b60405180910390fd5b600073ffffffffffffffffffffffffffffffffffffffff168173ffffffffffffffffffffffffffffffffffffffff1603612bcf576040517f08c379a0000000000000000000000000000000000000000000000000000000008152600401612bc6906140f6565b60405180910390fd5b612bd881612d81565b50565b60008060676000848152602001908152602001600020604051806101000160405290816000820160009054906101000a900473ffffffffffffffffffffffffffffffffffffffff1673ffffffffffffffffffffffffffffffffffffffff1673ffffffffffffffffffffffffffffffffffffffff1681526020016001820160009054906101000a900473ffffffffffffffffffffffffffffffffffffffff1673ffffffffffffffffffffffffffffffffffffffff1673ffffffffffffffffffffffffffffffffffffffff168152602001600282015481526020016003820154815260200160048201548152602001600582015481526020016006820154815260200160078201548152505090508060a001518160800151612cfb9190613968565b4211915050919050565b6000620151808211612d18576001612d28565b6201518082612d279190613937565b5b9050919050565b6000818385612d3e9190614116565b612d489190613937565b90509392505050565b600033905090565b600081831015612d6c5760009050612d7b565b8183612d789190613bbd565b90505b92915050565b6000603360009054906101000a900473ffffffffffffffffffffffffffffffffffffffff16905081603360006101000a81548173ffffffffffffffffffffffffffffffffffffffff021916908373ffffffffffffffffffffffffffffffffffffffff1602179055508173ffffffffffffffffffffffffffffffffffffffff168173ffffffffffffffffffffffffffffffffffffffff167f8be0079c531659141344cd1fd0a4f28419497f9722a3daafe3b4186f6b6457e060405160405180910390a35050565b6000612e5230612eb1565b15905090565b600060019054906101000a900460ff16612ea7576040517f08c379a0000000000000000000000000000000000000000000000000000000008152600401612e9e906141e2565b60405180910390fd5b612eaf612ed4565b565b6000808273ffffffffffffffffffffffffffffffffffffffff163b119050919050565b600060019054906101000a900460ff16612f23576040517f08c379a0000000000000000000000000000000000000000000000000000000008152600401612f1a906141e2565b60405180910390fd5b612f33612f2e612d51565b612d81565b565b604051806101000160405280600073ffffffffffffffffffffffffffffffffffffffff168152602001600073ffffffffffffffffffffffffffffffffffffffff1681526020016000801916815260200160008152602001600081526020016000815260200160008152602001600081525090565b6000819050919050565b612fbc81612fa9565b82525050565b6000602082019050612fd76000830184612fb3565b92915050565b6000604051905090565b600080fd5b600080fd5b612ffa81612fa9565b811461300557600080fd5b50565b60008135905061301781612ff1565b92915050565b60006020828403121561303357613032612fe7565b5b600061304184828501613008565b91505092915050565b600073ffffffffffffffffffffffffffffffffffffffff82169050919050565b60006130758261304a565b9050919050565b6130858161306a565b811461309057600080fd5b50565b6000813590506130a28161307c565b92915050565b600080604083850312156130bf576130be612fe7565b5b60006130cd85828601613093565b92505060206130de85828601613093565b9150509250929050565b6000602082840312156130fe576130fd612fe7565b5b600061310c84828501613093565b91505092915050565b60008115159050919050565b61312a81613115565b82525050565b60006020820190506131456000830184613121565b92915050565b6000819050919050565b61315e8161314b565b811461316957600080fd5b50565b60008135905061317b81613155565b92915050565b6000806040838503121561319857613197612fe7565b5b60006131a685828601613093565b92505060206131b78582860161316c565b9150509250929050565b600080604083850312156131d8576131d7612fe7565b5b60006131e685828601613093565b92505060206131f785828601613008565b9150509250929050565b61320a8161306a565b82525050565b60006020820190506132256000830184613201565b92915050565b600080fd5b6000601f19601f8301169050919050565b7f4e487b7100000000000000000000000000000000000000000000000000000000600052604160045260246000fd5b61327982613230565b810181811067ffffffffffffffff8211171561329857613297613241565b5b80604052505050565b60006132ab612fdd565b90506132b78282613270565b919050565b600061010082840312156132d3576132d261322b565b5b6132de6101006132a1565b905060006132ee84828501613093565b600083015250602061330284828501613093565b60208301525060406133168482850161316c565b604083015250606061332a84828501613008565b606083015250608061333e84828501613008565b60808301525060a061335284828501613008565b60a08301525060c061336684828501613008565b60c08301525060e061337a84828501613008565b60e08301525092915050565b6000610100828403121561339d5761339c612fe7565b5b60006133ab848285016132bc565b91505092915050565b60006133bf8261306a565b9050919050565b6133cf816133b4565b81146133da57600080fd5b50565b6000813590506133ec816133c6565b92915050565b600080fd5b600080fd5b600080fd5b60008083601f840112613417576134166133f2565b5b8235905067ffffffffffffffff811115613434576134336133f7565b5b6020830191508360208202830111156134505761344f6133fc565b5b9250929050565b6000806000604084860312156134705761346f612fe7565b5b600061347e868287016133dd565b935050602084013567ffffffffffffffff81111561349f5761349e612fec565b5b6134ab86828701613401565b92509250509250925092565b6000602082840312156134cd576134cc612fe7565b5b60006134db848285016133dd565b91505092915050565b6134ed8161306a565b82525050565b6134fc8161314b565b82525050565b61350b81612fa9565b82525050565b6101008201600082015161352860008501826134e4565b50602082015161353b60208501826134e4565b50604082015161354e60408501826134f3565b5060608201516135616060850182613502565b5060808201516135746080850182613502565b5060a082015161358760a0850182613502565b5060c082015161359a60c0850182613502565b5060e08201516135ad60e0850182613502565b50505050565b6000610100820190506135c96000830184613511565b92915050565b6000819050919050565b60006135f46135ef6135ea8461304a565b6135cf565b61304a565b9050919050565b6000613606826135d9565b9050919050565b6000613618826135fb565b9050919050565b6136288161360d565b82525050565b6000602082019050613643600083018461361f565b92915050565b600082825260208201905092915050565b7f4e6f206163636573730000000000000000000000000000000000000000000000600082015250565b6000613690600983613649565b915061369b8261365a565b602082019050919050565b600060208201905081810360008301526136bf81613683565b9050919050565b7f41677265656d656e7420646f6573206e6f742065786973740000000000000000600082015250565b60006136fc601883613649565b9150613707826136c6565b602082019050919050565b6000602082019050818103600083015261372b816136ef565b9050919050565b6000815190506137418161307c565b92915050565b60006020828403121561375d5761375c612fe7565b5b600061376b84828501613732565b91505092915050565b61377d8161314b565b82525050565b60006040820190506137986000830185613774565b6137a56020830184613201565b9392505050565b6137b581613115565b81146137c057600080fd5b50565b6000815190506137d2816137ac565b92915050565b6000602082840312156137ee576137ed612fe7565b5b60006137fc848285016137c3565b91505092915050565b7f496e646578696e672073657276696365206973206e6f7420617661696c61626c60008201527f6500000000000000000000000000000000000000000000000000000000000000602082015250565b6000613861602183613649565b915061386c82613805565b604082019050919050565b6000602082019050818103600083015261389081613854565b9050919050565b6000815190506138a681612ff1565b92915050565b6000602082840312156138c2576138c1612fe7565b5b60006138d084828501613897565b91505092915050565b7f4e487b7100000000000000000000000000000000000000000000000000000000600052601260045260246000fd5b7f4e487b7100000000000000000000000000000000000000000000000000000000600052601160045260246000fd5b600061394282612fa9565b915061394d83612fa9565b92508261395d5761395c6138d9565b5b828204905092915050565b600061397382612fa9565b915061397e83612fa9565b9250827fffffffffffffffffffffffffffffffffffffffffffffffffffffffffffffffff038211156139b3576139b2613908565b5b828201905092915050565b7f496e646578657220726577617264207265616368656420746f20746865206c6960008201527f6d69740000000000000000000000000000000000000000000000000000000000602082015250565b6000613a1a602383613649565b9150613a25826139be565b604082019050919050565b60006020820190508181036000830152613a4981613a0d565b9050919050565b6000604082019050613a656000830185613201565b613a726020830184612fb3565b9392505050565b7f4f6e6c7920636f6e73756d65722063616e2072656d6f76652075736572000000600082015250565b6000613aaf601d83613649565b9150613aba82613a79565b602082019050919050565b60006020820190508181036000830152613ade81613aa2565b9050919050565b7f4f776e61626c653a2063616c6c6572206973206e6f7420746865206f776e6572600082015250565b6000613b1b602083613649565b9150613b2682613ae5565b602082019050919050565b60006020820190508181036000830152613b4a81613b0e565b9050919050565b7f41677265656d656e74206e6f7420636f6d706c65746500000000000000000000600082015250565b6000613b87601683613649565b9150613b9282613b51565b602082019050919050565b60006020820190508181036000830152613bb681613b7a565b9050919050565b6000613bc882612fa9565b9150613bd383612fa9565b925082821015613be657613be5613908565b5b828203905092915050565b7f53656e646572206973206e6f742074686520636f6e73756d6572000000000000600082015250565b6000613c27601a83613649565b9150613c3282613bf1565b602082019050919050565b60006020820190508181036000830152613c5681613c1a565b9050919050565b7f43616e6e6f742072656e6577207570636f6d696e672061677265656d656e7400600082015250565b6000613c93601f83613649565b9150613c9e82613c5d565b602082019050919050565b60006020820190508181036000830152613cc281613c86565b9050919050565b7f41677265656d656e742063616e6e6f742072656e657720776974686f7574207060008201527f6c616e4964000000000000000000000000000000000000000000000000000000602082015250565b6000613d25602583613649565b9150613d3082613cc9565b604082019050919050565b60006020820190508181036000830152613d5481613d18565b9050919050565b600081519050613d6a81613155565b92915050565b60008060008060808587031215613d8a57613d89612fe7565b5b6000613d9887828801613897565b9450506020613da987828801613897565b9350506040613dba87828801613d5b565b9250506060613dcb878288016137c3565b91505092959194509250565b7f506c616e20697320696e61637469766500000000000000000000000000000000600082015250565b6000613e0d601083613649565b9150613e1882613dd7565b602082019050919050565b60006020820190508181036000830152613e3c81613e00565b9050919050565b7f41677265656d656e7420656e6465640000000000000000000000000000000000600082015250565b6000613e79600f83613649565b9150613e8482613e43565b602082019050919050565b60006020820190508181036000830152613ea881613e6c565b9050919050565b6000606082019050613ec46000830186613201565b613ed16020830185613201565b613ede6040830184612fb3565b949350505050565b6000613ef182612fa9565b91507fffffffffffffffffffffffffffffffffffffffffffffffffffffffffffffffff8203613f2357613f22613908565b5b600182019050919050565b6000613f3982612fa9565b915060008203613f4c57613f4b613908565b5b600182039050919050565b7f4f6e6c7920636f6e73756d65722063616e206164642075736572000000000000600082015250565b6000613f8d601a83613649565b9150613f9882613f57565b602082019050919050565b60006020820190508181036000830152613fbc81613f80565b9050919050565b7f496e697469616c697a61626c653a20636f6e747261637420697320616c72656160008201527f647920696e697469616c697a6564000000000000000000000000000000000000602082015250565b600061401f602e83613649565b915061402a82613fc3565b604082019050919050565b6000602082019050818103600083015261404e81614012565b9050919050565b7f4e487b7100000000000000000000000000000000000000000000000000000000600052603260045260246000fd5b7f4f776e61626c653a206e6577206f776e657220697320746865207a65726f206160008201527f6464726573730000000000000000000000000000000000000000000000000000602082015250565b60006140e0602683613649565b91506140eb82614084565b604082019050919050565b6000602082019050818103600083015261410f816140d3565b9050919050565b600061412182612fa9565b915061412c83612fa9565b9250817fffffffffffffffffffffffffffffffffffffffffffffffffffffffffffffffff048311821515161561416557614164613908565b5b828202905092915050565b7f496e697469616c697a61626c653a20636f6e7472616374206973206e6f74206960008201527f6e697469616c697a696e67000000000000000000000000000000000000000000602082015250565b60006141cc602b83613649565b91506141d782614170565b604082019050919050565b600060208201905081810360008301526141fb816141bf565b905091905056fea2646970667358221220ff0b3a7a90ef7272eb337fdd0913aa3b0578c7ec0c17f67c58bb3977ff3dca0e64736f6c634300080f0033",
  "linkReferences": {},
  "deployedLinkReferences": {}
}